:1000000029C100000C94B5470C94E6470C9417489E
:100010000C9448480C9479480C94AA480C94DB48FA
:100020000C940C4944C1000042C1000040C10000D2
:100030003EC100003CC100003AC1000038C10000D0
:1000400036C1000034C1000032C1000030C10000E0
:100050002EC100002CC100002AC100000C943D49B3
:1000600026C100000C94624322C100000C94E644B7
:100070001EC100001CC100001AC1000018C1000010
:1000800016C1000014C1000012C1000010C1000020
:100090000C9438430CC100000C94BC440C943240C6
:1000A00006C1000004C1000002C1000000C1000040
:1000B000FEC00000FCC00000FAC00000F8C0000054
:1000C000F6C00000F4C00000F2C000000C940E4323
:1000D000EEC000000C9492440C94E442E8C000008E
:1000E0000C94684406225822C42227238923E4233F
:1000F0005224AD241B257625E4253F26AD26FF2678
:100100006527B72726282F28BD2BB932C02B112CE5
:100110008B2CF92C562DBE2D272E912EFA2E632FC7
:10012000CC2F35309F3008317131DA314332000045
:100130002100240027002A002D0030003300010197
:100140000000040107010A01000022002500280028
:100150002B002E00310034000201000005010801CF
:100160000B01000020002300260029002C002F0096
:100170003200000100000301060109010505050523
:10018000070508080808020202020A0A080804040F
:10019000040401010101010101010303030303033D
:1001A0000303040707070C0C0C0C0C0C0C0C0202CC
:1001B000020206060606060606060B0B0B0B0B0BC9
:1001C0000B0B010210202008081020401020408056
:1001D000020102010804020101020408102040800B
:1001E0008040201008040201800402018040201099
:1001F00008040201080402010102040810204080E2
:1002000001020408102040800000090A02080B0CBB
:100210000D070603040100000000000000000000BC
:1002200000000000000000000000000000000000CE
:100230000000000011100F0000000000000000008E
:100240000000000000000000000000000000480363
:10025000A13F104511241FBECFEFD1E2DEBFCDBFBD
:1002600000E00CBF17E0A0E0B2E0EEEDFBE900E03B
:100270000BBF02C007900D92A431B107D9F71BBE86
:100280001DE0A4E1B7E001C01D92AF31B107E1F775
:1002900012E0C4E5D2E004C02297FE010E94E94DBD
:1002A000CE34D107C9F70E943D4C0C94ED4DA8CE39
:1002B000DC0101C06D9341505040E0F70895A091DA
:1002C000F60CB091F70CED91FD918081ED91FD91CF
:1002D0009081ED91FD916C9163708E2309F06460C3
:1002E0009F2309F06860EFE7F1E0E60FF11D6595E7
:1002F00065956D936D917D918D919D91099423C02C
:100300001AC012C016C010C01EC009C014C013C04D
:1003100006C019C009C00DC007C00DC014C062508E
:100320007040804090400BC06150704080409040D1
:1003300006C06E5F01C06F5F7F4F8F4F9F4F9E93D0
:100340008E937E936E930895A091F80CB091F90C62
:10035000ED91FD918081ED91FD919081ED91FD9167
:100360006C9163708E2309F064609F2309F06860CC
:10037000E4ECF1E0E60FF11D659565956D936D91E7
:100380007D918D919D91099423C01AC012C016C011
:1003900010C01EC009C014C013C006C019C009C0D7
:1003A0000DC007C00DC014C0625070408040904026
:1003B0000BC0615070408040904006C06E5F01C02D
:1003C0006F5F7F4F8F4F9F4F9E938E937E936E9361
:1003D0000895A091FA0CB091FB0CED91FD918081F4
:1003E000ED91FD919081ED91FD916C9163708E2363
:1003F00009F064609F2309F06860E9E0F2E0E60F2D
:10040000F11D659565956D936D917D918D919D9192
:10041000099423C01AC012C016C010C01EC009C063
:1004200014C013C006C019C009C00DC007C00DC05C
:1004300014C062507040804090400BC061507040CA
:100440008040904006C06E5F01C06F5F7F4F8F4F4E
:100450009F4F9E938E937E936E930895A091FC0C74
:10046000B091FD0CED91FD918081ED91FD91908118
:10047000ED91FD916C9163708E2309F064609F2370
:1004800009F06860EEE4F2E0E60FF11D6595659510
:100490006D936D917D918D919D91099423C01AC0AA
:1004A00012C016C010C01EC009C014C013C006C0C0
:1004B00019C009C00DC007C00DC014C06250704003
:1004C000804090400BC0615070408040904006C01A
:1004D0006E5F01C06F5F7F4F8F4F9F4F9E938E93D4
:1004E0007E936E930895A091FE0CB091FF0CED9158
:1004F000FD918081ED91FD919081ED91FD916C9147
:1005000063708E2309F064609F2309F06860E3E95B
:10051000F2E0E60FF11D659565956D936D917D9106
:100520008D919D91099423C01AC012C016C010C0AD
:100530001EC009C014C013C006C019C009C00DC038
:1005400007C00DC014C062507040804090400BC086
:10055000615070408040904006C06E5F01C06F5F88
:100560007F4F8F4F9F4F9E938E937E936E930895F0
:10057000A091000DB091010DED91FD918081ED9163
:10058000FD919081ED91FD916C9163708E2309F046
:1005900064609F2309F06860E8EDF2E0E60FF11D6A
:1005A000659565956D936D917D918D919D91099462
:1005B00023C01AC012C016C010C01EC009C014C08B
:1005C00013C006C019C009C00DC007C00DC014C0BB
:1005D00062507040804090400BC06150704080403D
:1005E000904006C06E5F01C06F5F7F4F8F4F9F4F7F
:1005F0009E938E937E936E9308958231E1F18331C1
:1006000028F4823059F0833039F410C08431F1F08D
:10061000843120F1853191F080E008957093F70CDA
:100620006093F60C80E06FE571E01FC07093F90CE9
:100630006093F80C81E064EA71E017C07093FB0CE2
:100640006093FA0C82E069EE71E00FC07093FD0CCC
:100650006093FC0C83E06EE272E007C07093FF0CC5
:100660006093FE0C84E063E772E041E050E00E949A
:10067000394781E008957093010D6093000D85E086
:1006800068EB72E041E050E00E94394781E0089554
:10069000CF92EF920F931F931091870600918806D7
:1006A000812F62E00E94284B802F62E00E94284B3D
:1006B000212F30E0F901E458FE4FE491F0E0EE0F15
:1006C000FF1FEE59FE4F8591949190931E0B8093DE
:1006D0001D0B2E533E4FF90184918093210B202F47
:1006E00030E0F901E458FE4FE491F0E0EE0FFF1F17
:1006F000EE59FE4F859194919093200B80931F0BA0
:100700002E533E4FF90184918093220B1092240BBB
:100710001092250B1092260B1092270B80ED97E07C
:100720000E94DE49E0911D0BF0911E0B208140E0FC
:1007300030E08091210B90E028233923232B09F00E
:1007400041E0E0911F0BF091200B208130E080917F
:10075000220B90E028233923232B09F04260409399
:10076000230B812F6DE17BE048DF182F8093280B4E
:10077000802F6DE17BE041DF180F1093280B89E794
:100780009BE060919306409194062091950600911C
:100790009606E0909706C09098060E94353F1F91FC
:1007A0000F91EF90CF9008951F9380918B0661E099
:1007B0000E94DB4B80918C0661E00E94DB4B8091B4
:1007C0008D0661E00E94DB4B80918E0661E00E9405
:1007D000DB4B809186060E940D4C892B41F46CE224
:1007E00071E080E090E00E94854910E1A4C0809112
:1007F0008B0660E00E94DB4B80918F060E940D4CBF
:10080000892B09F497C0809190060E940D4C892B8A
:1008100011F412E090C0809191060E940D4C892B3A
:1008200011F413E088C0809192060E940D4C892B30
:1008300011F41AE080C080918B0661E00E94DB4BCE
:1008400080918C0660E00E94DB4B80918F060E94B5
:100850000D4C892B11F414E06EC0809190060E941B
:100860000D4C892B11F415E066C0809191060E9411
:100870000D4C892B11F416E05EC0809192060E9407
:100880000D4C892B11F41BE056C080918C0661E061
:100890000E94DB4B80918D0660E00E94DB4B8091D3
:1008A0008F060E940D4C892B11F417E044C08091F3
:1008B00090060E940D4C892B11F418E03CC08091E9
:1008C00091060E940D4C892B11F419E034C08091DF
:1008D00092060E940D4C892B11F41CE02CC08091D3
:1008E0008D0661E00E94DB4B80918E0660E00E94E5
:1008F000DB4B80918F060E940D4C892B11F41FE079
:100900001AC0809190060E940D4C892B11F410E0C2
:1009100012C0809191060E940D4C892B11F41EE0AB
:100920000AC0809192060E940D4C892B09F04CCF91
:100930001DE001C011E080918B0661E00E94DB4B5D
:1009400080918C0661E00E94DB4B80918D0661E016
:100950000E94DB4B80918E0661E00E94DB4B812F71
:1009600090E01F91089589E79BE067E043E00E94D3
:100970001E3D89E79BE00E94083D80E090E0E09109
:10098000580CF091590CE80FF91F1082019622E0E3
:1009900080309207A1F7809186060E940D4C019746
:1009A000D1F36CE271E080E090E00E948549A6E11D
:1009B000B7E020E030E0E091580CF091590CE20FE4
:1009C000F31F8C9180832F5F3F4F129682E020307F
:1009D000380789F789E79BE067E042E00E941E3D07
:1009E00089E79BE00C94103D4F925F926F927F924B
:1009F0008F929F92AF92BF92CF92DF92EF92FF922F
:100A00000F931F93CF93DF932C01EB01742EA22E33
:100A1000602E470189E79BE00E94083D21E0021714
:100A200079F4CA30D105CCF0C436D10594F083E016
:100A3000C83ED8070CF08AC473E0E72EF12C10C032
:100A400022E0021719F0EE24FF240AC0C031D105BC
:100A500024F062E0E62EF12C03C051E0E52EF12CEB
:100A600089E79BE0672D4A2D0E941E3D81E0E81634
:100A7000F10451F489E79BE060E072E00E94624D6E
:100A800089E79BE0672D28C022E0E216F10449F4D3
:100A900089E79BE062E072E00E94624D672D6F5F24
:100AA00019C083E0E816F10449F489E79BE065E0AA
:100AB00072E00E94624D672D6E5F0CC024E0E2166A
:100AC000F10469F489E79BE069E072E00E94624DFD
:100AD000672D6D5F89E79BE04A2D0E941E3D64DE15
:100AE000B82E8DE0B81631F489E79BE00E94103DE6
:100AF00021962AC42AE0B21609F4A3C18BE0B816E5
:100B000011F4E2019EC12CE0B21631F489E79BE0BA
:100B10000E94103D229618C481E0681649F420E135
:100B2000B21609F4FEC18B2D8A508630C0F207C080
:100B300082E0681621F420E1B21609F4F2C189E7D7
:100B40009BE0672D4A2D0E941E3D81E0681651F5FD
:100B500021E0E216F10431F489E79BE06B2D4AE0D5
:100B600050E02CC082E0E816F10419F4172D1F5F45
:100B70000DC023E0E216F10419F4172D1E5F06C024
:100B800084E0E816F104D1F5172D1D5F89E79BE09D
:100B9000612F4A2D0E941E3D89E79BE06B2D4AE0A4
:100BA00050E024C022E0621649F581E0E816F10425
:100BB00061F489E79BE06B2D40E150E00E94014D1C
:100BC000DD24CC2400E010E02BC222E0E216F10488
:100BD000A9F4172D1F5F89E79BE0612F4A2D0E9422
:100BE0001E3D89E79BE06B2D40E150E00E94014DE6
:100BF00089E79BE0612F4A2D0E941E3D6CE271E067
:100C000080E090E00E948549CFDD182F81E06816D2
:100C100061F4103189F01E3079F0812F8A508630CE
:100C200068F31F3009F096C37CC122E0621609F018
:100C300074C0103109F05BC089E79BE0672D4A2D35
:100C40000E941E3D89E79BE06EE072E00E94624DCB
:100C5000DD24CC2400E011E0E3C189E79BE06B2DAB
:100C60004AE050E00E94014D89E79BE0612F4AE095
:100C700050E04FC083E0E816F104C1F4672D6F5FC8
:100C800089E79BE04A2D0E941E3D89E79BE06B2D82
:100C90004AE050E00E94014D89E79BE0612F4AE065
:100CA00050E00E94014D672D6E5F1BC024E0E216EC
:100CB000F10499F5672D6E5F89E79BE04A2D0E944C
:100CC0001E3D89E79BE06B2D4AE050E00E94014DFC
:100CD00089E79BE0612F4AE050E00E94014D672DBB
:100CE0006D5F89E79BE04A2D0E941E3D16C089E793
:100CF0009BE0672D4A2D0E941E3D89E79BE06B2DEE
:100D000040E150E00E94014D89E79BE0612F40E106
:100D100050E00E94014DD12E54CF6CE271E080E092
:100D200090E00E94854940DDC82E80E1C81609F494
:100D300073C18C2D8A50863080F32FE0C21609F4DF
:100D4000F0C089E79BE0672D4A2D0E941E3D83E09D
:100D5000E816F104B9F489E79BE06B2D4AE050E016
:100D60000E94014D89E79BE0612F4AE050E00E941C
:100D7000014D89E79BE06C2D4AE050E00E94014D57
:100D8000D12E20CF24E0E216F10419F5672D6F5F14
:100D900089E79BE04A2D0E941E3D89E79BE06B2D71
:100DA0004AE050E00E94014D89E79BE0612F4AE054
:100DB00050E00E94014D89E79BE06C2D4AE050E035
:100DC0000E94014D672D6D5F89E79BE04A2D0E94CF
:100DD0001E3D6CE271E080E090E00E948549E4DC19
:100DE000082F803121F4D12E00E013E019C18A5080
:100DF000863078F30F3009F494C089E79BE0672DC3
:100E00004A2D0E941E3D89E79BE06B2D4AE050E091
:100E10000E94014D89E79BE0612F4AE050E00E946B
:100E2000014D89E79BE06C2D4AE050E00E94014DA6
:100E300089E79BE0602F4AE050E00E94014DD12EEF
:100E4000C2CE89E79BE00E94103D89E79BE0672DB9
:100E50004A2D0E941E3D82E0E816F104E9F421E0EB
:100E6000621659F4CA30D1050CF064C289E79BE0E0
:100E70006EE072E00E94624D5DC282E0681609F089
:100E800042C0C031D1050CF046C089E79BE06EE05E
:100E900072E00E94624D3FC023E0E216F10479F453
:100EA000CA30D10534F489E79BE060E172E00E942A
:100EB000624DCE010A978A35910528F51EC084E05F
:100EC000E816F10401F5CA30D10534F489E79BE056
:100ED00063E172E00E94624DCE010A978A35910566
:100EE00030F489E79BE060E172E00E94624DCE0140
:100EF000845690408458934030F489E79BE06EE03C
:100F000072E00E94624D81E0681609F413C222E08B
:100F1000621609F019C289E79BE0BE0140E150E08A
:100F20000EC289E79BE00E94103D89E79BE0672D98
:100F30004A2D0E941E3D82E0E816F104F9F421E0FA
:100F4000621661F48AE0881691040CF053C089E7B8
:100F50009BE06EE072E00E94624D4CC022E062169F
:100F600009F045C080E1881691040CF04CC089E777
:100F70009BE06EE072E00E94624D45C023E0E21605
:100F8000F10481F48AE08816910434F489E79BE047
:100F900060E172E00E94624DC4010A978A359105B2
:100FA00030F51FC024E0E216F10409F58AE0881646
:100FB000910434F489E79BE063E172E00E94624DA2
:100FC000C4010A978A35910530F489E79BE060E116
:100FD00072E00E94624DC401845690408458934050
:100FE00030F489E79BE06EE072E00E94624D81E0A0
:100FF000681631F489E79BE0B4014AE050E008C08C
:1010000022E0621639F489E79BE0B40140E150E048
:101010000E94504DE40198C1D12ECC2400E012E092
:1010200089E79BE00E94103D81E0E816F104E9F5B4
:1010300089E79BE0672D4A2D0E941E3D8B2D90E095
:10104000C817D90714F0EB2C14C0EC2E21E062165F
:1010500031F489E79BE0BE014AE050E008C082E03D
:10106000681639F489E79BE0BE0140E150E00E9438
:10107000504D8E2D90E084159505A4F4E42C21E0CC
:10108000621631F489E79BE0B2014AE050E008C003
:1010900082E0681639F489E79BE0B20140E150E054
:1010A0000E94504DCE2DD0E04FC122E0E216F10457
:1010B00009F05FC081E0681631F020E030E082E0A6
:1010C0006816B1F40AC0112329F48AE0B89E900191
:1010D00011240CC02B2D30E00BC02B2D30E0112340
:1010E00039F444E0220F331F4A95E1F72D0D311DED
:1010F000B901C217D3070CF4BE017B016415750555
:101100000CF4720189E79BE0672D4A2D0E941E3D79
:101110002AE0E216F10474F489E79BE06EE072E0E5
:101120000E94624D81E0681641F022E0621609F0EB
:101130000AC117C081E0681631F489E79BE0B70166
:101140004AE050E013C022E0621609F0FCC080E1E2
:10115000E816F10434F489E79BE06EE072E00E9447
:10116000624D89E79BE0B70140E150E00E94504D9D
:10117000EAC023E0E216F10409F056C0113019F478
:101180002B2D30E01AC0123039F48AE0B89E90015D
:1011900011242D0D311D11C0112319F020E030E074
:1011A0000CC084E6B89E900111242C0D311D8AE0FC
:1011B000D89EC0011124280F391FB901C217D307C7
:1011C0000CF4BE01EB01641575050CF4E20189E72E
:1011D0009BE0672D4A2D0E941E3DCA30D1056CF45C
:1011E00089E79BE060E172E00E94624D89E79BE045
:1011F000BE014AE050E00E94504DCE010A978A3568
:10120000910568F489E79BE06EE072E00E94624D10
:1012100089E79BE0BE014AE050E00E94504DC43691
:10122000D1050CF491C086C084E0E816F10409F001
:1012300089C0113019F46B2D70E034C0123039F4CC
:101240008AE0B89EB00111246D0D711D2BC01330C2
:1012500059F484E6B89EB00111246C0D711D8AE02A
:10126000D89EC00111241CC0112319F060E070E069
:1012700019C02B2D30E088EE93E0289FB001299F04
:10128000700D389F700D1124600F711D84E6D89E7B
:10129000C0011124680F791F8AE0C89EC001112483
:1012A000680F791FC617D7070CF4BE01EB01641550
:1012B00075050CF4E20189E79BE0672D4A2D0E9439
:1012C0001E3DCA30D1056CF489E79BE063E172E012
:1012D0000E94624D89E79BE0BE014AE050E00E9417
:1012E000504DCE010A978A35910568F489E79BE055
:1012F00060E172E00E94624D89E79BE0BE014AE036
:1013000050E00E94504DCE01845690408458934046
:1013100068F489E79BE06EE072E00E94624D89E725
:101320009BE0BE014AE050E00E94504D83E0C83E81
:10133000D80754F089E79BE0BE014AE050E00E94E4
:10134000504D02C013C0E701CE0110C024E0E22ED0
:10135000F12C86CB89E79BE0672D4A2D0E941E3D2C
:1013600022E0E216F10409F085CC77CCDF91CF9131
:101370001F910F91FF90EF90DF90CF90BF90AF90B3
:101380009F908F907F906F905F904F900895CF9235
:10139000DF92FF920F931F93CF93DF93182FF62EB8
:1013A000EA01690189E79BE00E94103D89E79BE023
:1013B000612F4F2D0E941E3D013009F086C02AE0AA
:1013C000C216D1040CF47BC0C6010A978A35910578
:1013D00068F4CA30D1050CF072C089E79BE060E088
:1013E00070E04AE050E00E94504D69C0C60184564A
:1013F00090408458934038F5CA30D1056CF489E7A1
:101400009BE060E172E00E94624D89E79BE0BE01D3
:101410004AE050E00E94504DCE010A978A3591056E
:1014200068F489E79BE06EE072E00E94624D89E714
:101430009BE0BE014AE050E00E94504DC436D10509
:101440000CF455C03CC088EEC81683E0D8060CF4F6
:101450004EC0CA30D1056CF489E79BE063E172E0CD
:101460000E94624D89E79BE0BE014AE050E00E9485
:10147000504DCE010A978A35910568F489E79BE0C3
:1014800060E172E00E94624D89E79BE0BE014AE0A4
:1014900050E00E94504DC436D1054CF189E79BE0E5
:1014A0006EE072E00E94624D89E79BE0BE014AE077
:1014B00050E00E94504D23E0C83ED207C4F089E7B7
:1014C0009BE0BE014AE050E010C0023081F4C03120
:1014D000D10534F489E79BE06EE072E00E94624D32
:1014E00089E79BE0BE0140E150E00E94504DDF9152
:1014F000CF911F910F91FF90DF90CF9008950F93A0
:101500001F93CF93DF93082F162FEA0189E79BE003
:1015100061E040E00E941E3D043019F4112309F5FA
:1015200004C0083079F4112311F589E79BE061E0EC
:1015300040E00E941E3D89E79BE067E172E00E9467
:10154000624D67C00C3019F41123B9F45BC000314F
:1015500019F41123C1F455C0002339F41130C9F432
:1015600051C01130E1F421964DC0083021F4113002
:10157000D1F4229647C00C3021F41130E1F42396C7
:1015800041C0003121F41130E1F424963BC0002326
:1015900021F41230D1F4259635C0043021F41230F4
:1015A000E1F426962FC0083021F41230E1F427969A
:1015B00029C00C3021F41230E1F4289623C0003108
:1015C00021F41230D1F429961DC0002321F41330E8
:1015D00001F52A9617C0043021F41330D1F42B966C
:1015E00011C0083021F41330A1F42C960BC00C303C
:1015F00021F4133071F42D9605C0003151F41330ED
:1016000041F42E9681E060E0AE0120E032E001E09E
:10161000BEDEDF91CF911F910F9108950F931F931D
:10162000CF93DF93EC01162F042F89E79BE00E94F4
:101630001E3D89E79BE063E172E00E94624DCA3083
:10164000D1053CF4612F6E5F89E79BE0402F0E943B
:101650001E3DCE010A978A35910538F4612F6F5FE0
:1016600089E79BE0402F0E941E3DC436D10534F02F
:1016700089E79BE0612F402F0E941E3D89E79BE098
:10168000BE014AE050E00E94504DDF91CF911F9182
:101690000F910895EF92FF920F931F93082F162F2B
:1016A000F42E80918D0660E00E94DB4B6CE271E0CD
:1016B00080E090E00E948549EE24EA9480919206B1
:1016C0000E940D4C019709F03EC0809186060E9451
:1016D0000D4C0197C1F580911A0B90911B0B01974E
:1016E000E091580CF091590CE80FF91FE0828FEF50
:1016F00090E0602F70E0412F50E090DF64E670E0F2
:1017000080E090E00E94854980911A0B90911B0B1C
:101710000197E091580CF091590CE80FF91F1082D5
:1017200089E79BE0602F412F0E941E3D89E79BE0E7
:101730006BE172E00E94624D64E670E080E090E050
:101740000E948549BBCF6CE271E080E090E00E948E
:10175000854989E79BE00E94103D80918D0661E0FC
:101760000E94DB4B80911A0B90911B0B0197E0912B
:10177000580CF091590CE80FF91FF082802F612F5F
:101780004F2D50E02FEF30E001E001DE1F910F916F
:10179000FF90EF900895EF92FF920F931F938C01AB
:1017A00024E1E22E27E0F22EFC01EE0FFF1FEE0DEA
:1017B000FF1D8081918161E070E041E050E02EDF0B
:1017C000F8013196EE0FFF1FEE0DFF1D8081918114
:1017D00065E070E041E050E021DFF8013296EE0F65
:1017E000FF1FEE0DFF1D8081918169E070E041E0F7
:1017F00050E014DFF8013396EE0FFF1FEE0DFF1DD2
:10180000808191816DE070E041E050E007DFF801F8
:101810003496EE0FFF1FEE0DFF1D8081918161E177
:1018200070E041E050E0FADEF8013596EE0FFF1F60
:10183000EE0DFF1D8081918161E070E042E050E09B
:10184000EDDEF8013696EE0FFF1FEE0DFF1D8081D5
:10185000918165E070E042E050E0E0DEF80137960B
:10186000EE0FFF1FEE0DFF1D8081918169E070E09A
:1018700042E050E0D3DEF8013896EE0FFF1FEE0D88
:10188000FF1D808191816DE070E042E050E0C6DE96
:10189000F8013996EE0FFF1FEE0DFF1D808191813B
:1018A00061E170E042E050E0B9DEF8013A96EE0FF7
:1018B000FF1FEE0DFF1D8081918161E070E043E02C
:1018C00050E0ACDEF8013B96EE0FFF1FEE0DFF1D62
:1018D0008081918165E070E043E050E09FDEF80197
:1018E0003C96EE0FFF1FEE0DFF1D8081918169E098
:1018F00070E043E050E092DE035F1F4FF801EE0F0F
:10190000FF1FEE0DFF1D808191816DE070E043E0CF
:1019100050E084DE0F5F1F4F000F111FE00EF11E1D
:10192000F7018081918161E170E043E050E076DE73
:101930001F910F91FF90EF9008952F923F925F9229
:101940006F927F928F929F92AF92BF92CF92DF92CF
:10195000EF92FF920F931F93CF93DF931C01EB0144
:10196000742E622E502E560167018091280B823012
:1019700008F044C0F894ADE1BBE0ED91FD918081A9
:10198000ED91FD919081ED91FD916C9163708E23AD
:1019900009F064609F2309F06860E9EDFCE0E60F60
:1019A000F11D659565956D936D917D918D919D91DD
:1019B000099423C01AC012C016C010C01EC009C0AE
:1019C00014C013C006C019C009C00DC007C00DC0A7
:1019D00014C062507040804090400BC06150704015
:1019E0008040904006C06E5F01C06F5F7F4F8F4F99
:1019F0009F4F9E938E937E936E9301C0F89478943C
:101A00006091240B7091250B8091260B9091270BF0
:101A100024E030E040E050E00E94B84D79018A01B6
:101A2000450189E79BE0672D462D0E941E3D89E711
:101A30009BE00E94083D89E79BE0672D462D0E94B0
:101A40001E3D89E79BE0B601A5012AE030E00E9437
:101A5000124D89E79BE0672D462D0E941E3D3DE11A
:101A6000C32E3BE0D32E8091280B823008F043C078
:101A7000F894D601ED91FD918081ED91FD919081D9
:101A8000ED91FD916C9163708E2309F064609F234A
:101A900009F06860E6E5FDE0E60FF11D65956595E6
:101AA0006D936D917D918D919D91099423C01AC084
:101AB00012C016C010C01EC009C014C013C006C09A
:101AC00019C009C00DC007C00DC014C062507040DD
:101AD000804090400BC0615070408040904006C0F4
:101AE0006E5F01C06F5F7F4F8F4F9F4F9E938E93AE
:101AF0007E936E9301C0F89478946091240B70915A
:101B0000250B8091260B9091270B24E030E040E0DC
:101B100050E00E94B84DC901DA01E816F9060A073B
:101B20001B074CF474010894E11CF11CCE15DF0571
:101B300014F5710120C08E159F05A007B1074CF464
:101B400074010894E108F108E214F304A4F47E019E
:101B500012C0809186060E940D4C892B09F083CF1C
:101B60006CE271E080E090E00E9485497E0108947B
:101B7000E11CF11C53C0B1E05B1671F4CA30D10511
:101B80000CF45FC0C436D10584F0C85ED3400CF0BD
:101B90005BC0C3E0D0E00BC0A2E05A1619F0C0E071
:101BA000D0E005C060970CF44CC0C2E0D0E089E7FB
:101BB0009BE0672D462D0E941E3DC230D10529F4C1
:101BC00089E79BE06FE172E00EC0C330D10529F4D4
:101BD00089E79BE06BE172E006C0249731F489E766
:101BE0009BE062E272E00E94624D89E79BE0672D14
:101BF000462D0E941E3DB1E05B1631F489E79BE063
:101C0000B7014AE050E008C082E0581639F489E78D
:101C10009BE0B70140E150E00E94504DC701DF91C9
:101C2000CF911F910F91FF90EF90DF90CF90BF90D9
:101C3000AF909F908F907F906F905F903F902F908C
:101C40000895C1E0D0E0B3CFC4E0D0E0B0CF89E7E1
:101C50009BE00E94753DA6E1B7E080E090E01D9218
:101C60001D92E091580CF091590CE80FF91F108269
:101C7000019622E08030920791F789E79BE00E946D
:101C8000753D89E79BE063E041E00E941E3D89E7E6
:101C90009BE067E272E00E94624D89E79BE063E0AF
:101CA00042E00E941E3D89E79BE067E372E00E94EC
:101CB000624D89E79BE063E143E00E941E3D89E7B6
:101CC0009BE00E94083D68EE73E080E090E00E9497
:101CD000854989E79BE00C94103D89E79BE00E94D1
:101CE000753D89E79BE00E94083D89E79BE066E03F
:101CF00040E00E941E3D89E79BE061E472E00E94A3
:101D0000624D89E79BE063E041E00E941E3D89E768
:101D10009BE06BE472E00E94624D89E79BE064E027
:101D200042E00E941E3D89E79BE06BE572E00E9465
:101D3000624D89E79BE060E043E00E941E3D89E739
:101D40009BE069E672E00E94624D89E79BE063E1F7
:101D500040E00E941E3D809186060E940D4C019736
:101D6000D1F389E79BE00E94753D89E79BE00E94E3
:101D7000103D89E79BE060E040E00E941E3D89E75E
:101D80009BE06EE772E00E94624D89E79BE060E0B5
:101D900041E00E941E3D89E79BE06FE872E00E94EF
:101DA000624D89E79BE060E042E00E941E3D89E7CA
:101DB0009BE062EA72E00E94624D89E79BE060E08E
:101DC00043E00E941E3D89E79BE067EB72E00E94C2
:101DD000624D60EA7FE080E090E00E94854989E7FB
:101DE0009BE00E94753D89E79BE060E040E00E9437
:101DF0001E3D89E79BE063EC72E00E94624D89E73B
:101E00009BE060E041E00E941E3D89E79BE068EDB9
:101E100072E00E94624D89E79BE060E042E00E9430
:101E20001E3D89E79BE069EE72E00E94624D89E702
:101E30009BE060E043E00E941E3D89E79BE06DEF80
:101E400072E00E94624D60EA7FE080E090E00E94D4
:101E5000854989E79BE00E94753D89E79BE060E04A
:101E600040E00E941E3D89E79BE060E173E00E9434
:101E7000624D89E79BE060E041E00E941E3D89E7FA
:101E80009BE06EE173E00E94624D89E79BE060E0B9
:101E900042E00E941E3D89E79BE062E373E00E94FE
:101EA000624D89E79BE060E043E00E941E3D89E7C8
:101EB0009BE064E473E00E94624D60EA7FE080E0B2
:101EC00090E00E94854989E79BE00E94753D89E783
:101ED0009BE060E040E00E941E3D89E79BE069E5F1
:101EE00073E00E94624D89E79BE060E041E00E9460
:101EF0001E3D89E79BE064E673E00E94624D89E73E
:101F00009BE060E042E00E941E3D89E79BE064E7C1
:101F100073E00E94624D89E79BE060E043E00E942D
:101F20001E3D89E79BE062E873E00E94624D60EA33
:101F30007FE080E090E00E94854989E79BE00E9475
:101F4000753D89E79BE060E040E00E941E3D89E727
:101F50009BE06DE873E00E94624D89E79BE060E0E2
:101F600041E00E941E3D89E79BE061EA73E00E9428
:101F7000624D89E79BE060E042E00E941E3D89E7F8
:101F80009BE060EB73E00E94624D60EA7FE080E0DE
:101F900090E00C948549EF92FF920F931F93CF939B
:101FA000DF938091920B882391F58091930B882386
:101FB00089F4C0E0D0E08091C406BE010E944A4A84
:101FC00061E070E080E090E00E9485492196C03891
:101FD000D10589F78091930B8823A9F0C0E0D0E068
:101FE0000CC08091C406BE010E944A4A61E070E0C4
:101FF00080E090E00E94854921968091930B90E0CB
:102000008C179D0774F781E08093920B26C0813076
:1020100021F58091930BC0E0D0E0082F10E078010B
:102020000894E11CF11C0AC08091C4060E944A4A2F
:1020300061E070E080E090E00E948549B8016C1B8F
:102040007D0B2196CE15DF0579F78091C40660E0FF
:1020500070E00E944A4A1092920B6CE271E080E0BC
:1020600090E00E948549DF91CF911F910F91FF90E1
:10207000EF900895EF92FF920F931F93CF93DF930A
:102080008091910B882309F063C08091950B882380
:1020900089F4C0E0D0E080919906BE010E944A4ACE
:1020A00061E070E080E090E00E9485492196C038B0
:1020B000D10589F78091940B882391F4C0E0D0E09A
:1020C0008091C3066FE770E00E944A4A61E070E0C9
:1020D00080E090E00E9485492196C038D10581F7C3
:1020E0008091950B8823A9F0C0E0D0E00CC08091CE
:1020F0009906BE010E944A4A61E070E080E090E0EB
:102100000E94854921968091950B90E08C179D0740
:1021100074F78091940B8823B9F0C0E0D0E00EC032
:102120006091940B8091C30670E00E944A4A61E07E
:1021300070E080E090E00E94854921968091950BA7
:1021400090E08C179D0764F781E08093910B2CC081
:10215000813051F58091950BC0E0D0E0082F10E060
:1021600078010894E11CF11C0AC0809199060E9434
:102170004A4A61E070E080E090E00E948549B80141
:102180006C1B7D0B2196CE15DF0579F780919906A2
:1021900060E070E00E944A4A8091C30660E070E00F
:1021A0000E944A4A1092910B6CE271E080E090E04C
:1021B0000E948549DF91CF911F910F91FF90EF9081
:1021C00008952F923F924F925F926F927F928F92DB
:1021D0009F92AF92BF92CF92DF92EF92FF920F93B6
:1021E0001F93DF93CF9300D0CDB7DEB78983862EC0
:1021F000992400E010E02EC0D6018C9190E020914F
:10220000890630918A068217930799F489E79BE043
:102210006E2D4F2D0E941E3D89E79BE060E00E94DD
:102220003B3DB981B13029F48E2D6F2D482D50E002
:1022300066D9F6018081981608F4982EF3940894D4
:10224000C11CD11CF4E0FF16B9F60F5F1F4F04311B
:10225000110561F0E02E6801CC0CDD1CCC0CDD1CFE
:1022600089E29BE0C80ED91EFF24C6CF8091280BBF
:10227000823008F044C0F894ADE1BBE0ED91FD91EF
:102280008081ED91FD919081ED91FD916C91637054
:102290008E2309F064609F2309F06860EAE5F1E1AC
:1022A000E60FF11D659565956D936D917D918D910D
:1022B0009D91099423C01AC012C016C010C01EC040
:1022C00009C014C013C006C019C009C00DC007C0A2
:1022D0000DC014C062507040804090400BC06150EF
:1022E00070408040904006C06E5F01C06F5F7F4FBE
:1022F0008F4F9F4F9E938E937E936E9301C0F89461
:1023000078946091240B7091250B8091260B90910D
:10231000270B24E030E040E050E00E94B84DC901B6
:10232000DA015C016D01492C552451E0252E312C38
:10233000F5C08091280B823008F044C0F894ADE1DC
:10234000BBE0ED91FD918081ED91FD919081ED914A
:10235000FD916C9163708E2309F064609F2309F0F6
:102360006860EDEBF1E1E60FF11D659565956D9304
:102370006D917D918D919D91099423C01AC012C0D9
:1023800016C010C01EC009C014C013C006C019C0BA
:1023900009C00DC007C00DC014C06250704080401D
:1023A00090400BC0615070408040904006C06E5F0E
:1023B00001C06F5F7F4F8F4F9F4F9E938E937E9391
:1023C0006E9301C0F89478946091240B7091250B62
:1023D0008091260B9091270B24E030E040E050E004
:1023E0000E94B84D79018A016090890670908A0632
:1023F00080918E0660E00E94DB4B80918F060E94E8
:102400000D4C892B09F4C7DD809191060E940D4C7B
:10241000892B09F42FDE80918E0661E00E94DB4B50
:10242000EA14FB040C051D058CF48091890690913B
:102430008A06019790938A068093890618161906D2
:10244000DCF09092890610928A0616C0AE14BF0482
:10245000C006D1060CF062C08091890690918A0670
:10246000019690938A06809389064816590624F4AB
:1024700030928A0620928906CC24DD2441C0EA816C
:10248000FB81808190E02091890630918A06821735
:10249000930799F489E79BE06A2D4B2D0E941E3D1E
:1024A00089E79BE060E00E943B3DF981F13029F42F
:1024B0008A2D6B2D482D50E022D8AA81BB818C91AA
:1024C00090E08615970561F489E79BE06A2D4B2D16
:1024D0000E941E3D89E79BE064EC73E00E94624D20
:1024E000B394EA81FB813196FB83EA83F4E0BF1663
:1024F00031F60894C11CD11C84E1C816D10461F0E6
:10250000AC2CD601AA0FBB1FAA0FBB1FA75DB44FEF
:10251000BB83AA83BB24B3CF570168018091860691
:102520000E940D4C019709F404CF6CE271E080E049
:1025300090E00E9485490F900F900F90CF91DF910E
:102540001F910F91FF90EF90DF90CF90BF90AF90D1
:102550009F908F907F906F905F904F903F902F90C3
:1025600008952F923F924F925F926F927F928F9237
:102570009F92AF92BF92CF92DF92EF92FF920F9312
:102580001F93DF93CF93CDB7DEB760970FB6F89464
:10259000DEBF0FBECDBF80911A0B90911B0B988BA5
:1025A0008F8789E79BE00E94753D89E79BE060E0AB
:1025B00040E00E941E3D89E79BE066EC73E00E94CC
:1025C000624D89E79BE06DE040E00E941E3D89E797
:1025D0009BE06DEC73E00E94624D89E79BE062E056
:1025E00041E00E941E3D89E79BE061ED73E00E949F
:1025F000624D89E79BE06CE041E00E941E3D89E767
:102600009BE068ED73E00E94624D89E79BE060E02B
:1026100042E00E941E3D89E79BE06FED73E00E945F
:10262000624D89E79BE063E142E00E941E3D89E73D
:102630009BE064E00E943B3D89E79BE060E043E073
:102640000E941E3D89E79BE068EE73E00E94624DA8
:1026500089E79BE06FE043E00E941E3D89E79BE035
:1026600061EF73E00E94624D89E061E041E050E07B
:1026700024E630E001E00E94C70989E062E04F856E
:10268000588924E630E00E94C70989E063E040E011
:1026900052E024E630E00E94C70980E090E0E0913B
:1026A000580CF091590CE80FF91F10820196A2E026
:1026B00080309A07A1F740911A0B50911B0B81E1D2
:1026C00060E020E032E001E00E94C70980911A0B2F
:1026D00090911B0B0197E091580CF091590CE80F69
:1026E000F91F8FEF8083E9E2FBE0108211821282F2
:1026F00013823496BBE0E937FB07B9F784E0809397
:10270000640B81E080934A0B82E080934B0B83E063
:1027100080934C0B86E08093730B85E08093690B6C
:10272000EF85F889FA83E983E1E08E2E912CA12CC4
:10273000B12C612C72E0772E2224332421011B82DC
:102740001C821D821E821FEF02C0988B8F8780E043
:1027500060E037DD8091890690918A06833091058B
:1027600009F426C1843091053CF48130910509F4C7
:10277000C1C0029761F7ECC08530910509F444C1EE
:10278000853091051CF0069711F7B5C189E79BE0EC
:102790006FE043E00E941E3D89E79BE067EF73E036
:1027A0000E94624D80E090E0E091580CF091590C4D
:1027B000E80FF91F10820196F2E080309F07A1F721
:1027C0006BC00894211C311C411C511C24E12216B1
:1027D00025E0320620E0420620E0520609F070C0F3
:1027E0008B819C81AD81BE810196A11DB11D8B8322
:1027F0009C83AD83BE83222433242101881599054F
:10280000AA05BB0509F05CC0A981BA816A167B06DE
:1028100024F4EF85F889FA83E98381E160E0498156
:102820005A8120E032E001E00E94C70969857A857B
:1028300020E030E040E050E00DC0E091580CF09115
:10284000590CE60FF71F10822F5F3F4F4F4F5F4F1E
:102850006F5F7F4F8B859C85AD85BE85820F931FF3
:10286000A41FB51FC816D906EA06FB0634F78981EE
:102870009A810197E091580CF091590CE80FF91FDB
:10288000108302969A8389831B821C821D821E827A
:1028900022243324210114C0AF85B8891197BA8747
:1028A000A9878F859889AA2797FDA095BA2F8B872E
:1028B0009C87AD87BE876301EE24D7FCE094FE2C95
:1028C000809186060E940D4C019709F47ACF89E722
:1028D0009BE06FE043E00E941E3D89E79BE061EFD3
:1028E00073E00E94624D6CE271E080E090E00E9433
:1028F00085492DCF81E090E067EE73E049E021E06B
:1029000001E074010E94F404A3E0883E9A0734F4C5
:102910004C01AA2497FCA094BA2C19CF81E090E036
:1029200067EE73E049E021E001E07501640105D83C
:10293000B3E0883E9B0734F44C01AA2497FCA09492
:10294000BA2CECCF89E061E0A40127EE33E02EC081
:1029500081E090E060E072E049E022E001E0EF8495
:10296000F8880E94F404E2E081309E070CF4EDCE7A
:102970008F8598896C01EE24D7FCE094FE2C81E0D1
:1029800090E060E072E049E022E001E00E949D0CEE
:102990009C0192E0213039071CF4388B2F87E8CF57
:1029A00089E062E04F85588920E032E001E029C0EB
:1029B00081E090E060E072E049E023E001E0730133
:1029C0000E94F404A2E081309A071CF43C01BFCEBF
:1029D00039016301EE24D7FCE094FE2C81E090E005
:1029E00060E072E049E023E001E00E949D0C9C0160
:1029F000B2E081309B0764F389E063E0A30120E04B
:102A000032E00E94C709A3CE89E79BE061E140E084
:102A10000E941E3D89E79BE06BE172E00E94624DDF
:102A20008F85988909C00197E091580CF091590C55
:102A3000E80FF91F1082029668167906A4F7EF8551
:102A4000F8893197F887EF83E091580CF091590C91
:102A50008F819885E80FF91F10838F8598896C0105
:102A6000EE24D7FCE094FE2C8F859889B30141E1D8
:102A700020E001E00E949D0C2F8538890BC0215079
:102A80003040E091580CF091590CE20FF31F108286
:102A90002E5F3F4F6216730694F70197E091580C32
:102AA000F091590CE80FF91F01961083681679060A
:102AB000B4F681E160E04F85588920E032E001E022
:102AC0000E94C7098F85988909C00197E091580C29
:102AD000F091590CE80FF91F1082029668167906DA
:102AE000A4F7E091580CF091590CAF81B885EA0F2A
:102AF000FB1F10832CCEA6E1B7E020E030E0E09190
:102B0000580CF091590CE20FF31F8C9180832F5FCA
:102B10003F4F1296E2E020303E0789F760960FB6ED
:102B2000F894DEBF0FBECDBFCF91DF911F910F9103
:102B3000FF90EF90DF90CF90BF90AF909F908F90DD
:102B40007F906F905F904F903F902F900895AF923D
:102B5000BF92CF92DF92EF92FF920F931F93CF938A
:102B6000DF93182F89E79BE00E94753D68EC70E0C9
:102B700080E090E00E94854989E79BE066E040E0C4
:102B80000E941E3D89E79BE06DEF73E00E94624D5D
:102B900089E79BE062E140E00E941E3D89E79BE0FF
:102BA00063E00E943B3D89E79BE061E041E00E94D9
:102BB0001E3D89E79BE064E074E00E94624D89E776
:102BC0009BE061E042E00E941E3D89E79BE068E1F6
:102BD00074E00E94624D89E79BE061E043E00E945F
:102BE0001E3D89E79BE06CE274E00E94624D89E73C
:102BF0009BE063E143E00E941E3D89E79BE064E0C7
:102C00000E943B3D123079F01330C1F0113011F5C4
:102C100089E79BE061E040E00E941E3D89E79BE080
:102C200069E374E015C089E79BE061E040E00E9441
:102C30001E3D89E79BE06EE374E00AC089E79BE0F4
:102C400060E040E00E941E3D89E79BE063E474E0A1
:102C50000E94624D89E79BE063E140E00E941E3DD7
:102C600060911C0B662339F489E79BE069E474E00A
:102C70000E94624D06C089E79BE04AE050E00E9456
:102C8000014DE9E2FBE01082118212821382349638
:102C90008BE0E937F807B9F7AA24A394A0922A0B8E
:102CA00002E0D02ED0922B0B13E0C12EC0922C0B41
:102CB000B4E0BB2EB092460B15E01093470BA6E094
:102CC000EA2EE092480B07E00093620BF8E0FF2E3B
:102CD000F092630B89E08093740BC1E0D0E0D09355
:102CE0008A06C093890680E060E06BDA80918906ED
:102CF00090918A068530910561F1863091057CF4CA
:102D000082309105E9F0833091051CF40197A9F414
:102D100012C083309105B9F0049779F417C0873059
:102D20009105E9F087309105BCF088309105D1F02C
:102D3000099719F41AC0A0921C0B20E030E01BC0C8
:102D4000D0921C0BFACFC0921C0BF7CFB0921C0B89
:102D5000F4CF10931C0BF1CFE0921C0BEECF00933D
:102D60001C0BEBCFF0921C0BE8CFD0938A06C093DC
:102D7000890621E030E0C901DF91CF911F910F91C9
:102D8000FF90EF90DF90CF90BF90AF90089580912B
:102D9000900B8C3318F486E98093900B6091900B24
:102DA00080919A0670E00C944A4ACF93DF93C0E07A
:102DB000D0E00CC080919906BE010E944A4A63E0AF
:102DC00070E080E090E00E94854921962091950B6B
:102DD000822F90E08C179D076CF7222319F4109234
:102DE000910B03C081E08093910BDF91CF91089507
:102DF0000F931F93CF93DF9389E79BE00E94753D6C
:102E000089E79BE061E041E00E941E3D89E79BE08D
:102E10006BE474E00E94624D89E79BE061E042E070
:102E20000E941E3D89E79BE06FE474E00E94624DC2
:102E300089E79BE063E142E00E941E3D89E79BE059
:102E40000E94083D06E117E0C0E0D0E017C085E52C
:102E50009CE0BE0140E00E94CE4182E0C030D80735
:102E600054F4F80111821082E091580CF091590C41
:102E7000EC0FFD1F108221960E5F1F4F8091D3062D
:102E80009091D4068C179D0714F789E79BE00E9468
:102E9000753D89E79BE00E94103D89E79BE062E079
:102EA00042E00E941E3D89E79BE062E674E00E94DA
:102EB000624D89E79BE062E041E00E941E3D89E7A8
:102EC0009BE06BE474E00E94624D10921C0B68EE74
:102ED00073E080E090E00E948549DF91CF911F91DF
:102EE0000F910895EF92FF920F931F93CF93DF936B
:102EF00083E02DDE019719F421E030E0C7C089E7B7
:102F00009BE00E94753D89E79BE061E041E00E9403
:102F10001E3D89E79BE06FE474E00E94624D89E703
:102F20009BE061E042E00E941E3D89E79BE062E792
:102F300074E00E94624D89E79BE067E042E00E94F6
:102F40001E3D89E79BE060911C0B4AE050E00E9427
:102F5000014D89E79BE063E143E00E941E3D89E764
:102F60009BE00E94083D84E1E82E87E0F82E00E017
:102F700010E0C0E0D0E0F70111821082E091580C1F
:102F8000F091590CEC0FFD1F108280911C0B8430C6
:102F9000E1F0853038F4823081F0833090F4813074
:102FA00079F509C08630C9F0863098F08730C9F0CD
:102FB000883031F51AC08E0123C08E0100501E4F9B
:102FC0001FC08E0100501C4F1BC08E0100501A4FB5
:102FD00017C08E010050184F13C08E010050164FBD
:102FE0000FC08E010050144F0BC08091D3069091FA
:102FF000D4068E010050124F801791070CF48C01FB
:1030000085E59CE0B80140E00E94CE41219682E037
:1030100090E0E80EF91E92E0C030D90709F0ABCF7E
:1030200089E79BE00E94753D89E79BE062E041E013
:103030000E941E3D89E79BE062E674E00E94624DBB
:1030400089E79BE062E042E00E941E3D89E79BE049
:1030500062E774E00E94624D89E79BE060911C0B7F
:103060004AE050E00E94014D89E79BE063E143E0C4
:103070000E941E3D68EE73E080E090E00E9485496A
:1030800089E79BE00E94103D20E030E0C901DF911C
:10309000CF911F910F91FF90EF900895EF92FF92C3
:1030A0000F931F93CF93DF9381E051DD019719F4C4
:1030B00021E030E0BFC089E79BE00E94753D89E7D1
:1030C0009BE061E041E00E941E3D89E79BE069E7EB
:1030D00074E00E94624D89E79BE061E042E00E945B
:1030E0001E3D89E79BE062E774E00E94624D89E73C
:1030F0009BE067E042E00E941E3D89E79BE0609113
:103100001C0B4AE050E00E94014D89E79BE063E11F
:1031100043E00E941E3D89E79BE00E94083D96E146
:10312000E92E97E0F92EC0E0D0E000E010E08091B9
:103130001C0B8430E1F0853038F4823081F083302C
:1031400090F4813079F509C08630C9F0863098F066
:103150008730C9F0883031F51AC0E80123C0E80192
:10316000C050DE4F1FC0E801C050DC4F1BC0E8015B
:10317000C050DA4F17C0E801C050D84F13C0E80163
:10318000C050D64F0FC0E801C050D44F0BC0809143
:10319000D3069091D406E801C050D24F8C179D07FA
:1031A0000CF4EC010F5F1F4F85E59CE0BE01F701B9
:1031B00040810E94CE4182E090E0E80EF91E92E04C
:1031C0000030190709F0B3CF89E79BE00E94753DF5
:1031D00089E79BE063E041E00E941E3D89E79BE0B8
:1031E0006AE874E00E94624D89E79BE063E042E098
:1031F0000E941E3D89E79BE062E774E00E94624DF9
:1032000089E79BE060911C0B4AE050E00E94014D71
:1032100089E79BE063E143E00E941E3D68EE73E0B6
:1032200080E090E00E94854989E79BE00E94103D84
:1032300020E030E0C901DF91CF911F910F91FF9005
:10324000EF900895CF93DF938091D5060E940D4CA7
:10325000892B09F096C089E79BE00E94753D89E7BC
:103260009BE061E041E00E941E3D89E79BE068E948
:1032700074E00E94624DC0E0D0E014C085E59CE09F
:10328000BE0140E00E94CE4189E79BE060E141E061
:103290000E941E3D89E79BE0BE014AE050E00E948B
:1032A000504D21968091D3069091D4068C179D079E
:1032B0002CF76091C5067091C60685E59CE04FEF3E
:1032C0000E94CE416091C7067091C80685E59CE0DA
:1032D00046E90E94CE416091C9067091CA0685E513
:1032E0009CE041E00E94CE416091CB067091CC06FB
:1032F00085E59CE04FEF0E94CE416091CD06709134
:10330000CE0685E59CE04FEF0E94CE416091CF064E
:103310007091D00685E59CE041E00E94CE4160912D
:10332000D1067091D20685E59CE040E00E94CE4136
:1033300089E79BE00E94753D89E79BE061E040E002
:103340000E941E3D89E79BE068EA74E00E94624D9E
:1033500089E79BE063E042E00E941E3D89E79BE035
:103360006BEB74E00E94624D89E79BE064E043E010
:103370000E941E3D89E79BE069EC74E00E94624D6B
:10338000FFCFDF91CF91089540911A0B50911B0B05
:103390006091CF067091D0064F3F510509F064F45B
:1033A00085E59CE00E94CE416091D1067091D206E5
:1033B00085E59CE040E011C085E59CE04FEF0E9470
:1033C000CE416091D1067091D20640911A0B509176
:1033D0001B0B4F5F504085E59CE00C94CE412F9233
:1033E0003F924F925F926F927F928F929F92AF9295
:1033F000BF92CF92DF92EF92FF920F931F93DF93D2
:10340000CF93CDB7DEB764970FB6F894DEBF0FBE8B
:10341000CDBF7E010894E11CF11C84E1D7011D920F
:103420008A95E9F789E79BE00E94753D89E79BE073
:1034300060E040E00E941E3D89E79BE064ED74E09F
:103440000E94624D89E79BE060E140E00E941E3DE2
:1034500089E79BE061E00E943B3D89E79BE061E1F9
:1034600040E00E941E3D89E79BE069ED74E00E9408
:10347000624D89E79BE060E141E00E941E3D89E7E3
:103480009BE062E00E943B3D89E79BE065E041E014
:103490000E941E3D89E79BE06CED74E00E94624D46
:1034A00089E79BE061E141E00E941E3D89E79BE0E6
:1034B00066EE74E00E94624D89E79BE069E042E0BD
:1034C0000E941E3D89E79BE06AEE74E00E94624D17
:1034D00089E79BE060E043E00E941E3D89E79BE0B6
:1034E00060EF74E00E94624D89E79BE06CE043E08E
:1034F0000E941E3D89E79BE065EF74E00E94624DEB
:1035000089E79BE063E143E00E941E3D89E79BE081
:1035100064E00E943B3D40911A0B50911B0B85E0EB
:1035200063E020E032E001E00E94C70989E79BE008
:1035300065E040E00E941E3D00911A0B10911B0BAC
:1035400043E1642E712C6C0E7D1E63012701C801BE
:1035500062E070E00E94834D9C01C80162E070E06F
:103560000E94834D8B01F60131832083232B21F4AC
:1035700089E79BE062E003C089E79BE061E00E948D
:103580003B3D8EEF9FEFC80ED91EC414D504F9F64B
:10359000E9E2FBE0108211821282138234969BE0F2
:1035A000E937F907B9F781E08093390B82E080931E
:1035B0003C0B83E08093740B3DE1232E3BE0332EE4
:1035C00080E060E00E94E1108091890690918A0677
:1035D0008230910509F42AC28330910509F4F8C2BA
:1035E000019771F789E79BE065E041E00E941E3D8D
:1035F00088249924540111E089E79BE00E94083D4A
:1036000082C08091280B823008F043C0F894D10129
:10361000ED91FD918081ED91FD919081ED91FD9174
:103620006C9163708E2309F064609F2309F06860D9
:10363000E4E2FBE1E60FF11D659565956D936D91F3
:103640007D918D919D91099423C01AC012C016C01E
:1036500010C01EC009C014C013C006C019C009C0E4
:103660000DC007C00DC014C0625070408040904033
:103670000BC0615070408040904006C06E5F01C03A
:103680006F5F7F4F8F4F9F4F9E938E937E936E936E
:1036900001C0F89478946091240B7091250B80916F
:1036A000260B9091270B24E030E040E050E00E9490
:1036B000B84D69017A01C814D904EA04FB0454F432
:1036C0001150C1F489E79BE064E040E00E941E3D98
:1036D0001AE017C08C149D04AE04BF04A4F41F5F4D
:1036E0001A3029F489E79BE064E040E008C01B3011
:1036F00008F011E0612F6C5F89E79BE041E00E94D8
:103700001E3D46015701809186060E940D4C01978F
:1037100009F477CF6CE271E080E090E00E94854987
:10372000153009F473C0163070F4123089F113307B
:1037300020F4113009F0F3C019C01330D9F114305E
:1037400009F0EDC049C0183009F4ADC0193038F4A3
:10375000163009F475C0173009F0E1C08BC019307C
:1037600009F4BAC01A3009F0DAC05BC1EB8880E016
:1037700090E061E070E045E020E001E0FF240E947D
:10378000F4047C019C8B8B8B89E79BE065E083C014
:10379000E98880E090E061E070E046E020E001E050
:1037A000FF240E94F4047C019A8B898B89E79BE0BB
:1037B00066E08AC0EF8480E090E061E070E047E07E
:1037C00020E001E0FF240E94F4047C01988B8F87A5
:1037D00089E79BE067E091C0ED8480E090E061E0E4
:1037E00070E048E020E001E0FF240E94F4047C0146
:1037F0009E878D8789E79BE068E040E00E941E3D40
:1038000081E0E816F10409F083C07EC0EB8480E01B
:1038100090E061E070E049E020E001E0FF240E94D8
:10382000F4047C019C878B8789E79BE069E040E09A
:103830000E941E3D91E0E916F10409F069C064C0E0
:10384000E98480E090E061E070E04AE020E001E09F
:10385000FF240E94F4047C019A87898789E79BE012
:103860006AE040E00E941E3DA1E0EA16F10409F082
:103870004FC04AC0EF8080E090E061E070E04BE034
:1038800020E001E0FF240E94F4047C0198878F83EC
:1038900089E79BE06BE040E00E941E3DB1E0EB1643
:1038A000F104B1F531C0ED8080E090E061E070E0BE
:1038B0004CE020E001E0FF240E94F4047C019E83A0
:1038C0008D8389E79BE06CE040E00E941E3DE1E0D3
:1038D000EE16F104E9F418C0EB8080E090E061E0BE
:1038E00070E04DE020E001E0FF240E94F4047C0140
:1038F0009C838B8389E79BE06DE040E00E941E3D46
:10390000F1E0EF16F10421F489E79BE061E005C0E6
:10391000EF2829F489E79BE062E00E943B3D40E00C
:1039200050E08B899C89019711F441E050E089892E
:103930009A89019711F44E5F5F4F8F85988901979F
:1039400011F44C5F5F4F8D859E85019711F4485FA0
:103950005F4F8B859C85019711F4405F5F4F898590
:103960009A85019711F4405E5F4F8F81988501978A
:1039700011F4405C5F4F8D819E81019711F4405896
:103980005F4F8B819C81019711F440505F4F85E020
:1039900063E02FEF31E001E00E94C709153051F1DB
:1039A000163070F41230D1F0133020F4113009F0D9
:1039B00023CE10C01330B1F0143009F01DCE16C064
:1039C000173001F11730D0F0183001F1193009F03B
:1039D00013CE20C089E79BE065E01FC089E79BE02C
:1039E00066E01BC089E79BE067E017C089E79BE0C2
:1039F00068E013C089E79BE069E00FC089E79BE0BE
:103A00006AE00BC089E79BE06BE007C089E79BE0B9
:103A10006CE003C089E79BE06DE041E00E941E3D41
:103A2000EBCD89E79BE00E94103DCACDE0901A0BD8
:103A3000F0901B0B81E090E06FEF71E045E023E038
:103A400001E00E94F4047C0180E0E81682E0F806C0
:103A50008CF5F0921B0BE0921A0B89E79BE065E076
:103A600040E00E941E3D00911A0B10911B0B730148
:103A7000C80162E070E00E94834D9C01C80162E0D1
:103A800070E00E94834D8B01D7012D933C93232B33
:103A900021F489E79BE062E003C089E79BE061E0F5
:103AA0000E943B3DEEEFFFEFEE0EFF1EE414F50427
:103AB000F9F686CDF0E0EF16F2E0FF0609F053C00C
:103AC000C0901A0BD0901B0BEE24D7FCE094FE2C78
:103AD00081E090E06FEF71E045E023E001E00E94BB
:103AE0009D0C7C0180E0E81682E0F8068CF5F092EF
:103AF0001B0BE0921A0B89E79BE065E040E00E9417
:103B00001E3D00911A0B10911B0B7301C80162E05E
:103B100070E00E94834D9C01C80162E070E00E9449
:103B2000834D8B01D7012D933C93232B21F489E7FF
:103B30009BE062E003C089E79BE061E00E943B3DBF
:103B4000EEEFFFEFEE0EFF1EE414F504F9F6B8CF2A
:103B500040911A0B50911B0B85E063E02FEF31E091
:103B600001E00E94C709F1E0EF16F2E0FF0609F05C
:103B700027CD40911A0B50911B0B85E062E02FEF8F
:103B800031E001E00E94C709E0911A0BF0911B0B94
:103B9000EE0FFF1FEC5EF84F85E063E040810E946E
:103BA0004A0B89E79BE065E042E00E941E3D89E701
:103BB0009BE06BE172E00E94624D40911A0B5091C4
:103BC0001B0B85E063E02FEF31E00E94C709F8CCC2
:103BD000DBDB64960FB6F894DEBF0FBECDBFCF918E
:103BE000DF911F910F91FF90EF90DF90CF90BF90EA
:103BF000AF909F908F907F906F905F904F903F908D
:103C00002F900895EF92FF920F931F93CF93DF931E
:103C10006091C9067091CA0685E59CE00E94C74183
:103C200080931C0B6091C5067091C60685E59CE0EB
:103C30000E94C7418093950B6091CD067091CE068E
:103C400085E59CE00E94C7418093930B6091CB0671
:103C50007091CC0685E59CE00E94C7418093940B4F
:103C60006091C7067091C80685E59CE00E94C74137
:103C70008093900B6091CF067091D00685E59CE013
:103C80000E94C741082F10E010931B0B00931A0BE2
:103C90006091D1067091D20685E59CE00E94C741F3
:103CA000080F111D10931B0B00931A0B80911C0B16
:103CB000882309F494C056E1E52E57E0F52E00E084
:103CC00010E0C0E0D0E080911C0B8430E1F0853042
:103CD00038F4823081F0833090F4813079F509C076
:103CE0008630C9F0863098F08730C9F0883031F5D9
:103CF0001AC08E0123C08E0100501E4F1FC08E01BE
:103D000000501C4F1BC08E0100501A4F17C08E016F
:103D10000050184F13C08E010050164F0FC08E0177
:103D20000050144F0BC08091D3069091D4068E01A1
:103D30000050124F801791070CF48C0185E59CE030
:103D4000B8010E94C741F70180831182E091580CAD
:103D5000F091590CEC0FFD1F8083219682E090E0DA
:103D6000E80EF91E92E0C030D90709F0ACCF89E720
:103D70009BE00E94753D89E79BE063E041E00E9483
:103D80001E3D89E79BE068EF74E00E94624D89E781
:103D90009BE063E042E00E941E3D89E79BE062E712
:103DA00074E00E94624D89E79BE060911C0B4AE041
:103DB00050E00E94014D89E79BE06AE042E00E94EA
:103DC0001E3D89E79BE00E94083D60ED77E080E0C2
:103DD00090E00E94854989E79BE00E94103DDF91B9
:103DE000CF911F910F91FF90EF900895EF92FF9266
:103DF0000F931F93CF93DF9382E00E94A715019743
:103E000019F421E030E09AC089E79BE00E94753DFB
:103E100066E1E62E67E0F62E00E010E0C0E0D0E0BC
:103E200080911C0B8430E1F0853038F4823081F0D1
:103E3000833090F4813079F509C08630C9F086303E
:103E400098F08730C9F0883031F51AC08E0123C050
:103E50008E0100501E4F1FC08E0100501C4F1BC012
:103E60008E0100501A4F17C08E010050184F13C01A
:103E70008E010050164F0FC08E010050144F0BC022
:103E80008091D3069091D4068E010050124F801776
:103E900091070CF48C0185E59CE0B8010E94C741B4
:103EA000F70180831182E091580CF091590CEC0FCE
:103EB000FD1F8083219682E090E0E80EF91E92E0DB
:103EC000C030D90709F0ACCF89E79BE00E94753D6F
:103ED00089E79BE063E041E00E941E3D89E79BE0AB
:103EE00068EF74E00E94624D89E79BE063E042E086
:103EF0000E941E3D89E79BE062E774E00E94624DEC
:103F000089E79BE060911C0B4AE050E00E94014D64
:103F100089E79BE063E143E00E941E3D89E79BE067
:103F20000E94083D68EE73E080E090E00E948549C1
:103F300089E79BE00E94103D20E030E0C901DF915D
:103F4000CF911F910F91FF90EF900895FF920F93E3
:103F50001F93CF93DF9305E076E0F72E17E0C1E0E3
:103F6000D0E089E79BE00E94753D89E79BE060E037
:103F700040E00E941E3D89E79BE06DEF73E00E94E8
:103F8000624D89E79BE062E140E00E941E3D89E7C7
:103F90009BE063E00E943B3D60911C0B662339F47B
:103FA00089E79BE069E474E00E94624D06C089E7FE
:103FB0009BE04AE050E00E94014D89E79BE061E010
:103FC00041E00E941E3D89E79BE069E374E00E94A6
:103FD000624D89E79BE061E042E00E941E3D89E777
:103FE0009BE06EE374E00E94624D89E79BE061E034
:103FF00043E00E941E3D89E79BE063E474E00E9479
:10400000624D89E79BE068E041E00E941E3D89E740
:104010009BE067E075E00E94624D89E79BE068E005
:1040200042E00E941E3D89E79BE061E175E00E944D
:10403000624D89E79BE063E143E00E941E3D89E712
:104040009BE064E00E943B3D89E79BE068E043E041
:104050000E941E3D89E79BE06BE175E00E94624D86
:10406000E9E2FBE0108211821282138234968BE027
:10407000E937F807B9F781E080932A0B82E0809353
:104080002B0B83E080932C0B84E08093460B0093F2
:10409000470BF092480B1093740BD0938A06C09391
:1040A000890680E060E00E94E1108091890690918D
:1040B0008A0683309105C9F08430910534F481304B
:1040C000910561F0029701F50CC085309105B1F0C2
:1040D0008530910584F00697B9F413C00E944E18FC
:1040E00006C084DE0197E9F20FC00E9472170197A3
:1040F00009F437CF09C00E94F81606C00E94270EA7
:1041000003C00E94B304CDCF86E090E090938A066E
:1041100080938906DF91CF911F910F91FF900895B1
:104120002F923F924F925F926F927F928F929F92C7
:10413000AF92BF92CF92DF92EF92FF920F931F93B5
:10414000DF93CF93CDB7DEB72C970FB6F894DEBFD1
:104150000FBECDBF81E090E090938A0680938906E0
:1041600011E089E79BE00E94753D80901A0B9090CA
:104170001B0B89EF881681E0980624F0E9EF8E2E5C
:10418000E1E09E2E89E79BE062E140E00E941E3D57
:1041900089E79BE063E00E943B3D60911C0B662336
:1041A00039F489E79BE069E474E00E94624D06C03F
:1041B00089E79BE04AE050E00E94014D89E79BE0DF
:1041C00063E143E00E941E3D89E79BE064E00E94BA
:1041D0003B3DE9E2FBE010821182128213823496A9
:1041E0009BE0E937F907B9F7D4011196BA87A98797
:1041F000F4013296F887EF83C40103969E838D8382
:10420000D4011496BC83AB83F4013596FA83E98319
:1042100076E0272E312C280C391C67E0462E512CD5
:10422000480C591C1093290BF2E0F0932A0B83E001
:104230008093390B84E080933A0B85E08093490B9F
:1042400096E090934A0BA7E0A093590BB8E0B09387
:104250005A0BE9E0E0932B0BFAE0F0932C0B8BE088
:1042600080933B0B9CE090933C0BADE0A0934B0BF9
:10427000BEE0B0934C0BEFE0E0935B0BF0E1F0930A
:104280005C0B81E180936D0B82E18093740BC40120
:1042900061E070E040E050E00E940E0BF401EE0F90
:1042A000FF1FEC5EF84F8081918161E070E041E09A
:1042B00050E00E940E0B89859A8565E070E040E031
:1042C00050E00E940E0BE985FA85EE0FFF1FEC5EB1
:1042D000F84F8081918165E070E041E050E00E94FC
:1042E0000E0B8F81988569E070E040E050E00E94FD
:1042F0000E0BEF81F885EE0FFF1FEC5EF84F80810B
:10430000918169E070E041E050E00E940E0B8D81E8
:104310009E816DE070E040E050E00E940E0BED8168
:10432000FE81EE0FFF1FEC5EF84F808191816DE002
:1043300070E041E050E00E940E0B8B819C8161E0B7
:1043400070E042E050E00E940E0BEB81FC81EE0F2A
:10435000FF1FEC5EF84F8081918161E070E043E0E7
:1043600050E00E940E0B89819A8165E070E042E086
:1043700050E00E940E0BE981FA81EE0FFF1FEC5E08
:10438000F84F8081918165E070E043E050E00E9449
:104390000E0BC10169E070E042E050E00E940E0B9C
:1043A000F101EE0FFF1FEC5EF84F8081918169E013
:1043B00070E043E050E00E940E0BC2016DE070E03F
:1043C00042E050E00E940E0BF201EE0FFF1FEC5E88
:1043D000F84F808191816DE070E043E050E00E94F1
:1043E0000E0B80E060E00E94E110E0918906F09100
:1043F0008A063197E231F10508F049CFEE58FF4FB8
:10440000EE0FFF1F0590F491E02D199481E090E0EC
:1044100060E072E041E020E001E074010E94F404F9
:104420007C0191E0E91692E0F9060CF44701A1E065
:10443000EA16A2E0FA0651F56401EE24D7FCE094F6
:10444000FE2C81E090E060E072E041E020E001E0DD
:104450000E949D0C7C01B2E081309B077CF4FC0142
:10446000EE0FFF1FEC5EF84F8081918161E070E0FC
:1044700041E050E00E940E0B4701DECF81E060E09A
:10448000A40120E032E001E00E94C70990921B0BDA
:1044900080921A0BE2E0EE16E2E0FE0609F0F7CE9B
:1044A000C40161E070E040E050E00E940E0B65C086
:1044B000C401880F991F8C5E984F9C878B87DC0105
:1044C000ED90FC9080E090E06FEF70E041E021E043
:1044D00001E00E94F4046C018F3F910509F094F40F
:1044E000089481089108E091580CF091590CE80D5E
:1044F000F91D0894811C911C8083EB85FC859183B8
:104500008083C5CEF1E080309F0789F5AB84BC8401
:104510003401089461087108D501CD90DC90EE2437
:10452000D7FCE094FE2C80E090E06FEF70E041E07B
:1045300021E001E00E949D0C6C018F3F910509F084
:104540005CF4E091580CF091590CE60DF71D808356
:10455000F50191838083E0CFAB85BC854D915C9163
:1045600081E061E02FEF30E001E00E94C709B1E097
:10457000CB16B1E0DB0609F08ACEF401EE0FFF1F87
:10458000EC5EF84F81E061C081E090E060E072E0B5
:1045900045E020E001E0E984FA840E94F4047C0113
:1045A000E2E081309E0714F49A878987F1E0EF16E4
:1045B000F2E0FF0679F589859A856C01EE24D7FC37
:1045C000E094FE2C81E090E060E072E045E020E0C5
:1045D00001E00E949D0C7C0191E0E91692E0F90651
:1045E00084F4F701EE0FFF1FEC5EF84F808191819C
:1045F00065E070E041E050E00E940E0BFA86E9862B
:10460000DACF85E060E049855A8520E032E001E0BC
:104610000E94C709A985BA85B0931B0BA0931A0BFA
:10462000B2E0EB16B2E0FB0609F031CE89859A853F
:1046300065E070E040E050E00E940E0BE985FA85ED
:10464000EE0FFF1FEC5EF84F85E061E0FBC4E985EB
:10465000FA85EE0FFF1FEC5EF84FFC87EB87E080DA
:10466000F18080E090E06FEF70E045E021E001E054
:104670000E94F4046C018F3F910509F06CF4898568
:104680009A850197E091580CF091590CE80FF91FA9
:1046900001969A8789878EC4B1E080309B0791F597
:1046A000AB84BC8469847A84089461087108F5013C
:1046B000C080D180EE24D7FCE094FE2C80E090E016
:1046C0006FEF70E045E021E001E00E949D0C6C017D
:1046D0008F3F910509F05CF4E091580CF091590C72
:1046E000E60DF71D8083D5018D939C93E0CFEB857C
:1046F000FC854081518185E061E02FEF30E001E0F1
:104700000E94C709F1E0CF16F1E0DF0609F0BFCD46
:1047100095CF81E090E060E072E049E020E001E0C8
:10472000EF80F8840E94F4047C0181E0E81682E0C6
:10473000F80614F4F886EF8291E0E91692E0F906A3
:1047400071F5AF81B8856D01EE24D7FCE094FE2CA5
:1047500081E090E060E072E049E020E001E00E944A
:104760009D0C7C01B2E081309B0784F4FC01EE0FCC
:10477000FF1FEC5EF84F8081918169E070E041E0BD
:1047800050E00E940E0BF886EF82DBCF89E060E0FC
:104790004F81588520E032E001E00E94C709EF8197
:1047A000F885F0931B0BE0931A0BF2E0EF16F2E0A2
:1047B000FF0609F06CCD8F81988569E070E040E0DC
:1047C00050E00E940E0B66C08F819885880F991F5C
:1047D0008C5E984F9C878B87DC01ED90FC9080E08D
:1047E00090E06FEF70E049E021E001E00E94F40406
:1047F0006C018F3F910509F08CF4EF81F8853197BA
:10480000F887EF83E091580CF091590C8F819885CF
:10481000E80FF91F019698878F83CCC3B1E08030F1
:104820009B0791F5AB84BC846F8078840894610801
:104830007108F501C080D180EE24D7FCE094FE2CF5
:1048400080E090E06FEF70E049E021E001E00E943D
:104850009D0C6C018F3F910509F05CF4E091580CC0
:10486000F091590CE60DF71D8083D5018D939C9333
:10487000E0CFEB85FC854081518189E061E02FEF3D
:1048800030E001E00E94C709F1E0CF16F1E0DF0659
:1048900009F0FDCCEF81F885EE0FFF1FEC5EF84FBD
:1048A00089E0D3CE81E090E060E072E04DE020E06E
:1048B00001E0ED80FE800E94F4047C0181E0E816B6
:1048C00082E0F80614F4FE82ED8291E0E91692E0AF
:1048D000F90671F5AD81BE816D01EE24D7FCE0943F
:1048E000FE2C81E090E060E072E04DE020E001E02D
:1048F0000E949D0C7C01B2E081309B0784F4FC0196
:10490000EE0FFF1FEC5EF84F808191816DE070E04B
:1049100041E050E00E940E0BFE82ED82DBCF8DE085
:1049200060E04D815E8120E032E001E00E94C70935
:10493000ED81FE81F0931B0BE0931A0BF2E0EF1672
:10494000F2E0FF0609F0A3CC8D819E816DE070E05E
:1049500040E050E00E940E0B66C08D819E81880F62
:10496000991F8C5E984F9C878B87DC01ED90FC90A3
:1049700080E090E06FEF70E04DE021E001E00E9408
:10498000F4046C018F3F910509F08CF4ED81FE81F8
:104990003197FE83ED83E091580CF091590C8D8195
:1049A0009E81E80FF91F01969E838D8303C3B1E0BA
:1049B00080309B0791F5AB84BC846D807E80089429
:1049C00061087108F501C080D180EE24D7FCE09425
:1049D000FE2C80E090E06FEF70E04DE021E001E020
:1049E0000E949D0C6C018F3F910509F05CF4E091F1
:1049F000580CF091590CE60DF71D8083D5018D936D
:104A00009C93E0CFEB85FC85408151818DE061E096
:104A10002FEF30E001E00E94C709F1E0CF16F1E08E
:104A2000DF0609F034CCED81FE81EE0FFF1FEC5E56
:104A3000F84F8DE00ACE81E090E060E072E041E066
:104A400022E001E0EB80FC800E94F4047C0181E024
:104A5000E81682E0F80614F4FC82EB8291E0E91695
:104A600092E0F90671F5AB81BC816D01EE24D7FCB3
:104A7000E094FE2C81E090E060E072E041E022E012
:104A800001E00E949D0C7C01B2E081309B0784F420
:104A9000FC01EE0FFF1FEC5EF84F8081918161E019
:104AA00070E043E050E00E940E0BFC82EB82DBCF13
:104AB00081E062E04B815C8120E032E001E00E9415
:104AC000C709EB81FC81F0931B0BE0931A0BF2E01A
:104AD000EF16F2E0FF0609F0DACB8B819C8161E0F2
:104AE00070E042E050E00E940E0B66C08B819C811A
:104AF000880F991F8C5E984F9C878B87DC01ED9007
:104B0000FC9080E090E06FEF70E041E023E001E096
:104B10000E94F4046C018F3F910509F08CF4EB8145
:104B2000FC813197FC83EB83E091580CF091590C98
:104B30008B819C81E80FF91F01969C838B833AC27D
:104B4000B1E080309B0791F5AB84BC846B807C80A6
:104B5000089461087108F501C080D180EE24D7FC6B
:104B6000E094FE2C80E090E06FEF70E041E023E005
:104B700001E00E949D0C6C018F3F910509F05CF4EF
:104B8000E091580CF091590CE60DF71D8083D5018A
:104B90008D939C93E0CFEB85FC854081518181E032
:104BA00063E02FEF30E001E00E94C709F1E0CF168B
:104BB000F1E0DF0609F06BCBEB81FC81EE0FFF1F0C
:104BC000EC5EF84F81E03DC281E090E060E072E091
:104BD00045E022E001E0E980FA800E94F4047C01D3
:104BE00081E0E81682E0F80614F4FA82E98291E0A6
:104BF000E91692E0F90671F5A981BA816D01EE24FA
:104C0000D7FCE094FE2C81E090E060E072E045E0AB
:104C100022E001E00E949D0C7C01B2E081309B0704
:104C200084F4FC01EE0FFF1FEC5EF84F8081918150
:104C300065E070E043E050E00E940E0BFA82E982EA
:104C4000DBCF85E062E049815A8120E032E001E07B
:104C50000E94C709E981FA81F0931B0BE0931A0BBC
:104C6000F2E0EF16F2E0FF0609F011CB89819A819C
:104C700065E070E042E050E00E940E0B66C0898162
:104C80009A81880F991F8C5E984F9C878B87DC01D7
:104C9000ED90FC9080E090E06FEF70E045E023E065
:104CA00001E00E94F4046C018F3F910509F08CF43F
:104CB000E981FA813197FA83E983E091580CF09108
:104CC000590C89819A81E80FF91F01969A8389838B
:104CD00071C1B1E080309B0791F5AB84BC846980E1
:104CE0007A80089461087108F501C080D180EE24B3
:104CF000D7FCE094FE2C80E090E06FEF70E045E0A0
:104D000023E001E00E949D0C6C018F3F910509F0AA
:104D10005CF4E091580CF091590CE60DF71D80837E
:104D2000D5018D939C93E0CFEB85FC85408151812B
:104D300085E063E02FEF30E001E00E94C709F1E079
:104D4000CF16F1E0DF0609F0A2CAE981FA81EE0F81
:104D5000FF1FEC5EF84F85E074C181E090E060E0F9
:104D600072E049E022E001E071010E94F4047C015C
:104D700081E0E81682E0F8060CF4170191E0E916EC
:104D800092E0F90651F56101EE24D7FCE094FE2C87
:104D900081E090E060E072E049E022E001E00E9402
:104DA0009D0C7C01A2E081309A077CF4FC01EE0F9F
:104DB000FF1FEC5EF84F8081918169E070E043E075
:104DC00050E00E940E0B1701DECF89E062E0A101E6
:104DD00020E032E001E00E94C70930921B0B2092D4
:104DE0001A0BB2E0EB16B2E0FB0609F050CAC101A3
:104DF00069E070E042E050E00E940E0B5FC0F101FC
:104E0000EE0FFF1FEC5EF84FFC87EB87E080F18030
:104E100080E090E06FEF70E049E023E001E00E9465
:104E2000F4046C018F3F910509F06CF4089421089B
:104E30003108E091580CF091590CE20DF31D0894E3
:104E4000211C311CB7C0B1E080309B0789F5AB84D1
:104E5000BC843101089461087108F501C080D180DB
:104E6000EE24D7FCE094FE2C80E090E06FEF70E041
:104E700049E023E001E00E949D0C6C018F3F910509
:104E800009F05CF4E091580CF091590CE60DF71D17
:104E90008083D5018D939C93E0CFEB85FC85408189
:104EA000518189E063E02FEF30E001E00E94C70903
:104EB000F1E0CF16F1E0DF0609F0E9C9F101EE0FEC
:104EC000FF1FEC5EF84F89E0BCC081E090E060E03D
:104ED00072E04DE022E001E072010E94F4047C01E6
:104EE00081E0E81682E0F8060CF4270191E0E9166B
:104EF00092E0F90651F56201EE24D7FCE094FE2C15
:104F000081E090E060E072E04DE022E001E00E948C
:104F10009D0C7C01A2E081309A077CF4FC01EE0F2D
:104F2000FF1FEC5EF84F808191816DE070E043E0FF
:104F300050E00E940E0B2701DECF8DE062E0A2015F
:104F400020E032E001E00E94C70950921B0B409222
:104F50001A0BB2E0EB16B2E0FB0609F098C9C201E9
:104F60006DE070E042E050E00E940E0B64C0F20180
:104F7000EE0FFF1FEC5EF84FFC87EB87E080F180BF
:104F800080E090E06FEF70E04DE023E001E00E94F0
:104F9000F4046C018F3F910509F094F408944108E2
:104FA0005108E091580CF091590CE40DF51D08944E
:104FB000411C511CC082AB85BC85CD92DC9267C977
:104FC000B1E080309B0789F5AB84BC843201089442
:104FD00061087108F501C080D180EE24D7FCE0940F
:104FE000FE2C80E090E06FEF70E04DE023E001E008
:104FF0000E949D0C6C018F3F910509F05CF4E091DB
:10500000580CF091590CE60DF71D8083D5018D9356
:105010009C93E0CFEB85FC85408151818DE063E07E
:105020002FEF30E001E00E94C709F1E0CF16F1E078
:10503000DF0609F02CC9F201EE0FFF1FEC5EF84FFE
:105040008DE063E040810E944A0B21C90E94A61FA7
:1050500081E190E090938A068093890682C80E943D
:10506000C4192C960FB6F894DEBF0FBECDBFCF91FA
:10507000DF911F910F91FF90EF90DF90CF90BF9045
:10508000AF909F908F907F906F905F904F903F90E8
:105090002F9008952F923F924F925F926F927F923E
:1050A0008F929F92AF92BF92CF92DF92EF92FF9238
:1050B0000F931F93DF93CF93CDB7DEB72A970FB629
:1050C000F894DEBF0FBECDBF2FEF30E03A872987BF
:1050D00001E0202E312C81E090E0A0E0B0E0898357
:1050E0009A83AB83BC83412C12E0512E612C712C2E
:1050F00017E089E79BE00E94753D89E79BE063E04C
:1051000040E00E941E3D89E79BE064E275E00E945A
:10511000624D89E79BE062E142E00E941E3D89E723
:105120009BE063E00E943B3D60911C0B662339F4D9
:1051300089E79BE069E474E00E94624D06C089E75C
:105140009BE04AE050E00E94014D89E79BE060E06F
:1051500041E00E941E3D89E79BE06AE275E00E9403
:10516000624D89E79BE060E042E00E941E3D89E7D6
:105170009BE063E375E00E94624D89E79BE060E09D
:1051800043E00E941E3D89E79BE06CE375E00E94CE
:10519000624D89E79BE063E141E00E941E3D89E7A3
:1051A0009BE064E00E943B3D89E060E049855A85D0
:1051B0002FEF30E001E00E94C70989E061E0A10122
:1051C0002FEF30E00E94C70989E062E049815A81EF
:1051D0002FEF30E00E94C70989E063E0A2012FEFC2
:1051E00030E00E94C709E9E2FBE0108211821282DE
:1051F000138234969BE0E937F907B9F781E0809391
:10520000490B82E080934A0B83E080934B0B84E050
:1052100080934C0B1093720BA6E0A0936F0BB5E03C
:10522000B093600BE1E0F0E0F0938A06E09389062A
:1052300088249924540102C09A87898780E060E01D
:105240000E94E110E0908906F0908A06F4E0EF16E3
:10525000F10409F4B2C025E0E216F1047CF432E076
:10526000E316F10409F446C043E0E416F1040CF03F
:105270006BC051E0E516F10409F70FC086E0E816AF
:10528000F10409F474C196E0E916F1040CF4C7C006
:10529000A7E0EA16F10491F67AC181E090E06FEFA1
:1052A00070E049E020E001E0E984FA840E94F4041F
:1052B0008F3F910509F204F2E985FA856F01EE242A
:1052C000D7FCE094FE2C81E090E06FEF70E049E0C5
:1052D00020E001E00E949D0C8F3F910509F01CF435
:1052E0009A878987E9CF89E060E049855A852FEF61
:1052F00030E091C081E090E060E072E049E021E0C0
:1053000001E071010E94F404F2E081309F071CF477
:105310001C0194CF19016101EE24D7FCE094FE2C0E
:1053200081E090E060E072E049E021E001E00E946D
:105330009D0C9C0142E08130940764F389E061E0B8
:10534000A10120E032E068C081E090E060E072E01E
:1053500049E022E001E0E980FA800E94F40452E092
:105360008130950754F49C01442737FD4095542F14
:1053700029833A834B835C8361CF81E090E060E0D6
:1053800072E049E022E001E0C980DA80EB80FC8035
:105390000E949D0C32E08130930754F49C01442715
:1053A00037FD4095542F29833A834B835C83E5CFA7
:1053B00089E062E049815A812CC081E090E060E0A0
:1053C00072E049E023E001E072010E94F40432E05F
:1053D0008130930734F42C01662457FC6094762CBA
:1053E0002DCF81E090E060E072E049E023E001E051
:1053F000730162010E949D0C42E08130940734F4F5
:105400002C01662457FC6094762CEBCF89E063E096
:10541000A20120E032E001E00E94C7090FCFC301E2
:10542000B20129813A814B815C810E94644D6150B7
:105430007240804090405CF089E79BE06DE040E086
:105440000E941E3D89E79BE060E575E08DC089E71D
:105450009BE06DE040E00E941E3D89E79BE068E52F
:1054600075E00E94624D89E79BE06EE043E00E9498
:105470001E3D89E79BE060E675E00E94624DB1E069
:10548000CB2ED12CE12CF12CC101AA2797FDA095A0
:10549000BA2F8D839E83AF83B8874AC091E0C91627
:1054A000D104E104F10409F069C08D809E80AF80D1
:1054B000B884A1E08A16A2E09A06A0E0AA06A0E0BD
:1054C000BA0654F029813A814B815C81821A930A91
:1054D000A40AB50A7301620189E79BE061E140E03B
:1054E0000E941E3D89E79BE0B501A4012AE030E05F
:1054F0000E94124D65E070E080E090E00E948549D6
:10550000C4010197E091580CF091590CE80FF91F74
:1055100039853083F401EE0FFF1FEC5EF84F4985AB
:105520005A85518340830894C11CD11CE11CF11C95
:105530004C145D046E047F040CF0B0CF89E79BE04F
:105540006DE040E00E941E3D89E79BE067E675E064
:105550000E94624D89E79BE06EE043E00E941E3DA1
:1055600089E79BE06BE675E00E94624D67CE0E9482
:10557000A61FF0928A06E0928906BBCD89819A81A6
:10558000AB81BC81880E991EAA1EBB1E92CF2A96A3
:105590000FB6F894DEBF0FBECDBFCF91DF911F9144
:1055A0000F91FF90EF90DF90CF90BF90AF909F90C2
:1055B0008F907F906F905F904F903F902F900895C5
:1055C0002F923F924F925F926F927F928F929F9213
:1055D000AF92BF92CF92DF92EF92FF920F931F9301
:1055E000CF93DF9312E0A0901A0BB0901B0B89E7CA
:1055F0009BE00E94753D89E79BE060E040E00E94EF
:105600001E3D89E79BE062E775E00E94624D89E7F5
:105610009BE060E140E00E941E3D89E79BE069E479
:1056200074E00E94624D89E79BE066E040E00E94E2
:105630001E3D89E79BE063E00E943B3D89E79BE0DC
:105640006AE040E00E941E3D89E79BE064E00E9422
:105650003B3D8DE060E0A50120E032E001E00E94EA
:10566000C709A501425F5F4F81E160E020E032E0C1
:105670000E94C70989E79BE067E040E00E941E3D69
:1056800060911C0B662339F489E79BE069E474E0C0
:105690000E94624D06C089E79BE04AE050E00E940C
:1056A000014DC5010E94CB0BE9E2FBE010821182A3
:1056B0001282138234968BE0E937F807B9F781E05C
:1056C00080933D0B10934D0B95E090932A0B8AE04D
:1056D00080932B0BEFE0E0932C0B86E080933A0B4A
:1056E000FBE0F0933B0B80E180933C0B87E08093E1
:1056F0004A0B8CE080934B0B81E180934C0B83E051
:105700008093590B98E090935A0B8DE080935B0B3C
:10571000E2E1E0935C0B84E08093690BF9E0F093A5
:105720006A0B8EE080936B0B93E190936C0BE1E03E
:10573000F0E0F0938A06E093890681E06A2D0E94EA
:10574000E11089E79BE060E140E00E941E3D89E7AF
:105750009BE069E474E00E94624DE0918906F0915B
:105760008A063197E331F10540F7EC57FF4FEE0F12
:10577000FF1F0590F491E02D19940E94A61F33CFCE
:1057800081E090E062EF71E04DE020E001E0750122
:105790000E94F404EC01F1E0833F9F070CF45C01EC
:1057A00081E0C33FD80749F56501EE24D7FCE094BA
:1057B000FE2C81E090E062EF71E04DE020E001E03E
:1057C0000E949D0CEC0191E0C33FD90774F4CE0117
:1057D0000E94CB0BAE01425F5F4F81E160E020E0B1
:1057E00032E00E94C7095E01DFCF8DE060E0A501D5
:1057F00022EF31E001E00E94C709C45FD14009F007
:105800007CC08DE060E0A50120E032E001E00E9474
:10581000C709F501EE0FFF1FEC5EF84F81E061E074
:1058200069C0F5013E968FE090E060E072E041E1F2
:1058300020E001E07F010E94F404EC01F2E08130FD
:105840009F073CF4B2EFAB2EBFEFBB2EA80EB91EE4
:1058500054C082E0C130D807A1F5EEE0F0E0AE0E12
:10586000BF1E6501EE24D7FCE094FE2C82EF9FEF73
:10587000A80EB91E8FE090E060E072E041E120E008
:1058800001E00E949D0CEC0192E0C130D9078CF43C
:10589000A2EFAA2EAFEFBA2EAC0EBD1EC5010E941C
:1058A000CB0B8DE060E0A50120E032E00E94C7094B
:1058B000D4CF81E160E0A50120E032E001E00E9468
:1058C000C709C250D240C9F4FEE0EF2EF12CEA0C19
:1058D000FB1C81E160E0A70120E032E001E00E94D2
:1058E000C709EE0CFF1C84E197E0E80EF91E81E188
:1058F00063E0F70140810E944A0BC5010E94CB0B77
:10590000A501425F5F4F81E160E020E032E001E00D
:105910000E94C70969C04501880C991C84E197E081
:10592000880E991EF401E080F18080E090E06FEF36
:1059300070E041E021E001E00E94F404EC018F3FBF
:10594000910509F08CF40894A108B108E091580C75
:10595000F091590CEA0DFB1D0894A11CB11C808329
:10596000F4019183808340C0F1E080309F0779F596
:1059700034012501089441085108F301C080D18009
:10598000EE24D7FCE094FE2C80E090E06FEF70E016
:1059900041E021E001E00E949D0CEC018F3F910568
:1059A00009F05CF4E091580CF091590CE40DF51DF0
:1059B0008083F30191838083E0CFF40140815181A2
:1059C00081E061E02FEF30E001E00E94C709C150A3
:1059D000D14051F4F501EE0FFF1FEC5EF84F81E06E
:1059E00061E040810E944A0BB0921B0BA0921A0BFF
:1059F000A4CE25010894411C511C4201880C991C1D
:105A000084E197E0880E991EF401E080F18080E047
:105A100090E06FEF70E045E021E001E00E94F404C7
:105A2000EC018F3F910509F03CF4E091580CF091A6
:105A3000590CEA0DFB1D52C5F1E080309F0759F566
:105A40003401F301C080D180EE24D7FCE094FE2C19
:105A500080E090E06FEF70E045E021E001E00E941F
:105A60009D0CEC018F3F910509F05CF4E091580C1E
:105A7000F091590CEA0DFB1D8083F3019183808323
:105A8000E0CFF4014081518185E061E02FEF30E00B
:105A900001E00E94C709C150D14009F065C5F2017B
:105AA000EE0FFF1FEC5EF84F85E039C132E0432E68
:105AB000512C4A0C5B1C4201880C991C84E197E034
:105AC000880E991EF401E080F18080E090E06FEF95
:105AD00070E049E021E001E00E94F404EC018F3F16
