:1000000004C100002FC100002DC100002BC1000061
:1000100029C1000027C1000025C1000023C1000044
:1000200021C100001FC100001DC100001BC1000054
:1000300019C1000017C1000015C1000013C1000064
:1000400011C100000FC100000DC100000BC1000074
:1000500009C1000007C1000005C100000C94602721
:1000600001C100000C945824FDC000000C94F82439
:10007000F9C00000F7C00000F5C00000F3C00000A8
:10008000F1C00000EFC00000EDC00000EBC00000B8
:10009000E9C00000E7C00000E5C000000C948E221B
:1000A000E1C00000DFC00000DDC00000DBC00000D8
:1000B000D9C00000D7C00000D5C00000D3C00000E8
:1000C000D1C00000CFC00000CDC00000CBC00000F8
:1000D000C9C00000C7C00000C5C00000C3C0000008
:1000E000C1C0000000002100240027002A002D00CC
:1000F0003000330001010000040107010A01000083
:100100002200250028002B002E00310034000201BF
:100110000000050108010B0100002000230026005B
:1001200029002C002F00320000010000030106010D
:10013000090105050505070508080808020202026D
:100140000A0A080804040404010101010101010173
:100150000303030303030303040707070C0C0C0C3E
:100160000C0C0C0C02020202060606060606060627
:100170000B0B0B0B0B0B0B0B0102102020080810B4
:100180002040102040800201020108040201010207
:1001900004081020408080402010080402018004E0
:1001A000020180402010080402010804020101023B
:1001B0000408102040800102040810204080000044
:1001C000090A02080B0C0D070603040100000000D9
:1001D000000000000000000000000000000000001F
:1001E0000000000000000000000011100F000000DF
:1001F00000000000000000000000000000000000FF
:10020000000000003A01FD21702511241FBECFEF30
:10021000D1E2DEBFCDBF00E00CBF15E0A0E0B2E050
:10022000E6E5F8E500E00BBF02C007900D92A23AA8
:10023000B107D9F71BBE1BE0A2EAB5E001C01D92D1
:10024000AC30B107E1F712E0CAE0D2E004C0229777
:10025000FE010E94252CC430D107C9F70E94942AC0
:100260000C94292CCDCEDC0101C06D93415050403F
:10027000E0F70895CF92EF920F938FEF99E060919E
:100280004F05409151052091530500915505E0908F
:100290005705C09059050E9491210F91EF90CF9082
:1002A00008953F924F925F926F927F928F929F92AA
:1002B000AF92BF92CF92DF92EF92FF920F931F9374
:1002C00081E18093480555245394B4E04B2EA7E078
:1002D0003A2EFFE09F2EE2E08E2E75E0772E68E04A
:1002E000662E53E0C52E46E0B42E39E0A32E1EE064
:1002F0000AE02BE0F22E9CE0E92E8DE0D82EBAC168
:100300008091380560E00E94322A809140050E9469
:10031000642A892B61F450924805609149057091D7
:100320004A0580914B0590914C050E94A82765E0F5
:1003300070E080E090E00E94A827809142050E9432
:10034000642A892B61F440924805609149057091B7
:100350004A0580914B0590914C050E94A82765E0C5
:1003600070E080E090E00E94A827809144050E9400
:10037000642A892B61F43092480560914905709197
:100380004A0580914B0590914C050E94A82765E095
:1003900070E080E090E00E94A827809146050E94CE
:1003A000642A892B61F49092480560914905709107
:1003B0004A0580914B0590914C050E94A82765E065
:1003C00070E080E090E00E94A8278091380561E00D
:1003D0000E94322A80913A0560E00E94322A809180
:1003E00040050E94642A892B61F48092480560913F
:1003F000490570914A0580914B0590914C050E94EA
:10040000A82765E070E080E090E00E94A827809136
:1004100042050E94642A892B61F47092480560911C
:10042000490570914A0580914B0590914C050E94B9
:10043000A82765E070E080E090E00E94A827809106
:1004400044050E94642A892B61F4609248056091FA
:10045000490570914A0580914B0590914C050E9489
:10046000A82765E070E080E090E00E94A8278091D6
:1004700046050E94642A892B61F410924805609118
:10048000490570914A0580914B0590914C050E9459
:10049000A82765E070E080E090E00E94A8278091A6
:1004A0003A0561E00E94322A80913C0560E00E949A
:1004B000322A809140050E94642A892B61F4C092FF
:1004C00048056091490570914A0580914B059091CE
:1004D0004C050E94A82765E070E080E090E00E9453
:1004E000A827809142050E94642A892B61F4B0926A
:1004F00048056091490570914A0580914B0590919E
:100500004C050E94A82765E070E080E090E00E9422
:10051000A827809144050E94642A892B61F4A09247
:1005200048056091490570914A0580914B0590916D
:100530004C050E94A82765E070E080E090E00E94F2
:10054000A827809146050E94642A892B61F41093A4
:1005500048056091490570914A0580914B0590913D
:100560004C050E94A82765E070E080E090E00E94C2
:10057000A82780913C0561E00E94322A80913E05C7
:1005800060E00E94322A809140050E94642A892BF3
:1005900061F4009348056091490570914A05809186
:1005A0004B0590914C050E94A82765E070E080E023
:1005B00090E00E94A827809142050E94642A892B1E
:1005C00061F4F09248056091490570914A05809167
:1005D0004B0590914C050E94A82765E070E080E0F3
:1005E00090E00E94A827809144050E94642A892BEC
:1005F00061F4E09248056091490570914A05809147
:100600004B0590914C050E94A82765E070E080E0C2
:1006100090E00E94A827809146050E94642A892BB9
:1006200061F4D09248056091490570914A05809126
:100630004B0590914C050E94A82765E070E080E092
:1006400090E00E94A82780913E0561E00E94322A36
:10065000809136050E94642A892B61F41093480525
:100660006091490570914A0580914B0590914C0528
:100670000E94A82780914805813109F441CE1F913D
:100680000F91FF90EF90DF90CF90BF90AF909F9031
:100690008F907F906F905F904F903F9008958FEF75
:1006A00099E063E142E00E94B01F8FEF99E00E9461
:1006B0009A1F80E090E0E091D90AF091DA0AE80F01
:1006C000F91F1082019622E080309207A1F78091F5
:1006D00036050E94642A0197D1F36CE271E080E054
:1006E00090E00E94A827A4EAB5E020E030E0E09185
:1006F000D90AF091DA0AE20FF31F8C9180832F5F01
:100700003F4F129682E02030380789F78FEF99E04B
:100710006DE042E00E94B01F8FEF99E00C94A21FA1
:100720000F931F93CF93DF93EC01162F042F8FEFBE
:1007300099E00E94B01F8FEF99E060E072E00E94A4
:10074000B92BCA30D1053CF4612F6E5F8FEF99E071
:10075000402F0E94B01FCE010A978A35910538F4C8
:10076000612F6F5F8FEF99E0402F0E94B01FC4365A
:10077000D10534F08FEF99E0612F402F0E94B01F18
:100780008FEF99E0BE014AE050E00E94A72BDF9175
:10079000CF911F910F910895DF92EF92FF920F93E7
:1007A0001F93CF93DF93D82E062F682F61508FEFC2
:1007B00099E0402F0E94B01F8FEF99E064E072E053
:1007C0000E94B92B80913C0560E00E94322A8FEF95
:1007D00099E00E949A1FEE24FF241EC08C2F912FB7
:1007E0006D2D70E0402F50E09BDF80912C059091A3
:1007F0002D050197E091D90AF091DA0AE80FF91F67
:10080000C083E0912C05F0912D05EE0FFF1FEE55F2
:10081000FA4FC08311837E01809146050E94642AAD
:100820000197D9F4809136050E94642A0197A9F4B2
:1008300080914D050E946D2864E070E00E94DA2BE3
:10084000172FC62FD72F62E370E080E090E00E9460
:10085000A827EC16FD0601F3C1CF8FEF99E00E94A7
:10086000A21F80913C0561E00E94322A6CE271E097
:1008700080E090E00E94A827DF91CF911F910F9117
:10088000FF90EF90DF9008951F9380913E0560E008
:100890000E94322A1FEF809144050E94642A01972A
:1008A00009F046C0809136050E94642A019709F03C
:1008B0003FC080912C0590912D050197E091D90AB8
:1008C000F091DA0AE80FF91F10836091FB0970E0DC
:1008D000625070404091FC098FEF90E050E020DFC3
:1008E00064E670E080E090E00E94A82780912C05EB
:1008F00090912D050197E091D90AF091DA0AE80F5D
:10090000F91F10826091FB0962508FEF99E04091CE
:10091000FC090E94B01F8FEF99E066E072E00E9430
:10092000B92B64E670E080E090E00E94A827B3CF86
:1009300080913E0561E00E94322A6CE271E080E025
:1009400090E00E94A8278FEF99E06091FB09409109
:10095000FC090E94B01F1F910895CF92DF92EF9281
:10096000FF920F931F938C016DE070E040E050E028
:10097000D7DE7EE0C72ED12CC00ED11EC60161E1AC
:1009800070E040E050E0CCDE62EAE62E65E0F62E54
:10099000F801EE0FFF1FEE0DFF1D8081918161E0D8
:1009A00070E041E050E0BCDEF8013196EE0FFF1F31
:1009B000EE0DFF1D8081918165E070E041E050E027
:1009C000AFDEF8013296EE0FFF1FEE0DFF1D8081A6
:1009D000918169E070E041E050E0A2DEF8013396D9
:1009E000EE0FFF1FEE0DFF1D808191816DE070E025
:1009F00041E050E095DEF8013496EE0FFF1FEE0D5A
:100A0000FF1D8081918161E170E041E050E088DE6E
:100A1000F8013596EE0FFF1FEE0DFF1D80819181CD
:100A200061E070E042E050E07BDEF8013696EE0FC8
:100A3000FF1FEE0DFF1D8081918165E070E042E0B7
:100A400050E06EDEF8013796EE0FFF1FEE0DFF1D32
:100A50008081918169E070E042E050E061DEF80160
:100A60003896EE0FFF1FEE0DFF1D808191816DE026
:100A700070E042E050E054DEF8013996EE0FFF1FBF
:100A8000EE0DFF1D8081918161E170E042E050E058
:100A900047DEF8013A96EE0FFF1FEE0DFF1D808135
:100AA000918161E070E043E050E03ADEF8013B966E
:100AB000EE0FFF1FEE0DFF1D8081918165E070E05C
:100AC00043E050E02DDE045F1F4FF801EE0FFF1FE3
:100AD000EE0DFF1D8081918169E070E043E050E000
:100AE0001FDE0F5F1F4F000F111F0E0D1F1DF8019E
:100AF000808191816DE070E043E050E011DECC0C2C
:100B0000DD1CEC0CFD1CF7018081918161E170E03E
:100B100043E050E005DE1F910F91FF90EF90DF90D2
:100B2000CF900895FF920F931F93CF93DF93F82EEA
:100B30008FEF99E06091FB094091FC090E94B01F82
:100B40008FEF99E06AE072E00E94B92B8FEF99E095
:100B50000E949A1F6091FB096E5F6093FB098FEF03
:100B600099E04091FC090E94B01F9BDB6091480511
:100B70006A3018F000E010E016C08FEF99E04AE00C
:100B800050E00E94582B8FEF99E06091FB09409153
:100B9000FC090E94B01F80914805082F10E01093B7
:100BA000FE090093FD09809148058E3009F4D8C0F4
:100BB00091E0F91691F48A3009F470C08B3009F491
:100BC00076C08C3009F47AC08D3039F488EC92E02C
:100BD0009093FE098093FD09DFC063DB8091480597
:100BE0008E3029F41093FE090093FD09B9C091E0FD
:100BF000F91659F48A3009F451C08B3009F457C002
:100C00008C3009F45BC08D3009F38A3018F0C0E0F5
:100C1000D0E029C06091FB0961506093FB098FEF20
:100C200099E04091FC090E94B01F8FEF99E0B80154
:100C30004AE050E00E94A72B8FEF99E060914805B1
:100C40004AE050E00E94582B80914805C82FD0E020
:100C50006091FB096F5F6093FB098FEF99E0409112
:100C6000FC090E94B01F1DDB809148058E3089F47D
:100C7000C801B3E0880F991FBA95E1F7000F111F63
:100C8000800F911FC80FD91FD093FE09C093FD0993
:100C900067C091E0F916C1F48A3039F48FEF90E023
:100CA0009093FE098093FD095BC08B3029F410926C
:100CB000FE091092FD0954C08C3019F484E692E0CC
:100CC00087CF8D3009F482CF8A3008F049C0609117
:100CD000FB0962506093FB098FEF99E04091FC099A
:100CE0000E94B01F8FEF99E0B8014AE050E00E94E7
:100CF000A72B8FEF99E0BE014AE050E00E94A72B9E
:100D00006091FB096E5F6093FB098FEF99E0409162
:100D1000FC090E94B01F8FEF99E0609148054AE0FE
:100D200050E00E94582B84E690E0089F9001099FB4
:100D3000300D189F300D112480914805280F311D6A
:100D4000CE01F3E0880F991FFA95E1F7CC0FDD1F74
:100D50008C0F9D1F280F391F3093FE092093FD092A
:100D60008FEF99E00E94A21F6091FB0970E0625032
:100D700070404091FC098091FD099091FE0950E07E
:100D8000CFDC6091FB0964506093FB098FEF99E021
:100D90004091FC090E94B01F8FEF99E00E94A21FB2
:100DA0008FEF99E06091FB094091FC090E94B01F10
:100DB0006CE271E080E090E00E94A827DF91CF9183
:100DC0001F910F91FF9008958FEF99E00E94D81F17
:100DD000A2EAB5E080E090E01D921D92E091D90A70
:100DE000F091DA0AE80FF91F1082019622E08130B3
:100DF000920791F78FEF99E00E94D81F8FEF99E04B
:100E000063E041E00E94B01F8FEF99E06EE072E076
:100E10000E94B92B8FEF99E063E042E00E94B01F7F
:100E20008FEF99E06EE172E00E94B92B8FEF99E0AD
:100E300063E143E00E94B01F8FEF99E00E949A1F88
:100E400060ED77E080E090E00E94A8278FEF99E0C6
:100E50000C94A21FCF93DF938FEF99E00E94D81FCD
:100E6000C0E0D0E08FEF99E0BE0142E050E00E9488
:100E7000A72B219682E0C130D807A1F78FEF99E028
:100E80000E94D81F8FEF99E063E040E00E94B01FFE
:100E90008FEF99E068E272E00E94B92B8FEF99E042
:100EA00061E041E00E94B01F8FEF99E068E372E0DB
:100EB0000E94B92B8FEF99E060E043E00E94B01FE1
:100EC0008FEF99E06CE472E00E94B92B8FEF99E00C
:100ED00060E04AE050E00E94582B8FEF99E063E514
:100EE00072E00E94B92B8FEF99E068E04AE050E091
:100EF0000E94582B8FEF99E06BE043E00E94B01FF7
:100F00008FEF99E065E572E00E94B92B8FEF99E0D1
:100F100060E04AE050E00E94582B8FEF99E063E5D3
:100F200072E00E94B92B8FEF99E064E04AE050E054
:100F30000E94582B8FEF99E060E040E00E94B01FC4
:100F40008FEF99E00E949A1F68EB7BE080E090E0D1
:100F50000E94A8278FEF99E00E94D81F8FEF99E099
:100F600063E041E00E94B01F8FEF99E06CE572E012
:100F70000E94B92B8FEF99E060E043E00E94B01F20
:100F80008FEF99E06BE672E00E94B92B8FEF99E04A
:100F900060E040E00E94B01F68EB7BE080E090E002
:100FA0000E94A8278FEF99E00E94A21FDF91CF91A6
:100FB000089586ED9AE061E072E00E942324682F94
:100FC0008091160A882361F46623D1F480915B0531
:100FD0006FE770E00E94A12881E08093160A0AC0A2
:100FE000813041F480915B0560E070E00E94A128AF
:100FF0001092160A6CE271E080E090E00C94A82751
:1010000080915B0570E0E6CF2F923F924F925F9206
:101010006F927F928F929F92AF92BF92CF92DF9208
:10102000EF92FF920F931F93DF93CF93CDB7DEB76D
:1010300063970FB6F894DEBF0FBECDBF89837B8B5D
:101040006A8B0091A9091091AA098FEF99E0602F8E
:10105000412F0E94B01F8FEF99E060E872E00E947C
:10106000B92B8A899B890D969B838A83EA89FB89A0
:101070003896FD83EC838A899B8903969F838E83B0
:10108000EA89FB893E96F987E8878A899B890996D0
:101090009B878A87EA89FB893496FD87EC876AE01B
:1010A000262E312C8A899B89280E391E0B969F8704
:1010B0008E87EA89FB893C96F98BE88B57E0852E71
:1010C000912C8A899B89880E991E46E0642E712C8A
:1010D000680E791E35E0432E512C480E591E6C01C6
:1010E0000894C11CD11C22E0A22EB12CA80EB91E5E
:1010F00084E1E82EF12C8091380560E00E94322ACC
:10110000809146050E94642A892B59F46091490513
:1011100070914A0580914B0590914C050E94A8273B
:1011200048DF8091380561E00E94322A80913205C3
:101130000E94642A892BF9F46CE271E080E090E06F
:101140000E94A8272091A9098091AA0990E08E9D6C
:10115000A0018F9D500D9E9D500D1124222309F456
:1011600024E12150FA01E20FF11DE555F64F80818F
:101170008130A1F724C0809134050E94642A892B14
:1011800009F56CE271E080E090E00E94A8272091D0
:10119000A9098091AA0990E08E9DA0018F9D500D14
:1011A0009E9D500D11242F5F243108F020E0FA019C
:1011B000E20FF11DE555F64F80818130A1F72093B4
:1011C000A9094EC1809130050E94642A892B09F536
:1011D0006CE271E080E090E00E94A8272091AA09CB
:1011E0008091A909482F50E02F5F243008F020E0BB
:1011F000822F90E08E9DF0018F9DF00D9E9DF00D51
:101200001124E40FF51FE555F64F8081813061F719
:1012100026C080912E050E94642A892B19F56CE264
:1012200071E080E090E00E94A8272091AA098091B7
:10123000A909482F50E0222309F424E02150822FED
:1012400090E08E9DF0018F9DF00D9E9DF00D11247C
:10125000E40FF51FE555F64F8081813061F720934B
:10126000AA09FEC0809136050E94642A892B09F0E4
:1012700042CF6CE271E080E090E00E94A8274091AC
:10128000AA096091A909842F90E08E9DF0018F9D9D
:10129000F00D9E9DF00D1124E60FF11DE555F64F62
:1012A0008081813009F0FAC08FEF99E00E94B01F71
:1012B0008FEF99E062E872E00E94B92B82E0C8C02B
:1012C0009091A9099C3031F48091AA09882309F0F2
:1012D00048C01FC0903181F48091AA09882309F089
:1012E00049C08FEF99E061E040E00E94B01F8FEFAE
:1012F00099E064E872E0A9C0943029F48091AA09C9
:101300008823F9F406C0983089F48091AA098823CB
:1013100001F58FEF99E061E040E00E94B01F8FEF90
:1013200099E064E872E00E94B92B85C0992339F4F2
:101330008091AA09813039F58A899B8977C09430D8
:1013400031F48091AA098130E1F4C6016FC0983070
:1013500031F48091AA098130E1F4C50167C09C3065
:1013600039F48091AA09813031F58E819F815EC068
:10137000903139F48091AA09813031F58C859D85B1
:1013800055C0992331F48091AA09823031F5C20108
:101390004DC0943031F48091AA09823031F5C301F7
:1013A00045C0983031F48091AA09823039F5C401E2
:1013B0003DC09C3039F48091AA09823041F58C817E
:1013C0009D8134C0903139F48091AA09823041F571
:1013D0008A859B852BC0992331F48091AA0983309B
:1013E00051F5C10123C0943039F48091AA098330AA
:1013F00011F58E859F851AC0983039F48091AA091D
:101400008330C9F48889998911C09C3039F480915E
:10141000AA09833081F48A819B8108C0903159F4F4
:101420008091AA09833039F48885998561E070E05C
:1014300040E050E075D98FEF99E060E140E00E9414
:10144000B01F8FEF99E068E872E00E94B92B81E04D
:101450000091A9091091AA09823009F04CCE1FC051
:101460008FEF99E0602F412F0E94B01F8FEF99E01E
:101470006AE872E00E94B92B8FEF99E06091A909A8
:101480004091AA090E94B01F8FEF99E060E872E0D6
:101490000E94B92B99819130D1F612CFFFCF63967C
:1014A0000FB6F894DEBF0FBECDBFCF91DF911F9175
:1014B0000F91FF90EF90DF90CF90BF90AF909F90F3
:1014C0008F907F906F905F904F903F902F900895F6
:1014D0001F93182F8FEF99E00E94D81F68EC70E0DF
:1014E00080E090E00E94A8278FEF99E066E040E05E
:1014F0000E94B01F8FEF99E06CE872E00E94B92B58
:101500008FEF99E061E041E00E94B01F8FEF99E01A
:1015100069E972E00E94B92B8FEF99E061E042E047
:101520000E94B01F8FEF99E06DEA72E00E94B92B24
:101530008FEF99E061E043E00E94B01F8FEF99E0E8
:1015400061EC72E00E94B92B123079F01330C1F0D7
:10155000113011F58FEF99E061E040E00E94B01F7B
:101560008FEF99E064ED72E015C08FEF99E061E0D4
:1015700040E00E94B01F8FEF99E069ED72E00AC071
:101580008FEF99E060E040E00E94B01F8FEF99E09C
:101590006EED72E00E94B92B8FEF99E063E140E0BD
:1015A0000E94B01F6091A809662339F48FEF99E07B
:1015B00068E872E00E94B92B06C08FEF99E04AE01C
:1015C00050E00E94582B1092A90981E08093AA094B
:1015D000EBEAF9E0DF0198961082148A1C92549687
:1015E0001C9254973196119689E0EF3BF807A1F7CA
:1015F00081E08083848B80A78783838F87A78687FA
:1016000082A386AB80E060E070E0FEDC8091A909F7
:10161000882349F48091AA09813001F18230F1F0E8
:10162000833031F51BC0873071F48091AA09813075
:1016300011F484E013C0823011F485E00FC08330D0
:10164000B9F486E00BC08E3099F48091AA098130FC
:1016500011F487E003C0823021F488E08093A80968
:1016600007C020E030E0833029F421E030E002C000
:1016700020E030E0C9011F910895EF92FF920F938F
:101680001F93CF93DF9382E023DF019719F421E0CA
:1016900030E099C08FEF99E00E94D81F74EAE72EDE
:1016A00075E0F72E00E010E0C1E0D0E08091A809DD
:1016B0008430E1F0853038F4823081F0833090F46A
:1016C000813069F509C08630C9F0863098F08730DE
:1016D000C9F0883021F51AC08E0121C08E0100505A
:1016E0001E4F1DC08E0100501C4F19C08E010050AE
:1016F0001A4F15C08E010050184F11C08E010050B6
:10170000164F0DC08E010050144F09C08E010050BD
:10171000124F8FE00E3F180714F00DEF1FE086ED1B
:101720009AE0B8010E942324F70180831182219757
:10173000E091D90AF091DA0AEC0FFD1F808322961E
:1017400082E090E0E80EF91E92E0C130D90709F07E
:10175000ADCF8FEF99E00E94D81F8FEF99E063E043
:1017600041E00E94B01F8FEF99E064EE72E00E94AA
:10177000B92B8FEF99E063E042E00E94B01F8FEF3A
:1017800099E063EF72E00E94B92B8FEF99E06091CE
:10179000A8094AE050E00E94582B8FEF99E063E1DE
:1017A00043E00E94B01F8FEF99E00E949A1F60ED06
:1017B00077E080E090E00E94A8278FEF99E00E94F8
:1017C000A21F20E030E0C901DF91CF911F910F915E
:1017D000FF90EF900895609161057091620586ED2C
:1017E0009AE00E942324682F863908F466E98091E4
:1017F0005D0570E00C94A1281F9360915F057091C6
:10180000600586ED9AE00E942324182F80915B05E5
:10181000612F70E00E94A128112319F41092160A7A
:1018200003C081E08093160A1F910895EF92FF9202
:101830000F931F93CF93DF9383E04ADE019719F450
:1018400021E030E0C5C08FEF99E00E94D81F8FEFF4
:1018500099E061E041E00E94B01F8FEF99E06AEFEC
:1018600072E00E94B92B8FEF99E061E042E00E94A4
:10187000B01F8FEF99E063EF72E00E94B92B8FEFFA
:1018800099E067E042E00E94B01F8FEF99E060911D
:10189000A8094AE050E00E94582B8FEF99E063E1DD
:1018A00043E00E94B01F8FEF99E00E949A1FE2EA86
:1018B000EE2EE5E0FE2EC0E0D0E000E010E0F70103
:1018C00011821082E091D90AF091DA0AEC0FFD1F23
:1018D00010828091A8098430E1F0853038F482309C
:1018E00081F0833090F4813069F509C08630C9F009
:1018F000863098F08730C9F0883021F51AC08E0103
:1019000021C08E0100501E4F1DC08E0100501C4F83
:1019100019C08E0100501A4F15C08E010050184F8B
:1019200011C08E010050164F0DC08E010050144F93
:1019300009C08E010050124FFFE00E3F1F0714F048
:101940000DEF1FE086ED9AE0B80140E00E942A24E6
:10195000219682E090E0E80EF91E92E0C130D907AE
:1019600009F0ADCF8FEF99E00E94D81F8FEF99E07B
:1019700062E041E00E94B01F8FEF99E06DE073E0FC
:101980000E94B92B8FEF99E062E042E00E94B01F05
:101990008FEF99E063EF72E00E94B92B8FEF99E02F
:1019A0006091A8094AE050E00E94582B8FEF99E01F
:1019B00063E143E00E94B01F60ED77E080E090E0DB
:1019C0000E94A8278FEF99E00E94A21F20E030E03C
:1019D000C901DF91CF911F910F91FF90EF90089572
:1019E000EF92FF920F931F93CF93DF9381E070DD0F
:1019F000019719F421E030E0BDC08FEF99E00E941B
:101A0000D81F8FEF99E061E041E00E94B01F8FEF97
:101A100099E06DE173E00E94B92B8FEF99E061E0EE
:101A200042E00E94B01F8FEF99E063EF72E00E94E6
:101A3000B92B8FEF99E067E042E00E94B01F8FEF73
:101A400099E06091A8094AE050E00E94582B8FEF7E
:101A500099E063E143E00E94B01F8FEF99E00E949C
:101A60009A1FF4EAEF2EF5E0FF2EC0E0D0E001E08F
:101A700010E08091A8098430E1F0853038F482309C
:101A800081F0833090F4813069F509C08630C9F067
:101A9000863098F08730C9F0883021F51AC0E80107
:101AA00021C0E801C050DE4F1DC0E801C050DC4F2E
:101AB00019C0E801C050DA4F15C0E801C050D84F36
:101AC00011C0E801C050D64F0DC0E801C050D44F3E
:101AD00009C0E801C050D24F8FE0CE3FD80714F0C4
:101AE000CDEFDFE086ED9AE0BE01F70140810E9474
:101AF0002A240F5F1F4F82E090E0E80EF91E92E06B
:101B00000130190709F0B5CF8FEF99E00E94D81F77
:101B10008FEF99E063E041E00E94B01F8FEF99E002
:101B20006EE273E00E94B92B8FEF99E063E042E030
:101B30000E94B01F8FEF99E063EF72E00E94B92B13
:101B40008FEF99E06091A8094AE050E00E94582B7D
:101B50008FEF99E063E143E00E94B01F60ED77E012
:101B600080E090E00E94A8278FEF99E00E94A21FDA
:101B700020E030E0C901DF91CF911F910F91FF90DC
:101B8000EF9008958FEF99E00E94D81F8FEF99E0B2
:101B900060E040E00E94B01F8FEF99E06CE373E0DB
:101BA0000E94B92B6091A809662339F48FEF99E060
:101BB00068E872E00E94B92B06C08FEF99E04AE016
:101BC00050E00E94582B8FEF99E061E042E00E94C4
:101BD000B01F8FEF99E064ED72E00E94B92B8FEF98
:101BE00099E061E043E00E94B01F8FEF99E069ED5A
:101BF00072E00E94B92B8FEF99E067E042E00E940B
:101C0000B01F8FEF99E060E573E00E94B92B8FEF72
:101C100099E067E043E00E94B01F8FEF99E06EED1E
:101C200072E00E94B92B8FEF99E06EE042E00E94D3
:101C3000B01F8FEF99E066E573E00E94B92B8FEF3C
:101C400099E06EE043E00E94B01F8FEF99E06CE5F1
:101C500073E00E94B92B1092A90982E08093AA092F
:101C6000EBEAF9E0DF0198961082148A1C925496F0
:101C70001C9254973196119689E0EF3BF807A1F733
:101C800081E0848B80A786A7828F81A385AB80E0CB
:101C900060E070E0B9D98091A909882349F4809166
:101CA000AA09833081F4E9DC019709F46BCF089528
:101CB000863099F48091AA09833061F4B7DD0197E9
:101CC00009F460CF0895823089F48ADE019709F41F
:101CD00059CF0895823051F477C88D3039F480910E
:101CE000AA09823019F40E944F03D1CF08952F9290
:101CF0003F924F925F926F927F928F929F92AF929C
:101D0000BF92CF92DF92EF92FF920F931F93DF93D8
:101D1000CF93CDB7DEB7C151D0410FB6F894DEBF37
:101D20000FBECDBF8FEF99E00E94D81F8FEF99E0D3
:101D300060E040E00E94B01F8FEF99E063E673E03F
:101D40000E94B92B6091A809662339F48FEF99E0BE
:101D500068E872E00E94B92B06C08FEF99E04AE074
:101D600050E00E94582B8FEF99E064E041E00E9420
:101D7000B01F8FEF99E067E773E00E94B92B8FEFF8
:101D800099E060E042E00E94B01F8FEF99E068E8C0
:101D900073E00E94B92B8FEF99E060E043E00E946E
:101DA000B01F8FEF99E06CE973E00E94B92B89E0D6
:101DB0008093A90981E08093AA09EBEAF9E0DF01A9
:101DC00098961082148A1C9254961C9254973196BD
:101DD000119629E0EF3BF207A1F781E08187858F1B
:101DE00081AB82A386AB51E0252E312C41E0442EFD
:101DF000512C38E0632E712C80E060E070E004D953
:101E00008091A909893009F09FC08091AA09813089
:101E100039F58093FC098AE08093FB093092FE0932
:101E20002092FD0980E00E9492052090FD093090EB
:101E3000FE092114310401F781E090E06AE070E0CE
:101E400041E050E00E94900381E090E06AE070E0A1
:101E500041E050E00E94900321E0222E312CCCCFB3
:101E60008230C9F58093FC098AE08093FB09509287
:101E7000FE094092FD0980E00E9492054090FD0914
:101E80005090FE094114510499F481E090E06AE019
:101E900070E042E050E00E94900381E090E06AE050
:101EA00070E042E050E00E94900391E0492E512CF6
:101EB0008091FD099091FE0909970CF49DCF88E06F
:101EC00090E06AE070E042E050E00E94900388E019
:101ED000482E512C91CF833009F04BC08093FC09E0
:101EE0008AE08093FB097092FE096092FD0980E010
:101EF0000E9492056090FD097090FE0961147104C2
:101F000099F481E090E06AE070E042E050E00E94E5
:101F1000900381E090E06AE070E043E050E00E94CE
:101F2000900301E0602E712C8091FD099091FE09D3
:101F300009970CF461CF88E090E06AE070E042E03D
:101F400050E00E94900355CF8E3099F48091AA09F9
:101F5000823079F480E090E0E091D90AF091DA0AD9
:101F6000E80FF91F10820196A2E081309A07A1F7CD
:101F7000C9D28091A9098E3009F0AAC28091AA091C
:101F8000833009F0A5C28FEF99E06EE043E00E9434
:101F9000B01F8FEF99E062E872E00E94B92B8FEFDB
:101FA00099E06FE043E00E94B01F8FEF99E061EB92
:101FB00073E00E94B92B8FEF99E063E143E00E9448
:101FC000B01FFF246414750414F4FF24F394FE017D
:101FD000319689E0DF011D928A95E9F7FF2099F497
:101FE00081E090E09F0141E0841595053CF0681682
:101FF000790624F0F901E80FF91F40830196893032
:10200000910591F711C088E090E09F0141E04816EA
:1020100059063CF08615970524F0F901E80FF91FE1
:1020200040830197882399F78A818130A1F400E0E9
:1020300010E086ED9AE0B8010E942324EAE0F0E087
:10204000EC0FFD1FE00FF11F80830F5F1F4FB2E009
:1020500001301B0771F78B818130B1F400E010E093
:10206000B80160507E4F86ED9AE00E942324EAE09A
:10207000F2E0EC0FFD1FE00FF11F80830F5F1F4F99
:10208000E2E001301E0761F78C818130B1F400E09D
:1020900010E0B80160507C4F86ED9AE00E94232446
:1020A000EAE0F4E0EC0FFD1FE00FF11F80830F5F0B
:1020B0001F4FF2E001301F0761F78D818130B1F4CD
:1020C00000E010E0B80160507A4F86ED9AE00E947F
:1020D0002324EAE0F6E0EC0FFD1FE00FF11F808300
:1020E0000F5F1F4F22E00130120761F78E818130B0
:1020F000B1F400E010E0B8016050784F86ED9AE04E
:102100000E942324EAE0F8E0EC0FFD1FE00FF11F2E
:1021100080830F5F1F4F82E00130180761F78F81C6
:102120008130B1F400E010E0B8016050764F86EDE8
:102130009AE00E942324EAE0FAE0EC0FFD1FE00F92
:10214000F11F80830F5F1F4F92E00130190761F785
:1021500088858130B1F400E010E0B8016050744F20
:1021600086ED9AE00E942324EAE0FCE0EC0FFD1FDC
:10217000E00FF11F80830F5F1F4FA2E001301A07AD
:1021800061F789858130B1F400E010E0B80160505A
:10219000724F86ED9AE00E942324EAE0FEE0EC0F05
:1021A000FD1FE00FF11F80830F5F1F4FB1E00F3F56
:1021B0001B0761F7FF2009F0C3C012E0812E912CAC
:1021C0008C0E9D1EBB24B394AA24A394C101AA27FC
:1021D00097FDA095BA2FC65FDF4E88839983AA83A7
:1021E000BB83CA50D041D401AC928FEF99E063E138
:1021F00040E00E94B01F8FEF99E06B2D4AE050E065
:102200000E94582BCC24DD24B4E0BB16A1F1BB15F1
:1022100050F0E2E0BE16E9F0EB1520F1F1E0BF1658
:1022200009F05BC00DC026E0B216B9F1B21660F13C
:1022300087E0B816D9F198E0B91609F04EC03FC052
:10224000E091D90AF091DA0AEC0DFD1DAAE0B0E0A8
:102250003EC0E091D90AF091DA0AEC0DFD1DAAE02A
:10226000B2E035C0E091D90AF091DA0AEC0DFD1D1B
:10227000AAE0B4E02CC0E091D90AF091DA0AEC0DA2
:10228000FD1DAAE0B6E023C0E091D90AF091DA0A78
:10229000EC0DFD1DAAE0B8E01AC0E091D90AF0915A
:1022A000DA0AEC0DFD1DAAE0BAE011C0E091D90AEE
:1022B000F091DA0AEC0DFD1DAAE0BCE008C0E09147
:1022C000D90AF091DA0AEC0DFD1DAAE0BEE0AC0FD0
:1022D000BD1FAC0DBD1D8C918083809136050E9481
:1022E000642A019709F0DDC0EE24FF24870109C0AC
:1022F00084E690E00E9401280894E11CF11C011D75
:10230000111DC65FDF4E88819981AA81BB81CA50A9
:10231000D0418E159F05A007B10754F70894C11C42
:10232000D11C91E0C91692E0D90609F06DCFB394A3
:102330000894811C911CA9E0BA1609F4C9C053CFB6
:10234000B9E08B2E912C8C0E9D1EA8E0BA2EAA24EB
:10235000A394C101AA2797FDA095BA2FC25FDF4EB3
:1023600088839983AA83BB83CE50D041D401AC9299
:102370008FEF99E063E140E00E94B01F8FEF99E09A
:102380006B2D4AE050E00E94582BCC24DD24B4E0B1
:10239000BB16A1F1BB1550F0E2E0BE16E9F0EB155B
:1023A00020F1F1E0BF1609F05BC00DC026E0B216C7
:1023B000B9F1B21660F187E0B816D9F198E0B91614
:1023C00009F04EC03FC0E091D90AF091DA0AEC0D55
:1023D000FD1DAAE0B0E03EC0E091D90AF091DA0A12
:1023E000EC0DFD1DAAE0B2E035C0E091D90AF091F4
:1023F000DA0AEC0DFD1DAAE0B4E02CC0E091D90A88
:10240000F091DA0AEC0DFD1DAAE0B6E023C0E091E0
:10241000D90AF091DA0AEC0DFD1DAAE0B8E01AC065
:10242000E091D90AF091DA0AEC0DFD1DAAE0BAE0BC
:1024300011C0E091D90AF091DA0AEC0DFD1DAAE075
:10244000BCE008C0E091D90AF091DA0AEC0DFD1D5C
:10245000AAE0BEE0AC0FBD1FAC0DBD1D8C9180830A
:10246000809136050E94642A0197D9F4EE24FF2456
:10247000870109C084E690E00E9401280894E11CCD
:10248000F11C011D111DC25FDF4E88819981AA8157
:10249000BB81CE50D0418E159F05A007B10754F7E0
:1024A00007C068EC70E080E090E00E94A827A4CC10
:1024B0000894C11CD11C91E0C91692E0D90609F01C
:1024C00066CFBA94089481089108BB2009F04ECFDA
:1024D000CF5EDF4E0FB6F894DEBF0FBECDBFCF91FB
:1024E000DF911F910F91FF90EF90DF90CF90BF9001
:1024F000AF909F908F907F906F905F904F903F90A4
:102500002F9008958FEF99E00E94D81F8FEF99E0E8
:1025100060E040E00E94B01F8FEF99E067EB73E04E
:102520000E94B92B6091A809662339F48FEF99E0D6
:1025300068E872E00E94B92B06C08FEF99E04AE08C
:1025400050E00E94582B8FEF99E062E041E00E943A
:10255000B01F8FEF99E06BEC73E00E94B92B8FEF07
:1025600099E062E042E00E94B01F8FEF99E063EDD6
:1025700073E00E94B92B8FEF99E062E043E00E9484
:10258000B01F8FEF99E06AED73E00E94B92B8FEFD7
:1025900099E06BE043E00E94B01F8FEF99E061EE9D
:1025A00073E00E94B92B8FEF99E06BE041E00E944D
:1025B000B01F8FEF99E06AEE73E00E94B92B8FEFA6
:1025C00099E06BE042E00E94B01F8FEF99E061EF6D
:1025D00073E00E94B92B81E08093A90982E0809387
:1025E000AA09EBEAF9E0DF0198961082148A1C929E
:1025F00054961C9254973196119689E0EF3BF80758
:10260000A1F781E08183858B81A782AB8287868F4A
:1026100080E060E070E00E9404088091A9098130A8
:1026200029F48091AA09813009F42FD08091A90959
:10263000813031F48091AA09823011F40E947A1B12
:102640008091A909813029F48091AA09833009F485
:102650007DD18091A9098A3029F48091AA0983301B
:1026600009F470D38091A9098A3029F48091AA09CC
:10267000813009F4D1D58091A9098A3029F480915B
:10268000AA09823009F433CB0895AF92BF92CF925A
:10269000DF92EF92FF920F931F93CF93DF93C1E0EE
:1026A000D0E098E0A92E01E089E0B82EC12C12E01C
:1026B000D12EBFEFEB2EF12CD0932D05C0932C051E
:1026C0008FEF99E00E94D81F8FEF99E060E040E023
:1026D0000E94B01F8FEF99E06BEF73E00E94B92B5F
:1026E0006091A809662339F48FEF99E068E872E0F9
:1026F0000E94B92B06C08FEF99E04AE050E00E949B
:10270000582B8FEF99E06EE042E00E94B01F8FEFF0
:1027100099E06FE074E00E94B92B8FEF99E06EE0D2
:1027200043E00E94B01F8FEF99E064E174E00E94E3
:10273000B92B8FEF99E060E042E00E94B01F8FEF6D
:1027400099E06BE174E00E94B92B8FEF99E062E0B1
:1027500043E00E94B01F8FEF99E068E274E00E94AE
:10276000B92B8091A4059091A50569E070E043E044
:1027700050E00E949003A092A90982E08093AA09E8
:10278000EBEAF9E0DF0198961082148A1C925496C5
:102790001C9254973196119629E0EF3BF207A1F76E
:1027A000048F00AB01A305AB80E060E070E00E9405
:1027B00004088091A909883009F058C01091AA092D
:1027C000123009F053C080912C0590912D0569E0DD
:1027D00070E042E050E00E9490031093FC09B09238
:1027E000FB0980912C0590912D059093FE09809313
:1027F000FD0980E00E9492058091FD099091FE09FB
:102800008150924064F0D092FE09C092FD0980E0B0
:1028100092E069E070E042E050E00E949003809115
:10282000FD099091FE091816190664F0D093FE096F
:10283000C093FD0981E090E069E070E042E050E083
:102840000E949003E091FD09F091FE09F0932D059F
:10285000E0932C05EE0FFF1FEE55FA4F808191811A
:1028600069E070E043E050E00E9490038091A90984
:10287000883009F05DC08091AA09833009F094CFB7
:102880008093FC09B092FB09E0912C05F0912D0595
:10289000EE0FFF1FEE55FA4F808191819093FE0954
:1028A0008093FD0981E00E9492058091FD0990913D
:1028B000FE098456924011F40E9444048091FD095F
:1028C0009091FE0922E0883C920729F489E063E0B8
:1028D0000E94CC0369CF8F3F910569F064F0F092BC
:1028E000FE09E092FD098FEF90E069E070E043E0BF
:1028F00050E00E94900380912C0590912D05019746
:10290000E091D90AF091DA0AE80FF91F8091FD09E8
:102910008083E0912C05F0912D05EE0FFF1FEE5501
:10292000FA4F8091FD099091FE09918380833CCFFD
:102930008D3009F039CF8091AA09833011F422D962
:10294000BBCE823009F030CFDDDD2ECF2F923F920B
:102950004F925F926F927F928F929F92AF92BF92AF
:10296000CF92DF92EF92FF920F931F93DF93CF935B
:1029700000D000D0CDB7DEB78FEF99E00E94D81F0E
:102980008FEF99E060E040E00E94B01F8FEF99E088
:102990006FE274E00E94B92B8FEF99E063E041E0B1
:1029A0000E94B01F8FEF99E06CE374E00E94B92B96
:1029B0008FEF99E060E042E00E94B01F8FEF99E056
:1029C0006CE474E00E94B92B8FEF99E060E043E083
:1029D0000E94B01F8FEF99E060E674E00E94B92B6F
:1029E00081E090E069E070E041E050E00E949003F7
:1029F00081E090E069E070E042E050E00E949003E6
:102A000080E090E069E070E043E050E00E949003D5
:102A100088E08093A90981E08093AA0921E030E051
:102A200040E050E029833A834B835C83442455245F
:102A3000320161E0862E912CA12CB12CEBEAF9E059
:102A4000DF0198961082148A1C9254961C92549717
:102A50003196119639E0EF3BF307A1F741E040874B
:102A6000448F40AB42A346AB80E060E070E00E9440
:102A700004088091A9098E30C1F48091AA0982309E
:102A8000A1F4A4EAB5E020E030E0E091D90AF091A9
:102A9000DA0AE20FF31F8C9180832F5F3F4F12966B
:102AA00052E02030350789F72DDD8091A9098E305D
:102AB00009F096C08091AA09833009F0B2C01401D0
:102AC0008FEF99E06FE043E00E94B01F8FEF99E035
:102AD00061EB73E00E94B92B8FEF99E00E949A1F7F
:102AE00080E090E0E091D90AF091DA0AE80FF91F4E
:102AF00010820196A2E081309A07A1F761014DC0D2
:102B0000ED81FE813196FE83ED83E451F54009F0BD
:102B100049C00894E11CF11C011D111D89819A8195
:102B2000AB81BC81E816F9060A071B07C9F5C60187
:102B3000AA2797FDA095BA2F481659066A067B0664
:102B40000CF46101C60169E070E040E050E00E94D1
:102B50009003A50194010DC0C9010197E091D90A24
:102B6000F091DA0AE80FF91F10822F5F3F4F4F4FA5
:102B70005F4F421653066406750674F70894C10841
:102B8000D108E091D90AF091DA0AEC0DFD1D9FEF12
:102B90009083A2E0B0E0CA0EDB1EEE24FF24870182
:102BA0001E821D82809136050E94642A019709F4D5
:102BB000A7CF8FEF99E00E94A21F8FEF99E06FE0FF
:102BC00043E00E94B01F8FEF99E065E774E00E9438
:102BD000B92B6CE271E080E090E00E94A8272ECF34
:102BE0008830F9F48091AA098130D9F48093FC09E6
:102BF000B9E0B093FB09E981FA81F093FE09E09313
:102C0000FD0980E00E9492058091FD099091FE09E6
:102C10009C01442737FD4095542F29833A834B83E9
:102C20005C838091A909883009F042C08091AA098B
:102C30008230F1F58093FC0939E03093FB099092E2
:102C4000FE098092FD0980E00E9492058091FD09B5
:102C50009091FE094C01AA2497FCA094BA2C8114EF
:102C60009104A104B10471F481E090E069E070E0A6
:102C700042E050E00E94900351E0852E912CA12C5F
:102C8000B12C16C041E0841642E0940640E0A40650
:102C900040E0B4066CF080E092E069E070E042E071
:102CA00050E00E949003812C42E0942EA12CB12C84
:102CB0008091A909883009F0C1CE8091AA0983309A
:102CC00009F0BCCE8093FC0959E05093FB09509267
:102CD000FE094092FD0980E00E9492058091FD0965
:102CE0009091FE092C01662457FC6094762C4114C7
:102CF00051046104710471F481E090E069E070E0D6
:102D000043E050E00E94900331E0432E512C612CAF
:102D1000712C94CE81E0481682E0580680E0680667
:102D200080E078060CF48ACE80E092E069E070E002
:102D300043E050E00E949003412C22E0522E612C8F
:102D4000712C7CCE2F923F924F925F926F927F9226
:102D50008F929F92AF92BF92CF92DF92EF92FF92AB
:102D60000F931F93DF93CF93CDB7DEB728970FB69E
:102D7000F894DEBF0FBECDBF66247724430181E007
:102D800090E098878F83AA24BB246501AFEFB0E061
:102D9000BA83A9838FEF99E00E94D81F8FEF99E043
:102DA00060E040E00E94B01F8FEF99E06BE774E0B5
:102DB0000E94B92B8FEF99E061E040E00E94B01FC4
:102DC0006091A809662339F48FEF99E068E872E012
:102DD0000E94B92B06C08FEF99E04AE050E00E94B4
:102DE000582B8FEF99E060E041E00E94B01F8FEF19
:102DF00099E064E874E00E94B92B8FEF99E060E0FD
:102E000042E00E94B01F8FEF99E067E974E00E94F2
:102E1000B92B8FEF99E060E043E00E94B01F8FEF85
:102E200099E06CEA74E00E94B92B89819A8169E08B
:102E300070E040E050E00E9490038F81988569E047
:102E400070E041E050E00E949003C30169E070E04F
:102E500042E050E00E949003C50169E070E043E069
:102E600050E00E949003B8E0B093A9091092AA091B
:102E7000EBEAF9E0DF0198961082148A1C925496CE
:102E80001C9254973196119629E0EF3BF207A1F777
:102E900081E0808780AB848F858781A385AB809319
:102EA000B30980E060E070E00E9404088091A90905
:102EB0008D3029F48091AA09813009F423DB8091B7
:102EC000A9098D3009F0ABC08091AA09823019F4AC
:102ED0000E94C20D5FCF833009F0DBC0C601B5018F
:102EE000A40193010E94BB2B61507240804090402E
:102EF0005CF08FEF99E06DE040E00E94B01F8FEF33
:102F000099E060EC74E088C08FEF99E06DE040E0FC
:102F10000E94B01F8FEF99E068EC74E00E94B92B1B
:102F20008FEF99E06EE043E00E94B01F8FEF99E0D1
:102F300060ED74E00E94B92B11E0E12EF12C012D1F
:102F4000112D8F819885AA2797FDA095BA2F8B8385
:102F50009C83AD83BE8346C091E0E916F104010570
:102F6000110509F054C12B803C804D805E80A1E0AA
:102F70002A16A2E03A06A0E04A06A0E05A0634F07B
:102F80002618370848085908860175018FEF99E01F
:102F900061E140E0E5D78FEF99E0B201A1012AE0BD
:102FA00030E00E94692B65E070E080E090E00E94D4
:102FB000A827C10101972091D90A3091DA0A280F78
:102FC000391F8981F9018083F101EE0FFF1FEE5552
:102FD000FA4FA981BA81B183A0830894E11CF11C46
:102FE000011D111DAE14BF04C006D1060CF0B4CFF4
:102FF0008FEF99E06DE040E0B3D78FEF99E067ED98
:1030000074E00E94B92B8FEF99E06EE043E0A8D7FF
:103010008FEF99E06BED74E00E94B92B29CF8830D7
:10302000C1F58091AA098130A1F58093FC09B9E02E
:10303000B093FB09EF81F885F093FE09E093FD0959
:1030400080E00E9492058091FD099091FE09988789
:103050008F83892B69F481E090E069E070E041E0C2
:1030600050E00E949003A1E0B0E0B887AF8311C0A8
:10307000EF81F885E150F24064F080E092E069E091
:1030800070E041E050E00E94900380E092E0988779
:103090008F838091A909883009F042C08091AA09E4
:1030A0008230F1F58093FC0999E09093FB097092CE
:1030B000FE096092FD0980E00E9492058091FD0961
:1030C0009091FE093C01882477FC8094982C61142F
:1030D00071048104910471F481E090E069E070E092
:1030E00042E050E00E949003A1E06A2E712C812CF6
:1030F000912C16C0A1E06A16A2E07A06A0E08A062A
:10310000A0E09A066CF080E092E069E070E042E0B6
:1031100050E00E949003612CF2E07F2E812C912CD4
:103120008091A909883009F042C08091AA098330B2
:10313000F1F58093FC09B9E0B093FB09B092FE0968
:10314000A092FD0980E00E9492058091FD09909176
:10315000FE095C01CC24B7FCC094DC2CA114B104A2
:10316000C104D10471F481E090E069E070E043E0D3
:1031700050E00E949003E1E0AE2EB12CC12CD12C86
:1031800016C0E1E0AE16E2E0BE06E0E0CE06E0E00A
:10319000DE066CF080E092E069E070E043E050E031
:1031A0000E949003A12C72E0B72EC12CD12C8091EB
:1031B000A909883009F05CCE8091AA09882309F01A
:1031C00057CE1092FC09F9E0F093FB0989819A81AE
:1031D0009093FE098093FD0981E00E949205A091E1
:1031E000FD09B091FE09BA83A983AF3FB10509F08B
:1031F0000CF43ECE8FEF90E069E070E040E050E0EC
:103200000E949003EFEFF0E0FA83E98331CE260CC1
:10321000371C481C591CABCECF92DF92EF92FF9225
:103220000F931F93CF93DF939EE0C92E8FE0D82E8C
:10323000CFEFD0E006E9E02EF12C60915F057091B0
:10324000600586ED9AE00E942324182F60916105A5
:103250007091620586ED9AE00E942324082F8FEF7B
:1032600099E0A6D68FEF99E060E040E079D68FEF45
:1032700099E062EE74E00E94B92B8FEF99E06FE065
:1032800040E06ED68FEF99E06EEE74E00E94B92BAD
:103290008FEF99E063E041E063D68FEF99E064EF50
:1032A00074E00E94B92B812F90E06FE070E041E064
:1032B00050E00E9490038FEF99E065E042E050D625
:1032C0008FEF99E060E075E00E94B92B802F90E0CD
:1032D0006FE070E042E050E00E9490038FEF99E0D1
:1032E0006FE043E03DD68FEF99E06FE074E00E941D
:1032F000B92BC092A90982E08093AA09EBEAF9E010
:10330000DF0198961082148A1C9254961C9254974E
:103310003196119629E0EF3BF207A1F781E086870D
:1033200082A386AB8093B90980E060E070E00E94E0
:1033300004088091A9098E30B9F78091AA098130DB
:1033400009F081C08093FC09D092FB090E9492058C
:103350008091FD099091FE0922E0883C920709F0D6
:1033600043C08FEF99E06EE041E0FAD58FEF99E02E
:1033700064E072E00E94B92B80913C0560E00E94FD
:10338000322A8FEF99E0D6D5809146050E94642AB3
:10339000019709F00EC1809136050E94642A0197B9
:1033A00009F007C180914D050E946D2864E070E02E
:1033B0000E94DA2BCB016093FD099093FE096FE028
:1033C00070E041E050E00E9490036091FD0970912F
:1033D000FE0980915B050E94A12862E370E080E015
:1033E00090E00E94A827D0CF8F3F910569F064F04C
:1033F000D093FE09C093FD098FEF90E06FE070E07D
:1034000041E050E00E9490036091FD097091FE0937
:1034100080915B050E94A1284091FD095091FE0911
:103420004115510519F41092160A06C01416150616
:103430001CF481E08093160A60915F05709160052D
:1034400086ED9AE09CC0823009F09CC08093FC0914
:10345000D092FB0981E00E9492058091FD09909134
:10346000FE0922E0883C920709F056C08FEF99E0F0
:103470006EE042E075D58FEF99E064E072E00E9463
:10348000B92B80913C0560E00E94322A8FEF99E0D1
:1034900051D523C06FE070E042E050E00E949003FD
:1034A0006091FD097091FE0980915D050E94A1283F
:1034B0008091FD099091FE098539910544F486E9D2
:1034C00090E06FE070E042E050E00E94900362E321
:1034D00070E080E090E00E94A827809146050E945D
:1034E000642A019709F074C0809136050E94642A0D
:1034F000019709F06DC080914D050E946D2864E030
:1035000070E00E94DA2BCB017093FE096093FD09F5
:10351000663971056CF2BECF8F3F910569F064F09A
:10352000D093FE09C093FD098FEF90E06FE070E04B
:1035300042E050E00E9490038091FD099091FE09C5
:103540008639910564F4F092FE09E092FD0986E95E
:1035500090E06FE070E042E050E00E9490036091E4
:10356000FD097091FE0980915D050E94A12860917E
:1035700061057091620586ED9AE04091FD090E9417
:103580002A24D2CE833019F40E948212CDCE882311
:1035900009F0CACE0E942A07809136050E94642A4B
:1035A0000197D1F36CE271E080E090E00E94A827DF
:1035B00044CE8FEF99E0C6D480913C0561E00E9433
:1035C000322A6CE271E080E090E00E94A82724CFCC
:1035D0008FEF99E0B7D480913C0561E00E94322AD8
:1035E0006CE271E080E090E00E94A827C0CF1F93BA
:1035F00011E08FEF99E0DCD48FEF99E060E040E0DC
:10360000AFD48FEF99E06AE075E00E94B92B8FEF9D
:1036100099E062E042E0A4D48FEF99E060E573E0C6
:103620000E94B92B8FEF99E069E042E099D48FEFC7
:1036300099E069ED72E00E94B92B8FEF99E06FE09D
:1036400042E08ED48FEF99E06EED72E00E94B92BCC
:103650001093A90982E08093AA09EBEAF9E0DF015F
:1036600098961082148A1C9254961C925497319604
:10367000119689E0EF3BF807A1F7158B148F12A381
:1036800080E060E070E00E9404088091A909883021
:1036900059F48091AA09823039F40E943D0B0197B8
:1036A00009F4A7CF0E9482128091A9098E3059F4A3
:1036B0008091AA09823039F40E94160C019709F40E
:1036C00098CF0E9482128091A909813031F48091B3
:1036D000AA09823011F40E9482121F91089582E09B
:1036E00061E00E94322A0E94FC0B0E94EB0B0E94B8
:1036F0002A077DCF2F923F924F925F926F927F92D7
:103700008F929F92AF92BF92CF92DF92EF92FF92F1
:103710000F931F93DF93CF93CDB7DEB760970FB6AC
:10372000F894DEBF0FBECDBF81E090E090932D05F1
:1037300080932C05988B8F8711E00DE004C021E069
:1037400030E0388B2F878FEF99E032D48FEF99E0FC
:1037500060E040E005D48FEF99E06AE175E00E94F7
:10376000B92B8FEF99E067E040E0FAD36091A809A8
:10377000662339F48FEF99E068E872E00E94B92B74
:1037800006C08FEF99E04AE050E00E94582B8F85E9
:1037900098890E94AD043CE03093A9091092AA09CF
:1037A000EBEAF9E0DF0198961082148A1C92549695
:1037B0001C9254973196119689E0EF3BF807A1F7D8
:1037C0001093AF091093B3091093B7091093BB0975
:1037D0001083148310871487108B148B108F148F11
:1037E00010A314A310A714A710AB14AB10AFEF8550
:1037F000F8893C96FA83E9832F853889295F3F4F02
:103800003C832B838F85988902969E838D83EF85D9
:10381000F8893D96F887EF832F853889285F3F4FD9
:103820003A8729878F85988903969C878B87EF85B0
:10383000F8893E96FE87ED87F9E02F2E312C2F85F3
:103840003889220E331EE4E04E2E512C420E531EB8
:103850007AE0672E712C620E731E65E0862E912C25
:10386000820E931E59010894A11CB11C56E0C52E6E
:10387000D12CC20ED31E4BE0E42EF12CE20EF31E2F
:1038800081E06F8578890E9404089091A90994309D
:1038900041F48091AA09882309F082C00E94C20DD8
:1038A00052CF983041F48091AA09882309F083C04F
:1038B0000E94821248CF9C3091F58091AA098823FA
:1038C00009F082C01092FC090093FB098F8598894A
:1038D0009093FE098093FD0980E00E9492058091FB
:1038E000FD099091FE09835F914034F022EF31E0B1
:1038F0003093FE092093FD098091FD099091FE0906
:10390000892B31F481E090E09093FE098093FD09CA
:10391000E091FD09F091FE09F88BEF8714CF90310B
:10392000A1F58091AA09882309F05BC01092FC09D7
:10393000F1E1F093FB092F8538892130310539F405
:103940008FE090E09093FE098093FD0907C0EF851A
:10395000F8893E97F093FE09E093FD0980E00E940C
:1039600092056091FD097091FE09F2E061307F07D8
:103970001CF022EF31E0E5CE6F3071050CF4DFCEA4
:10398000CB010E97988B8F87DECE992339F48091E7
:10399000AA09813089F5EF85F8891CC0943049F473
:1039A0008091AA09813099F5B0922D05A0922C053D
:1039B00088C0983039F48091AA09813099F52D8119
:1039C0003E817BC09C3059F48091AA09813099F5E1
:1039D000EB85FC85F0932D05E0932C0572C09031AA
:1039E00049F48091AA09813079F550922D054092D1
:1039F0002C0567C0992349F48091AA09823079F592
:103A000090922D0580922C055CC0943049F48091F1
:103A1000AA09823079F5D0922D05C0922C0551C0AB
:103A2000983039F48091AA09823079F52B813C8154
:103A300044C09C3039F48091AA09823079F5E98537
:103A4000FA85C8CF903149F48091AA09823079F57E
:103A500030922D0520922C0534C0992349F4809191
:103A6000AA09833071F570922D0560922C0529C04A
:103A7000943049F48091AA09833019F5F0922D050C
:103A8000E0922C051EC0983039F48091AA09833049
:103A9000C1F429813A8111C09C3039F48091AA097E
:103AA000833079F4EF81F88595CF903151F480918E
:103AB000AA09833031F42D853E8530932D0520935E
:103AC0002C058091AA098093FC099F5F9093FB09C4
:103AD000E0912C05F0912D05EE0FFF1FEE55FA4FEA
:103AE000808191819093FE098093FD0981E00E947D
:103AF00092058091FD099091FE098456924039F417
:103B00000E9444048091FB0984508093FB098091BA
:103B1000FD099091FE09E2E0883C9E0769F48091DE
:103B2000FB0982506091FC090E94CC038091FB0943
:103B300084508093FB09A4CE8F3F910599F094F0B7
:103B40002FEF30E03093FE092093FD096091FB09CF
:103B500070E06E5F7F4F4091FC098FEF90E050E086
:103B60000E94900380912C0590912D050197E09182
:103B7000D90AF091DA0AE80FF91F8091FD098083D4
:103B8000E0912C05F0912D05EE0FFF1FEE55FA4F39
:103B90008091FD099091FE099183808371CE80917F
:103BA0002E0562E00E947F298091300562E00E942C
:103BB0007F298091320562E00E947F29809134053F
:103BC00062E00E947F298BE062E00E947F29809161
:103BD000380561E00E947F2980913A0561E00E94EA
:103BE0007F2980913C0561E00E947F2980913E05FC
:103BF00061E00E947F298091400562E00E947F2958
:103C00008091420562E00E947F298091440562E034
:103C10000E947F298091460562E00E947F29809161
:103C2000380561E00E94322A80913A0561E00E94E5
:103C3000322A80913C0561E00E94322A80913E0543
:103C400061E00E94322A80914F0561E00E947F2945
:103C50008091510561E00E947F298091590561E0C2
:103C60000E947F298091570561E00E947F29809101
:103C7000550561E00E947F298091530561E00E9413
:103C80007F2980915B0561E00E947F298FEF99E099
:103C900064E144E020E092D181E090E09093EF0A6B
:103CA0008093EE0A80E092E09093EB0A8093EA0A18
:103CB00087ED9AE060E02BD785E061E00E947F29E4
:103CC00085E060E00E94322A86E061E00E947F2960
:103CD00086E060E00E94322A87E061E00E947F294E
:103CE00087E060E00E94322A86E161E00E947F293D
:103CF00086E160E00E94322A87E161E00E947F292C
:103D000087E160E00E94322A88E161E00E947F2919
:103D100088E160E00E94322A89E161E00E947F2907
:103D200089E160E00E94322A8AE161E00E947F29F5
:103D30008AE160E00E94322A8BE161E00E947F29E3
:103D40008BE160E00E94322A8CE161E00E947F29D1
:103D50008CE160E00E94322A8DE161E00E947F29BF
:103D60008DE160E00E94322A8FE161E00E947F29AC
:103D70008FE160E00E94322A81E261E00E947F29A7
:103D800081E260E00E94322A83E261E00E947F29A2
:103D900083E260E00E94322A85E261E00E947F298E
:103DA00085E260E00E94322A87E261E00E947F297A
:103DB00087E260E00E94322A89E261E00E947F2966
:103DC00089E260E00E94322A8EE261E00E947F294F
:103DD0008EE260E00E94322A80E361E00E947F2947
:103DE00080E360E00E94322A82E361E00E947F2942
:103DF00082E360E00E94322A84E361E00E947F292E
:103E000084E360E00E94322A86E361E00E947F2919
:103E100086E360E00E94322A87E361E00E947F2906
:103E200087E360E00E94322A88E361E00E947F29F4
:103E300088E360E00E94322A89E361E00E947F29E2
:103E400089E360E00E94322A8AE361E00E947F29D0
:103E50008AE360E00E94322A8BE361E00E947F29BE
:103E60008BE360E00E94322A8CE361E00E947F29AC
:103E70008CE360E00E94322A8DE361E00E947F299A
:103E80008DE360E00E94322A8EE361E00E947F2988
:103E90008EE360E00E94322A8FE361E00E947F2976
:103EA0008FE360E00E94322A80E461E00E947F2973
:103EB00080E460E00E94322A81E461E00E947F2970
:103EC00081E460E00E94322A82E461E00E947F295E
:103ED00082E460E00E94322A83E461E00E947F294C
:103EE00083E460E00E94322A84E461E00E947F293A
:103EF00084E460E00C94322A08950895FC01138252
:103F000012828EE695E0918380830895FC01A08162
:103F1000B18118962D913C9119976FEFF901199580
:103F20000895DC01ED91FC910284F385E02D40E0E1
:103F300019950895FC016581862F816085836960EC
:103F4000CF01EFCFFC0165816E7F65836860E9CFAB
:103F5000FC016581862F846085836C60CF01E1CF91
:103F6000DC0117969C911797491710F0492F415083
:103F700018968C911897803139F4943029F4E42FF5
:103F8000F0E0E658FA4F04C0E42FF0E0E258FA4FB0
:103F90008081680F6068CD01C4CFDC01ED91FC9198
:103FA0000284F385E02D41E0199581E090E00895C9
:103FB00061E0B7DF80ED97E00C940128CF93DF93A9
:103FC000EC01423018F08C8188608C834F836887C5
:103FD000222329F0413019F48C8184608C8364E6BB
:103FE00070E080E090E0B4D76C8164FD2EC0E88181
:103FF000F9810284F385E02DCE0163E042E019955A
:1040000084E991E1FED7E881F9810284F385E02D0E
:10401000CE0163E042E0199584E991E1F2D7E881AD
:10402000F9810284F385E02DCE0163E042E0199529
:1040300086E990E0E6D7E881F9810284F385E02DF6
:10404000CE0162E042E0199511C06062CE0169DFE5
:1040500084E991E1D6D76C816062CE0162DF86E9A6
:1040600090E0CFD76C816062CE015BDF6C816062D3
:10407000CE0157DF84E08D83CE016ADFCE0198DF69
:1040800082E08E83CE0166E04CDFCE013FDFDF9120
:10409000CF9108950F931F938C01FC01858561E0FA
:1040A0000E94322AF801858560E00E94322A1F9121
:1040B0000F910895BF92CF92DF92EF92FF920F93EC
:1040C0001F93CF93DF93D82EC92EB42E282F392FCC
:1040D000C9018C01C0E0D0E0E62EFF240DC0B7017D
:1040E0000C2E02C0759567950A94E2F76170F8018D
:1040F00085850E94322A21960F5F1F4FCB1578F3DA
:104100008D2D9C2DC7DFDF91CF911F910F91FF90D7
:10411000EF90DF90CF90BF9008950F931F93CF93B0
:10412000DF93EC01162F042F60E0413009F461E0C9
:104130008B850E94322A8C858F3F19F060E00E94A7
:10414000322A023089F08C8184FF04C0CE01612FB5
:1041500048E00DC0612F70E084E0759567958A9501
:10416000E1F7CE0144E0A6DFCE01612F44E0A2DFFB
:10417000DF91CF911F910F9108956F927F928F924F
:10418000AF92CF92EF920F931F93DF93CF93CDB760
:10419000DEB73C01162F8E2DF30143872487058758
:1041A000E686C786A08A818A9E85928B9F85938B9F
:1041B0009889948B9989958B61E00E947F29F301FE
:1041C000878561E00E947F29F301808961E00E9478
:1041D0007F29F301818961E00E947F291123A1F4E5
:1041E000F301828961E00E947F29F301838961E004
:1041F0000E947F29F301848961E00E947F29F301F5
:10420000858961E00E947F29F301838561E00E9436
:104210007F29F30184858F3F19F061E00E947F2997
:10422000F301858561E00E947F29112319F0F301D4
:10423000148203C080E1F3018483F301838560E08D
:104240000E94322AF301858560E00E94322AF30140
:1042500084858F3F19F060E00E94322A8FEFF301CE
:10426000868B12861186CF91DF911F910F91EF906F
:10427000CF90AF908F907F906F900895DF92EF92E4
:10428000FF920F931F938C01D62E7A01862F61E047
:104290000E947F29D8015696DC9256971A96FC9276
:1042A000EE921997ED91FC910084F185E02DC80103
:1042B00060E019951F910F91FF90EF90DF900895A6
:1042C000DC01362F56962C9156972F3F49F1E22F5D
:1042D000F0E0E254FE4FE491EE2379F019968D91CF
:1042E0009C911A97892B19F4822F70E005C06FEF0B
:1042F00070E0631B7109822F24C719968D919C91E0
:104300001A97662319F0892B39F402C0019721F41A
:10431000822F61E00C94322A822F60E00C94322AC2
:1043200008956F927F928F92AF92BF92CF92DF9259
:10433000EF92FF920F931F933C01162FF42ED22E73
:10434000B02EAE2C8C2CDADD86E895E0D3018D936F
:104350009C9300D00F92EDB7FEB73196ADB7BEB7C4
:1043600011961C92118212821382C30161E0412FC7
:104370002FEF0F2DED2CCB2C00DF0F900F900F9017
:104380000F901F910F91FF90EF90DF90CF90BF9013
:10439000AF908F907F906F9008952091380A30E011
:1043A0008091370A281B3109C90108954091370AC5
:1043B0008091380A481718F02FEF3FEF0AC0E42F1A
:1043C000F0E0E95EF54F8081282F30E04F5F4093A9
:1043D000370AC9010895E091370A8091380AE81731
:1043E00018F0EFEFFFEF06C0F0E0E95EF54F8081D7
:1043F000E82FF0E0CF010895089510925F0A10921F
:104400005E0A88EE93E0A0E0B0E08093600A9093AB
:10441000610AA093620AB093630A86E995E09093DB
:104420005D0A80935C0A0895CF92DF92EF92FF922B
:104430000F931F93CF93DF937C016B018A018091CF
:104440005B0A8823A1F0C0E0D0E00DC0D701ED9158
:10445000FC91D601AC0FBD1F0190F081E02DC7018A
:104460006C9119952196C017D10780F303C0CB0139
:10447000642F39D0C801DF91CF911F910F91FF9028
:10448000EF90DF90CF900895DF93CF930F92CDB749
:10449000DEB7FC01698380915B0A8823C9F08091B3
:1044A0005A0A803238F081E090E09383828320E0E2
:1044B00030E014C08091590AE82FF0E0E75CF54F36
:1044C000998190838F5F8093590A80935A0A04C020
:1044D000CE01019661E007D021E030E0C9010F90E4
:1044E000CF91DF910895482F613210F081E0089557
:1044F0008091680A843011F082E008956093B30AD5
:10450000A2E9BAE0842F9C01F90102C081918D9348
:104510008E2F841B8617D0F380E008951F920F9290
:104520000FB60F920BB60F9211242F933F934F9318
:104530005F936F937F938F939F93AF93BF93EF930B
:10454000FF938091B90090E0887F9070803691054C
:1045500009F4F2C081369105CCF58832910509F451
:104560007BC089329105B4F48031910509F46FC0A4
:10457000813191053CF4009709F447C1089709F08F
:104580004FC165C08831910509F466C0809709F074
:1045900047C182C08034910509F4A4C081349105DB
:1045A00044F48033910509F482C0C89709F038C1FA
:1045B00089C08035910509F489C08835910509F4D1
:1045C00096C08834910509F02BC1AEC08839910599
:1045D00009F413C189399105ECF48837910509F480
:1045E000ABC0893791054CF48836910509F4A4C015
:1045F0008037910509F014C19FC08838910509F4EE
:10460000FCC08039910509F49DC08038910509F0FE
:1046100007C198C0803B910509F4C6C0813B910554
:104620004CF4803A910509F49FC0883A910509F04D
:10463000F7C0BAC0803C910509F4E3C0883C9105FD
:1046400009F4DFC0883B910509F0EAC0C2C080913F
:10465000690A8093BB00CFC09091900A8091910A23
:10466000981768F49091900AE92FF0E0E059F54F1F
:1046700080818093BB009F5F9093900ABCC0809123
:104680006A0A882309F44BC085ED8093BC008091B1
:10469000BC0084FDFCCFC2C080E28093D50A85EDCA
:1046A0008093BC008091BC0084FDFCCFB7C080E348
:1046B0008093D50A85ED8093BC008091BC0084FD79
:1046C000FCCFACC088E38093D50A9BC08091900A50
:1046D0009091BB00E82FF0E0E059F54F90838F5F99
:1046E0008093900A9091900A8091910A82C0809163
:1046F000900A9091BB00E82FF0E0E059F54F9083CD
:104700008F5F8093900A80916A0A882341F085ED3B
:104710008093BC008091BC0084FDFCCF7FC081E011
:1047200080936B0A84EA6EC085ED8093BC00809113
:10473000BC0084FDFCCF72C083E08093680A1092B5
:10474000D40A59C08091D40A803208F056C08091B2
:10475000D40A9091BB00E82FF0E0EC54F54F908321
:104760008F5F8093D40A47C08091D40A803230F49E
:10477000E091D40AF0E0EC54F54F108285ED80937F
:10478000BC008091BC0084FDFCCF1092680A60914F
:10479000D40AE0916E0AF0916F0A84EB9AE070E01F
:1047A00019951092D40A2DC084E08093680A109263
:1047B000B20A1092B30AE0916C0AF0916D0A199551
:1047C0008091B30A882329F481E08093B30A109280
:1047D000920A9091B20AE92FF0E0EE56F54F8081EF
:1047E0008093BB009F5F9093B20A9091B20A809130
:1047F000B30A981710F485EC01C085E88093BC00DB
:104800000FC085EC8093BC0009C01092D50A85EDDD
:104810008093BC008091BC0084FDFCCF1092680A9C
:10482000FF91EF91BF91AF919F918F917F916F9188
:104830005F914F913F912F910F900BBE0F900FBE44
:104840000F901F901895F999FECF72BD61BDF89A2F
:1048500080B50895F999FECF1FBA72BD61BD40BD04
:104860000FB6F894FA9AF99A0FBE0895FC01838561
:10487000882331F48091C10087728093C10008952C
:10488000813031F48091C90087728093C900089506
:10489000823031F48091D10087728093D1000895E5
:1048A000833029F48091310187728093310108951A
:1048B0001F920F920FB60F920BB60F9211242F93E7
:1048C0003F934F935F936F937F938F939F93AF9398
:1048D000BF93EF93FF938091C0008093DF0A3091E4
:1048E000C6003093E00A2091DB0A2093E10A84FF9E
:1048F00010C08091C0008F7E8093C0008091EC0A30
:104900009091ED0A9093E50A8093E40A81E0809308
:10491000DB0A213091F4332369F482E08093DB0ACF
:104920008091D70A9091D80A01969093DD0A8093DE
:10493000DC0A4BC01092DB0A48C02230A1F48091FF
:10494000E40A9091E50A01979093E50A8093E40ABE
:10495000892BD9F583E08093DB0AE091D70AF091A7
:10496000D80A308332C0233081F5E091DC0AF0911F
:10497000DD0AF093FA0AE093F90A30834091F90ACC
:104980005091FA0A4F5F5F4F5093FA0A4093F90A29
:104990008091D70A9091D80A2091E80A3091E90ACB
:1049A000820F931F4817590760F01092DB0AE091BD
:1049B000FD0AF091FE0A309741F08091E20A1995C4
:1049C00004C05093DD0A4093DC0AFF91EF91BF9140
:1049D000AF919F918F917F916F915F914F913F9197
:1049E0002F910F900BBE0F900FBE0F901F90189538
:1049F0001F920F920FB60F920BB60F9211242F93A6
:104A00003F934F935F936F937F938F939F93AF9356
:104A1000BF93EF93FF938091E30A8093F80A882372
:104A200061F41092C5008091F50A8093C400109241
:104A3000C60081E08093E30A40C0813081F4109287
:104A4000C5008091F40A8093C4001092C60082E0F1
:104A50008093E30A1092E70A1092E60A2EC0809132
:104A6000E60A9091E70A9093F70A8093F60AE0919C
:104A7000D90AF091DA0AE80FF91F20812093C600C5
:104A80009C012F5F3F4F3093F70A2093F60A8091E5
:104A9000EA0A9091EB0A2817390759F4E091FB0ACA
:104AA000F091FC0A309711F080E019951092E30A1A
:104AB00004C03093E70A2093E60AFF91EF91BF917B
:104AC000AF919F918F917F916F915F914F913F91A6
:104AD0002F910F900BBE0F900FBE0F901F90189547
:104AE00021E030E03093ED0A2093EC0A88E090E07A
:104AF0009093E90A8093E80A3093EF0A2093EE0A34
:104B00009093EB0A8093EA0A1092E20A08951F93A9
:104B1000CF93DF93EC01162FF894A8DE1C8F11239E
:104B200021F487E08D8F84E10BC0113021F483E004
:104B30008D8F8AE005C0123021F481E08D8F85E0F1
:104B40008E8F8B8D8F3F29F061E0D9D38B8D61E003
:104B500089D48B858823D1F481E061E0D0D3109291
:104B6000C5008D8D8093C4008091C00082608093C9
:104B7000C0008091C2008E608093C2008091C1000D
:104B800088648093C1001092C60053C08130D1F474
:104B900082E161E0B4D31092CD008D8D8093CC0082
:104BA0008091C80082608093C8008091CA008E60A6
:104BB0008093CA008091C90088648093C9001092D4
:104BC000CE0037C08230D1F480E161E098D31092FA
:104BD000D5008D8D8093D4008091D0008260809329
:104BE000D0008091D2008E608093D2008091D1005D
:104BF00088648093D1001092D6001BC08330C9F422
:104C00008EE061E07CD3109235018D8D809334016C
:104C100080913001826080933001809132018E60FA
:104C20008093320180913101886480933101109228
:104C3000360181E08C878B899C890DD08A839B8388
:104C40004B895C8960E070E00E9433017894DF91C9
:104C5000CF911F9108950F931F93CF93DF93BC01C2
:104C60008230910510F462E070E0E0910A0BF0915F
:104C70000B0B40E050E0A0E0B0E024C080819181C7
:104C800086179707D0F08617970771F48281938172
:104C9000109729F013969C938E9312972CC09093A3
:104CA0000B0B80930A0B27C04115510519F084178F
:104CB000950718F48D01AC01EF01DF01828193812A
:104CC0009C01F9013097D1F641155105F9F0CA015F
:104CD000861B970B8430910580F48A819B81011596
:104CE000110521F0F8019383828304C090930B0B8C
:104CF00080930A0BFE01329645C0FE01E80FF91FB2
:104D0000619371930297998388833CC08091080BCB
:104D10009091090B892B41F480916505909166056E
:104D20009093090B8093080B40916705509168059B
:104D30004115510541F44DB75EB7809163059091DF
:104D40006405481B590B2091080B3091090B24175F
:104D50003507B0F4CA01821B930B8617970780F0C2
:104D6000AB014E5F5F4F8417950750F0420F531F02
:104D70005093090B4093080BF9016193719302C0A2
:104D8000E0E0F0E0CF01DF91CF911F910F91089506
:104D9000CF93DF939C01009709F48FC0EC01229719
:104DA0001B821A8260910A0B70910B0B61157105C1
:104DB00081F488819981820F931F2091080B309193
:104DC000090B2817390739F5D093090BC093080B45
:104DD00074C0DB0140E050E0AC17BD0708F1BB83B5
:104DE000AA83FE0121913191E20FF31FAE17BF0795
:104DF00079F48D919C911197280F391F2E5F3F4FA9
:104E00003983288312968D919C9113979B838A8373
:104E10004115510571F4D0930B0BC0930A0B4DC093
:104E200012968D919C911397AD01009711F0DC01C2
:104E3000D3CFDA011396DC93CE931297FA01219126
:104E40003191E20FF31FCE17DF0769F48881998152
:104E5000280F391F2E5F3F4FFA01318320838A814B
:104E60009B8193838283E0E0F0E0DB0112968D91D9
:104E70009C911397009719F0BC01FD01F6CFAB018F
:104E80004E5F5F4FDB018D919C91840F951F2091A8
:104E9000080B3091090B2817390779F4309729F45A
:104EA00010920B0B10920A0B02C013821282425016
:104EB00050405093090B4093080BDF91CF91089518
:104EC0001F920F920FB60F9211242F933F938F933F
:104ED0009F93AF93BF938091030B9091040BA0918C
:104EE000050BB091060B3091070B0196A11DB11D6A
:104EF000232F2D5F2D3720F02D570196A11DB11DB9
:104F00002093070B8093030B9093040BA093050B46
:104F1000B093060B8091FF0A9091000BA091010BBA
:104F2000B091020B0196A11DB11D8093FF0A9093D1
:104F3000000BA093010BB093020BBF91AF919F9117
:104F40008F913F912F910F900FBE0F901F9018954A
:104F50009B01AC017FB7F8948091FF0A9091000B00
:104F6000A091010BB091020B66B5A89B05C06F3FE5
:104F700019F00196A11DB11D7FBFBA2FA92F982F3F
:104F80008827860F911DA11DB11D62E0880F991F12
:104F9000AA1FBB1F6A95D1F7BC012DC0FFB7F894BB
:104FA0008091FF0A9091000BA091010BB091020B30
:104FB000E6B5A89B05C0EF3F19F00196A11DB11DF4
:104FC000FFBFBA2FA92F982F88278E0F911DA11DE3
:104FD000B11DE2E0880F991FAA1FBB1FEA95D1F708
:104FE000861B970B885E9340C8F2215030404040AA
:104FF000504068517C4F211531054105510571F62E
:105000000895019739F0880F991F880F991F02970B
:105010000197F1F70895789484B5826084BD84B5D2
:10502000816084BD85B5826085BD85B5816085BDA3
:10503000EEE6F0E0808181608083E1E8F0E01082BC
:10504000808182608083808181608083E0E8F0E0FD
:10505000808181608083E1EBF0E0808184608083E7
:10506000E0EBF0E0808181608083E1E9F0E0808125
:1050700082608083808181608083E0E9F0E08081CC
:1050800081608083E1EAF0E08081826080838081BA
:1050900081608083E0EAF0E0808181608083E1E2EA
:1050A000F1E0808182608083808181608083E0E2A2
:1050B000F1E0808181608083EAE7F0E080818460B4
:1050C0008083808182608083808181608083808111
:1050D000806880831092C1000895382F863308F0CD
:1050E000365320917B00832F86958695869590E098
:1050F0008170907043E0880F991F4A95E1F7277FF0
:10510000282B20937B003770809169058295880F4A
:10511000880F807C832B80937C0080917A00806450
:1051200080937A0080917A0086FDFCCF20917800F0
:1051300040917900942F80E030E0282B392BC90171
:1051400008951F93CF93DF93182FEB0161E0D7D021
:10515000209709F4CAC0CF3FD10509F4C9C0E12F97
:10516000F0E0E254FE4F8491893009F466C08A3041
:10517000B0F48430F1F1853040F4823059F183305D
:1051800070F5813009F0AEC020C0873009F443C00B
:10519000883008F048C0863009F0A4C034C08D3093
:1051A00009F478C08E3038F48B3009F45AC08C3052
:1051B00008F066C04CC0803109F480C0813109F428
:1051C00087C08F3009F08EC06FC084B5806884BD01
:1051D000C7BD91C084B5806284BDC8BD8CC08091BC
:1051E0008000806880938000D0938900C0938800FD
:1051F00082C080918000806280938000D0938B0079
:10520000C0938A0078C08091B00080688093B0001D
:10521000C093B30070C08091B00080628093B000F2
:10522000C093B40068C08091900080688093900023
:10523000D0939900C09398005EC0809190008062E6
:1052400080939000D0939B00C0939A0054C08091AB
:105250009000886080939000D0939D00C0939C0044
:105260004AC08091A00080688093A0008091A00037
:105270008F7B8093A000D093A900C093A8003BC06F
:105280008091A00080628093A000D093AB00C09377
:10529000AA0031C08091A00088608093A000D093C4
:1052A000AD00C093AC0027C080912001806880933E
:1052B0002001D0932901C09328011DC080912001B5
:1052C000806280932001D0932B01C0932A0113C0E8
:1052D00080912001886080932001D0932D01C0939C
:1052E0002C0109C0C038D1051CF4812F60E002C038
:1052F000812F61E0B7D0DF91CF911F910895CF93B7
:10530000DF93482F50E0CA0188589E4FFC0134912A
:105310004E5C5E4FFA018491882369F190E0880F1A
:10532000991FFC01EC51FF4FA591B491FC01E25093
:10533000FF4FC591D491662351F42FB7F8948C9107
:10534000932F909589238C93888189230BC0623099
:1053500061F42FB7F8948C91932F909589238C93B7
:105360008881832B88832FBF06C09FB7F8948C91C8
:10537000832B8C939FBFDF91CF910895893009F4DF
:1053800049C08A30A0F4843051F1853040F4823035
:1053900079F1833000F5813009F063C026C0873091
:1053A00079F1883098F5863009F05BC025C08D30E2
:1053B00009F442C08E3028F48B30B1F18C30C0F546
:1053C0002DC0803109F442C0813109F445C08F30CD
:1053D00009F047C037C0809180008F7703C080916B
:1053E00080008F7D80938000089584B58F7702C000
:1053F00084B58F7D84BD08958091B0008F7703C000
:105400008091B0008F7D8093B000089580919000CE
:105410008F7707C0809190008F7D03C080919000AE
:10542000877F8093900008958091A0008F7707C0B8
:105430008091A0008F7D03C08091A000877F809322
:10544000A0000895809120018F7703C080912001F2
:105450008F7D80932001089580912001877F809324
:1054600020010895FF920F931F93F62E482F50E0CE
:10547000CA0182549E4FFC012491CA0188589E4F54
:10548000FC0114914E5C5E4FFA0104910023C1F0BF
:10549000222311F0822F72DFE02FF0E0EE0FFF1FCA
:1054A000E250FF4FA591B4919FB7F894FF2021F4EB
:1054B0008C911095812302C08C91812B8C939FBF7E
:1054C0001F910F91FF9008950F931F93482F50E065
:1054D000CA0182549E4FFC012491CA0188589E4FF4
:1054E000FC0104914E5C5E4FFA011491112319F4F2
:1054F00020E030E014C0222311F0822F3FDF812F03
:1055000090E0880F991F885E9E4FFC01A591B49191
:105510008C9120E030E0802311F021E030E0C901DF
:105520001F910F9108950895CF93DF9374DDFBDFF2
:105530000E94CF1DC0E0D0E00E946F1B2097E1F3D6
:105540000E940000F9CF0895CF92DF92EF92FF9270
:105550000F931F93CF93DF937C016B018A01C0E00F
:10556000D0E00FC0D6016D916D01D701ED91FC9196
:105570000190F081E02DC7011995C80FD91F015086
:1055800010400115110571F7CE01DF91CF911F91E8
:105590000F91FF90EF90DF90CF900895CF93DF931E
:1055A000EC016115710519F420E030E00FC0DB015A
:1055B0000D900020E9F71197A61BB70BE881F98140
:1055C0000280F381E02DAD0119959C01C901DF91A5
:1055D000CF9108954F925F927F928F929F92AF9258
:1055E000BF92CF92DF92EF92FF920F931F93DF93C0
:1055F000CF93CDB7DEB7A1970FB6F894DEBF0FBE3D
:10560000CDBF2C01742ECB01223008F42AE019A260
:1056100031E2C32ED12CCC0EDD1E822E9924AA2479
:10562000BB24672D752FA5019401D7D079018A017C
:10563000C801B701A50194019ED0472D461B0894CF
:10564000C108D1084A3014F4405D01C0495CF6013C
:105650004083E114F1040105110521F07E2C5F2D3A
:10566000C801DFCFC201B60199DFA1960FB6F89449
:10567000DEBF0FBECDBFCF91DF911F910F91FF9085
:10568000EF90DF90CF90BF90AF909F908F907F90E2
:105690005F904F900895DC012115310541F4ED91A3
:1056A000FC910190F081E02D642F1995089592CF1F
:1056B000EF92FF920F931F939A01E62EFF2400E0D2
:1056C00010E0B801A701E7DF1F910F91FF90EF9065
:1056D0000895CF92DF92EF92FF920F931F93CF9393
:1056E000DF93EC016A017B012115310541F4E8816A
:1056F000F9810190F081E02D642F19951DC02A30A9
:105700003105C9F477FF16C0E881F9810190F08175
:10571000E02D6DE219958C0144275527BA014C19EB
:105720005D096E097F09CE012AE054DF9801280F38
:10573000391F03C02AE04EDF9C01C901DF91CF91E0
:105740001F910F91FF90EF90DF90CF900895EF920F
:10575000FF920F931F937B019A010027F7FC00959E
:10576000102FB801A701B5DF1F910F91FF90EF90A7
:10577000089514CF0895629FD001739FF001829F16
:10578000E00DF11D649FE00DF11D929FF00D839FD0
:10579000F00D749FF00D659FF00D9927729FB00D6D
:1057A000E11DF91F639FB00DE11DF91FBD01CF0180
:1057B0001124089597FB092E07260AD077FD04D0FF
:1057C0002ED006D000201AF4709561957F4F089571
:1057D000F6F7909581959F4F0895A1E21A2EAA1B86
:1057E000BB1BFD010DC0AA1FBB1FEE1FFF1FA21791
:1057F000B307E407F50720F0A21BB30BE40BF50B8E
:10580000661F771F881F991F1A9469F76095709516
:10581000809590959B01AC01BD01CF010895AA1B15
:10582000BB1B51E107C0AA1FBB1FA617B70710F08B
:10583000A61BB70B881F991F5A95A9F780959095BD
:10584000BC01CD010895EE0FFF1F0590F491E02DEE
:065850001994F894FFCF4B
:10585600303030006100202020005F5F5F004D6522
:105866006D6F727920456D707469656421004261BF
:105876006E6B3A2052414D0041726475696E6F201D
:10588600444D582D353132005465737465722026A7
:1058960020436F6E74726F6C6C6572004669726D30
:1058A6002076002E00486172642076004F70656E87
:1058B6002048617264776172652100687474703A79
:1058C6002F2F676F6F2E676C2F356E714A4B7400E2
:1058D6003E002B002D2D2D002D0020004D656D6FF7
:1058E60072792042616E6B3A0042616E6B31202004
:1058F60042616E6B34202042616E6B370042616EEE
:105906006B32202042616E6B35202042616E6B380F
:105916000042616E6B33202042616E6B362020455B
:105926007869740053617665004C6F616400436C5E
:10593600656172004D656D6F7279204C6F616465AB
:1059460064210042616E6B3A20004D656D6F72797D
:1059560020436C65616E696E672E2E2E004D656D57
:105966006F727920436C65616E656421004D656DCB
:105976006F727920536176696E672E2E2E004D6503
:105986006D6F727920536176656421004D656D6F88
:105996007279204F7074696F6E733A20202062000E
:1059A600456D70747900426C61636B0043616E6390
:1059B600656C0053656375656E6365722042616E42
:1059C6006B733A2020620044656C61792030303078
:1059D600783130303D6D5300466972737442616EA2
:1059E6006B2030303020204374726C0046696E6143
:1059F6006C42616E6B2030303020205374617274BB
:105A06000053746F702000436F6E74726F6C204F7A
:105A16007074696F6E733A20206200556E69746106
:105A26007279004D617472697800436861736572BA
:105A3600004D756C7469706C7900436F6E666967AA
:105A46000053656375656E63657200556E697461B2
:105A5600727920436F6E74726F6C3A202062004335
:105A660074726C004D656D6F7279004368616E6E7D
:105A7600656C3A203030310056616C75653A0043EA
:105A860068617365724348202D2D2D0044656C6155
:105A960079202020207831303D6D5300466972739D
:105AA60074204348202020202020204374726C005C
:105AB60046696E616C204348202020202020205318
:105AC60074617274005374617274006220205661AE
:105AD6006C75650046697273742043482020202047
