:1000000004C100002FC100002DC100002BC1000061
:1000100029C1000027C1000025C1000023C1000044
:1000200021C100001FC100001DC100001BC1000054
:1000300019C1000017C1000015C1000013C1000064
:1000400011C100000FC100000DC100000BC1000074
:1000500009C1000007C1000005C100000C94CF15C4
:1000600001C100000C94C712FDC000000C9467137E
:10007000F9C00000F7C00000F5C00000F3C00000A8
:10008000F1C00000EFC00000EDC00000EBC00000B8
:10009000E9C00000E7C00000E5C000000C94FD10BE
:1000A000E1C00000DFC00000DDC00000DBC00000D8
:1000B000D9C00000D7C00000D5C00000D3C00000E8
:1000C000D1C00000CFC00000CDC00000CBC00000F8
:1000D000C9C00000C7C00000C5C00000C3C0000008
:1000E000C1C0000000002100240027002A002D00CC
:1000F0003000330001010000040107010A01000083
:100100002200250028002B002E00310034000201BF
:100110000000050108010B0100002000230026005B
:1001200029002C002F00320000010000030106010D
:10013000090105050505070508080808020202026D
:100140000A0A080804040404010101010101010173
:100150000303030303030303040707070C0C0C0C3E
:100160000C0C0C0C02020202060606060606060627
:100170000B0B0B0B0B0B0B0B0102102020080810B4
:100180002040102040800201020108040201010207
:1001900004081020408080402010080402018004E0
:1001A000020180402010080402010804020101023B
:1001B0000408102040800102040810204080000044
:1001C000090A02080B0C0D070603040100000000D9
:1001D000000000000000000000000000000000001F
:1001E0000000000000000000000011100F000000DF
:1001F00000000000000000000000000000000000FF
:10020000000000003A016C10DF1311241FBECFEF75
:10021000D1E2DEBFCDBF00E00CBF13E0A0E0B2E052
:10022000EEE7F4E300E00BBF02C007900D92AA379F
:10023000B107D9F71BBE16E0AAE7B3E001C01D92D3
:10024000AF3DB107E1F712E0CAE0D2E004C0229767
:10025000FE010E94391AC430D107C9F70E94CF1895
:100260000C943D1ACDCEDC0101C06D93415050403D
:10027000E0F70895CF92EF920F9383ED95E06091B0
:100280003003409132032091340300913603E09013
:100290003803C0903A030E9400100F91EF90CF9066
:1002A00008953F924F925F926F927F928F929F92AA
:1002B000AF92BF92CF92DF92EF92FF920F931F9374
:1002C00081E180932F0344244394B4E03B2EA7E0C4
:1002D0008A2EFFE07F2EE2E06E2E75E0572E68E05A
:1002E000B62E53E0A52E46E0942E39E0E32E2EE004
:1002F000D22E9AE0C92E1BE00CE08DE0F82E68C1EA
:1003000080911F0360E00E946D18809127030E9476
:100310009F18892B41F440922F0364E670E080E03F
:1003200090E00E94171665E070E080E090E00E9487
:100330001716809129030E949F18892B41F430924F
:100340002F0364E670E080E090E00E94171665E0FD
:1003500070E080E090E00E94171680912B030E94CD
:100360009F18892B41F480922F0364E670E080E0AF
:1003700090E00E94171665E070E080E090E00E9437
:10038000171680912D030E949F18892B41F47092BB
:100390002F0364E670E080E090E00E94171665E0AD
:1003A00070E080E090E00E94171680911F0361E0EA
:1003B0000E946D188091210360E00E946D18809169
:1003C00027030E949F18892B41F460922F0364E653
:1003D00070E080E090E00E94171665E070E080E039
:1003E00090E00E941716809129030E949F18892B84
:1003F00041F450922F0364E670E080E090E00E94A8
:10040000171665E070E080E090E00E94171680917A
:100410002B030E949F18892B41F4B0922F0364E6AE
:1004200070E080E090E00E94171665E070E080E0E8
:1004300090E00E94171680912D030E949F18892B2F
:1004400041F410922F0364E670E080E090E00E9497
:10045000171665E070E080E090E00E94171680912A
:10046000210361E00E946D188091230360E00E94E7
:100470006D18809127030E949F18892B41F4A09248
:100480002F0364E670E080E090E00E94171665E0BC
:1004900070E080E090E00E941716809129030E948E
:1004A0009F18892B41F490922F0364E670E080E05E
:1004B00090E00E94171665E070E080E090E00E94F6
:1004C000171680912B030E949F18892B41F4E0920C
:1004D0002F0364E670E080E090E00E94171665E06C
:1004E00070E080E090E00E94171680912D030E943A
:1004F0009F18892B41F4D0922F0364E670E080E0CE
:1005000090E00E94171665E070E080E090E00E94A5
:1005100017168091230361E00E946D1880912503D6
:1005200060E00E946D18809127030E949F18892B1C
:1005300041F4C0922F0364E670E080E090E00E94F6
:10054000171665E070E080E090E00E941716809139
:1005500029030E949F18892B41F410932F0364E60E
:1005600070E080E090E00E94171665E070E080E0A7
:1005700090E00E94171680912B030E949F18892BF0
:1005800041F400932F0364E670E080E090E00E9465
:10059000171665E070E080E090E00E9417168091E9
:1005A0002D030E949F18892B41F4F0922F0364E6DB
:1005B00070E080E090E00E94171665E070E080E057
:1005C00090E00E9417168091250361E00E946D184B
:1005D00080912F03813109F493CE1F910F91FF90E9
:1005E000EF90DF90CF90BF90AF909F908F907F90D3
:1005F0006F905F904F903F9008950F931F93CF930C
:10060000DF93EC01162F042F83ED95E00E941F0E5F
:1006100083ED95E060E072E00E94F419CA30D105E4
:100620003CF4612F6E5F83ED95E0402F0E941F0E1A
:10063000CE010A978A35910538F4612F6F5F83EDFB
:1006400095E0402F0E941F0EC436D10534F083ED93
:1006500095E0612F402F0E941F0E83ED95E0BE01B3
:100660004AE050E00E94E219DF91CF911F910F9173
:1006700008951F938091250360E00E946D181FEF7D
:100680003EC080911303909114030197E091AC0652
:10069000F091AD06E80FF91F10836091CF0570E06F
:1006A000625070404091D0058FEF90E050E0A5DFA0
:1006B00064E670E080E090E00E94171680911303DA
:1006C000909114030197E091AC06F091AD06E80F0C
:1006D000F91F10826091CF05625083ED95E0409143
:1006E000D0050E941F0E83ED95E064E072E00E9449
:1006F000F41964E670E080E090E00E9417168091A3
:100700002B030E949F18019709F4BBCF809125030A
:1007100061E00E946D1883ED95E06091CF054091F6
:10072000D0050E941F0E1F9108952F923F924F9265
:100730005F926F927F928F929F92AF92BF92CF9271
:10074000DF92EF92FF920F931F93DF93CF93CDB77A
:10075000DEB761970FB6F894DEBF0FBECDBF8983B9
:10076000798B688B00917D0510917E0583ED95E076
:10077000602F412F0E941F0E83ED95E068E072E02C
:100780000E94F41964E1E62EF12C888999890E966D
:100790009B838A83E889F9893D96FD83EC83888968
:1007A00099890C969F838E83E889F9893B96F9870E
:1007B000E887888999890A969B878A87E889F989D1
:1007C0003996FD87EC8758E0452E512C8889998908
:1007D000480E591E47E0242E312C280E391E06964D
:1007E0009F878E8735E0832E912CE889F9898E0EBC
:1007F0009F1E24E0622E712C6E0E7F1E93E0C92E88
:10080000D12CCE0EDF1E82E0A82EB12CAE0EBF1E64
:10081000809119030E949F18892BF9F46CE271E012
:1008200080E090E00E94171620917D0580917E0562
:1008300090E08E9DA0018F9D500D9E9D500D112426
:10084000222309F424E12150FA01E20FF11DE158BD
:10085000FA4F80818130A1F724C080911B030E9450
:100860009F18892B09F56CE271E080E090E00E940E
:10087000171620917D0580917E0590E08E9DA00148
:100880008F9D500D9E9D500D11242F5F243108F037
:1008900020E0FA01E20FF11DE158FA4F808181302A
:1008A000A1F720937D059FC1809117030E949F1897
:1008B000892B09F56CE271E080E090E00E94171648
:1008C00020917E0580917D05482F50E02F5F2430D8
:1008D00008F020E0822F90E08E9DF0018F9DF00DBA
:1008E0009E9DF00D1124E40FF51FE158FA4F808111
:1008F000813061F726C0809115030E949F18892BD3
:1009000019F56CE271E080E090E00E9417162091EA
:100910007E0580917D05482F50E0222309F424E0D4
:100920002150822F90E08E9DF0018F9DF00D9E9DB5
:10093000F00D1124E40FF51FE158FA4F808181304A
:1009400061F720937E054FC180911D030E949F187F
:10095000892B09F05DCF6CE271E080E090E00E94AD
:10096000171640917E0560917D05842F90E08E9D45
:10097000F0018F9DF00D9E9DF00D1124E60FF11DED
:10098000E158FA4F8081813009F04BC183ED95E049
:100990000E941F0E83ED95E06AE072E00E94F41958
:1009A00082E019C180917D058C3081F480917E05B3
:1009B000882361F483ED95E061E040E00E941F0E22
:1009C00083ED95E06CE072E00E94F41980917D0562
:1009D000843081F480917E05882361F483ED95E075
:1009E00061E040E00E941F0E83ED95E06CE072E054
:1009F0000E94F41980917D05883081F480917E05F4
:100A0000882361F483ED95E061E040E00E941F0ED1
:100A100083ED95E06CE072E00E94F41980917D0511
:100A2000882359F480917E05813039F48889998929
:100A300061E070E040E050E0E0DD80917D058430D1
:100A400061F480917E05813041F48889998901960D
:100A500061E070E040E050E0D0DD80917D058830BD
:100A600051F480917E05813031F4C50161E070E080
:100A700040E050E0C2DD80917D058C3051F48091E2
:100A80007E05813031F4C60161E070E040E050E065
:100A9000B4DD80917D05803151F480917E058130F7
:100AA00031F4C30161E070E040E050E0A6DD8091E8
:100AB0007D05882351F480917E05823031F4C40194
:100AC00061E070E040E050E098DD80917D05843089
:100AD00059F480917E05823039F48E859F8561E0DE
:100AE00070E040E050E089DD80917D05883051F470
:100AF00080917E05823031F4C10161E070E040E018
:100B000050E07BDD80917D058C3051F480917E0535
:100B1000823031F4C20161E070E040E050E06DDD10
:100B200080917D05803159F480917E05823039F4C1
:100B30008C859D8561E070E040E050E05EDD809155
:100B40007D05882359F480917E05833039F48A85A8
:100B50009B8561E070E040E050E04FDD80917D05D5
:100B6000843059F480917E05833039F488859985E5
:100B700061E070E040E050E040DD80917D0588302C
:100B800059F480917E05833039F48E819F8161E034
:100B900070E040E050E031DD80917D058C3059F40B
:100BA00080917E05833039F48C819D8161E070E015
:100BB00040E050E022DD80917D05803159F4809144
:100BC0007E05833039F48A819B8161E070E040E0EA
:100BD00050E013DD81E000917D0510917E058230AB
:100BE00009F016CE1FC083ED95E0602F412F0E94C3
:100BF0001F0E83ED95E060E172E00E94F41983ED31
:100C000095E060917D0540917E050E941F0E83ED69
:100C100095E068E072E00E94F419F981F130D1F6B4
:100C2000C1CEFFCF61960FB6F894DEBF0FBECDBF29
:100C3000CF91DF911F910F91FF90EF90DF90CF90B8
:100C4000BF90AF909F908F907F906F905F904F90EC
:100C50003F902F900895CF92DF92EF92FF920F93E3
:100C60001F938C016DE070E040E050E0C6DCEEE0E8
:100C7000CE2ED12CC00ED11EC60161E170E040E045
:100C800050E0BBDC7AE7E72E73E0F72E0E0D1F1D58
:100C9000F801808190E061E070E041E050E0ADDC7F
:100CA000F801818190E065E070E041E050E0A5DC72
:100CB000F801828190E069E070E041E050E09DDC65
:100CC000F801838190E06DE070E041E050E095DC58
:100CD000F801848190E061E170E041E050E08DDC5A
:100CE000F801858190E061E070E042E050E085DC51
:100CF000F801868190E065E070E042E050E07DDC44
:100D0000F801878190E069E070E042E050E075DC36
:100D1000F801808590E06DE070E042E050E06DDC2D
:100D2000F801818590E061E170E042E050E065DC2F
:100D3000F801828590E061E070E043E050E05DDC26
:100D4000F801838590E065E070E043E050E055DC19
:100D5000F801848590E069E070E043E050E04DDC0C
:100D6000F801858590E06DE070E043E050E045DCFF
:100D7000EC0CFD1CF701808190E061E170E043E044
:100D800050E03BDC1F910F91FF90EF90DF90CF90F0
:100D90000895FF920F931F93CF93DF93F82E83ED67
:100DA00095E06091CF054091D00549D783ED95E05E
:100DB00062E172E00E94F41983ED95E02AD7109267
:100DC000D2051092D1056091CF056E5F6093CF057B
:100DD00083ED95E04091D00532D763DA60912F031F
:100DE0006A3018F000E010E015C083ED95E04AE0AD
:100DF00050E00E94931983ED95E06091CF054091FA
:100E0000D0051DD780912F03082F10E01093D20535
:100E10000093D10580912F038E3009F4CAC091E070
:100E2000F91649F48A3009F463C08B3009F469C0BB
:100E30008C3009F46DC035DA80912F038E3029F49F
:100E40001093D2050093D105B4C091E0F91649F48E
:100E50008A3009F44DC08B3009F453C08C3009F44A
:100E600057C08A3018F0C0E0D0E027C06091CF05AD
:100E700061506093CF0583ED95E04091D005DFD6BA
:100E800083ED95E0B8014AE050E00E94E21983ED5D
:100E900095E060912F034AE050E00E949319809101
:100EA0002F03C82FD0E06091CF056F5F6093CF050F
:100EB00083ED95E04091D005C2D6F3D980912F0300
:100EC0008E3089F4C80123E0880F991F2A95E1F735
:100ED000000F111F800F911FC80FD91FD093D2058B
:100EE000C093D10566C091E0F916C9F48A3039F48F
:100EF0008FEF90E09093D2058093D1055AC08B304C
:100F000029F41092D2051092D10553C08C3039F4D7
:100F100084E692E09093D2058093D10564C08A3034
:100F200008F047C06091CF0562506093CF0583ED14
:100F300095E04091D00583D683ED95E0B8014AE075
:100F400050E00E94E21983ED95E0BE014AE050E0D6
:100F50000E94E2196091CF056E5F6093CF0583ED2B
:100F600095E04091D0056BD683ED95E060912F031D
:100F70004AE050E00E94931984E690E0089F9001B7
:100F8000099F300D189F300D112480912F03280FD9
:100F9000311DCE01A3E0880F991FAA95E1F7CC0F70
:100FA000DD1F8C0F9D1F280F391F3093D205209312
:100FB000D10583ED95E035D66091CF0570E06250A4
:100FC00070404091D0058091D1059091D20550E0BC
:100FD00014DB6091CF0564506093CF0583ED95E0FD
:100FE0004091D0052CD683ED95E01BD683ED95E09E
:100FF0006091CF054091D00522D66CE271E080E08F
:1010000090E00E941716DF91CF911F910F91FF90F2
:101010000895EF92FF920F931F9303ED15E0C8011F
:1010200036D6C801FED5C80161E040E008D6C80147
:1010300066E172E00E94F419C80160E041E0FFD56A
:10104000C80169E272E00E94F419C8016AE041E057
:10105000F6D5C80161E372E00E94F419C80167E0A7
:1010600042E0EDD5C8016CE372E00E94F419C801BA
:1010700060E04AE050E00E94931937E4E32E32E04A
:10108000F32EC801B7010E94F419C80160E04AE0DC
:1010900050E00E949319C80167E043E0D0D5C80131
:1010A00069E472E00E94F419C80160E04AE050E08F
:1010B0000E949319C801B7010E94F419C80160E0A9
:1010C0004AE050E00E949319C80160E043E0B7D5C0
:1010D000C80164E572E00E94F419C80164E14AE0C5
:1010E00050E00E94931968EB7BE080E090E00E9462
:1010F00017161F910F91FF90EF900895CF93DF93F4
:1011000083ED95E0C4D583ED95E061E141E097D5AD
:10111000C0E0D0E0FE01E658FC4F1082E091AC0642
:10112000F091AD06EC0FFD1F108289EA96E0BE013A
:1011300040E00E94991283ED95E0BE0142E050E04C
:101140000E94E21962E070E080E090E00E941716D1
:10115000219682E0C130D807E9F683ED95E097D576
:1011600083ED95E063E041E06AD583ED95E068E5C5
:1011700072E00E94F41968EE73E080E090E00E9453
:101180001716DF91CF910895CF93DF9383ED95E00C
:101190007ED583ED95E061E141E051D5C1E0D0E03D
:1011A000FE01E658FC4F89EA96E0BE0140810E94AC
:1011B000991283ED95E0BE0142E050E00E94E219F1
:1011C00062E070E080E090E00E941716219682E0D5
:1011D000C130D80729F783ED95E059D583ED95E027
:1011E00063E041E02CD583ED95E068E672E00E9473
:1011F000F41968EE73E080E090E00E941716DF912A
:10120000CF910895CF93DF9383ED95E040D583EDA3
:1012100095E061E141E013D5C1E0D0E089EA96E0D4
:10122000BE010E949212FE01E658FC4F8083219776
:10123000E091AC06F091AD06EC0FFD1F2196808386
:1012400083ED95E0BE0142E050E00E94E21962E0C9
:1012500070E080E090E00E941716219682E0C13095
:10126000D807E1F683ED95E012D583ED95E063E0D4
:1012700041E0E5D483ED95E066E772E00E94F41961
:1012800068EE73E080E090E00E941716DF91CF9146
:10129000089583ED95E0FBD483ED95E060E040E0B8
:1012A000CED483ED95E065E872E00E94F41983EDF9
:1012B00095E061E042E0C3D483ED95E06DE872E033
:1012C0000E94F41983ED95E067E042E0B8D483ED25
:1012D00095E062E972E00E94F41983ED95E06EE01A
:1012E00042E0ADD483ED95E067E972E00E94F41925
:1012F00083ED95E06EE040E0A2D483ED95E06DE9EA
:1013000072E00E94F41910927D0582E080937E05C0
:10131000EFE7F5E0DF0198961082148A1C9254964C
:101320001C9254973196119685E0E339F807A1F79E
:1013300081E0848B828F81A380938C0580E060E0C4
:1013400070E0F3D980917D05863029F480917E0587
:10135000823009F457DF80917D058D3029F480912A
:101360007E05823009F4CADE80917D05882329F448
:1013700080917E05823009F407CF0895AF92BF9225
:10138000CF92DF92EF92FF920F931F93CF93DF9351
:10139000C1E0D0E078E0A72E01E069E0B62EE12CB4
:1013A00052E0F52E4FEFC42ED12CD0931403C093EE
:1013B000130383ED95E06BD483ED95E060E040E0AE
:1013C0003ED483ED95E064EA72E00E94F41983ED67
:1013D00095E06EE042E033D483ED95E065EB72E09A
:1013E0000E94F41983ED95E06EE043E028D483ED8C
:1013F00095E06CEB72E00E94F41983ED95E060E0FB
:1014000042E01DD483ED95E063EC72E00E94F41994
:1014100083ED95E062E043E012D483ED95E060ED6A
:1014200072E00E94F41980917B0390E069E070E023
:1014300043E050E0E2D8A0927D0582E080937E05F3
:10144000EFE7F5E0DF0198961082148A1C9254961B
:101450001C9254973196119625E0E339F207A1F7D3
:10146000048F00AB01A305AB80E060E070E05DD9C4
:1014700080917D05883009F049C010917E051230B9
:1014800009F044C0809113039091140369E070E067
:1014900042E050E0B2D81093D005B092CF0580E082
:1014A00078DC8091D1059091D205815092405CF01A
:1014B000F092D205E092D10580E092E069E070E020
:1014C00042E050E09AD88091D1059091D20518164B
:1014D00019065CF0D093D205C093D10581E090E06D
:1014E00069E070E042E050E088D8E091D105F091E9
:1014F000D205F0931403E0931303E658FC4F808168
:1015000090E069E070E043E050E077D880917D059D
:10151000883009F03EC080917E05833009F0A4CF69
:101520008093D005B092CF0581E033DC8091D10566
:101530009091D2058456924009F49BD88091D105B0
:101540009091D2058F3F910561F05CF0D092D20569
:10155000C092D1058FEF90E069E070E043E050E089
:101560004CD880911303909114030197E091AC063D
:10157000F091AD06E80FF91F8091D1058083E091CD
:101580001303F0911403E658FC4F8091D10580833A
:101590006BCF8D3009F068CF80917E05833011F4D8
:1015A00078DE03CF823009F05FCF01D05DCF2F927C
:1015B0003F924F925F926F927F928F929F92AF92E3
:1015C000BF92CF92DF92EF92FF920F931F93DF9320
:1015D000CF93CDB7DEB760970FB6F894DEBF0FBEDE
:1015E000CDBF81E090E09093140380931303988B18
:1015F0008F870CE011E083ED95E049D383ED95E012
:1016000060E040E01CD383ED95E067ED72E00E945E
:10161000F4198F8598891FDB00937D0510927E0554
:10162000EFE7F5E0DF0198961082148A1C92549639
:101630001C9254973196119625E0E339F207A1F7F1
:10164000109383051093870510938B0510831483E3
:1016500010871487108B148B108F148F10A314A372
:1016600010A714A710AB14AB10AF8F8598890B96F9
:101670009A838983EF85F8893696FC83EB832F85DF
:101680003889235F3F4F3E832D838F8598890A9643
:1016900098878F83EF85F8893896FA87E9872F85B1
:1016A00038892B5F3F4F3C872B878F8598890E9613
:1016B0009E878D8739E0232E312CEF85F8892E0EF9
:1016C0003F1E2CE0422E512C4E0E5F1E97E0692EDD
:1016D000712C6E0E7F1E84E0882E912C8E0E9F1E24
:1016E000B2E0AB2EB12CAE0EBF1EA3E0CA2ED12CA1
:1016F000CE0EDF1E7F010894E11CF11C81E06F8596
:10170000788913D890917D05943039F480917E05C5
:10171000882309F041C0BDDD6ECF983039F4809147
:101720007E05882309F041C029DE65CF9C3059F53C
:1017300080917E05882309F043C01092D005FDE01A
:10174000F093CF0526DB8091D1059091D205835F80
:10175000914034F082EF91E09093D2058093D105CF
:101760008091D1059091D205892B31F4E1E0F0E030
:10177000F093D205E093D1052091D1053091D205A7
:10178000388B2F8738CF992371F480917E05813073
:1017900069F5EF85F88939C0813089F5F092140335
:1017A000E092130388C0983049F480917E0581301F
:1017B00081F4B0921403A09213037DC09C3049F4CD
:1017C00080917E05813099F5D0921403C092130365
:1017D00072C0903149F480917E05813089F59092F4
:1017E00014038092130367C0992339F480917E0516
:1017F000823089F52B853C855AC0943059F480910C
:101800007E05823089F5EB81FC81F0931403E0932F
:10181000130351C0983049F480917E05823069F5F8
:10182000709214036092130346C09C3039F4809187
:101830007E05823069F529853A8539C0903149F4B1
:1018400080917E05823069F5309214032092130353
:1018500032C0992339F480917E05833061F5EF81A0
:10186000F885D3CF943039F480917E05833019F513
:1018700029813A811CC0983049F480917E058330DB
:10188000D1F4509214034092130315C09C3039F4E4
:1018900080917E05833079F4ED81FE81B6CF903161
:1018A00051F480917E05833031F42D853E8530934F
:1018B00014032093130380917E058093D0059F5FCE
:1018C0009093CF0581E065DA8091D1059091D205A2
:1018D0008456924039F40E9439038091CF05845098
:1018E0008093CF058091D1059091D2058F3F9105CE
:1018F00089F084F08FEF90E09093D2058093D1052A
:101900006091CF0570E06E5F7F4F4091D00550E051
:101910000E94FD0280911303909114030197E091BE
:10192000AC06F091AD06E80FF91F8091D1058083D8
:10193000E0911303F0911403E658FC4F8091D10518
:101940008083DCCE83ED95E0A2D183ED95E060E06D
:1019500040E075D183ED95E069EE72E00E94F419E4
:1019600083ED95E063E042E06AD183ED95E06AEFB4
:1019700072E00E94F41982E080937D0580937E05D9
:10198000EFE7F5E0DF0198961082148A1C925496D6
:101990001C9254973196119685E0E339F807A1F728
:1019A00081E0868B80A380E060E070E00E94950378
:1019B00080917D05823029F480917E05823009F482
:1019C000DDDC80917D058C3029F480917E058230AC
:1019D00009F4EDCD089583ED95E059D183ED95E0BF
:1019E00060E040E02CD183ED95E065E872E00E9474
:1019F000F41983ED95E062E042E021D183ED95E0BA
:101A00006BE073E00E94F41983ED95E069E042E039
:101A100016D183ED95E062E972E00E94F41983ED3E
:101A200095E06FE042E00BD183ED95E067E972E06D
:101A30000E94F41981E080937D0582E080937E0509
:101A4000EFE7F5E0DF0198961082148A1C92549615
:101A50001C9254973196119685E0E339F807A1F767
:101A600081E0858B848F82A380E060E070E00E943B
:101A7000950380917D05883031F480917E05823018
:101A800011F4C0DB5FDF80917D058E3031F48091F1
:101A90007E05823011F432DB55DF80917D05813087
:101AA00029F480917E05823009F44CCF089582E0BC
:101AB00061E00E946D18ADDA8ECF8091110361E074
:101AC0000E94BA178091150362E00E94BA178091B4
:101AD000170362E00E94BA178091190362E00E9426
:101AE000BA1780911B0362E00E94BA1780911D0310
:101AF00062E00E94BA1780911F0361E00E94BA174A
:101B00008091210361E00E94BA178091230361E074
:101B10000E94BA178091250361E00E94BA17809154
:101B2000270362E00E94BA178091290362E00E94B5
:101B3000BA1780912B0362E00E94BA1780912D039F
:101B400062E00E94BA1780911F0361E00E946D1845
:101B50008091210361E00E946D188091230361E070
:101B60000E946D188091250361E00E946D1880919C
:101B7000300361E00E94BA178091320361E00E9455
:101B8000BA1780913A0361E00E94BA178091380336
:101B900061E00E94BA178091360361E00E94BA1793
:101BA0008091340361E00E94BA1783ED95E064E10F
:101BB00044E020E072D081E090E09093C2068093F0
:101BC000C10680E092E09093BE068093BD068AEA4B
:101BD00096E060E00BC608950895FC01138212821E
:101BE00086E493E0918380830895FC01A081B18114
:101BF00018962D913C9119976FEFF9011995089559
:101C0000DC01ED91FC910284F385E02D40E0199513
:101C10000895FC016581862F816085836960CF010D
:101C2000EFCFFC0165816E7F65836860E9CFFC01C1
:101C30006581862F846085836C60CF01E1CFDC01F4
:101C400017969C911797491710F0492F41501896F5
:101C50008C911897803139F4943029F4E42FF0E016
:101C6000EE5AFC4F04C0E42FF0E0EA5AFC4F8081AA
:101C7000680F6068CD01C4CFDC01ED91FC91028456
:101C8000F385E02D41E0199581E090E0089561E051
:101C9000B7DF80ED97E00C947016CF93DF93EC01E3
:101CA000423018F08C8188608C834F8368872223B0
:101CB00029F0413019F48C8184608C8364E670E0F3
:101CC00080E090E0B4D76C8164FD2EC0E881F9819A
:101CD0000284F385E02DCE0163E042E0199584E9AA
:101CE00091E1FED7E881F9810284F385E02DCE01F0
:101CF00063E042E0199584E991E1F2D7E881F98146
:101D00000284F385E02DCE0163E042E0199586E977
:101D100090E0E6D7E881F9810284F385E02DCE01D9
:101D200062E042E0199511C06062CE0169DF84E98A
:101D300091E1D6D76C816062CE0162DF86E990E0E6
:101D4000CFD76C816062CE015BDF6C816062CE01B7
:101D500057DF84E08D83CE016ADFCE0198DF82E019
:101D60008E83CE0166E04CDFCE013FDFDF91CF9165
:101D700008950F931F938C01FC01858561E00E94FB
:101D80006D18F801858560E00E946D181F910F9114
:101D90000895BF92CF92DF92EF92FF920F931F931D
:101DA000CF93DF93D82EC92EB42E282F392FC901F7
:101DB0008C01C0E0D0E0E62EFF240DC0B7010C2E50
:101DC00002C0759567950A94E2F76170F801858500
:101DD0000E946D1821960F5F1F4FCB1578F38D2D44
:101DE0009C2DC7DFDF91CF911F910F91FF90EF9056
:101DF000DF90CF90BF9008950F931F93CF93DF9301
:101E0000EC01162F042F60E0413009F461E08B856E
:101E10000E946D188C858F3F19F060E00E946D184C
:101E2000023089F08C8184FF04C0CE01612F48E02C
:101E30000DC0612F70E084E0759567958A95E1F794
:101E4000CE0144E0A6DFCE01612F44E0A2DFDF91A6
:101E5000CF911F910F9108956F927F928F92AF92C1
:101E6000CF92EF920F931F93DF93CF93CDB7DEB74F
:101E70003C01162F8E2DF301438724870587E686C4
:101E8000C786A08A818A9E85928B9F85938B98892D
:101E9000948B9989958B61E00E94BA17F30187852D
:101EA00061E00E94BA17F301808961E00E94BA17CD
:101EB000F301818961E00E94BA171123A1F4F301B3
:101EC000828961E00E94BA17F301838961E00E9470
:101ED000BA17F301848961E00E94BA17F30185897A
:101EE00061E00E94BA17F301838561E00E94BA178E
:101EF000F30184858F3F19F061E00E94BA17F30166
:101F0000858561E00E94BA17112319F0F30114824C
:101F100003C080E1F3018483F301838560E00E94C4
:101F20006D18F301858560E00E946D18F3018485CA
:101F30008F3F19F060E00E946D188FEFF301868BE0
:101F400012861186CF91DF911F910F91EF90CF9064
:101F5000AF908F907F906F900895DF92EF92FF92F5
:101F60000F931F938C01D62E7A01862F61E00E9479
:101F7000BA17D8015696DC9256971A96FC92EE92B2
:101F80001997ED91FC910084F185E02DC80160E086
:101F900019951F910F91FF90EF90DF900895DC014C
:101FA000362F56962C9156972F3F49F1E22FF0E0AD
:101FB000E254FE4FE491EE2379F019968D919C91B5
:101FC0001A97892B19F4822F70E005C06FEF70E02B
:101FD000631B7109822FF0C619968D919C911A97F7
:101FE000662319F0892B39F402C0019721F4822F5E
:101FF00061E00C946D18822F60E00C946D180895C8
:102000006F927F928F92AF92BF92CF92DF92EF92B8
:10201000FF920F931F933C01162FF42ED22EB02E59
:10202000AE2C8C2CDADD8EE593E0D3018D939C935E
:1020300000D00F92EDB7FEB73196ADB7BEB711968F
:102040001C92118212821382C30161E0412F2FEF93
:102050000F2DED2CCB2C00DF0F900F900F900F90D9
:102060001F910F91FF90EF90DF90CF90BF90AF90B6
:102070008F907F906F90089520910B0630E08091B3
:102080000A06281B3109C901089540910A0680916A
:102090000B06481718F02FEF3FEF0AC0E42FF0E0CF
:1020A000E651FA4F8081282F30E04F5F40930A06B7
:1020B000C9010895E0910A0680910B06E81718F00F
:1020C000EFEFFFEF06C0F0E0E651FA4F8081E82F16
:1020D000F0E0CF0108950895109232061092310673
:1020E00088EE93E0A0E0B0E080933306909334064E
:1020F000A0933506B09336068EE693E090933006B3
:1021000080932F060895CF92DF92EF92FF920F9364
:102110001F93CF93DF937C016B018A0180912E0680
:102120008823A1F0C0E0D0E00DC0D701ED91FC9173
:10213000D601AC0FBD1F0190F081E02DC7016C915D
:1021400019952196C017D10780F303C0CB01642FE6
:1021500039D0C801DF91CF911F910F91FF90EF907F
:10216000DF90CF900895DF93CF930F92CDB7DEB776
:10217000FC01698380912E068823C9F080912D0689
:10218000803238F081E090E09383828320E030E079
:1021900014C080912C06E82FF0E0E45FF94F99819C
:1021A00090838F5F80932C0680932D0604C0CE0110
:1021B000019661E007D021E030E0C9010F90CF9196
:1021C000DF910895482F613210F081E008958091E9
:1021D0003B06843011F082E0089560938606A5E600
:1021E000B6E0842F9C01F90102C081918D938E2F5E
:1021F000841B8617D0F380E008951F920F920FB6CC
:102200000F920BB60F9211242F933F934F935F932E
:102210006F937F938F939F93AF93BF93EF93FF93AE
:102220008091B90090E0887F90708036910509F424
:10223000F2C081369105CCF58832910509F47BC056
:1022400089329105B4F48031910509F46FC0813170
:1022500091053CF4009709F447C1089709F04FC174
:1022600065C08831910509F466C0809709F047C1BF
:1022700082C08034910509F4A4C08134910544F4EE
:102280008033910509F482C0C89709F038C189C02C
:102290008035910509F489C08835910509F496C007
:1022A0008834910509F02BC1AEC08839910509F435
:1022B00013C189399105ECF48837910509F4ABC055
:1022C000893791054CF48836910509F4A4C080370C
:1022D000910509F014C19FC08838910509F4FCC02C
:1022E0008039910509F49DC08038910509F007C136
:1022F00098C0803B910509F4C6C0813B91054CF420
:10230000803A910509F49FC0883A910509F0F7C019
:10231000BAC0803C910509F4E3C0883C910509F4FA
:10232000DFC0883B910509F0EAC0C2C080913C063D
:102330008093BB00CFC0909163068091640698178C
:1023400068F490916306E92FF0E0ED5BF94F80812E
:102350008093BB009F5F90936306BCC080913D0655
:10236000882309F44BC085ED8093BC008091BC00AC
:1023700084FDFCCFC2C080E28093A80685ED8093E7
:10238000BC008091BC0084FDFCCFB7C080E380938B
:10239000A80685ED8093BC008091BC0084FDFCCF35
:1023A000ACC088E38093A8069BC08091630690919F
:1023B000BB00E82FF0E0ED5BF94F90838F5F8093D7
:1023C0006306909163068091640682C080916306E3
:1023D0009091BB00E82FF0E0ED5BF94F90838F5FA9
:1023E0008093630680913D06882341F085ED8093BC
:1023F000BC008091BC0084FDFCCF7FC081E0809355
:102400003E0684EA6EC085ED8093BC008091BC00DE
:1024100084FDFCCF72C083E080933B061092A70638
:1024200059C08091A706803208F056C08091A70657
:102430009091BB00E82FF0E0E957F94F90838F5F50
:102440008093A70647C08091A706803230F4E091C0
:10245000A706F0E0E957F94F108285ED8093BC00A4
:102460008091BC0084FDFCCF10923B066091A706D2
:10247000E0914106F091420687E896E070E01995F8
:102480001092A7062DC084E080933B06109285062B
:1024900010928606E0913F06F091400619958091D2
:1024A0008606882329F481E08093860610926506CB
:1024B00090918506E92FF0E0EB59F94F80818093E8
:1024C000BB009F5F9093850690918506809186065C
:1024D000981710F485EC01C085E88093BC000FC00C
:1024E00085EC8093BC0009C01092A80685ED80930E
:1024F000BC008091BC0084FDFCCF10923B06FF9194
:10250000EF91BF91AF919F918F917F916F915F916B
:102510004F913F912F910F900BBE0F900FBE0F90D8
:102520001F901895F999FECF72BD61BDF89A80B5DC
:102530000895F999FECF1FBA72BD61BD40BD0FB6B7
:10254000F894FA9AF99A0FBE0895FC0183858823BE
:1025500031F48091C10087728093C1000895813069
:1025600031F48091C90087728093C9000895823048
:1025700031F48091D10087728093D1000895833027
:1025800029F48091310187728093310108951F925F
:102590000F920FB60F920BB60F9211242F933F9309
:1025A0004F935F936F937F938F939F93AF93BF935B
:1025B000EF93FF938091C0008093B2063091C600E4
:1025C0003093B3062091AE062093B40684FF10C06A
:1025D0008091C0008F7E8093C0008091BF06909153
:1025E000C0069093B8068093B70681E08093AE064C
:1025F000213091F4332369F482E08093AE06809118
:10260000AA069091AB0601969093B0068093AF0610
:102610004BC01092AE0648C02230A1F48091B7069C
:102620009091B80601979093B8068093B706892BCE
:10263000D9F583E08093AE06E091AA06F091AB064F
:10264000308332C0233081F5E091AF06F091B006BF
:10265000F093CD06E093CC0630834091CC065091A8
:10266000CD064F5F5F4F5093CD064093CC068091CF
:10267000AA069091AB062091BB063091BC06820F52
:10268000931F4817590760F01092AE06E091D006EC
:10269000F091D106309741F08091B506199504C0AC
:1026A0005093B0064093AF06FF91EF91BF91AF9169
:1026B0009F918F917F916F915F914F913F912F915A
:1026C0000F900BBE0F900FBE0F901F9018951F928A
:1026D0000F920FB60F920BB60F9211242F933F93C8
:1026E0004F935F936F937F938F939F93AF93BF931A
:1026F000EF93FF938091B6068093CB06882361F415
:102700001092C5008091C8068093C4001092C60044
:1027100081E08093B60640C0813081F41092C500FC
:102720008091C7068093C4001092C60082E0809317
:10273000B6061092BA061092B9062EC08091B9065C
:102740009091BA069093CA068093C906E091AC06B0
:10275000F091AD06E80FF91F20812093C6009C017F
:102760002F5F3F4F3093CA062093C9068091BD0664
:102770009091BE062817390759F4E091CE06F091E2
:10278000CF06309711F080E019951092B60604C07C
:102790003093BA062093B906FF91EF91BF91AF91A4
:1027A0009F918F917F916F915F914F913F912F9169
:1027B0000F900BBE0F900FBE0F901F90189521E049
:1027C00030E03093C0062093BF0688E090E09093FD
:1027D000BC068093BB063093C2062093C10690933B
:1027E000BE068093BD061092B50608951F93CF9341
:1027F000DF93EC01162FF894A8DE1C8F112321F42F
:1028000087E08D8F84E10BC0113021F483E08D8F40
:102810008AE005C0123021F481E08D8F85E08E8F33
:102820008B8D8F3F29F061E0A5D38B8D61E055D46E
:102830008B858823D1F481E061E09CD31092C500A0
:102840008D8D8093C4008091C00082608093C00011
:102850008091C2008E608093C2008091C100886424
:102860008093C1001092C60053C08130D1F482E140
:1028700061E080D31092CD008D8D8093CC0080914B
:10288000C80082608093C8008091CA008E608093E7
:10289000CA008091C90088648093C9001092CE005C
:1028A00037C08230D1F480E161E064D31092D5006A
:1028B0008D8D8093D4008091D00082608093D00071
:1028C0008091D2008E608093D2008091D100886484
:1028D0008093D1001092D6001BC08330C9F48EE0E3
:1028E00061E048D3109235018D8D80933401809141
:1028F0003001826080933001809132018E6080933C
:102900003201809131018864809331011092360147
:1029100081E08C878B899C890DD08A839B834B892E
:102920005C8960E070E00E9433017894DF91CF9180
:102930001F9108950F931F93CF93DF93BC018230B3
:10294000910510F462E070E0E091DD06F091DE06A2
:1029500040E050E0A0E0B0E024C080819181861783
:102960009707D0F08617970771F4828193811097AB
:1029700029F013969C938E9312972CC09093DE06A9
:102980008093DD0627C04115510519F0841795077E
:1029900018F48D01AC01EF01DF01828193819C016C
:1029A000F9013097D1F641155105F9F0CA01861B9E
:1029B000970B8430910580F48A819B810115110564
:1029C00021F0F8019383828304C09093DE06809304
:1029D000DD06FE01329645C0FE01E80FF91F619346
:1029E00071930297998388833CC08091DB06909114
:1029F000DC06892B41F480913E0390913F03909334
:102A0000DC068093DB064091400350914103411561
:102A1000510541F44DB75EB780913C0390913D0361
:102A2000481B590B2091DB063091DC062417350733
:102A3000B0F4CA01821B930B8617970780F0AB0195
:102A40004E5F5F4F8417950750F0420F531F50930E
:102A5000DC064093DB06F9016193719302C0E0E06C
:102A6000F0E0CF01DF91CF911F910F910895CF93A7
:102A7000DF939C01009709F48FC0EC0122971B8221
:102A80001A826091DD067091DE066115710581F490
:102A900088819981820F931F2091DB063091DC069B
:102AA0002817390739F5D093DC06C093DB0674C0CC
:102AB000DB0140E050E0AC17BD0708F1BB83AA83FF
:102AC000FE0121913191E20FF31FAE17BF0779F498
:102AD0008D919C911197280F391F2E5F3F4F39839D
:102AE000288312968D919C9113979B838A8341151D
:102AF000510571F4D093DE06C093DD064DC01296E9
:102B00008D919C911397AD01009711F0DC01D3CF0B
:102B1000DA011396DC93CE931297FA012191319149
:102B2000E20FF31FCE17DF0769F488819981280F20
:102B3000391F2E5F3F4FFA01318320838A819B81A9
:102B400093838283E0E0F0E0DB0112968D919C910B
:102B50001397009719F0BC01FD01F6CFAB014E5F52
:102B60005F4FDB018D919C91840F951F2091DB06B7
:102B70003091DC062817390779F4309729F4109240
:102B8000DE061092DD0602C01382128242505040CF
:102B90005093DC064093DB06DF91CF9108951F929E
:102BA0000F920FB60F9211242F933F938F939F9301
:102BB000AF93BF938091D6069091D706A091D80687
:102BC000B091D9063091DA060196A11DB11D232FCF
:102BD0002D5F2D3720F02D570196A11DB11D20939B
:102BE000DA068093D6069093D706A093D806B093C2
:102BF000D9068091D2069091D306A091D406B091C7
:102C0000D5060196A11DB11D8093D2069093D306DF
:102C1000A093D406B093D506BF91AF919F918F91A9
:102C20003F912F910F900FBE0F901F9018959B0111
:102C3000AC017FB7F8948091D2069091D306A09111
:102C4000D406B091D50666B5A89B05C06F3F19F0B4
:102C50000196A11DB11D7FBFBA2FA92F982F8827DC
:102C6000860F911DA11DB11D62E0880F991FAA1F3B
:102C7000BB1F6A95D1F7BC012DC0FFB7F8948091B6
:102C8000D2069091D306A091D406B091D506E6B5B0
:102C9000A89B05C0EF3F19F00196A11DB11DFFBF14
:102CA000BA2FA92F982F88278E0F911DA11DB11D16
:102CB000E2E0880F991FAA1FBB1FEA95D1F7861B78
:102CC000970B885E9340C8F22150304040405040FE
:102CD00068517C4F211531054105510571F6089564
:102CE000019739F0880F991F880F991F0297019754
:102CF000F1F70895789484B5826084BD84B58160CD
:102D000084BD85B5826085BD85B5816085BDEEE6F3
:102D1000F0E0808181608083E1E8F0E010828081D2
:102D200082608083808181608083E0E8F0E0808140
:102D300081608083E1EBF0E0808184608083E0EB60
:102D4000F0E0808181608083E1E9F0E08081826051
:102D50008083808181608083E0E9F0E08081816010
:102D60008083E1EAF0E080818260808380818160FD
:102D70008083E0EAF0E0808181608083E1E2F1E03D
:102D8000808182608083808181608083E0E2F1E0E5
:102D9000808181608083EAE7F0E0808184608083C5
:102DA000808182608083808181608083808180686F
:102DB00080831092C10008951F93CF93DF93182F43
:102DC000EB0161E0D7D0209709F4CAC0CF3FD1050D
:102DD00009F4C9C0E12FF0E0E254FE4F849189303C
:102DE00009F466C08A30B0F48430F1F1853040F4E3
:102DF000823059F1833070F5813009F0AEC020C0C7
:102E0000873009F443C0883008F048C0863009F0A4
:102E1000A4C034C08D3009F478C08E3038F48B30C3
:102E200009F45AC08C3008F066C04CC0803109F4F7
:102E300080C0813109F487C08F3009F08EC06FC027
:102E400084B5806884BDC7BD91C084B5806284BDEF
:102E5000C8BD8CC080918000806880938000D09332
:102E60008900C093880082C0809180008062809336
:102E70008000D0938B00C0938A0078C08091B0000E
:102E800080688093B000C093B30070C08091B000A0
:102E900080628093B000C093B40068C080919000BD
:102EA000806880939000D0939900C09398005EC092
:102EB00080919000806280939000D0939B00C0939B
:102EC0009A0054C080919000886080939000D093C5
:102ED0009D00C0939C004AC08091A00080688093B0
:102EE000A0008091A0008F7B8093A000D093A900C8
:102EF000C093A8003BC08091A00080628093A00096
:102F0000D093AB00C093AA0031C08091A00088602C
:102F10008093A000D093AD00C093AC0027C08091F7
:102F20002001806880932001D0932901C09328015B
:102F30001DC080912001806280932001D0932B01DD
:102F4000C0932A0113C080912001886080932001E2
:102F5000D0932D01C0932C0109C0C038D1051CF4B9
:102F6000812F60E002C0812F61E0B7D0DF91CF9167
:102F70001F910895CF93DF93482F50E0CA018858DE
:102F80009E4FFC0134914E5C5E4FFA018491882380
:102F900069F190E0880F991FFC01EC51FF4FA5915A
:102FA000B491FC01E250FF4FC591D491662351F4D6
:102FB0002FB7F8948C91932F909589238C938881C7
:102FC00089230BC0623061F42FB7F8948C91932F52
:102FD000909589238C938881832B88832FBF06C08B
:102FE0009FB7F8948C91832B8C939FBFDF91CF91E7
:102FF0000895893009F449C08A30A0F4843051F131
:10300000853040F4823079F1833000F5813009F069
:1030100063C026C0873079F1883098F5863009F092
:103020005BC025C08D3009F442C08E3028F48B304F
:10303000B1F18C30C0F52DC0803109F442C081312E
:1030400009F445C08F3009F047C037C08091800037
:103050008F7703C0809180008F7D809380000895DA
:1030600084B58F7702C084B58F7D84BD089580912B
:10307000B0008F7703C08091B0008F7D8093B00047
:103080000895809190008F7707C0809190008F7D88
:1030900003C080919000877F809390000895809175
:1030A000A0008F7707C08091A0008F7D03C0809122
:1030B000A000877F8093A0000895809120018F77E2
:1030C00003C0809120018F7D80932001089580911D
:1030D0002001877F809320010895FF920F931F9313
:1030E000F62E482F50E0CA0182549E4FFC012491D5
:1030F000CA0188589E4FFC0114914E5C5E4FFA0144
:1031000004910023C1F0222311F0822F72DFE02FFF
:10311000F0E0EE0FFF1FE250FF4FA591B4919FB773
:10312000F894FF2021F48C911095812302C08C919A
:10313000812B8C939FBF1F910F91FF9008950F9348
:103140001F93482F50E0CA0182549E4FFC012491E6
:10315000CA0188589E4FFC0104914E5C5E4FFA01F3
:103160001491112319F420E030E014C0222311F04F
:10317000822F3FDF812F90E0880F991F885E9E4F3E
:10318000FC01A591B4918C9120E030E0802311F0F6
:1031900021E030E0C9011F910F9108950895CF9368
:1031A000DF93A8DDFBDF0E945D0DC0E0D0E00E9450
:1031B000570D2097E1F30E940000F9CF0895CF92B8
:1031C000DF92EF92FF920F931F93CF93DF937C01D7
:1031D0006B018A01C0E0D0E00FC0D6016D916D0196
:1031E000D701ED91FC910190F081E02DC701199577
:1031F000C80FD91F015010400115110571F7CE01FC
:10320000DF91CF911F910F91FF90EF90DF90CF90C2
:103210000895CF93DF93EC016115710519F420E057
:1032200030E00FC0DB010D900020E9F71197A61BDD
:10323000B70BE881F9810280F381E02DAD0119958A
:103240009C01C901DF91CF9108954F925F927F92C7
:103250008F929F92AF92BF92CF92DF92EF92FF92A6
:103260000F931F93DF93CF93CDB7DEB7A1970FB620
:10327000F894DEBF0FBECDBF2C01742ECB012230DF
:1032800008F42AE019A231E2C32ED12CCC0EDD1EA7
:10329000822E9924AA24BB24672D752FA5019401A1
:1032A000C4D079018A01C801B701A50194019ED05B
:1032B000472D461B0894C108D1084A3014F4405DDC
:1032C00001C0495CF6014083E114F10401051105D8
:1032D00021F07E2C5F2DC801DFCFC201B60199DF3E
:1032E000A1960FB6F894DEBF0FBECDBFCF91DF9190
:1032F0001F910F91FF90EF90DF90CF90BF90AF9014
:103300009F908F907F905F904F900895DC012115E2
:10331000310541F4ED91FC910190F081E02D642F95
:103320001995089592CFEF92FF920F931F939A01F0
:10333000E62EFF2400E010E0B801A701E7DF1F91AF
:103340000F91FF90EF900895CF92DF92EF92FF924E
:103350000F931F93CF93DF93EC016A017B0121153B
:10336000310541F4E881F9810190F081E02D642F6D
:1033700019951DC02A303105C9F477FF16C0E881C0
:10338000F9810190F081E02D6DE219958C014427BF
:103390005527BA014C195D096E097F09CE012AE053
:1033A00054DF9801280F391F03C02AE04EDF9C012B
:1033B000C901DF91CF911F910F91FF90EF90DF90A6
:1033C000CF900895EF92FF920F931F937B019A0184
:1033D0000027F7FC0095102FB801A701B5DF1F915A
:1033E0000F91FF90EF90089514CF0895629FD00140
:1033F000739FF001829FE00DF11D649FE00DF11DB0
:10340000929FF00D839FF00D749FF00D659FF00D5E
:103410009927729FB00DE11DF91F639FB00DE11D4B
:10342000F91FBD01CF0111240895A1E21A2EAA1B94
:10343000BB1BFD010DC0AA1FBB1FEE1FFF1FA21764
:10344000B307E407F50720F0A21BB30BE40BF50B61
:10345000661F771F881F991F1A9469F760957095EA
:10346000809590959B01AC01BD01CF010895EE0FB1
:0E347000FF1F0590F491E02D1994F894FFCF02
:10347E0030303000202020003E002B002D2D2D005E
:10348E0020005F5F5F005465636820496E73696456
:10349E00652E636F6D2E6D7800444D582D3531328B
:1034AE0000436F6E74726F6C6C6572004669726D5C
:1034BE00776172652076002E0048617264776172C2
:1034CE006520760049443A004D656D6F7279204350
:1034DE006C65616E656421004D656D6F7279205368
:1034EE006176656421004D656D6F7279204C6F6158
:1034FE0064656421004D656D6F72793A0053617693
:10350E0065004C6F616400436C6561720043616ECF
:10351E0063656C00556E697461727920436F6E74C9
:10352E00726F6C3A004D6174726978004D656D6F03
:10353E007279004368616E6E656C3A2030303100EE
:10354E0056616C75653A00432D2D2D204D656D200D
:10355E00556E69202020202D00436F6E74726F6CA3
:10356E00204F7074696F6E733A00556E6974617294
:10357E00792020204D617472697800456D707479E0
:10358E00000200010033002D00350031002F002411
:10359E0000220020001E002C002A00280026001108
:1035AE00080009000A000B000C000D008000DF0669
:1035BE000000000000003C0EDF184D0EEB0DEC0D70
:1035CE00DE180040105000401454000000003C0E65
:1035DE00DF184D0EAD0FCF0FFC0E00000000B31024
:0A35EE0083103C1045105A106B10BA
:00000001FF
