:1000000004C100002FC100002DC100002BC1000061
:1000100029C1000027C1000025C1000023C1000044
:1000200021C100001FC100001DC100001BC1000054
:1000300019C1000017C1000015C1000013C1000064
:1000400011C100000FC100000DC100000BC1000074
:1000500009C1000007C1000005C100000C949F1AEF
:1000600001C100000C949717FDC000000C943718D4
:10007000F9C00000F7C00000F5C00000F3C00000A8
:10008000F1C00000EFC00000EDC00000EBC00000B8
:10009000E9C00000E7C00000E5C000000C94CD15E9
:1000A000E1C00000DFC00000DDC00000DBC00000D8
:1000B000D9C00000D7C00000D5C00000D3C00000E8
:1000C000D1C00000CFC00000CDC00000CBC00000F8
:1000D000C9C00000C7C00000C5C00000C3C0000008
:1000E000C1C0000000002100240027002A002D00CC
:1000F0003000330001010000040107010A01000083
:100100002200250028002B002E00310034000201BF
:100110000000050108010B0100002000230026005B
:1001200029002C002F00320000010000030106010D
:10013000090105050505070508080808020202026D
:100140000A0A080804040404010101010101010173
:100150000303030303030303040707070C0C0C0C3E
:100160000C0C0C0C02020202060606060606060627
:100170000B0B0B0B0B0B0B0B0102102020080810B4
:100180002040102040800201020108040201010207
:1001900004081020408080402010080402018004E0
:1001A000020180402010080402010804020101023B
:1001B0000408102040800102040810204080000044
:1001C000090A02080B0C0D070603040100000000D9
:1001D000000000000000000000000000000000001F
:1001E0000000000000000000000011100F000000DF
:1001F00000000000000000000000000000000000FF
:10020000000000003A013C15AF1811241FBECFEFCB
:10021000D1E2DEBFCDBF00E00CBF14E0A0E0B2E051
:10022000EEE1FEE300E00BBF02C007900D92AA359D
:10023000B107D9F71BBE17E0AAE5B4E001C01D92D3
:10024000AF3BB107E1F712E0CAE0D2E004C0229769
:10025000FE010E94091FC430D107C9F70E949F1DEB
:100260000C940D1FCDCEDC0101C06D934150504068
:10027000E0F70895CF92EF920F9383EB96E06091B1
:100280001004409112042091140400911604E0908F
:100290001804C0901A040E94D0140F91EF90CF90D0
:1002A00008953F924F925F926F927F928F929F92AA
:1002B000AF92BF92CF92DF92EF92FF920F931F9374
:1002C00081E180930F0444244394B4E03B2EA7E0E3
:1002D0008A2EFFE07F2EE2E06E2E75E0572E68E05A
:1002E000B62E53E0A52E46E0942E39E0E32E2EE004
:1002F000D22E9AE0C92E1BE00CE08DE0F82E68C1EA
:100300008091FF0360E00E943D1D809107040E94E0
:100310006F1D892B41F440920F0464E670E080E089
:1003200090E00E94E71A65E070E080E090E00E94B3
:10033000E71A809109040E946F1D892B41F43092C5
:100340000F0464E670E080E090E00E94E71A65E048
:1003500070E080E090E00E94E71A80910B040E9418
:100360006F1D892B41F480920F0464E670E080E0F9
:1003700090E00E94E71A65E070E080E090E00E9463
:10038000E71A80910D040E946F1D892B41F4709231
:100390000F0464E670E080E090E00E94E71A65E0F8
:1003A00070E080E090E00E94E71A8091FF0361E036
:1003B0000E943D1D8091010460E00E943D1D8091DE
:1003C00007040E946F1D892B41F460920F0464E6BC
:1003D00070E080E090E00E94E71A65E070E080E065
:1003E00090E00E94E71A809109040E946F1D892BFA
:1003F00041F450920F0464E670E080E090E00E94C7
:10040000E71A65E070E080E090E00E94E71A8091D2
:100410000B040E946F1D892B41F4B0920F0464E617
:1004200070E080E090E00E94E71A65E070E080E014
:1004300090E00E94E71A80910D040E946F1D892BA5
:1004400041F410920F0464E670E080E090E00E94B6
:10045000E71A65E070E080E090E00E94E71A809182
:10046000010461E00E943D1D8091030460E00E9450
:100470003D1D809107040E946F1D892B41F4A092BD
:100480000F0464E670E080E090E00E94E71A65E007
:1004900070E080E090E00E94E71A809109040E94D9
:1004A0006F1D892B41F490920F0464E670E080E0A8
:1004B00090E00E94E71A65E070E080E090E00E9422
:1004C000E71A80910B040E946F1D892B41F4E09282
:1004D0000F0464E670E080E090E00E94E71A65E0B7
:1004E00070E080E090E00E94E71A80910D040E9485
:1004F0006F1D892B41F4D0920F0464E670E080E018
:1005000090E00E94E71A65E070E080E090E00E94D1
:10051000E71A8091030461E00E943D1D809105046B
:1005200060E00E943D1D809107040E946F1D892B91
:1005300041F4C0920F0464E670E080E090E00E9415
:10054000E71A65E070E080E090E00E94E71A809191
:1005500009040E946F1D892B41F410930F0464E677
:1005600070E080E090E00E94E71A65E070E080E0D3
:1005700090E00E94E71A80910B040E946F1D892B66
:1005800041F400930F0464E670E080E090E00E9484
:10059000E71A65E070E080E090E00E94E71A809141
:1005A0000D040E946F1D892B41F4F0920F0464E644
:1005B00070E080E090E00E94E71A65E070E080E083
:1005C00090E00E94E71A8091050461E00E943D1DC1
:1005D00080910F04813109F493CE1F910F91FF9008
:1005E000EF90DF90CF90BF90AF909F908F907F90D3
:1005F0006F905F904F903F9008950F931F93CF930C
:10060000DF93EC01162F042F83EB96E00E94EF128C
:1006100083EB96E060E072E00E94C41ECA30D10510
:100620003CF4612F6E5F83EB96E0402F0E94EF1247
:10063000CE010A978A35910538F4612F6F5F83EBFD
:1006400096E0402F0E94EF12C436D10534F083EBC0
:1006500096E0612F402F0E94EF1283EB96E0BE01DF
:100660004AE050E00E94B21EDF91CF911F910F919E
:1006700008951F938091050460E00E943D1D1FEFC7
:100680003EC08091F3039091F4030197E0918C07B1
:10069000F0918D07E80FF91F10836091AF0670E0AD
:1006A000625070404091B0068FEF90E050E0A5DFBF
:1006B00064E670E080E090E00E94E71A8091F30326
:1006C0009091F4030197E0918C07F0918D07E80F6A
:1006D000F91F10826091AF06625083EB96E0409163
:1006E000B0060E94EF1283EB96E064E072E00E9495
:1006F000C41E64E670E080E090E00E94E71A8091FA
:100700000B040E946F1D019709F4BBCF8091050473
:1007100061E00E943D1D83EB96E06091AF06409141
:10072000B0060E94EF121F9108952F923F924F92B0
:100730005F926F927F928F929F92AF92BF92CF9271
:10074000DF92EF92FF920F931F93DF93CF93CDB77A
:10075000DEB761970FB6F894DEBF0FBECDBF8983B9
:10076000798B688B00915D0610915E0683EB96E0B5
:10077000602F412F0E94EF1283EB96E068E072E059
:100780000E94C41E64E1E62EF12C888999890E9698
:100790009B838A83E889F9893D96FD83EC83888968
:1007A00099890C969F838E83E889F9893B96F9870E
:1007B000E887888999890A969B878A87E889F989D1
:1007C0003996FD87EC8758E0452E512C8889998908
:1007D000480E591E47E0242E312C280E391E06964D
:1007E0009F878E8735E0832E912CE889F9898E0EBC
:1007F0009F1E24E0622E712C6E0E7F1E93E0C92E88
:10080000D12CCE0EDF1E82E0A82EB12CAE0EBF1E64
:100810008091F9030E946F1D892BF9F46CE271E05D
:1008200080E090E00E94E71A20915D0680915E06CC
:1008300090E08E9DA0018F9D500D9E9D500D112426
:10084000222309F424E12150FA01E20FF11DE15ABB
:10085000F94F80818130A1F724C08091FB030E9471
:100860006F1D892B09F56CE271E080E090E00E9439
:10087000E71A20915D0680915E0690E08E9DA001B2
:100880008F9D500D9E9D500D11242F5F243108F037
:1008900020E0FA01E20FF11DE15AF94F8081813029
:1008A000A1F720935D069FC18091F7030E946F1D01
:1008B000892B09F56CE271E080E090E00E94E71A74
:1008C00020915E0680915D06482F50E02F5F243016
:1008D00008F020E0822F90E08E9DF0018F9DF00DBA
:1008E0009E9DF00D1124E40FF51FE15AF94F808110
:1008F000813061F726C08091F5030E946F1D892B1E
:1009000019F56CE271E080E090E00E94E71A209116
:100910005E0680915D06482F50E0222309F424E012
:100920002150822F90E08E9DF0018F9DF00D9E9DB5
:10093000F00D1124E40FF51FE15AF94F8081813049
:1009400061F720935E064FC18091FD030E946F1DE9
:10095000892B09F05DCF6CE271E080E090E00E94AD
:10096000E71A40915E0660915D06842F90E08E9DAF
:10097000F0018F9DF00D9E9DF00D1124E60FF11DED
:10098000E15AF94F8081813009F04BC183EB96E049
:100990000E94EF1283EB96E06AE072E00E94C41EB0
:1009A00082E019C180915D068C3081F480915E06F1
:1009B000882361F483EB96E061E040E00E94EF124F
:1009C00083EB96E06CE072E00E94C41E80915D06AD
:1009D000843081F480915E06882361F483EB96E095
:1009E00061E040E00E94EF1283EB96E06CE072E081
:1009F0000E94C41E80915D06883081F480915E065D
:100A0000882361F483EB96E061E040E00E94EF12FE
:100A100083EB96E06CE072E00E94C41E80915D065C
:100A2000882359F480915E06813039F48889998948
:100A300061E070E040E050E0E0DD80915D068430F0
:100A400061F480915E06813041F48889998901962C
:100A500061E070E040E050E0D0DD80915D068830DC
:100A600051F480915E06813031F4C50161E070E09F
:100A700040E050E0C2DD80915D068C3051F4809101
:100A80005E06813031F4C60161E070E040E050E084
:100A9000B4DD80915D06803151F480915E06813035
:100AA00031F4C30161E070E040E050E0A6DD8091E8
:100AB0005D06882351F480915E06823031F4C401D2
:100AC00061E070E040E050E098DD80915D068430A8
:100AD00059F480915E06823039F48E859F8561E0FD
:100AE00070E040E050E089DD80915D06883051F48F
:100AF00080915E06823031F4C10161E070E040E037
:100B000050E07BDD80915D068C3051F480915E0673
:100B1000823031F4C20161E070E040E050E06DDD10
:100B200080915D06803159F480915E06823039F4FF
:100B30008C859D8561E070E040E050E05EDD809155
:100B40005D06882359F480915E06833039F48A85E6
:100B50009B8561E070E040E050E04FDD80915D06F4
:100B6000843059F480915E06833039F48885998504
:100B700061E070E040E050E040DD80915D0688304B
:100B800059F480915E06833039F48E819F8161E053
:100B900070E040E050E031DD80915D068C3059F42A
:100BA00080915E06833039F48C819D8161E070E034
:100BB00040E050E022DD80915D06803159F4809163
:100BC0005E06833039F48A819B8161E070E040E009
:100BD00050E013DD81E000915D0610915E068230E9
:100BE00009F016CE1FC083EB96E0602F412F0E94C4
:100BF000EF1283EB96E060E172E00E94C41E83EB8B
:100C000096E060915D0640915E060E94EF1283EBD4
:100C100096E068E072E00E94C41EF981F130D1F6DE
:100C2000C1CEFFCF61960FB6F894DEBF0FBECDBF29
:100C3000CF91DF911F910F91FF90EF90DF90CF90B8
:100C4000BF90AF909F908F907F906F905F904F90EC
:100C50003F902F900895CF92DF92EF92FF920F93E3
:100C60001F938C016DE070E040E050E0C6DCEEE0E8
:100C7000CE2ED12CC00ED11EC60161E170E040E045
:100C800050E0BBDC7AE5E72E74E0F72E0E0D1F1D59
:100C9000F801808190E061E070E041E050E0ADDC7F
:100CA000F801818190E065E070E041E050E0A5DC72
:100CB000F801828190E069E070E041E050E09DDC65
:100CC000F801838190E06DE070E041E050E095DC58
:100CD000F801848190E061E170E041E050E08DDC5A
:100CE000F801858190E061E070E042E050E085DC51
:100CF000F801868190E065E070E042E050E07DDC44
:100D0000F801878190E069E070E042E050E075DC36
:100D1000F801808590E06DE070E042E050E06DDC2D
:100D2000F801818590E061E170E042E050E065DC2F
:100D3000F801828590E061E070E043E050E05DDC26
:100D4000F801838590E065E070E043E050E055DC19
:100D5000F801848590E069E070E043E050E04DDC0C
:100D6000F801858590E06DE070E043E050E045DCFF
:100D7000EC0CFD1CF701808190E061E170E043E044
:100D800050E03BDC1F910F91FF90EF90DF90CF90F0
:100D90000895FF920F931F93CF93DF93F82E83EB69
:100DA00096E06091AF064091B0060E94EF1283EB8F
:100DB00096E062E172E00E94C41E83EB96E00E941E
:100DC000D9121092B2061092B1066091AF066E5F12
:100DD0006093AF0683EB96E04091B0060E94EF125D
:100DE00060DA60910F046A3018F000E010E016C07D
:100DF00083EB96E04AE050E00E94631E83EB96E0AE
:100E00006091AF064091B0060E94EF1280910F04EE
:100E1000082F10E01093B2060093B10680910F04E2
:100E20008E3009F4CEC091E0F91649F48A3009F405
:100E300065C08B3009F46BC08C3009F46FC031DAB7
:100E400080910F048E3029F41093B2060093B106FE
:100E5000B8C091E0F91649F48A3009F44FC08B30DC
:100E600009F455C08C3009F459C08A3018F0C0E03C
:100E7000D0E029C06091AF0661506093AF0683EB6C
:100E800096E04091B0060E94EF1283EB96E0B80125
:100E90004AE050E00E94B21E83EB96E060910F049E
:100EA0004AE050E00E94631E80910F04C82FD0E0FA
:100EB0006091AF066F5F6093AF0683EB96E0409161
:100EC000B0060E94EF12EDD980910F048E3089F4A4
:100ED000C80123E0880F991F2A95E1F7000F111F21
:100EE000800F911FC80FD91FD093B206C093B106CF
:100EF00068C091E0F916C9F48A3039F48FEF90E0B8
:100F00009093B2068093B1065CC08B3029F41092A6
:100F1000B2061092B10655C08C3039F484E692E0E6
:100F20009093B2068093B10668C08A3008F049C039
:100F30006091AF0662506093AF0683EB96E04091FC
:100F4000B0060E94EF1283EB96E0B8014AE050E051
:100F50000E94B21E83EB96E0BE014AE050E00E9480
:100F6000B21E6091AF066E5F6093AF0683EB96E0B2
:100F70004091B0060E94EF1283EB96E060910F045F
:100F80004AE050E00E94631E84E690E0089F9001D2
:100F9000099F300D189F300D112480910F04280FE8
:100FA000311DCE01A3E0880F991FAA95E1F7CC0F60
:100FB000DD1F8C0F9D1F280F391F3093B206209321
:100FC000B10683EB96E00E94E1126091AF0670E0FB
:100FD000625070404091B0068091B1069091B20687
:100FE00050E00BDB6091AF0664506093AF0683EB7B
:100FF00096E04091B0060E94EF1283EB96E00E94CB
:10100000E11283EB96E06091AF064091B0060E943A
:10101000EF126CE271E080E090E00E94E71ADF914D
:10102000CF911F910F91FF900895CF93DF9383EBA2
:1010300096E00E94171383EB96E061E141E00E9485
:10104000EF12C0E0D0E0FE01E65AFB4F1082E091C3
:101050008C07F0918D07EC0FFD1F108283EB96E05B
:10106000BE0142E050E00E94B21E219682E0C130F3
:10107000D80749F783EB96E00E94171383EB96E0BD
:1010800063E041E00E94EF1283EB96E066E172E0DC
:101090000E94C41E68EE73E080E090E00E94E71AB0
:1010A000DF91CF910895CF93DF9383EB96E00E9479
:1010B000171383EB96E00E94E11283EB96E060E069
:1010C00040E00E94EF12C0E0D0E083EB96E0BE016A
:1010D00042E050E00E94B21E219682E0C130D80763
:1010E000A1F783EB96E00E94171383EB96E060E094
:1010F00040E00E94EF1283EB96E066E272E00E940D
:10110000C41E83EB96E060E041E00E94EF1283EBA7
:1011100096E06BE372E00E94C41E83EB96E068E009
:1011200041E00E94EF1283EB96E063E472E00E94DC
:10113000C41E83EB96E067E042E00E94EF1283EB6F
:1011400096E060E572E00E94C41E83EB96E060E0EA
:101150004AE050E00E94631E83EB96E06BE572E08C
:101160000E94C41E83EB96E062E04AE050E00E94D9
:10117000631E83EB96E067E043E00E94EF1283EB8F
:1011800096E06DE572E00E94C41E83EB96E060E09D
:101190004AE050E00E94631E83EB96E06BE572E04C
:1011A0000E94C41E83EB96E060E04AE050E00E949B
:1011B000631E83EB96E060E043E00E94EF1283EB56
:1011C00096E068E672E00E94C41E83EB96E064E15C
:1011D0004AE050E00E94631E60ED77E080E090E01E
:1011E0000E94E71ADF91CF910895CF93DF9383EBAD
:1011F00096E00E94171383EB96E061E141E00E94C4
:10120000EF12C0E0D0E0FE01E65AFB4F1082E09101
:101210008C07F0918D07EC0FFD1F108289E897E095
:10122000BE0140E00E94691783EB96E0BE0142E0F8
:1012300050E00E94B21E219682E0C130D80719F713
:1012400083EB96E00E94171383EB96E063E041E0A6
:101250000E94EF1283EB96E06CE672E00E94C41EDF
:1012600068EE73E080E090E00E94E71ADF91CF9192
:101270000895CF93DF9383EB96E00E94171383EBDF
:1012800096E061E141E00E94EF12C1E0D0E0FE0192
:10129000E65AFB4F89E897E0BE0140810E9469173A
:1012A00083EB96E0BE0142E050E00E94B21E219620
:1012B00082E0C130D80759F783EB96E00E941713FC
:1012C00083EB96E063E041E00E94EF1283EB96E04F
:1012D0006CE772E00E94C41E68EE73E080E090E06C
:1012E0000E94E71ADF91CF910895CF93DF9383EBAC
:1012F00096E00E94171383EB96E061E141E00E94C3
:10130000EF12C1E0D0E089E897E0BE010E946217C9
:10131000FE01E65AFB4F80832197E0918C07F09104
:101320008D07EC0FFD1F2196808383EB96E0BE01B5
:1013300042E050E00E94B21E219682E0C130D80700
:1013400011F783EB96E00E94171383EB96E063E0BE
:1013500041E00E94EF1283EB96E06AE872E00E949F
:10136000C41E68EE73E080E090E00E94E71ADF910F
:10137000CF91089583EB96E00E94171383EB96E0DC
:1013800060E040E00E94EF1283EB96E069E972E0D2
:101390000E94C41E83EB96E061E042E00E94EF12DF
:1013A00083EB96E069EA72E00E94C41E83EB96E04C
:1013B00061E043E00E94EF1283EB96E06EEA72E098
:1013C0000E94C41E83EB96E067E042E00E94EF12A9
:1013D00083EB96E063EB72E00E94C41E83EB96E021
:1013E00067E043E00E94EF1283EB96E069EB72E066
:1013F0000E94C41E83EB96E06EE043E00E94EF1271
:1014000083EB96E06FEB72E00E94C41E10925D06C3
:1014100082E080935E06EFE5F6E0DF0198961082A9
:10142000148A1C9254961C9254973196119686E019
:10143000E337F807A1F781E0848B80A786A7828F26
:1014400085AB80E060E070E070D980915D06882314
:1014500029F480915E06833009F447DF80915D06B0
:10146000863029F480915E06833009F4BEDE8091D7
:101470005D06882329F480915E06823009F4F9DE46
:1014800080915D06863029F480915E06823009F4F1
:10149000CCCD08952F923F924F925F926F927F92A0
:1014A0008F929F92AF92BF92CF92DF92EF92FF9274
:1014B0000F931F93DF93CF93CDB7DEB728970FB667
:1014C000F894DEBF0FBECDBF8FEF90E09A83898383
:1014D000A1E0B0E0B887AF83662477244301AA2453
:1014E000BB24650183EB96E00E94171383EB96E023
:1014F00063E040E00E94EF1283EB96E066EC72E05E
:101500000E94C41E83EB96E060E041E00E94EF126F
:1015100083EB96E06CEC72E00E94C41E83EB96E0D5
:1015200060E042E00E94EF1283EB96E06FED72E024
:101530000E94C41E83EB96E060E043E00E94EF123D
:1015400083EB96E064EF72E00E94C41E89819A8169
:1015500069E070E040E050E050D88F81988569E004
:1015600070E041E050E049D8C30169E070E042E03A
:1015700050E043D8C50169E070E043E050E03DD859
:10158000B8E0B0935D0610925E06EFE5F6E0DF018D
:1015900098961082148A1C9254961C9254973196F5
:1015A000119626E0E337F207A1F781E0808780AB50
:1015B000848F858781A385AB8093670680E060E098
:1015C00070E0B3D880915D068D3029F480915E067D
:1015D000813009F476D180915D068D3009F08EC09E
:1015E00080915E06823011F4C5DE7CCF833009F035
:1015F000B8C0C601B501A40193010E94C61E615086
:1016000072408040904054F083EB96E06DE040E003
:10161000E6D783EB96E068E073E06DC083EB96E07D
:101620006DE040E0DCD783EB96E060E173E00E9480
:10163000C41E71E0E72EF12C012D112D8F819885AC
:10164000AA2797FDA095BA2F8B839C83AD83BE8379
:1016500043C091E0E916F1040105110509F02CC120
:101660002B803C804D805E80A1E02A16A2E03A06E5
:10167000A0E04A06A0E05A0634F0261837084808C9
:1016800059088601750183EB96E061E140E0A7D738
:1016900083EB96E0B201A1012AE030E00E94741EC3
:1016A00065E070E080E090E00E94E71AC1010197D8
:1016B00020918C0730918D07280F391F8981F901FE
:1016C00080839101265A3B4FE981D901EC9308941C
:1016D000E11CF11C011D111DAE14BF04C006D10692
:1016E0000CF0B7CF83EB96E06DE040E078D783EB6A
:1016F00096E068E173E00E94C41E47CF883089F508
:1017000080915E06813069F58093B006F9E0F09330
:10171000AF0680E03EDB8091B1069091B2069887DB
:101720008F83892B69F481E090E069E070E041E00B
:1017300050E00E94FD02A1E0B0E0B887AF8311C085
:10174000EF81F885E150F24064F080E092E069E0DA
:1017500070E041E050E00E94FD0280E092E0988756
:101760008F8380915D068830E9F580915E06823036
:10177000C9F58093B00699E09093AF0680E009DB4D
:101780008091B1069091B2063C01882477FC809448
:10179000982C611471048104910471F481E090E04B
:1017A00069E070E042E050E00E94FD0261E0662ED8
:1017B000712C812C912C16C0A1E06A16A2E07A0649
:1017C000A0E08A06A0E09A066CF080E092E069E072
:1017D00070E042E050E00E94FD02612C52E0752E64
:1017E000812C912C80915D068830E9F580915E0610
:1017F0008330C9F58093B006B9E0B093AF0680E0BE
:10180000C8DA8091B1069091B2065C01CC24B7FC95
:10181000C094DC2CA114B104C104D10471F481E0A2
:1018200090E069E070E043E050E00E94FD0241E09A
:10183000A42EB12CC12CD12C16C0E1E0AE16E2E0F2
:10184000BE06E0E0CE06E0E0DE066CF080E092E06E
:1018500069E070E043E050E00E94FD02A12C32E01C
:10186000B32EC12CD12C80915D06883009F08DCE2D
:1018700080915E06882309F088CE1092B006F9E0C8
:10188000F093AF0681E085DA8091B1069091B206BF
:101890009A8389838F3F910509F00CF476CE8FEF00
:1018A00090E069E070E040E050E00E94FD02AFEFA0
:1018B000B0E0BA83A98369CE260C371C481C591C9A
:1018C000D3CE83EB96E0B3D683EB96E060E040E0C6
:1018D00086D683EB96E06CE173E00E94C41E83EB36
:1018E00096E062E042E07BD683EB96E06DE273E047
:1018F0000E94C41E83EB96E062E043E070D683EB67
:1019000096E065E373E00E94C41E83EB96E06CE012
:1019100042E065D683EB96E06CE373E00E94C41E60
:1019200083EB96E06CE043E05AD683EB96E063E409
:1019300073E00E94C41E81E080935D0682E0809384
:101940005E06EFE5F6E0DF0198961082148A1C929D
:1019500054961C9254973196119686E0E337F80717
:10196000A1F781E0858B81A7878F83AB80E060E062
:1019700070E00E94950380915D06813029F480918A
:101980005E06823009F4E8D180915D06813029F449
:1019900080915E06833009F413D080915D068B3010
:1019A00029F480915E06823009F4F9D280915D06B7
:1019B0008B3029F480915E06833009F46BCD089555
:1019C0002F923F924F925F926F927F928F929F924F
:1019D000AF92BF92CF92DF92EF92FF920F931F933D
:1019E000DF93CF93CDB7DEB760970FB6F894DEBF25
:1019F0000FBECDBF81E090E09093F4038093F3039A
:101A0000988B8F870CE011E083EB96E010D683EB88
:101A100096E060E040E0E3D583EB96E06CE473E0B1
:101A20000E94C41E8F85988916D900935D06109276
:101A30005E06EFE5F6E0DF0198961082148A1C92AC
:101A400054961C9254973196119626E0E337F2078C
:101A5000A1F7109363061093670610936B0610832B
:101A6000148310871487108B148B108F148F10A37E
:101A700014A310A714A710AB14AB10AF8F859889CF
:101A80000B969A838983EF85F8893696FC83EB83DE
:101A90002F853889235F3F4F3E832D838F8598891B
:101AA0000A9698878F83EF85F8893896FA87E987B1
:101AB0002F8538892B5F3F4F3C872B878F859889EF
:101AC0000E969E878D8739E0232E312CEF85F8897D
:101AD0002E0E3F1E2CE0422E512C4E0E5F1E97E024
:101AE000692E712C6E0E7F1E84E0882E912C8E0E36
:101AF0009F1EB2E0AB2EB12CAE0EBF1EA3E0CA2ECD
:101B0000D12CCE0EDF1E7F010894E11CF11C81E078
:101B10006F8578890E94950390915D06943039F421
:101B200080915E06882309F041C024DC6DCF983097
:101B300039F480915E06882309F041C0C2DE64CF8B
:101B40009C3059F580915E06882309F043C01092BD
:101B5000B006FDE0F093AF061CD98091B1069091DC
:101B6000B206835F914034F082EF91E09093B20629
:101B70008093B1068091B1069091B206892B31F421
:101B8000E1E0F0E0F093B206E093B1062091B106F7
:101B90003091B206388B2F8737CF992371F480911B
:101BA0005E06813069F5EF85F88939C0813089F5A5
:101BB000F092F403E092F30388C0983049F48091E6
:101BC0005E06813081F4B092F403A092F3037DC0ED
:101BD0009C3049F480915E06813099F5D092F403EF
:101BE000C092F30372C0903149F480915E06813057
:101BF00089F59092F4038092F30367C0992339F436
:101C000080915E06823089F52B853C855AC09430E0
:101C100059F480915E06823089F5EB81FC81F09366
:101C2000F403E093F30351C0983049F480915E06C9
:101C3000823069F57092F4036092F30346C09C30E1
:101C400039F480915E06823069F529853A8539C07C
:101C5000903149F480915E06823069F53092F40348
:101C60002092F30332C0992339F480915E068330C9
:101C700061F5EF81F885D3CF943039F480915E0619
:101C8000833019F529813A811CC0983049F480913C
:101C90005E068330D1F45092F4034092F30315C0F2
:101CA0009C3039F480915E06833079F4ED81FE81B9
:101CB000B6CF903151F480915E06833031F42D859A
:101CC0003E853093F4032093F30380915E06809366
:101CD000B0069F5F9093AF0681E05BD88091B1061C
:101CE0009091B2068456924039F40E943903809153
:101CF000AF0684508093AF068091B1069091B206F2
:101D00008F3F910589F084F08FEF90E09093B206B9
:101D10008093B1066091AF0670E06E5F7F4F409197
:101D2000B00650E00E94FD028091F3039091F4030D
:101D30000197E0918C07F0918D07E80FF91F8091D2
:101D4000B1068083E091F303F091F403E65AFB4F70
:101D50008091B1068083DBCEAF92BF92CF92DF92AB
:101D6000EF92FF920F931F93CF93DF93C1E0D0E0E8
:101D700078E0A72E01E069E0B62EE12C52E0F52EC6
:101D80004FEFC42ED12CD093F403C093F30383EB15
:101D900096E04DD483EB96E060E040E020D483EB06
:101DA00096E06EE573E00E94C41E83EB96E06EE061
:101DB00042E015D483EB96E06FE673E00E94C41E08
:101DC00083EB96E06EE043E00AD483EB96E064E7B1
:101DD00073E00E94C41E83EB96E060E042E0FFD314
:101DE00083EB96E06BE773E00E94C41E83EB96E002
:101DF00062E043E0F4D383EB96E068E873E00E948E
:101E0000C41E80915B0490E069E070E043E050E024
:101E10000E94FD02A0925D0682E080935E06EFE5DF
:101E2000F6E0DF0198961082148A1C9254961C9258
:101E300054973196119626E0E337F207A1F7048F05
:101E400000AB01A305AB80E060E070E00E94950369
:101E500080915D06883009F04EC010915E06123008
:101E600009F049C08091F3039091F40369E070E0B8
:101E700042E050E00E94FD021093B006B092AF061F
:101E800080E00E94C9068091B1069091B20681500F
:101E9000924064F0F092B206E092B10680E092E0E7
:101EA00069E070E042E050E00E94FD028091B106DE
:101EB0009091B2061816190664F0D093B206C0933A
:101EC000B10681E090E069E070E042E050E00E94FD
:101ED000FD02E091B106F091B206F093F403E093B5
:101EE000F303E65AFB4F808190E069E070E043E045
:101EF00050E00E94FD0280915D06883009F041C0EB
:101F000080915E06833009F09ECF8093B006B09238
:101F1000AF0681E00E94C9068091B1069091B20699
:101F20008456924011F40E9439038091B106909139
:101F3000B2068F3F910569F064F0D092B206C0926C
:101F4000B1068FEF90E069E070E043E050E00E945E
:101F5000FD028091F3039091F4030197E0918C07C7
:101F6000F0918D07E80FF91F8091B1068083E09111
:101F7000F303F091F403E65AFB4F8091B10680839E
:101F800062CF8D3009F05FCF80915E06833011F40F
:101F9000F1D9F9CE823009F056CF93DC54CF2F928D
:101FA0003F924F925F926F927F928F929F92AF92E9
:101FB000BF92CF92DF92EF92FF920F931F93DF9326
:101FC000CF93CDB7DEB728970FB6F894DEBF0FBE1C
:101FD000CDBF83EB96E02BD383EB96E060E040E04F
:101FE000FED283EB96E06FE873E00E94C41E83EBA1
:101FF00096E063E041E0F3D283EB96E06CE973E0B6
:102000000E94C41E83EB96E060E042E0E8D283EBDE
:1020100096E06CEA73E00E94C41E83EB96E060E0F9
:1020200043E0DDD283EB96E060EC73E00E94C41ED7
:1020300081E090E069E070E041E050E00E94FD0244
:1020400081E090E069E070E042E050E00E94FD0233
:1020500080E090E069E070E043E050E00E94FD0223
:1020600088E080935D0681E080935E0621E030E0A9
:1020700040E050E029833A834B835C8301E0802E6B
:10208000912CA12CB12C442455243201EFE5F6E02B
:10209000DF0198961082148A1C9254961C925497D1
:1020A0003196119636E0E337F307A1F741E0408718
:1020B000448F40AB42A346AB80E060E070E00E94FA
:1020C000950380915D068E3029F480915E06823002
:1020D00009F4F7DB80915D068E3009F0A6C080918F
:1020E0005E06833009F0BCC08D829E8283EB96E051
:1020F0006FE043E074D283EB96E065ED73E00E94FD
:10210000C41E80E090E0FC01E65AFB4F1082E09193
:102110008C07F0918D07E80FF91F1082019652E0AD
:102120008130950781F78D819E819C0169011AE5B7
:10213000212E14E0312E280C391C59C08F8198852E
:10214000019698878F838451954009F055C0089473
:10215000E11CF11C011D111D29813A814B815C811B
:10216000E216F3060407150709F044C0C601AA27C2
:1021700097FDA095BA2F481659066A067B0624F4E7
:102180008D819E819C016901C60169E070E040E09B
:1021900050E00E94FD02D101A50194010EC0C901C9
:1021A0000197E0918C07F0918D07E80FF91F1082DD
:1021B0001D922F5F3F4F4F4F5F4F421653066406ED
:1021C00075066CF70894C108D108E0918C07F0916E
:1021D0008D07EC0DFD1D0894C11CD11C3FEF308311
:1021E000F601E65AFB4F30830894C11CD11CEE2443
:1021F000FF24870118861F828091FD030E946F1DB6
:10220000019709F49BCF83EB96E06FE043E0E7D1C1
:1022100083EB96E06BED73E00E94C41E6CE271E00C
:1022200080E090E00E94E71A31CF8830C9F48091B5
:102230005E068130A9F48093B00649E04093AF0672
:1022400080E00E94C9068091B1069091B2069C017F
:10225000442737FD4095542F29833A834B835C8371
:1022600080915D068830F1F580915E068230D1F56F
:102270008093B00639E03093AF0680E00E94C90633
:102280008091B1069091B2064C01AA2497FCA094CB
:10229000BA2C81149104A104B10471F481E090E09E
:1022A00069E070E042E050E00E94FD02B1E08B2E58
:1022B000912CA12CB12C16C041E0841642E094066A
:1022C00040E0A40640E0B4066CF080E092E069E0F3
:1022D00070E042E050E00E94FD02812CA2E09A2EC4
:1022E000A12CB12C80915D06883009F0CFCE809171
:1022F0005E06833009F0CACE8093B00659E0509351
:10230000AF0680E00E94C9068091B1069091B206A6
:102310002C01662457FC6094762C4114510461040E
:10232000710471F481E090E069E070E043E050E016
:102330000E94FD02F1E04F2E512C612C712CA6CE93
:1023400081E0481682E0580680E0680680E0780662
:102350000CF49CCE80E092E069E070E043E050E055
:102360000E94FD02412CE2E05E2E612C712C8ECE8B
:1023700083EB96E05CD183EB96E060E040E02FD108
:1023800083EB96E061EE73E00E94C41E83EB96E05F
:1023900062E042E024D183EB96E063EB72E00E94BE
:1023A000C41E83EB96E069E042E019D183EB96E02E
:1023B0006EEA72E00E94C41E83EB96E06FE042E09A
:1023C0000ED183EB96E069EB72E00E94C41E81E0BF
:1023D00080935D0682E080935E06EFE5F6E0DF0124
:1023E00098961082148A1C9254961C925497319697
:1023F000119686E0E337F807A1F781E0858B848F9B
:1024000082A380E060E070E00E94950380915D0609
:10241000883039F480915E06823019F40E94750983
:1024200050DA80915D068E3039F480915E068230FC
:1024300019F40E94F50845DA80915D06813029F48F
:1024400080915E06823009F43CCA089582E061E022
:102450000E943D1D0E9453088BCF8091F10361E0E3
:102460000E948A1C8091F50362E00E948A1C809180
:10247000F70362E00E948A1C8091F90362E00E94E7
:102480008A1C8091FB0362E00E948A1C8091FD03FC
:1024900062E00E948A1C8091FF0361E00E948A1C16
:1024A0008091010461E00E948A1C8091030461E034
:1024B0000E948A1C8091050461E00E948A1C809120
:1024C000070462E00E948A1C8091090462E00E9475
:1024D0008A1C80910B0462E00E948A1C80910D048A
:1024E00062E00E948A1C8091FF0361E00E943D1D12
:1024F0008091010461E00E943D1D8091030461E030
:102500000E943D1D8091050461E00E943D1D809167
:10251000100461E00E948A1C8091120461E00E9414
:102520008A1C80911A0461E00E948A1C8091180420
:1025300061E00E948A1C8091160461E00E948A1C5E
:102540008091140461E00E948A1C83EB96E064E1B0
:1025500044E020E072D081E090E09093A207809365
:10256000A10780E092E090939E0780939D078AE800
:1025700097E060E00BC608950895FC011382128273
:1025800086E294E0918380830895FC01A081B1816B
:1025900018962D913C9119976FEFF90119950895AF
:1025A000DC01ED91FC910284F385E02D40E019956A
:1025B0000895FC016581862F816085836960CF0164
:1025C000EFCFFC0165816E7F65836860E9CFFC0118
:1025D0006581862F846085836C60CF01E1CFDC014B
:1025E00017969C911797491710F0492F415018964C
:1025F0008C911897803139F4943029F4E42FF0E06D
:10260000EE5CFB4F04C0E42FF0E0EA5CFB4F8081FE
:10261000680F6068CD01C4CFDC01ED91FC910284AC
:10262000F385E02D41E0199581E090E0089561E0A7
:10263000B7DF80ED97E00C94401BCF93DF93EC0164
:10264000423018F08C8188608C834F836887222306
:1026500029F0413019F48C8184608C8364E670E049
:1026600080E090E0B4D76C8164FD2EC0E881F981F0
:102670000284F385E02DCE0163E042E0199584E900
:1026800091E1FED7E881F9810284F385E02DCE0146
:1026900063E042E0199584E991E1F2D7E881F9819C
:1026A0000284F385E02DCE0163E042E0199586E9CE
:1026B00090E0E6D7E881F9810284F385E02DCE0130
:1026C00062E042E0199511C06062CE0169DF84E9E1
:1026D00091E1D6D76C816062CE0162DF86E990E03D
:1026E000CFD76C816062CE015BDF6C816062CE010E
:1026F00057DF84E08D83CE016ADFCE0198DF82E070
:102700008E83CE0166E04CDFCE013FDFDF91CF91BB
:1027100008950F931F938C01FC01858561E00E9451
:102720003D1DF801858560E00E943D1D1F910F91C0
:102730000895BF92CF92DF92EF92FF920F931F9373
:10274000CF93DF93D82EC92EB42E282F392FC9014D
:102750008C01C0E0D0E0E62EFF240DC0B7010C2EA6
:1027600002C0759567950A94E2F76170F801858556
:102770000E943D1D21960F5F1F4FCB1578F38D2DC5
:102780009C2DC7DFDF91CF911F910F91FF90EF90AC
:10279000DF90CF90BF9008950F931F93CF93DF9357
:1027A000EC01162F042F60E0413009F461E08B85C5
:1027B0000E943D1D8C858F3F19F060E00E943D1DF9
:1027C000023089F08C8184FF04C0CE01612F48E083
:1027D0000DC0612F70E084E0759567958A95E1F7EB
:1027E000CE0144E0A6DFCE01612F44E0A2DFDF91FD
:1027F000CF911F910F9108956F927F928F92AF9218
:10280000CF92EF920F931F93DF93CF93CDB7DEB7A5
:102810003C01162F8E2DF301438724870587E6861A
:10282000C786A08A818A9E85928B9F85938B988983
:10283000948B9989958B61E00E948A1CF3018785AE
:1028400061E00E948A1CF301808961E00E948A1C79
:10285000F301818961E00E948A1C1123A1F4F30134
:10286000828961E00E948A1CF301838961E00E94F1
:102870008A1CF301848961E00E948A1CF301858926
:1028800061E00E948A1CF301838561E00E948A1C3A
:10289000F30184858F3F19F061E00E948A1CF301E7
:1028A000858561E00E948A1C112319F0F3011482CE
:1028B00003C080E1F3018483F301838560E00E941B
:1028C0003D1DF301858560E00E943D1DF301848577
:1028D0008F3F19F060E00E943D1D8FEFF301868B62
:1028E00012861186CF91DF911F910F91EF90CF90BB
:1028F000AF908F907F906F900895DF92EF92FF924C
:102900000F931F938C01D62E7A01862F61E00E94CF
:102910008A1CD8015696DC9256971A96FC92EE9233
:102920001997ED91FC910084F185E02DC80160E0DC
:1029300019951F910F91FF90EF90DF900895DC01A2
:10294000362F56962C9156972F3F49F1E22FF0E003
:10295000E254FE4FE491EE2379F019968D919C910B
:102960001A97892B19F4822F70E005C06FEF70E081
:10297000631B7109822FF0C619968D919C911A974D
:10298000662319F0892B39F402C0019721F4822FB4
:1029900061E00C943D1D822F60E00C943D1D089574
:1029A0006F927F928F92AF92BF92CF92DF92EF920F
:1029B000FF920F931F933C01162FF42ED22EB02EB0
:1029C000AE2C8C2CDADD8EE394E0D3018D939C93B6
:1029D00000D00F92EDB7FEB73196ADB7BEB71196E6
:1029E0001C92118212821382C30161E0412F2FEFEA
:1029F0000F2DED2CCB2C00DF0F900F900F900F9030
:102A00001F910F91FF90EF90DF90CF90BF90AF900C
:102A10008F907F906F9008952091EB0630E0809129
:102A2000EA06281B3109C90108954091EA06809100
:102A3000EB06481718F02FEF3FEF0AC0E42FF0E045
:102A4000E653F94F8081282F30E04F5F4093EA062C
:102A5000C9010895E091EA068091EB06E81718F0A5
:102A6000EFEFFFEF06C0F0E0E653F94F8081E82F6B
:102A7000F0E0CF0108950895109212071092110707
:102A800088EE93E0A0E0B0E08093130790931407E2
:102A9000A0931507B09316078EE494E09093100767
:102AA00080930F070895CF92DF92EF92FF920F93DA
:102AB0001F93CF93DF937C016B018A0180910E07F6
:102AC0008823A1F0C0E0D0E00DC0D701ED91FC91CA
:102AD000D601AC0FBD1F0190F081E02DC7016C91B4
:102AE00019952196C017D10780F303C0CB01642F3D
:102AF00039D0C801DF91CF911F910F91FF90EF90D6
:102B0000DF90CF900895DF93CF930F92CDB7DEB7CC
:102B1000FC01698380910E078823C9F080910D071D
:102B2000803238F081E090E09383828320E030E0CF
:102B300014C080910C07E82FF0E0E451F94F99811F
:102B400090838F5F80930C0780930D0704C0CE01A4
:102B5000019661E007D021E030E0C9010F90CF91EC
:102B6000DF910895482F613210F081E0089580913F
:102B70001B07843011F082E0089560936607A5E496
:102B8000B7E0842F9C01F90102C081918D938E2FB3
:102B9000841B8617D0F380E008951F920F920FB622
:102BA0000F920BB60F9211242F933F934F935F9385
:102BB0006F937F938F939F93AF93BF93EF93FF9305
:102BC0008091B90090E0887F90708036910509F47B
:102BD000F2C081369105CCF58832910509F47BC0AD
:102BE00089329105B4F48031910509F46FC08131C7
:102BF00091053CF4009709F447C1089709F04FC1CB
:102C000065C08831910509F466C0809709F047C115
:102C100082C08034910509F4A4C08134910544F444
:102C20008033910509F482C0C89709F038C189C082
:102C30008035910509F489C08835910509F496C05D
:102C40008834910509F02BC1AEC08839910509F48B
:102C500013C189399105ECF48837910509F4ABC0AB
:102C6000893791054CF48836910509F4A4C0803762
:102C7000910509F014C19FC08838910509F4FCC082
:102C80008039910509F49DC08038910509F007C18C
:102C900098C0803B910509F4C6C0813B91054CF476
:102CA000803A910509F49FC0883A910509F0F7C070
:102CB000BAC0803C910509F4E3C0883C910509F451
:102CC000DFC0883B910509F0EAC0C2C080911C07B3
:102CD0008093BB00CFC09091430780914407981721
:102CE00068F490914307E92FF0E0ED5DF84F8081A3
:102CF0008093BB009F5F90934307BCC080911D07EA
:102D0000882309F44BC085ED8093BC008091BC0002
:102D100084FDFCCFC2C080E28093880785ED80935C
:102D2000BC008091BC0084FDFCCFB7C080E38093E1
:102D3000880785ED8093BC008091BC0084FDFCCFAA
:102D4000ACC088E3809388079BC080914307909133
:102D5000BB00E82FF0E0ED5DF84F90838F5F80932C
:102D60004307909143078091440782C080914307B5
:102D70009091BB00E82FF0E0ED5DF84F90838F5FFE
:102D80008093430780911D07882341F085ED809350
:102D9000BC008091BC0084FDFCCF7FC081E08093AB
:102DA0001E0784EA6EC085ED8093BC008091BC0054
:102DB00084FDFCCF72C083E080931B0710928707CD
:102DC00059C080918707803208F056C080918707EC
:102DD0009091BB00E82FF0E0E959F84F90838F5FA6
:102DE0008093870747C080918707803230F4E09155
:102DF0008707F0E0E959F84F108285ED8093BC0019
:102E00008091BC0084FDFCCF10921B076091870766
:102E1000E0912107F091220787E697E070E019958D
:102E2000109287072DC084E080931B0710926507DE
:102E300010926607E0911F07F09120071995809185
:102E40006607882329F481E080936607109245077E
:102E500090916507E92FF0E0EB5BF84F808180935C
:102E6000BB009F5F9093650790916507809166070F
:102E7000981710F485EC01C085E88093BC000FC062
:102E800085EC8093BC0009C01092880785ED809383
:102E9000BC008091BC0084FDFCCF10921B07FF9109
:102EA000EF91BF91AF919F918F917F916F915F91C2
:102EB0004F913F912F910F900BBE0F900FBE0F902F
:102EC0001F901895F999FECF72BD61BDF89A80B533
:102ED0000895F999FECF1FBA72BD61BD40BD0FB60E
:102EE000F894FA9AF99A0FBE0895FC018385882315
:102EF00031F48091C10087728093C10008958130C0
:102F000031F48091C90087728093C900089582309E
:102F100031F48091D10087728093D100089583307D
:102F200029F48091310187728093310108951F92B5
:102F30000F920FB60F920BB60F9211242F933F935F
:102F40004F935F936F937F938F939F93AF93BF93B1
:102F5000EF93FF938091C000809392073091C60059
:102F60003093930720918E072093940784FF10C01D
:102F70008091C0008F7E8093C00080919F079091C8
:102F8000A007909398078093970781E080938E071E
:102F9000213091F4332369F482E080938E0780918D
:102FA0008A0790918B0701969093900780938F07E3
:102FB0004BC010928E0748C02230A1F48091970731
:102FC0009091980701979093980780939707892B82
:102FD000D9F583E080938E07E0918A07F0918B0703
:102FE000308332C0233081F5E0918F07F091900754
:102FF000F093AD07E093AC0730834091AC0750915C
:10300000AD074F5F5F4F5093AD074093AC07809182
:103010008A0790918B0720919B0730919C07820F24
:10302000931F4817590760F010928E07E091B00780
:10303000F091B107309741F080919507199504C040
:103040005093900740938F07FF91EF91BF91AF91FD
:103050009F918F917F916F915F914F913F912F91B0
:103060000F900BBE0F900FBE0F901F9018951F92E0
:103070000F920FB60F920BB60F9211242F933F931E
:103080004F935F936F937F938F939F93AF93BF9370
:10309000EF93FF93809196078093AB07882361F4A9
:1030A0001092C5008091A8078093C4001092C600BA
:1030B00081E08093960740C0813081F41092C50072
:1030C0008091A7078093C4001092C60082E080938D
:1030D000960710929A07109299072EC0809199072F
:1030E00090919A079093AA078093A907E0918C0783
:1030F000F0918D07E80FF91F20812093C6009C01F5
:103100002F5F3F4F3093AA072093A90780919D0717
:1031100090919E072817390759F4E091AE07F09176
:10312000AF07309711F080E019951092960704C010
:1031300030939A0720939907FF91EF91BF91AF9138
:103140009F918F917F916F915F914F913F912F91BF
:103150000F900BBE0F900FBE0F901F90189521E09F
:1031600030E03093A00720939F0788E090E0909391
:103170009C0780939B073093A2072093A10790930D
:103180009E0780939D071092950708951F93CF93F4
:10319000DF93EC01162FF894A8DE1C8F112321F485
:1031A00087E08D8F84E10BC0113021F483E08D8F97
:1031B0008AE005C0123021F481E08D8F85E08E8F8A
:1031C0008B8D8F3F29F061E0A5D38B8D61E055D4C5
:1031D0008B858823D1F481E061E09CD31092C500F7
:1031E0008D8D8093C4008091C00082608093C00068
:1031F0008091C2008E608093C2008091C10088647B
:103200008093C1001092C60053C08130D1F482E196
:1032100061E080D31092CD008D8D8093CC008091A1
:10322000C80082608093C8008091CA008E6080933D
:10323000CA008091C90088648093C9001092CE00B2
:1032400037C08230D1F480E161E064D31092D500C0
:103250008D8D8093D4008091D00082608093D000C7
:103260008091D2008E608093D2008091D1008864DA
:103270008093D1001092D6001BC08330C9F48EE039
:1032800061E048D3109235018D8D80933401809197
:103290003001826080933001809132018E60809392
:1032A000320180913101886480933101109236019E
:1032B00081E08C878B899C890DD08A839B834B8985
:1032C0005C8960E070E00E9433017894DF91CF91D7
:1032D0001F9108950F931F93CF93DF93BC0182300A
:1032E000910510F462E070E0E091BD07F091BE0737
:1032F00040E050E0A0E0B0E024C0808191818617DA
:103300009707D0F08617970771F482819381109701
:1033100029F013969C938E9312972CC09093BE071E
:103320008093BD0727C04115510519F084179507F3
:1033300018F48D01AC01EF01DF01828193819C01C2
:10334000F9013097D1F641155105F9F0CA01861BF4
:10335000970B8430910580F48A819B8101151105BA
:1033600021F0F8019383828304C09093BE07809379
:10337000BD07FE01329645C0FE01E80FF91F6193BB
:1033800071930297998388833CC08091BB07909189
:10339000BC07892B41F480911E0490911F049093E7
:1033A000BC078093BB074091200450912104411534
:1033B000510541F44DB75EB780911C0490911D04F6
:1033C000481B590B2091BB073091BC0724173507C8
:1033D000B0F4CA01821B930B8617970780F0AB01EC
:1033E0004E5F5F4F8417950750F0420F531F509365
:1033F000BC074093BB07F9016193719302C0E0E001
:10340000F0E0CF01DF91CF911F910F910895CF93FD
:10341000DF939C01009709F48FC0EC0122971B8277
:103420001A826091BD077091BE076115710581F424
:1034300088819981820F931F2091BB073091BC072F
:103440002817390739F5D093BC07C093BB0774C060
:10345000DB0140E050E0AC17BD0708F1BB83AA8355
:10346000FE0121913191E20FF31FAE17BF0779F4EE
:103470008D919C911197280F391F2E5F3F4F3983F3
:10348000288312968D919C9113979B838A83411573
:10349000510571F4D093BE07C093BD074DC012967D
:1034A0008D919C911397AD01009711F0DC01D3CF62
:1034B000DA011396DC93CE931297FA0121913191A0
:1034C000E20FF31FCE17DF0769F488819981280F77
:1034D000391F2E5F3F4FFA01318320838A819B8100
:1034E00093838283E0E0F0E0DB0112968D919C9162
:1034F0001397009719F0BC01FD01F6CFAB014E5FA9
:103500005F4FDB018D919C91840F951F2091BB072C
:103510003091BC072817390779F4309729F41092B5
:10352000BE071092BD0702C0138212824250504063
:103530005093BC074093BB07DF91CF9108951F9232
:103540000F920FB60F9211242F933F938F939F9357
:10355000AF93BF938091B6079091B707A091B8073A
:10356000B091B9073091BA070196A11DB11D232F63
:103570002D5F2D3720F02D570196A11DB11D2093F1
:10358000BA078093B6079093B707A093B807B09394
:10359000B9078091B2079091B307A091B407B09199
:1035A000B5070196A11DB11D8093B2079093B30793
:1035B000A093B407B093B507BF91AF919F918F913E
:1035C0003F912F910F900FBE0F901F9018959B0168
:1035D000AC017FB7F8948091B2079091B307A091A6
:1035E000B407B091B50766B5A89B05C06F3F19F049
:1035F0000196A11DB11D7FBFBA2FA92F982F882733
:10360000860F911DA11DB11D62E0880F991FAA1F91
:10361000BB1F6A95D1F7BC012DC0FFB7F89480910C
:10362000B2079091B307A091B407B091B507E6B582
:10363000A89B05C0EF3F19F00196A11DB11DFFBF6A
:10364000BA2FA92F982F88278E0F911DA11DB11D6C
:10365000E2E0880F991FAA1FBB1FEA95D1F7861BCE
:10366000970B885E9340C8F2215030404040504054
:1036700068517C4F211531054105510571F60895BA
:10368000019739F0880F991F880F991F02970197AA
:10369000F1F70895789484B5826084BD84B5816023
:1036A00084BD85B5826085BD85B5816085BDEEE64A
:1036B000F0E0808181608083E1E8F0E01082808129
:1036C00082608083808181608083E0E8F0E0808197
:1036D00081608083E1EBF0E0808184608083E0EBB7
:1036E000F0E0808181608083E1E9F0E080818260A8
:1036F0008083808181608083E0E9F0E08081816067
:103700008083E1EAF0E08081826080838081816053
:103710008083E0EAF0E0808181608083E1E2F1E093
:10372000808182608083808181608083E0E2F1E03B
:10373000808181608083EAE7F0E08081846080831B
:1037400080818260808380818160808380818068C5
:1037500080831092C10008951F93CF93DF93182F99
:10376000EB0161E0D7D0209709F4CAC0CF3FD10563
:1037700009F4C9C0E12FF0E0E254FE4F8491893092
:1037800009F466C08A30B0F48430F1F1853040F439
:10379000823059F1833070F5813009F0AEC020C01D
:1037A000873009F443C0883008F048C0863009F0FB
:1037B000A4C034C08D3009F478C08E3038F48B301A
:1037C00009F45AC08C3008F066C04CC0803109F44E
:1037D00080C0813109F487C08F3009F08EC06FC07E
:1037E00084B5806884BDC7BD91C084B5806284BD46
:1037F000C8BD8CC080918000806880938000D09389
:103800008900C093880082C080918000806280938C
:103810008000D0938B00C0938A0078C08091B00064
:1038200080688093B000C093B30070C08091B000F6
:1038300080628093B000C093B40068C08091900013
:10384000806880939000D0939900C09398005EC0E8
:1038500080919000806280939000D0939B00C093F1
:103860009A0054C080919000886080939000D0931B
:103870009D00C0939C004AC08091A0008068809306
:10388000A0008091A0008F7B8093A000D093A9001E
:10389000C093A8003BC08091A00080628093A000EC
:1038A000D093AB00C093AA0031C08091A000886083
:1038B0008093A000D093AD00C093AC0027C080914E
:1038C0002001806880932001D0932901C0932801B2
:1038D0001DC080912001806280932001D0932B0134
:1038E000C0932A0113C08091200188608093200139
:1038F000D0932D01C0932C0109C0C038D1051CF410
:10390000812F60E002C0812F61E0B7D0DF91CF91BD
:103910001F910895CF93DF93482F50E0CA01885834
:103920009E4FFC0134914E5C5E4FFA0184918823D6
:1039300069F190E0880F991FFC01EC51FF4FA591B0
:10394000B491FC01E250FF4FC591D491662351F42C
:103950002FB7F8948C91932F909589238C9388811D
:1039600089230BC0623061F42FB7F8948C91932FA8
:10397000909589238C938881832B88832FBF06C0E1
:103980009FB7F8948C91832B8C939FBFDF91CF913D
:103990000895893009F449C08A30A0F4843051F187
:1039A000853040F4823079F1833000F5813009F0C0
:1039B00063C026C0873079F1883098F5863009F0E9
:1039C0005BC025C08D3009F442C08E3028F48B30A6
:1039D000B1F18C30C0F52DC0803109F442C0813185
:1039E00009F445C08F3009F047C037C0809180008E
:1039F0008F7703C0809180008F7D80938000089531
:103A000084B58F7702C084B58F7D84BD0895809181
:103A1000B0008F7703C08091B0008F7D8093B0009D
:103A20000895809190008F7707C0809190008F7DDE
:103A300003C080919000877F8093900008958091CB
:103A4000A0008F7707C08091A0008F7D03C0809178
:103A5000A000877F8093A0000895809120018F7738
:103A600003C0809120018F7D809320010895809173
:103A70002001877F809320010895FF920F931F9369
:103A8000F62E482F50E0CA0182549E4FFC0124912B
:103A9000CA0188589E4FFC0114914E5C5E4FFA019A
:103AA00004910023C1F0222311F0822F72DFE02F56
:103AB000F0E0EE0FFF1FE250FF4FA591B4919FB7CA
:103AC000F894FF2021F48C911095812302C08C91F1
:103AD000812B8C939FBF1F910F91FF9008950F939F
:103AE0001F93482F50E0CA0182549E4FFC0124913D
:103AF000CA0188589E4FFC0104914E5C5E4FFA014A
:103B00001491112319F420E030E014C0222311F0A5
:103B1000822F3FDF812F90E0880F991F885E9E4F94
:103B2000FC01A591B4918C9120E030E0802311F04C
:103B300021E030E0C9011F910F9108950895CF93BE
:103B4000DF93A8DDFBDF0E942D12C0E0D0E00E94D1
:103B500026122097E1F30E940000F9CF0895CF923A
:103B6000DF92EF92FF920F931F93CF93DF937C012D
:103B70006B018A01C0E0D0E00FC0D6016D916D01EC
:103B8000D701ED91FC910190F081E02DC7011995CD
:103B9000C80FD91F015010400115110571F7CE0152
:103BA000DF91CF911F910F91FF90EF90DF90CF9019
:103BB0000895CF93DF93EC016115710519F420E0AE
:103BC00030E00FC0DB010D900020E9F71197A61B34
:103BD000B70BE881F9810280F381E02DAD011995E1
:103BE0009C01C901DF91CF9108954F925F927F921E
:103BF0008F929F92AF92BF92CF92DF92EF92FF92FD
:103C00000F931F93DF93CF93CDB7DEB7A1970FB676
:103C1000F894DEBF0FBECDBF2C01742ECB01223035
:103C200008F42AE019A231E2C32ED12CCC0EDD1EFD
:103C3000822E9924AA24BB24672D752FA5019401F7
:103C4000C4D079018A01C801B701A50194019ED0B1
:103C5000472D461B0894C108D1084A3014F4405D32
:103C600001C0495CF6014083E114F104010511052E
:103C700021F07E2C5F2DC801DFCFC201B60199DF94
:103C8000A1960FB6F894DEBF0FBECDBFCF91DF91E6
:103C90001F910F91FF90EF90DF90CF90BF90AF906A
:103CA0009F908F907F905F904F900895DC01211539
:103CB000310541F4ED91FC910190F081E02D642FEC
:103CC0001995089592CFEF92FF920F931F939A0147
:103CD000E62EFF2400E010E0B801A701E7DF1F9106
:103CE0000F91FF90EF900895CF92DF92EF92FF92A5
:103CF0000F931F93CF93DF93EC016A017B01211592
:103D0000310541F4E881F9810190F081E02D642FC3
:103D100019951DC02A303105C9F477FF16C0E88116
:103D2000F9810190F081E02D6DE219958C01442715
:103D30005527BA014C195D096E097F09CE012AE0A9
:103D400054DF9801280F391F03C02AE04EDF9C0181
:103D5000C901DF91CF911F910F91FF90EF90DF90FC
:103D6000CF900895EF92FF920F931F937B019A01DA
:103D70000027F7FC0095102FB801A701B5DF1F91B0
:103D80000F91FF90EF90089514CF0895629FD00196
:103D9000739FF001829FE00DF11D649FE00DF11D06
:103DA000929FF00D839FF00D749FF00D659FF00DB5
:103DB0009927729FB00DE11DF91F639FB00DE11DA2
:103DC000F91FBD01CF0111240895A1E21A2EAA1BEB
:103DD000BB1BFD010DC0AA1FBB1FEE1FFF1FA217BB
:103DE000B307E407F50720F0A21BB30BE40BF50BB8
:103DF000661F771F881F991F1A9469F76095709541
:103E0000809590959B01AC01BD01CF010895EE0F07
:0E3E1000FF1F0590F491E02D1994F894FFCF58
:103E1E0030303000202020003E002B002D2D2D00B4
:103E2E0020005F5F5F004D656D6F727920456D708C
:103E3E00746965642100687474703A2F2F676F6F10
:103E4E002E676C2F6B64596C6A3700444D582D35B4
:103E5E003132003C436F6E74726F6C6C65723E0053
:103E6E004669726D776172652076002E0048617228
:103E7E00647761726520760049443A004D656D6F36
:103E8E00727920436C65616E656421004D656D6FBE
:103E9E00727920536176656421004D656D6F72797C
:103EAE00204C6F6164656421004D656D6F727920E1
:103EBE004F7074696F6E733A0053617665004C6F84
:103ECE00616400456D70747900436C6561720043E6
:103EDE00616E63656C0056616C7565004669727340
:103EEE00742043482020202020204374726C004D03
:103EFE00756C7469706C792020202020204D656DC2
:103F0E006F7279005175616E74697479202020206A
:103F1E0020204170706C79004572726F7221200002
:103F2E0020202020202020004F6B2100436F6E7434
:103F3E00726F6C204F7074696F6E733A00556E69B4
:103F4E0074617279004D61747269780043686173AF
:103F5E006572004D756C7469706C7900432D2D2D52
:103F6E00204D656D20437472202020202D00556E4B
:103F7E00697461727920436F6E74726F6C3A00438C
:103F8E0074726C004D656D6F7279004368616E6E70
:103F9E00656C3A203030310056616C75653A0043DD
:103FAE0068617365724348202D2D2D0044656C6148
:103FBE0079202020207831303D6D53004669727390
:103FCE0074204348202020202020204374726C004F
:103FDE0046696E616C20434820202020202020530B
:103FEE00746172740053746F702000537461727434
:103FFE0000496E697469616C204D656D6F72793A16
:10400E00000200010033002D00350031002F002486
:10401E0000220020001E002C002A0028002600117D
:10402E00080009000A000B000C000D008000BF07FD
:10403E000000000000000C13AF1D1D13BB12BC12BC
:10404E00AE1D0040105000401454000000000C1330
:10405E00AF1D1D137D149F14CC130000000083159B
:0A406E0053150C1515152A153B1506
:00000001FF
