:1000000004C100002FC100002DC100002BC1000061
:1000100029C1000027C1000025C1000023C1000044
:1000200021C100001FC100001DC100001BC1000054
:1000300019C1000017C1000015C1000013C1000064
:1000400011C100000FC100000DC100000BC1000074
:1000500009C1000007C1000005C100000C945E202A
:1000600001C100000C94561DFDC000000C94F61D4B
:10007000F9C00000F7C00000F5C00000F3C00000A8
:10008000F1C00000EFC00000EDC00000EBC00000B8
:10009000E9C00000E7C00000E5C000000C948C1B24
:1000A000E1C00000DFC00000DDC00000DBC00000D8
:1000B000D9C00000D7C00000D5C00000D3C00000E8
:1000C000D1C00000CFC00000CDC00000CBC00000F8
:1000D000C9C00000C7C00000C5C00000C3C0000008
:1000E000C1C0000000002100240027002A002D00CC
:1000F0003000330001010000040107010A01000083
:100100002200250028002B002E00310034000201BF
:100110000000050108010B0100002000230026005B
:1001200029002C002F00320000010000030106010D
:10013000090105050505070508080808020202026D
:100140000A0A080804040404010101010101010173
:100150000303030303030303040707070C0C0C0C3E
:100160000C0C0C0C02020202060606060606060627
:100170000B0B0B0B0B0B0B0B0102102020080810B4
:100180002040102040800201020108040201010207
:1001900004081020408080402010080402018004E0
:1001A000020180402010080402010804020101023B
:1001B0000408102040800102040810204080000044
:1001C000090A02080B0C0D070603040100000000D9
:1001D000000000000000000000000000000000001F
:1001E0000000000000000000000011100F000000DF
:1001F00000000000000000000000000000000000FF
:10020000000000003A01FB1A6E1E11241FBECFEF42
:10021000D1E2DEBFCDBF00E00CBF14E0A0E0B2E051
:10022000E2E5FAE400E00BBF02C007900D92AE3A9F
:10023000B107D9F71BBE1AE0AEEAB4E001C01D92C7
:10024000A731B107E1F712E0CAE0D2E004C022977B
:10025000FE010E942325C430D107C9F70E949223D2
:100260000C942725CDCEDC0101C06D934150504048
:10027000E0F70895CF92EF920F938AE099E06091B2
:100280005E04409160042091620400916404E09057
:100290006604C09068040E948F1A0F91EF90CF906F
:1002A00008953F924F925F926F927F928F929F92AA
:1002B000AF92BF92CF92DF92EF92FF920F931F9374
:1002C00081E18093570455245394B4E04B2EA7E06A
:1002D0003A2EFFE09F2EE2E08E2E75E0772E68E04A
:1002E000662E53E0C52E46E0B42E39E0A32E1EE064
:1002F0000AE02BE0F22E9CE0E92E8DE0D82EBAC168
:100300008091470460E00E94302380914F040E9456
:100310006223892B61F450925704609158047091C4
:10032000590480915A0490915B040E94A62065E0D4
:1003300070E080E090E00E94A620809151040E942D
:100340006223892B61F440925704609158047091A4
:10035000590480915A0490915B040E94A62065E0A4
:1003600070E080E090E00E94A620809153040E94FB
:100370006223892B61F43092570460915804709184
:10038000590480915A0490915B040E94A62065E074
:1003900070E080E090E00E94A620809155040E94C9
:1003A0006223892B61F490925704609158047091F4
:1003B000590480915A0490915B040E94A62065E044
:1003C00070E080E090E00E94A6208091470461E008
:1003D0000E9430238091490460E00E943023809184
:1003E0004F040E946223892B61F48092570460912C
:1003F00058047091590480915A0490915B040E94B2
:10040000A62065E070E080E090E00E94A620809148
:1004100051040E946223892B61F470925704609109
:1004200058047091590480915A0490915B040E9481
:10043000A62065E070E080E090E00E94A620809118
:1004400053040E946223892B61F4609257046091E7
:1004500058047091590480915A0490915B040E9451
:10046000A62065E070E080E090E00E94A6208091E8
:1004700055040E946223892B61F410925704609105
:1004800058047091590480915A0490915B040E9421
:10049000A62065E070E080E090E00E94A6208091B8
:1004A000490461E00E94302380914B0460E00E9487
:1004B000302380914F040E946223892B61F4C09203
:1004C0005704609158047091590480915A04909196
:1004D0005B040E94A62065E070E080E090E00E944E
:1004E000A620809151040E946223892B61F4B0926E
:1004F0005704609158047091590480915A04909166
:100500005B040E94A62065E070E080E090E00E941D
:10051000A620809153040E946223892B61F4A0924B
:100520005704609158047091590480915A04909135
:100530005B040E94A62065E070E080E090E00E94ED
:10054000A620809155040E946223892B61F41093A8
:100550005704609158047091590480915A04909105
:100560005B040E94A62065E070E080E090E00E94BD
:10057000A62080914B0461E00E94302380914D04BD
:1005800060E00E94302380914F040E946223892BF7
:1005900061F400935704609158047091590480915C
:1005A0005A0490915B040E94A62065E070E080E010
:1005B00090E00E94A620809151040E946223892B22
:1005C00061F4F0925704609158047091590480913D
:1005D0005A0490915B040E94A62065E070E080E0E0
:1005E00090E00E94A620809153040E946223892BF0
:1005F00061F4E0925704609158047091590480911D
:100600005A0490915B040E94A62065E070E080E0AF
:1006100090E00E94A620809155040E946223892BBD
:1006200061F4D092570460915804709159048091FC
:100630005A0490915B040E94A62065E070E080E07F
:1006400090E00E94A62080914D0461E00E9430233A
:10065000809145040E946223892B61F41093570412
:10066000609158047091590480915A0490915B04F0
:100670000E94A62080915704813109F441CE1F9138
:100680000F91FF90EF90DF90CF90BF90AF909F9031
:100690008F907F906F905F904F903F9008958AE089
:1006A00099E063E142E00E94AE188AE099E00E947E
:1006B000981880E090E0E091E409F091E509E80FF6
:1006C000F91F1082019622E080309207A1F78091F5
:1006D00045040E9462230197D1F36CE271E080E04F
:1006E00090E00E94A620A0EBB4E020E030E0E09192
:1006F000E409F091E509E20FF31F8C9180832F5FED
:100700003F4F129682E02030380789F78AE099E05F
:100710006DE042E00E94AE188AE099E00C94A018C7
:100720000F931F93CF93DF93EC01162F042F8AE0D2
:1007300099E00E94AE188AE099E060E072E00E94C1
:10074000B724CA30D1053CF4612F6E5F8AE099E08E
:10075000402F0E94AE18CE010A978A35910538F4D1
:10076000612F6F5F8AE099E0402F0E94AE18C43677
:10077000D10534F08AE099E0612F402F0E94AE1835
:100780008AE099E0BE014AE050E00E94A524DF9192
:10079000CF911F910F910895DF92EF92FF920F93E7
:1007A0001F93CF93DF93D82E062F682F61508AE0D6
:1007B00099E0402F0E94AE188AE099E064E072E070
:1007C0000E94B72480914B0460E00E9430238AE0AD
:1007D00099E00E949818EE24FF241EC08C2F912FC0
:1007E0006D2D70E0402F50E09BDF80913B04909195
:1007F0003C040197E091E409F091E509E80FF91F45
:10080000C083E0913B04F0913C04EE0FFF1FE255E2
:10081000FB4FC08311837E01809155040E946223A7
:100820000197D9F4809145040E9462230197A9F4AD
:1008300080915C040E946B2164E070E00E94D824E7
:10084000172FC62FD72F62E370E080E090E00E9460
:10085000A620EC16FD0601F3C1CF8AE099E00E94C4
:10086000A01880914B0461E00E9430236CE271E09B
:1008700080E090E00E94A620DF91CF911F910F9120
:10088000FF90EF90DF9008951F9380914D0460E0FA
:100890000E9430231FEF809153040E94622301972E
:1008A00009F046C0809145040E946223019709F037
:1008B0003FC080913B0490913C040197E091E40992
:1008C000F091E509E80FF91F10836091060970E0C7
:1008D00062507040409107098FEF90E050E020DFB8
:1008E00064E670E080E090E00E94A62080913B04E6
:1008F00090913C040197E091E409F091E509E80F3B
:10090000F91F10826091060962508AE099E04091D7
:1009100007090E94AE188AE099E066E072E00E9442
:10092000B72464E670E080E090E00E94A620B3CF98
:1009300080914D0461E00E9430236CE271E080E020
:1009400090E00E94A6208AE099E06091060940911B
:1009500007090E94AE181F910895CF92DF92EF927F
:10096000FF920F931F938C016DE070E040E050E028
:10097000D7DE7EE0C72ED12CC00ED11EC60161E1AC
:1009800070E040E050E0CCDE6EEAE62E64E0F62E49
:10099000F801EE0FFF1FEE0DFF1D8081918161E0D8
:1009A00070E041E050E0BCDEF8013196EE0FFF1F31
:1009B000EE0DFF1D8081918165E070E041E050E027
:1009C000AFDEF8013296EE0FFF1FEE0DFF1D8081A6
:1009D000918169E070E041E050E0A2DEF8013396D9
:1009E000EE0FFF1FEE0DFF1D808191816DE070E025
:1009F00041E050E095DEF8013496EE0FFF1FEE0D5A
:100A0000FF1D8081918161E170E041E050E088DE6E
:100A1000F8013596EE0FFF1FEE0DFF1D80819181CD
:100A200061E070E042E050E07BDEF8013696EE0FC8
:100A3000FF1FEE0DFF1D8081918165E070E042E0B7
:100A400050E06EDEF8013796EE0FFF1FEE0DFF1D32
:100A50008081918169E070E042E050E061DEF80160
:100A60003896EE0FFF1FEE0DFF1D808191816DE026
:100A700070E042E050E054DEF8013996EE0FFF1FBF
:100A8000EE0DFF1D8081918161E170E042E050E058
:100A900047DEF8013A96EE0FFF1FEE0DFF1D808135
:100AA000918161E070E043E050E03ADEF8013B966E
:100AB000EE0FFF1FEE0DFF1D8081918165E070E05C
:100AC00043E050E02DDE045F1F4FF801EE0FFF1FE3
:100AD000EE0DFF1D8081918169E070E043E050E000
:100AE0001FDE0F5F1F4F000F111F0E0D1F1DF8019E
:100AF000808191816DE070E043E050E011DECC0C2C
:100B0000DD1CEC0CFD1CF7018081918161E170E03E
:100B100043E050E005DE1F910F91FF90EF90DF90D2
:100B2000CF900895FF920F931F93CF93DF93F82EEA
:100B30008AE099E060910609409107090E94AE1889
:100B40008AE099E06AE072E00E94B7248AE099E0C6
:100B50000E949818609106096E5F609306098AE00A
:100B600099E0409107090E94AE189BDB6091570401
:100B70006A3018F000E010E016C08AE099E04AE020
:100B800050E00E9456248AE099E060910609409165
:100B900007090E94AE1880915704082F10E01093A7
:100BA000090900930809809157048E3009F4D8C0D0
:100BB00091E0F91691F48A3009F470C08B3009F491
:100BC00076C08C3009F47AC08D3039F488EC92E02C
:100BD0009093090980930809DFC063DB8091570473
:100BE0008E3029F41093090900930809B9C091E0E7
:100BF000F91659F48A3009F451C08B3009F457C002
:100C00008C3009F45BC08D3009F38A3018F0C0E0F5
:100C1000D0E029C0609106096150609306098AE01E
:100C200099E0409107090E94AE188AE099E0B80166
:100C30004AE050E00E94A5248AE099E060915704C0
:100C40004AE050E00E94562480915704C82FD0E01B
:100C5000609106096F5F609306098AE099E0409110
:100C600007090E94AE181DDB809157048E3089F46D
:100C7000C801B3E0880F991FBA95E1F7000F111F63
:100C8000800F911FC80FD91FD0930909C09308097D
:100C900067C091E0F916C1F48A3039F48FEF90E023
:100CA00090930909809308095BC08B3029F4109256
:100CB00009091092080954C08C3019F484E692E0B6
:100CC00087CF8D3009F482CF8A3008F049C0609117
:100CD00006096250609306098AE099E0409107098D
:100CE0000E94AE188AE099E0B8014AE050E00E9404
:100CF000A5248AE099E0BE014AE050E00E94A524C4
:100D0000609106096E5F609306098AE099E0409160
:100D100007090E94AE188AE099E0609157044AE002
:100D200050E00E94562484E690E0089F9001099FBD
:100D3000300D189F300D112480915704280F311D5C
:100D4000CE01F3E0880F991FFA95E1F7CC0FDD1F74
:100D50008C0F9D1F280F391F309309092093080914
:100D60008AE099E00E94A0186091060970E0625044
:100D7000704040910709809108099091090950E05D
:100D8000CFDC609106096450609306098AE099E01F
:100D9000409107090E94AE188AE099E00E94A018CD
:100DA0008AE099E060910609409107090E94AE1817
:100DB0006CE271E080E090E00E94A620DF91CF918C
:100DC0001F910F91FF9008950F931F93CF93DF937F
:100DD0008AE099E00E94D6188AE099E061E141E05A
:100DE0000E94AE180EEA14E0C0E0D0E0F8011192C3
:100DF00011928F01E091E409F091E509EC0FFD1FDC
:100E000010828AE099E0BE0142E050E00E94A524F1
:100E10002196F2E0C130DF0749F78AE099E00E94AD
:100E2000D6188AE099E063E041E00E94AE188AE0BB
:100E300099E06EE072E00E94B72468EE73E080E013
:100E400090E00E94A620DF91CF911F910F9108950D
:100E5000CF93DF938AE099E00E94D6188AE099E068
:100E60000E94A0188AE099E060E040E00E94AE187D
:100E7000C0E0D0E08AE099E0BE0142E050E00E948C
:100E8000A524219682E0C130D807A1F78AE099E035
:100E90000E94D6188AE099E060E043E00E94AE1814
:100EA0008AE099E06EE172E00E94B7248AE099E05E
:100EB00063E040E00E94AE188AE099E063E372E0EC
:100EC0000E94B7248AE099E061E041E00E94AE18F8
:100ED0008AE099E063E472E00E94B7248AE099E036
:100EE00060E042E00E94AE188AE099E067E572E0B7
:100EF0000E94B7248AE099E060E04AE050E00E9456
:100F000056248AE099E06EE572E00E94B7248AE0F8
:100F100099E066E04AE050E00E9456248AE099E0B9
:100F20006BE042E00E94AE188AE099E060E672E071
:100F30000E94B7248AE099E060E04AE050E00E9415
:100F400056248AE099E06EE572E00E94B7248AE0B8
:100F500099E060E04AE050E00E94562460ED77E0BE
:100F600080E090E00E94A620DF91CF9108950F933A
:100F70001F93CF93DF938AE099E00E94D6188AE00E
:100F800099E061E141E00E94AE1800EB14E0C1E09D
:100F9000D0E081EE99E0BE010E94211DF80180831E
:100FA00011822197E091E409F091E509EC0FFD1F12
:100FB000219680838AE099E0BE0142E050E00E94E1
:100FC000A52421960E5F1F4FF2E0C130DF0709F71D
:100FD0008AE099E00E94D6188AE099E063E041E057
:100FE0000E94AE188AE099E067E672E00E94B7249A
:100FF00068EE73E080E090E00E94A620DF91CF9140
:101000001F910F91089581EE99E061E072E00E94D6
:10101000211D682F80912109882361F46623D1F472
:1010200080916A046FE770E00E949F2181E08093C5
:1010300021090AC0813041F480916A0460E070E0C7
:101040000E949F21109221096CE271E080E090E003
:101050000C94A62080916A0470E0E6CF2F923F9214
:101060004F925F926F927F928F929F92AF92BF92B8
:10107000CF92DF92EF92FF920F931F93DF93CF9364
:10108000CDB7DEB763970FB6F894DEBF0FBECDBF06
:1010900089837B8B6A8B0091B4081091B5088AE034
:1010A00099E0602F412F0E94AE188AE099E066E730
:1010B00072E00E94B7248A899B890D969B838A835C
:1010C000EA89FB893896FD83EC838A899B8903969C
:1010D0009F838E83EA89FB893E96F987E8878A8910
:1010E0009B8909969B878A87EA89FB893496FD87C5
:1010F000EC876AE0262E312C8A899B89280E391EBE
:101100000B969F878E87EA89FB893C96F98BE88B43
:1011100057E0852E912C8A899B89880E991E46E07E
:10112000642E712C680E791E35E0432E512C480E2A
:10113000591E6C010894C11CD11C22E0A22EB12CB6
:10114000A80EB91E84E1E82EF12C8091470460E0DE
:101150000E943023809155040E946223892B59F408
:10116000609158047091590480915A0490915B04E5
:101170000E94A62048DF8091470461E00E9430234E
:10118000809141040E946223892BF9F46CE271E0A2
:1011900080E090E00E94A6202091B4088091B508DC
:1011A00090E08E9DA0018F9D500D9E9D500D1124AD
:1011B000222309F424E12150FA01E20FF11DEA543F
:1011C000F74F80818130A1F724C0809143040E94B1
:1011D0006223892B09F56CE271E080E090E00E94C7
:1011E000A6202091B4088091B50890E08E9DA001C2
:1011F0008F9D500D9E9D500D11242F5F243108F0BE
:1012000020E0FA01E20FF11DEA54F74F80818130AE
:10121000A1F72093B4084EC180913F040E9462233D
:10122000892B09F56CE271E080E090E00E94A62035
:101230002091B5088091B408482F50E02F5F2430EA
:1012400008F020E0822F90E08E9DF0018F9DF00D40
:101250009E9DF00D1124E40FF51FEA54F74F808195
:10126000813061F726C080913D040E946223892B62
:1012700019F56CE271E080E090E00E94A6202091D8
:10128000B5088091B408482F50E0222309F424E0E7
:101290002150822F90E08E9DF0018F9DF00D9E9D3C
:1012A000F00D1124E40FF51FEA54F74F80818130CF
:1012B00061F72093B508FEC0809145040E94622327
:1012C000892B09F042CF6CE271E080E090E00E944F
:1012D000A6204091B5086091B408842F90E08E9DBF
:1012E000F0018F9DF00D9E9DF00D1124E60FF11D74
:1012F000EA54F74F8081813009F0FAC08AE099E022
:101300000E94AE188AE099E068E772E00E94B72474
:1013100082E0C8C09091B4089C3031F48091B50847
:10132000882309F048C01FC0903181F48091B5082E
:10133000882309F049C08AE099E061E040E00E941A
:10134000AE188AE099E06AE772E0A9C0943029F407
:101350008091B5088823F9F406C0983089F480910B
:10136000B508882301F58AE099E061E040E00E9439
:10137000AE188AE099E06AE772E00E94B72485C05F
:10138000992339F48091B508813039F58A899B8990
:1013900077C0943031F48091B5088130E1F4C60112
:1013A0006FC0983031F48091B5088130E1F4C50107
:1013B00067C09C3039F48091B508813031F58E8159
:1013C0009F815EC0903139F48091B508813031F54C
:1013D0008C859D8555C0992331F48091B508823064
:1013E00031F5C2014DC0943031F48091B50882309E
:1013F00031F5C30145C0983031F48091B508823091
:1014000039F5C4013DC09C3039F48091B508823073
:1014100041F58C819D8134C0903139F48091B508BB
:10142000823041F58A859B852BC0992331F48091C8
:10143000B508833051F5C10123C0943039F480914F
:10144000B508833011F58E859F851AC0983039F420
:101450008091B5088330C9F48889998911C09C307E
:1014600039F48091B508833081F48A819B8108C06A
:10147000903159F48091B508833039F48885998585
:1014800061E070E040E050E04BD98AE099E060E133
:1014900040E00E94AE188AE099E06EE772E00E9498
:1014A000B72481E00091B4081091B508823009F0AA
:1014B0004CCE1FC08AE099E0602F412F0E94AE18E9
:1014C0008AE099E060E872E00E94B7248AE099E03F
:1014D0006091B4084091B5080E94AE188AE099E086
:1014E00066E772E00E94B72499819130D1F612CF5D
:1014F000FFCF63960FB6F894DEBF0FBECDBFCF917E
:10150000DF911F910F91FF90EF90DF90CF90BF90F0
:10151000AF909F908F907F906F905F904F903F9093
:101520002F90089581EE99E062E072E00E94211D03
:10153000682F80916C0470E00C949F211F9381EEC2
:1015400099E061E072E00E94211D182F80916A04E9
:10155000612F70E00E949F21112319F4109221093C
:1015600003C081E0809321091F9108950F931F9379
:10157000CF93DF938AE099E00E94D6188AE099E041
:1015800061E141E00E94AE180EEA14E0C0E0D0E054
:10159000F801119211928F01E091E409F091E509AF
:1015A000EC0FFD1F108281EE99E0BE0140E00E9429
:1015B000281D8AE099E0BE0142E050E00E94A52487
:1015C0002196F2E0C130DF0719F78AE099E00E9426
:1015D000D6188AE099E063E041E00E94AE188AE004
:1015E00099E062E872E00E94B72468EE73E080E060
:1015F00090E00E94A620DF91CF911F910F91089556
:101600000F931F93CF93DF938AE099E00E94D6183F
:101610008AE099E061E141E00E94AE1800EB14E03D
:10162000C1E0D0E081EE99E0BE01F80140810E9466
:10163000281D8AE099E0BE0142E050E00E94A52406
:1016400021960E5F1F4FF2E0C130DF0759F78AE0A5
:1016500099E00E94D6188AE099E063E041E00E9498
:10166000AE188AE099E062E972E00E94B72468EE61
:1016700073E080E090E00E94A620DF91CF911F915F
:101680000F9108958AE099E00E94D6188AE099E0C7
:1016900060E040E00E94AE188AE099E060EA72E003
:1016A0000E94B7248AE099E061E042E00E94AE180F
:1016B0008AE099E060EB72E00E94B7248AE099E04A
:1016C00061E043E00E94AE188AE099E065EB72E0C9
:1016D0000E94B7248AE099E067E042E00E94AE18D9
:1016E0008AE099E06AEB72E00E94B7248AE099E010
:1016F00067E043E00E94AE188AE099E060EC72E097
:101700000E94B7248AE099E06EE042E00E94AE18A1
:101710008AE099E066EC72E00E94B7248AE099E0E2
:101720006EE043E00E94AE188AE099E06CEC72E053
:101730000E94B7241092B40882E08093B508E6EBCB
:10174000F8E0DF0198961082148A1C9254961C923D
:1017500054973196119688E0EA3CF807A1F781E0AA
:10176000848B80A786A7828F81A385AB80E060E011
:1017700070E074DC8091B408882329F48091B50866
:10178000833009F4F4DB8091B408863029F4809129
:10179000B508833009F4EADE8091B408882329F47F
:1017A0008091B508823009F42BDF8091B40886302F
:1017B00029F48091B508823009F406DB8091B408E1
:1017C0008D3039F48091B508823019F40E944F03AE
:1017D000CDCF0895CF92DF92EF92FF920F931F9398
:1017E000CF93DF93FEE0CF2EEFE0DE2ECFEFD0E001
:1017F00076E9E72EF12C81EE99E061E072E00E943B
:10180000211D182F81EE99E062E072E00E94211DF7
:10181000082F8AE099E00E94D6188AE099E060E0FB
:1018200040E00E94AE188AE099E063ED72E00E9409
:10183000B7248AE099E06FE040E00E94AE188AE0A9
:1018400099E06FED72E00E94B7248AE099E063E0CE
:1018500041E00E94AE188AE099E065EE72E00E94D5
:10186000B724812F90E06FE070E041E050E00E94EB
:1018700090038AE099E065E042E00E94AE188AE0B9
:1018800099E061EF72E00E94B724802F90E06FE052
:1018900070E042E050E00E9490038AE099E06FE03F
:1018A00043E00E94AE188AE099E06BEF72E00E947C
:1018B000B724C092B40882E08093B508E6EBF8E064
:1018C000DF0198961082148A1C9254961C925497A9
:1018D0003196119628E0EA3CF207A1F781E086876D
:1018E00082A386AB8093C40880E060E070E0B6DB42
:1018F0008091B4088E30C1F78091B508813009F02D
:1019000080C080930709D09206090CD980910809FC
:101910009091090922E0883C920709F045C08AE0CD
:1019200099E06EE041E00E94AE188AE099E064E040
:1019300072E00E94B72480914B0460E00E94302343
:101940008AE099E00E949818809155040E946223D1
:10195000019709F009C1809145040E946223019713
:1019600009F002C180915C040E946B2164E070E088
:101970000E94D824CB0160930809909309096FE075
:1019800070E041E050E00E9490036091080970917E
:10199000090980916A040E949F2162E370E080E05F
:1019A00090E00E94A620D0CF8F3F910569F064F0AF
:1019B000D0930909C09308098FEF90E06FE070E0C1
:1019C00041E050E00E94900360910809709109097C
:1019D00080916A040E949F21409108095091090951
:1019E0004115510519F41092210906C01416150667
:1019F0001CF481E08093210981EE99E061E072E0BE
:101A00009BC0823009F09BC080930709D0920609E1
:101A100081E088D8809108099091090922E0883CEA
:101A2000920709F058C08AE099E06EE042E00E9417
:101A3000AE188AE099E064E072E00E94B7248091D9
:101A40004B0460E00E9430238AE099E00E949818DD
:101A500023C06FE070E042E050E00E94900360918C
:101A600008097091090980916C040E949F2180915E
:101A70000809909109098539910544F486E990E0B7
:101A80006FE070E042E050E00E94900362E370E09B
:101A900080E090E00E94A620809155040E9462237D
:101AA000019709F071C0809145040E94622301975B
:101AB00009F06AC080915C040E946B2164E070E0D0
:101AC0000E94D824CB0170930909609308096639F4
:101AD00071056CF2BECF8F3F910569F064F0D09331
:101AE0000909C09308098FEF90E06FE070E042E0D1
:101AF00050E00E949003809108099091090986396D
:101B0000910564F4F0920909E092080986E990E0F1
:101B10006FE070E042E050E00E949003609108099D
:101B20007091090980916C040E949F2181EE99E0D7
:101B300062E072E0409108090E94281DD5CE8330F2
:101B400011F432D0D1CE882309F0CECE81D9809144
:101B500045040E9462230197D1F36CE271E080E0BA
:101B600090E00E94A62047CE8AE099E00E94A0184B
:101B700080914B0461E00E9430236CE271E080E0D0
:101B800090E00E94A62028CF8AE099E00E94A01849
:101B900080914B0461E00E9430236CE271E080E0B0
:101BA00090E00E94A620C2CF8AE099E00E94D61859
:101BB0008AE099E060E040E00E94AE188AE099E097
:101BC00060E073E00E94B7248AE099E062E042E0BE
:101BD0000E94AE188AE099E061E173E00E94B724A8
:101BE0008AE099E062E043E00E94AE188AE099E062
:101BF00069E173E00E94B7248AE099E06CE042E07A
:101C00000E94AE188AE099E060E273E00E94B72477
:101C10008AE099E06CE043E00E94AE188AE099E027
:101C200067E273E00E94B7248AE099E06CE041E04B
:101C30000E94AE188AE099E060E373E00E94B72446
:101C40008AE099E062E041E00E94AE188AE099E003
:101C500067E373E00E94B72481E08093B40882E0D8
:101C60008093B508E6EBF8E0DF0198961082148ABD
:101C70001C9254961C9254973196119688E0EA3C37
:101C8000F807A1F781E0858B81A7878F83AB8387D6
:101C9000818380E060E070E0E1D98091B408813018
:101CA00029F48091B508823009F46AD28091B40891
:101CB000813029F48091B508833009F426D08091D1
:101CC000B4088B3029F48091B508823009F4A2D38E
:101CD0008091B4088B3029F48091B508833009F4E1
:101CE0008CD58091B4088B3029F48091B50881306F
:101CF00009F470DD8091B408813031F48091B50829
:101D0000813011F4BFDC50CF08952F923F924F9253
:101D10005F926F927F928F929F92AF92BF92CF927B
:101D2000DF92EF92FF920F931F93DF93CF93CDB784
:101D3000DEB760970FB6F894DEBF0FBECDBF81E06F
:101D400090E090933C0480933B04988B8F870CE049
:101D500011E004C021E030E0388B2F878AE099E061
:101D60000E94D6188AE099E060E040E00E94AE1838
:101D70008AE099E06EE373E00E94B7248F8598892A
:101D80000E94AD040093B4081092B508E6EBF8E0A9
:101D9000DF0198961082148A1C9254961C925497D4
:101DA0003196119638E0EA3CF307A1F71093BA0890
:101DB0001093BE081093C2081093C60810831483B2
:101DC00010871487108B148B108F148F10A314A3FB
:101DD00010A714A710AB14AB10AF8F8598890C9681
:101DE0009A838983EF85F8893796FC83EB832F8567
:101DF00038892E5F3F4F3E832D838F8598890D96BE
:101E000098878F83EF85F8893896FA87E9872F8539
:101E100038892D5F3F4F3C872B878F8598890E9699
:101E20009E878D8759E0252E312CEF85F8892E0E5F
:101E30003F1E44E0442E512C4E0E5F1E3AE0632EAE
:101E4000712C6E0E7F1E25E0822E912C8E0E9F1E11
:101E50005F010894A11CB11C96E0C92ED12CCE0EB6
:101E6000DF1E8BE0E82EF12CEE0EFF1E81E06F8569
:101E70007889F4D89091B408943039F48091B508F9
:101E8000882309F080C0FEDB69CF983039F4809157
:101E9000B508882309F082C087DE60CF9C3081F5C9
:101EA0008091B508882309F082C010920709FDE0EF
:101EB000F09306092F853889309309092093080982
:101EC0000E9492058091080990910909835F9140D1
:101ED00034F082EF91E09093090980930809809192
:101EE000080990910909892B31F4E1E0F0E0F093C1
:101EF0000909E093080920910809309109092CCFBC
:101F00009031B1F58091B508882309F05DC0109239
:101F1000070931E1309306098F859889019739F4D3
:101F2000EFE0F0E0F0930909E093080908C02F857D
:101F300038892E503040309309092093080980E0F9
:101F40000E949205609108097091090932E06130A0
:101F500073072CF082EF91E0988B8F87FFCE6F3064
:101F600071050CF4F7CEFB013E97F88BEF87F6CEA8
:101F7000992339F48091B508813089F52F85388906
:101F80001CC0943049F48091B508813099F5B09225
:101F90003C04A0923B0488C0983039F48091B50885
:101FA000813099F5ED81FE817BC09C3059F48091A0
:101FB000B508813099F52B853C8530933C042093FE
:101FC0003B0472C0903149F48091B508813079F5B5
:101FD00050923C0440923B0467C0992349F480919D
:101FE000B508823079F590923C0480923B045CC045
:101FF000943049F48091B508823079F5D0923C0450
:10200000C0923B0451C0983039F48091B5088230B9
:1020100079F5EB81FC8144C09C3039F48091B5089E
:10202000823079F529853A85C8CF903149F480917D
:10203000B508823079F530923C0420923B0434C0DC
:10204000992349F48091B508833071F570923C046E
:1020500060923B0429C0943049F48091B5088330E4
:1020600019F5F0923C04E0923B041EC0983039F41C
:102070008091B5088330C1F4E981FA8111C09C30A8
:1020800039F48091B508833079F42F81388595CF64
:10209000903151F48091B508833031F4ED85FE859F
:1020A000F0933C04E0933B048091B50880930709CA
:1020B0009F5F90930609E0913B04F0913C04EE0F82
:1020C000FF1FE255FB4F8081918190930909809316
:1020D000080981E00E949205809108099091090900
:1020E0008456924039F40E94440480910609845039
:1020F00080930609809108099091090922E0883CA3
:10210000920769F4809106098250609107090E9444
:10211000CC0380910609845080930609A7CE8F3F97
:10212000910589F084F08FEF90E0909309098093F6
:1021300008096091060970E06E5F7F4F40910709C2
:1021400050E00E94900380913B0490913C040197E1
:10215000E091E409F091E509E80FF91F8091080981
:102160008083E0913B04F0913C04EE0FFF1FE255A9
:10217000FB4F80910809909109099183808376CE65
:10218000AF92BF92CF92DF92EF92FF920F931F9385
:10219000CF93DF93C1E0D0E098E0A92E01E089E081
:1021A000B82EE12C12E0F12EBFEFCB2ED12CD09324
:1021B0003C04C0933B048AE099E0F8D78AE099E0B8
:1021C00060E040E0CBD78AE099E060E573E00E94F0
:1021D000B7248AE099E06EE042E0C0D78AE099E057
:1021E0006BEF72E00E94B7248AE099E06EE043E072
:1021F000B5D78AE099E067E373E00E94B7248AE0EC
:1022000099E060E042E0AAD78AE099E061E673E0F5
:102210000E94B7248AE099E062E043E09FD78AE019
:1022200099E06EE673E00E94B7248091B00490912B
:10223000B10469E070E043E050E00E949003A09296
:10224000B40882E08093B508E6EBF8E0DF019896E9
:102250001082148A1C9254961C92549731961196AF
:1022600028E0EA3CF207A1F7048F00AB01A305AB1D
:1022700080E060E070E00E942E088091B408883011
:1022800009F058C01091B508123009F053C0809180
:102290003B0490913C0469E070E042E050E00E9411
:1022A000900310930709B092060980913B04909126
:1022B0003C04909309098093080980E00E949205EC
:1022C00080910809909109098150924064F0F09240
:1022D0000909E092080980E092E069E070E042E0DC
:1022E00050E00E9490038091080990910909181606
:1022F000190664F0D0930909C093080981E090E0C1
:1023000069E070E042E050E00E949003E09108092B
:10231000F0910909F0933C04E0933B04EE0FFF1F9A
:10232000E255FB4F8081918169E070E043E050E02D
:102330000E9490038091B408883009F05DC08091BC
:10234000B508833009F094CF80930709B09206094D
:10235000E0913B04F0913C04EE0FFF1FE255FB4F70
:1023600080819181909309098093080981E00E94FE
:10237000920580910809909109098456924011F4C0
:102380000E944404809108099091090922E0883C48
:10239000920729F489E063E00E94CC0369CF8F3F64
:1023A000910569F064F0D0920909C09208098FEF95
:1023B00090E069E070E043E050E00E94900380917B
:1023C0003B0490913C040197E091E409F091E50908
:1023D000E80FF91F809108098083E0913B04F09198
:1023E0003C04EE0FFF1FE255FB4F809108099091CE
:1023F0000909918380833CCF8D3009F039CF8091DA
:10240000B508833011F43ED9D2CE823009F030CFF6
:10241000CBDB2ECF2F923F924F925F926F927F92A3
:102420008F929F92AF92BF92CF92DF92EF92FF92E4
:102430000F931F93DF93CF9300D000D0CDB7DEB7BB
:102440008AE099E0B3D68AE099E060E040E086D681
:102450008AE099E065E773E00E94B7248AE099E09A
:1024600063E041E07BD68AE099E062E873E00E9495
:10247000B7248AE099E060E042E070D68AE099E013
:1024800062E973E00E94B7248AE099E060E043E0EB
:1024900065D68AE099E066EA73E00E94B72481E09D
:1024A00090E069E070E041E050E00E94900381E03C
:1024B00090E069E070E042E050E00E94900380E02C
:1024C00090E069E070E043E050E00E94900388E013
:1024D0008093B40881E08093B50821E030E040E0CB
:1024E00050E029833A834B835C8361E0862E912CF4
:1024F000A12CB12C442455243201E6EBF8E0DF0195
:1025000098961082148A1C9254961C925497319675
:10251000119638E0EA3CF307A1F741E04087448F89
:1025200040AB42A346AB80E060E070E00E942E0822
:102530008091B4088E30C1F48091B5088230A1F446
:10254000A0EBB4E020E030E0E091E409F091E5098F
:10255000E20FF31F8C9180832F5F3F4F129652E062
:102560002030350789F720DB8091B4088E3009F0E0
:1025700092C08091B508833009F0AEC014018AE0A2
:1025800099E06FE043E0EAD58AE099E06BEB73E015
:102590000E94B7248AE099E0CBD580E090E0E091FA
:1025A000E409F091E509E80FF91F10820196A2E015
:1025B00081309A07A1F761014DC0ED81FE8131960E
:1025C000FE83ED83E451F54009F049C00894E11C15
:1025D000F11C011D111D89819A81AB81BC81E81616
:1025E000F9060A071B07C9F5C601AA2797FDA0959A
:1025F000BA2F481659066A067B060CF46101C6011B
:1026000069E070E040E050E00E949003A501940171
:102610000DC0C9010197E091E409F091E509E80FC7
:10262000F91F10822F5F3F4F4F4F5F4F42165306E7
:102630006406750674F70894C108D108E091E409AE
:10264000F091E509EC0DFD1D9FEF9083A2E0B0E055
:10265000CA0EDB1EEE24FF2487011E821D8280919C
:1026600045040E946223019709F4A7CF8AE099E00C
:1026700067D58AE099E06FE043E070D58AE099E0A1
:1026800061EC73E00E94B7246CE271E080E090E0BE
:102690000E94A62032CF8830F9F48091B5088130AD
:1026A000D9F480930709B9E0B0930609E981FA816A
:1026B000F0930909E093080980E00E949205809157
:1026C0000809909109099C01442737FD4095542F32
:1026D00029833A834B835C838091B408883009F066
:1026E00042C08091B5088230F1F58093070939E046
:1026F00030930609909209098092080980E00E94AF
:10270000920580910809909109094C01AA2497FC2F
:10271000A094BA2C81149104A104B10471F481E055
:1027200090E069E070E042E050E00E94900351E0E8
:10273000852E912CA12CB12C16C041E0841642E0CC
:10274000940640E0A40640E0B4066CF080E092E01D
:1027500069E070E042E050E00E949003812C42E08A
:10276000942EA12CB12C8091B408883009F0C5CEEC
:102770008091B508833009F0C0CE8093070959E0F5
:1027800050930609509209094092080980E00E947E
:10279000920580910809909109092C01662457FC43
:1027A0006094762C411451046104710471F481E049
:1027B00090E069E070E043E050E00E94900331E077
:1027C000432E512C612C712C98CE81E0481682E06A
:1027D000580680E0680680E078060CF48ECE80E033
:1027E00092E069E070E043E050E00E949003412CE9
:1027F00022E0522E612C712C80CE2F923F924F926C
:102800005F926F927F928F929F92AF92BF92CF9280
:10281000DF92EF92FF920F931F93DF93CF93CDB789
:10282000DEB728970FB6F894DEBF0FBECDBF81E0AC
:1028300090E098878F83662477244301AA24BB24E1
:102840006501AFEFB0E0BA83A9838AE099E0AED426
:102850008AE099E063E040E081D48AE099E067ECA7
:1028600073E00E94B7248AE099E060E041E076D40A
:102870008AE099E06DEC73E00E94B7248AE099E069
:1028800060E042E06BD48AE099E060EE73E00E9481
:10289000B7248AE099E060E043E060D48AE099E000
:1028A00065EF73E00E94B72489819A8169E070E046
:1028B00040E050E00E9490038F81988569E070E0CD
:1028C00041E050E00E949003C30169E070E042E003
:1028D00050E00E949003C50169E070E043E050E0E1
:1028E0000E949003B8E0B093B4081092B508E6EBEC
:1028F000F8E0DF0198961082148A1C9254961C927C
:1029000054973196119628E0EA3CF207A1F781E04E
:10291000808780AB848F858781A385AB8093BE0839
:1029200080E060E070E00E942E088091B4088D3055
:1029300029F48091B508813009F436D98091B40822
:102940008D3009F0A8C08091B508823019F40E943A
:10295000420B7BCF833009F0D8C0C601B501A4017A
:1029600093010E94B924615072408040904054F01D
:102970008AE099E06DE040E0F1D38AE099E069E017
:1029800074E086C08AE099E06DE040E0E7D38AE039
:1029900099E061E174E00E94B7248AE099E06EE07A
:1029A00043E0DCD38AE099E069E174E00E94B72457
:1029B00011E0E12EF12C012D112D8F819885AA2790
:1029C00097FDA095BA2F8B839C83AD83BE8346C0B1
:1029D00091E0E916F1040105110509F054C12B80BD
:1029E0003C804D805E80A1E02A16A2E03A06A0E07D
:1029F0004A06A0E05A0634F0261837084808590855
:102A0000860175018AE099E061E140E0A7D38AE0A0
:102A100099E0B201A1012AE030E00E94672465E05C
:102A200070E080E090E00E94A620C1010197209113
:102A3000E4093091E509280F391F8981F901808364
:102A4000F101EE0FFF1FE255FB4FA981BA81B1835F
:102A5000A0830894E11CF11C011D111DAE14BF04DC
:102A6000C006D1060CF0B4CF8AE099E06DE040E0FA
:102A700075D38AE099E060E274E00E94B7248AE0AE
:102A800099E06EE043E06AD38AE099E064E274E0A2
:102A90000E94B7242CCF8830C1F58091B5088130D1
:102AA000A1F580930709B9E0B0930609EF81F88595
:102AB000F0930909E093080980E00E949205809153
:102AC00008099091090998878F83892B69F481E01F
:102AD00090E069E070E041E050E00E949003A1E0E6
:102AE000B0E0B887AF8311C0EF81F885E150F240C4
:102AF00064F080E092E069E070E041E050E00E9424
:102B0000900380E092E098878F838091B4088830AA
:102B100009F042C08091B5088230F1F58093070931
:102B200099E090930609709209096092080980E083
:102B30000E94920580910809909109093C0188241E
:102B400077FC8094982C611471048104910471F4D1
:102B500081E090E069E070E042E050E00E94900384
:102B6000A1E06A2E712C812C912C16C0A1E06A166E
:102B7000A2E07A06A0E08A06A0E09A066CF080E067
:102B800092E069E070E042E050E00E949003612C26
:102B9000F2E07F2E812C912C8091B408883009F0CE
:102BA00042C08091B5088330F1F580930709B9E000
:102BB000B0930609B0920909A092080980E00E942A
:102BC000920580910809909109095C01CC24B7FC19
:102BD000C094DC2CA114B104C104D10471F481E0CF
:102BE00090E069E070E043E050E00E949003E1E093
:102BF000AE2EB12CC12CD12C16C0E1E0AE16E2E015
:102C0000BE06E0E0CE06E0E0DE066CF080E092E09A
:102C100069E070E043E050E00E949003A12C72E074
:102C2000B72EC12CD12C8091B408883009F05FCE2A
:102C30008091B508882309F05ACE10920709F9E06F
:102C4000F093060989819A81909309098093080974
:102C500081E00E949205A0910809B0910909BA8308
:102C6000A983AF3FB10509F00CF441CE8FEF90E09E
:102C700069E070E040E050E00E949003EFEFF0E088
:102C8000FA83E98334CE260C371C481C591CABCE82
:102C90008AE099E08BD28AE099E060E040E05ED281
:102CA0008AE099E06BE274E00E94B7248AE099E040
:102CB00062E042E053D28AE099E06AEB72E00E945F
:102CC000B7248AE099E069E042E048D28AE099E0DE
:102CD00065EB72E00E94B7248AE099E06FE042E081
:102CE0003DD28AE099E060EC72E00E94B72481E076
:102CF0008093B40882E08093B508E6EBF8E0DF014A
:102D000098961082148A1C9254961C92549731966D
:102D1000119688E0EA3CF807A1F781E0858B848F63
:102D200082A380E060E070E00E942E088091B408E9
:102D3000883041F48091B508823021F40E94B707B1
:102D40000E94D40D8091B4088E3041F48091B50872
:102D5000823021F40E94B60A0E94D40D8091B408FA
:102D6000813031F48091B508823011F40C94D40D87
:102D7000089582E061E00E9430230E949E0A0E9432
:102D8000920A0E94280784CF80913D0462E00E944D
:102D90007D2280913F0462E00E947D228091410467
:102DA00062E00E947D228091430462E00E947D22C5
:102DB0008091450462E00E947D228091470461E099
:102DC0000E947D228091490461E00E947D228091D1
:102DD0004B0461E00E947D2280914D0461E00E94DD
:102DE0007D2280914F0462E00E947D2280915104F7
:102DF00062E00E947D228091530462E00E947D2265
:102E00008091550462E00E947D228091470461E038
:102E10000E9430238091490461E00E943023809118
:102E20004B0461E00E94302380914D0461E00E94D8
:102E3000302380915E0461E00E947D2280916004D5
:102E400061E00E947D228091680461E00E947D2201
:102E50008091660461E00E947D228091640461E0BB
:102E60000E947D228091620461E00E947D22809117
:102E70006A0461E00E947D228AE099E064E144E016
:102E800020E09AD181E090E09093FA098093F909CB
:102E900080E092E09093F6098093F50982EE99E044
:102EA00060E033D785E061E00E947D2285E060E04C
:102EB0000E94302386E061E00E947D2286E060E08F
:102EC0000E94302387E061E00E947D2287E060E07D
:102ED0000E94302386E161E00E947D2286E160E06D
:102EE0000E94302387E161E00E947D2287E160E05B
:102EF0000E94302388E161E00E947D2288E160E049
:102F00000E94302389E161E00E947D2289E160E036
:102F10000E9430238AE161E00E947D228AE160E024
:102F20000E9430238BE161E00E947D228BE160E012
:102F30000E9430238CE161E00E947D228CE160E000
:102F40000E9430238DE161E00E947D228DE160E0EE
:102F50000E9430238FE161E00E947D228FE160E0DA
:102F60000E94302381E261E00E947D2281E260E0E4
:102F70000E94302383E261E00E947D2283E260E0D0
:102F80000E94302385E261E00E947D2285E260E0BC
:102F90000E94302387E261E00E947D2287E260E0A8
:102FA0000E94302389E261E00E947D2289E260E094
:102FB0000E9430238BE261E00E947D228BE260E080
:102FC0000E9430238EE261E00E947D228EE260E06A
:102FD0000E94302380E361E00E947D2280E360E074
:102FE0000E94302382E361E00E947D2282E360E060
:102FF0000E94302384E361E00E947D2284E360E04C
:103000000E94302386E361E00E947D2286E360E037
:103010000E94302387E361E00E947D2287E360E025
:103020000E94302388E361E00E947D2288E360E013
:103030000E94302389E361E00E947D2289E360E001
:103040000E9430238AE361E00E947D228AE360E0EF
:103050000E9430238BE361E00E947D228BE360E0DD
:103060000E9430238CE361E00E947D228CE360E0CB
:103070000E9430238DE361E00E947D228DE360E0B9
:103080000E9430238EE361E00E947D228EE360E0A7
:103090000E9430238FE361E00E947D228FE360E095
:1030A0000E94302380E461E00E947D2280E460E0A1
:1030B0000E94302381E461E00E947D2281E460E08F
:1030C0000E94302382E461E00E947D2282E460E07D
:1030D0000E94302383E461E00E947D2283E460E06B
:1030E0000E94302384E461E00E947D2284E460E059
:1030F0000C94302308950895FC011382128289E70D
:1031000094E0918380830895FC01A081B181189699
:103110002D913C9119976FEFF90119950895DC01F4
:10312000ED91FC910284F385E02D40E0199508951E
:10313000FC016581862F816085836960CF01EFCFB7
:10314000FC0165816E7F65836860E9CFFC01658164
:10315000862F846085836C60CF01E1CFDC011796F8
:103160009C911797491710F0492F415018968C9150
:103170001897803139F4943029F4E42FF0E0EB57BC
:10318000FB4F04C0E42FF0E0E757FB4F8081680F4E
:103190006068CD01C4CFDC01ED91FC910284F38520
:1031A000E02D41E0199581E090E0089561E0B7DFFE
:1031B00080ED97E00C94FF20CF93DF93EC01423039
:1031C00018F08C8188608C834F836887222329F0D4
:1031D000413019F48C8184608C8364E670E080E077
:1031E00090E0B4D76C8164FD2EC0E881F98102843F
:1031F000F385E02DCE0163E042E0199584E991E189
:10320000FED7E881F9810284F385E02DCE0163E0E9
:1032100042E0199584E991E1F2D7E881F9810284CD
:10322000F385E02DCE0163E042E0199586E990E058
:10323000E6D7E881F9810284F385E02DCE0162E0D2
:1032400042E0199511C06062CE0169DF84E991E125
:10325000D6D76C816062CE0162DF86E990E0CFD77D
:103260006C816062CE015BDF6C816062CE0157DFF2
:1032700084E08D83CE016ADFCE0198DF82E08E8309
:10328000CE0166E04CDFCE013FDFDF91CF910895A4
:103290000F931F938C01FC01858561E00E94302310
:1032A000F801858560E00E9430231F910F910895F9
:1032B000BF92CF92DF92EF92FF920F931F93CF9323
:1032C000DF93D82EC92EB42E282F392FC9018C0197
:1032D000C0E0D0E0E62EFF240DC0B7010C2E02C0E6
:1032E000759567950A94E2F76170F80185850E94EB
:1032F000302321960F5F1F4FCB1578F38D2D9C2D1A
:10330000C7DFDF91CF911F910F91FF90EF90DF907A
:10331000CF90BF9008950F931F93CF93DF93EC014D
:10332000162F042F60E0413009F461E08B850E9484
:1033300030238C858F3F19F060E00E9430230230EB
:1033400089F08C8184FF04C0CE01612F48E00DC05C
:10335000612F70E084E0759567958A95E1F7CE015D
:1033600044E0A6DFCE01612F44E0A2DFDF91CF91E0
:103370001F910F9108956F927F928F92AF92CF928B
:10338000EF920F931F93DF93CF93CDB7DEB73C013E
:10339000162F8E2DF301438724870587E686C7867F
:1033A000A08A818A9E85928B9F85938B9889948B26
:1033B0009989958B61E00E947D22F301878561E008
:1033C0000E947D22F301808961E00E947D22F30149
:1033D000818961E00E947D221123A1F4F301828999
:1033E00061E00E947D22F301838961E00E947D22D9
:1033F000F301848961E00E947D22F301858961E007
:103400000E947D22F301838561E00E947D22F30109
:1034100084858F3F19F061E00E947D22F30185854C
:1034200061E00E947D22112319F0F301148203C090
:1034300080E1F3018483F301838560E00E943023FF
:10344000F301858560E00E943023F30184858F3F7E
:1034500019F060E00E9430238FEFF301868B128613
:103460001186CF91DF911F910F91EF90CF90AF9088
:103470008F907F906F900895DF92EF92FF920F935D
:103480001F938C01D62E7A01862F61E00E947D2247
:10349000D8015696DC9256971A96FC92EE9219979E
:1034A000ED91FC910084F185E02DC80160E0199553
:1034B0001F910F91FF90EF90DF900895DC01362F60
:1034C00056962C9156972F3F49F1E22FF0E0E254A7
:1034D000FE4FE491EE2379F019968D919C911A9705
:1034E000892B19F4822F70E005C06FEF70E0631B29
:1034F0007109822F24C719968D919C911A97662382
:1035000019F0892B39F402C0019721F4822F61E070
:103510000C943023822F60E00C94302308956F9236
:103520007F928F92AF92BF92CF92DF92EF92FF92F3
:103530000F931F933C01162FF42ED22EB02EAE2CDB
:103540008C2CDADD81E994E0D3018D939C9300D03B
:103550000F92EDB7FEB73196ADB7BEB711961C927C
:10356000118212821382C30161E0412F2FEF0F2DD0
:10357000ED2CCB2C00DF0F900F900F900F901F9130
:103580000F91FF90EF90DF90CF90BF90AF908F9012
:103590007F906F9008952091430930E08091420917
:1035A000281B3109C90108954091420980914309BE
:1035B000481718F02FEF3FEF0AC0E42FF0E0EE5D60
:1035C000F64F8081282F30E04F5F40934209C901B8
:1035D0000895E091420980914309E81718F0EFEF50
:1035E000FFEF06C0F0E0EE5DF64F8081E82FF0E0DF
:1035F000CF010895089510926A091092690988EE22
:1036000093E0A0E0B0E080936B0990936C09A093E5
:103610006D09B0936E0981EA94E0909368098093F4
:1036200067090895CF92DF92EF92FF920F931F9355
:10363000CF93DF937C016B018A0180916609882317
:10364000A1F0C0E0D0E00DC0D701ED91FC91D60112
:10365000AC0FBD1F0190F081E02DC7016C91199551
:103660002196C017D10780F303C0CB01642F39D056
:10367000C801DF91CF911F910F91FF90EF90DF90E4
:10368000CF900895DF93CF930F92CDB7DEB7FC01B3
:103690006983809166098823C9F080916509803229
:1036A00038F081E090E09383828320E030E014C022
:1036B00080916409E82FF0E0EC5BF64F99819083EC
:1036C0008F5F809364098093650904C0CE010196E1
:1036D00061E007D021E030E0C9010F90CF91DF9188
:1036E0000895482F613210F081E0089580917309A8
:1036F000843011F082E008956093BE09ADE9B9E02D
:10370000842F9C01F90102C081918D938E2F841B1F
:103710008617D0F380E008951F920F920FB60F9294
:103720000BB60F9211242F933F934F935F936F9398
:103730007F938F939F93AF93BF93EF93FF9380916A
:10374000B90090E0887F90708036910509F4F2C04E
:1037500081369105CCF58832910509F47BC0893218
:103760009105B4F48031910509F46FC08131910560
:103770003CF4009709F447C1089709F04FC165C0B0
:103780008831910509F466C0809709F047C182C06D
:103790008034910509F4A4C08134910544F4803348
:1037A000910509F482C0C89709F038C189C08035F5
:1037B000910509F489C08835910509F496C08834CB
:1037C000910509F02BC1AEC08839910509F413C1E8
:1037D00089399105ECF48837910509F4ABC0893734
:1037E00091054CF48836910509F4A4C08037910501
:1037F00009F014C19FC08838910509F4FCC08039D4
:10380000910509F49DC08038910509F007C198C061
:10381000803B910509F4C6C0813B91054CF4803A88
:10382000910509F49FC0883A910509F0F7C0BAC024
:10383000803C910509F4E3C0883C910509F4DFC0A0
:10384000883B910509F0EAC0C2C080917409809359
:10385000BB00CFC090919B0980919C09981768F498
:1038600090919B09E92FF0E0E558F64F8081809315
:10387000BB009F5F90939B09BCC080917509882312
:1038800009F44BC085ED8093BC008091BC0084FDA1
:10389000FCCFC2C080E28093E00985ED8093BC003C
:1038A0008091BC0084FDFCCFB7C080E38093E00929
:1038B00085ED8093BC008091BC0084FDFCCFACC042
:1038C00088E38093E0099BC080919B099091BB00A5
:1038D000E82FF0E0E558F64F90838F5F80939B09C7
:1038E00090919B0980919C0982C080919B09909145
:1038F000BB00E82FF0E0E558F64F90838F5F809390
:103900009B0980917509882341F085ED8093BC0067
:103910008091BC0084FDFCCF7FC081E0809376095C
:1039200084EA6EC085ED8093BC008091BC0084FD6C
:10393000FCCF72C083E0809373091092DF0959C0F5
:103940008091DF09803208F056C08091DF099091A4
:10395000BB00E82FF0E0E154F64F90838F5F809337
:10396000DF0947C08091DF09803230F4E091DF0940
:10397000F0E0E154F64F108285ED8093BC00809119
:10398000BC0084FDFCCF109273096091DF09E091C7
:103990007909F0917A098FEB99E070E0199510920E
:1039A000DF092DC084E0809373091092BD09109245
:1039B000BE09E0917709F091780919958091BE09C7
:1039C000882329F481E08093BE0910929D0990918B
:1039D000BD09E92FF0E0E356F64F80818093BB00EC
:1039E0009F5F9093BD099091BD098091BE09981782
:1039F00010F485EC01C085E88093BC000FC085EC15
:103A00008093BC0009C01092E00985ED8093BC0052
:103A10008091BC0084FDFCCF10927309FF91EF915F
:103A2000BF91AF919F918F917F916F915F914F91D6
:103A30003F912F910F900BBE0F900FBE0F901F90D4
:103A40001895F999FECF72BD61BDF89A80B50895B9
:103A5000F999FECF1FBA72BD61BD40BD0FB6F89493
:103A6000FA9AF99A0FBE0895FC018385882331F4F0
:103A70008091C10087728093C1000895813031F434
:103A80008091C90087728093C9000895823031F413
:103A90008091D10087728093D1000895833029F4FA
:103AA0008091310187728093310108951F920F92A6
:103AB0000FB60F920BB60F9211242F933F934F9393
:103AC0005F936F937F938F939F93AF93BF93EF9386
:103AD000FF938091C0008093EA093091C600309333
:103AE000EB092091E6092093EC0984FF10C0809136
:103AF000C0008F7E8093C0008091F7099091F809F3
:103B00009093F0098093EF0981E08093E6092130DA
:103B100091F4332369F482E08093E6098091E2090D
:103B20009091E30901969093E8098093E7094BC0CF
:103B30001092E60948C02230A1F48091EF099091DB
:103B4000F00901979093F0098093EF09892BD9F53B
:103B500083E08093E609E091E209F091E309308384
:103B600032C0233081F5E091E709F091E809F09344
:103B7000050AE093040A30834091040A5091050A33
:103B80004F5F5F4F5093050A4093040A8091E2090A
:103B90009091E3092091F3093091F409820F931F6A
:103BA0004817590760F01092E609E091080AF09171
:103BB000090A309741F08091ED09199504C050939E
:103BC000E8094093E709FF91EF91BF91AF919F9171
:103BD0008F917F916F915F914F913F912F910F90B6
:103BE0000BBE0F900FBE0F901F9018951F920F9253
:103BF0000FB60F920BB60F9211242F933F934F9352
:103C00005F936F937F938F939F93AF93BF93EF9344
:103C1000FF938091EE098093030A882361F4109248
:103C2000C5008091000A8093C4001092C60081E014
:103C30008093EE0940C0813081F41092C5008091DC
:103C4000FF098093C4001092C60082E08093EE09C1
:103C50001092F2091092F1092EC08091F109909111
:103C6000F2099093020A8093010AE091E409F0912D
:103C7000E509E80FF91F20812093C6009C012F5F02
:103C80003F4F3093020A2093010A8091F5099091E9
:103C9000F6092817390759F4E091060AF091070A46
:103CA000309711F080E019951092EE0904C030931E
:103CB000F2092093F109FF91EF91BF91AF919F918C
:103CC0008F917F916F915F914F913F912F910F90C5
:103CD0000BBE0F900FBE0F901F90189521E030E0A3
:103CE0003093F8092093F70988E090E09093F40965
:103CF0008093F3093093FA092093F9099093F60918
:103D00008093F5091092ED0908951F93CF93DF93E7
:103D1000EC01162FF894A8DE1C8F112321F487E004
:103D20008D8F84E10BC0113021F483E08D8F8AE008
:103D300005C0123021F481E08D8F85E08E8F8B8D50
:103D40008F3F29F061E0D9D38B8D61E089D48B85D9
:103D50008823D1F481E061E0D0D31092C5008D8D2D
:103D60008093C4008091C00082608093C0008091E5
:103D7000C2008E608093C2008091C10088648093ED
:103D8000C1001092C60053C08130D1F482E161E0DD
:103D9000B4D31092CD008D8D8093CC008091C8005B
:103DA00082608093C8008091CA008E608093CA00B0
:103DB0008091C90088648093C9001092CE0037C0FA
:103DC0008230D1F480E161E098D31092D5008D8DDE
:103DD0008093D4008091D00082608093D000809145
:103DE000D2008E608093D2008091D100886480934D
:103DF000D1001092D6001BC08330C9F48EE061E080
:103E00007CD3109235018D8D8093340180913001E7
:103E1000826080933001809132018E608093320104
:103E2000809131018864809331011092360181E0E4
:103E30008C878B899C890DD08A839B834B895C8975
:103E400060E070E00E9433017894DF91CF911F9180
:103E500008950F931F93CF93DF93BC018230910598
:103E600010F462E070E0E091150AF091160A40E06B
:103E700050E0A0E0B0E024C08081918186179707D0
:103E8000D0F08617970771F482819381109729F0FB
:103E900013969C938E9312972CC09093160A80933E
:103EA000150A27C04115510519F08417950718F414
:103EB0008D01AC01EF01DF01828193819C01F90149
:103EC0003097D1F641155105F9F0CA01861B970BC1
:103ED0008430910580F48A819B810115110521F0C0
:103EE000F8019383828304C09093160A8093150A85
:103EF000FE01329645C0FE01E80FF91F61937193F0
:103F00000297998388833CC08091130A9091140A88
:103F1000892B41F480917004909171049093140A5C
:103F20008093130A40917204509173044115510516
:103F300041F44DB75EB780916E0490916F04481BB9
:103F4000590B2091130A3091140A24173507B0F445
:103F5000CA01821B930B8617970780F0AB014E5F57
:103F60005F4F8417950750F0420F531F5093140A68
:103F70004093130AF9016193719302C0E0E0F0E00D
:103F8000CF01DF91CF911F910F910895CF93DF93D0
:103F90009C01009709F48FC0EC0122971B821A82C2
:103FA0006091150A7091160A6115710581F4888176
:103FB0009981820F931F2091130A3091140A2817B8
:103FC000390739F5D093140AC093130A74C0DB0182
:103FD00040E050E0AC17BD0708F1BB83AA83FE01A7
:103FE00021913191E20FF31FAE17BF0779F48D9144
:103FF0009C911197280F391F2E5F3F4F39832883DB
:1040000012968D919C9113979B838A83411551053C
:1040100071F4D093160AC093150A4DC012968D9173
:104020009C911397AD01009711F0DC01D3CFDA0119
:104030001396DC93CE931297FA0121913191E20FFE
:10404000F31FCE17DF0769F488819981280F391F84
:104050002E5F3F4FFA01318320838A819B819383B6
:104060008283E0E0F0E0DB0112968D919C91139742
:10407000009719F0BC01FD01F6CFAB014E5F5F4F19
:10408000DB018D919C91840F951F2091130A309133
:10409000140A2817390779F4309729F41092160A70
:1040A0001092150A02C0138212824250504050935F
:1040B000140A4093130ADF91CF9108951F920F9233
:1040C0000FB60F9211242F933F938F939F93AF932B
:1040D000BF9380910E0A90910F0AA091100AB0919F
:1040E000110A3091120A0196A11DB11D232F2D5FD7
:1040F0002D3720F02D570196A11DB11D2093120AD6
:1041000080930E0A90930F0AA093100AB093110A9D
:1041100080910A0A90910B0AA0910C0AB0910D0AA5
:104120000196A11DB11D80930A0A90930B0AA093DA
:104130000C0AB0930D0ABF91AF919F918F913F915F
:104140002F910F900FBE0F901F9018959B01AC01FF
:104150007FB7F89480910A0A90910B0AA0910C0AFB
:10416000B0910D0A66B5A89B05C06F3F19F0019686
:10417000A11DB11D7FBFBA2FA92F982F8827860FA9
:10418000911DA11DB11D62E0880F991FAA1FBB1FC1
:104190006A95D1F7BC012DC0FFB7F89480910A0A47
:1041A00090910B0AA0910C0AB0910D0AE6B5A89B5C
:1041B00005C0EF3F19F00196A11DB11DFFBFBA2F39
:1041C000A92F982F88278E0F911DA11DB11DE2E008
:1041D000880F991FAA1FBB1FEA95D1F7861B970B63
:1041E000885E9340C8F221503040404050406851B2
:1041F0007C4F211531054105510571F60895019750
:1042000039F0880F991F880F991F02970197F1F7CE
:104210000895789484B5826084BD84B5816084BD3E
:1042200085B5826085BD85B5816085BDEEE6F0E02F
:10423000808181608083E1E8F0E01082808182608B
:104240008083808181608083E0E8F0E0808181600C
:104250008083E1EBF0E0808184608083E0EBF0E03C
:10426000808181608083E1E9F0E0808182608083E9
:10427000808181608083E0E9F0E0808181608083DB
:10428000E1EAF0E0808182608083808181608083C8
:10429000E0EAF0E0808181608083E1E2F1E080810A
:1042A00082608083808181608083E0E2F1E08081B0
:1042B00081608083EAE7F0E0808184608083808190
:1042C0008260808380818160808380818068808338
:1042D0001092C1000895382F863308F0365320918C
:1042E0007B00832F86958695869590E081709070EF
:1042F00043E0880F991F4A95E1F7277F282B2093E9
:104300007B003770809174048295880F880F807CC1
:10431000832B80937C0080917A00806480937A0064
:1043200080917A0086FDFCCF209178004091790041
:10433000942F80E030E0282B392BC90108951F937A
:10434000CF93DF93182FEB0161E0D7D0209709F4CA
:10435000CAC0CF3FD10509F4C9C0E12FF0E0E25453
:10436000FE4F8491893009F466C08A30B0F48430FD
:10437000F1F1853040F4823059F1833070F58130AD
:1043800009F0AEC020C0873009F443C0883008F07F
:1043900048C0863009F0A4C034C08D3009F478C01C
:1043A0008E3038F48B3009F45AC08C3008F066C077
:1043B0004CC0803109F480C0813109F487C08F304E
:1043C00009F08EC06FC084B5806884BDC7BD91C040
:1043D00084B5806284BDC8BD8CC080918000806837
:1043E00080938000D0938900C093880082C0809120
:1043F0008000806280938000D0938B00C0938A00FD
:1044000078C08091B00080688093B000C093B30002
:1044100070C08091B00080628093B000C093B400FF
:1044200068C080919000806880939000D09399003C
:10443000C09398005EC0809190008062809390004D
:10444000D0939B00C0939A0054C0809190008860E4
:1044500080939000D0939D00C0939C004AC08091AF
:10446000A00080688093A0008091A0008F7B809343
:10447000A000D093A900C093A8003BC08091A000E9
:1044800080628093A000D093AB00C093AA0031C09B
:104490008091A00088608093A000D093AD00C0936D
:1044A000AC0027C080912001806880932001D093C8
:1044B0002901C09328011DC0809120018062809352
:1044C0002001D0932B01C0932A0113C080912001B9
:1044D000886080932001D0932D01C0932C0109C0E6
:1044E000C038D1051CF4812F60E002C0812F61E04B
:1044F000B7D0DF91CF911F910895CF93DF93482FCD
:1045000050E0CA0188589E4FFC0134914E5C5E4FCA
:10451000FA018491882369F190E0880F991FFC01CA
:10452000EC51FF4FA591B491FC01E250FF4FC591B2
:10453000D491662351F42FB7F8948C91932F9095D2
:1045400089238C93888189230BC0623061F42FB753
:10455000F8948C91932F909589238C938881832B49
:1045600088832FBF06C09FB7F8948C91832B8C93C0
:104570009FBFDF91CF910895893009F449C08A30F7
:10458000A0F4843051F1853040F4823079F18330E9
:1045900000F5813009F063C026C0873079F188309A
:1045A00098F5863009F05BC025C08D3009F442C013
:1045B0008E3028F48B30B1F18C30C0F52DC08031B5
:1045C00009F442C0813109F445C08F3009F047C079
:1045D00037C0809180008F7703C0809180008F7DED
:1045E00080938000089584B58F7702C084B58F7D55
:1045F00084BD08958091B0008F7703C08091B00092
:104600008F7D8093B0000895809190008F7707C0D0
:10461000809190008F7D03C080919000877F809370
:10462000900008958091A0008F7707C08091A0002E
:104630008F7D03C08091A000877F8093A0000895A4
:10464000809120018F7703C0809120018F7D80931E
:104650002001089580912001877F80932001089593
:10466000FF920F931F93F62E482F50E0CA018254F9
:104670009E4FFC012491CA0188589E4FFC01149161
:104680004E5C5E4FFA0104910023C1F0222311F029
:10469000822F72DFE02FF0E0EE0FFF1FE250FF4F9E
:1046A000A591B4919FB7F894FF2021F48C911095B7
:1046B000812302C08C91812B8C939FBF1F910F91FE
:1046C000FF9008950F931F93482F50E0CA01825422
:1046D0009E4FFC012491CA0188589E4FFC01049111
:1046E0004E5C5E4FFA011491112319F420E030E082
:1046F00014C0222311F0822F3FDF812F90E0880F1A
:10470000991F885E9E4FFC01A591B4918C9120E089
:1047100030E0802311F021E030E0C9011F910F91BA
:1047200008950895CF93DF9374DDFBDF0E94C416D4
:10473000C0E0D0E00E94B9162097E1F30E9400008B
:10474000F9CF0895CF92DF92EF92FF920F931F93CC
:10475000CF93DF937C016B018A01C0E0D0E00FC0F2
:10476000D6016D916D01D701ED91FC910190F08121
:10477000E02DC7011995C80FD91F01501040011530
:10478000110571F7CE01DF91CF911F910F91FF902D
:10479000EF90DF90CF900895CF93DF93EC016115F8
:1047A000710519F420E030E00FC0DB010D9000200E
:1047B000E9F71197A61BB70BE881F9810280F38115
:1047C000E02DAD0119959C01C901DF91CF910895AC
:1047D0004F925F927F928F929F92AF92BF92CF92B1
:1047E000DF92EF92FF920F931F93DF93CF93CDB79A
:1047F000DEB7A1970FB6F894DEBF0FBECDBF2C0178
:10480000742ECB01223008F42AE019A231E2C32E23
:10481000D12CCC0EDD1E822E9924AA24BB24672D18
:10482000752FA5019401D7D079018A01C801B7017C
:10483000A50194019ED0472D461B0894C108D108BC
:104840004A3014F4405D01C0495CF6014083E11434
:10485000F1040105110521F07E2C5F2DC801DFCF89
:10486000C201B60199DFA1960FB6F894DEBF0FBE64
:10487000CDBFCF91DF911F910F91FF90EF90DF900F
:10488000CF90BF90AF909F908F907F905F904F9010
:104890000895DC012115310541F4ED91FC91019061
:1048A000F081E02D642F1995089592CFEF92FF9239
:1048B0000F931F939A01E62EFF2400E010E0B80149
:1048C000A701E7DF1F910F91FF90EF900895CF921E
:1048D000DF92EF92FF920F931F93CF93DF93EC0140
:1048E0006A017B012115310541F4E881F9810190CC
:1048F000F081E02D642F19951DC02A303105C9F4CF
:1049000077FF16C0E881F9810190F081E02D6DE21A
:1049100019958C0144275527BA014C195D096E0978
:104920007F09CE012AE054DF9801280F391F03C008
:104930002AE04EDF9C01C901DF91CF911F910F91B9
:10494000FF90EF90DF90CF900895EF92FF920F933A
:104950001F937B019A010027F7FC0095102FB801E7
:10496000A701B5DF1F910F91FF90EF90089514CF2D
:104970000895629FD001739FF001829FE00DF11DA9
:10498000649FE00DF11D929FF00D839FF00D749FC9
:10499000F00D659FF00D9927729FB00DE11DF91F75
:1049A000639FB00DE11DF91FBD01CF0111240895D2
:1049B00097FB092E07260AD077FD04D02ED006D00B
:1049C00000201AF4709561957F4F0895F6F7909541
:1049D00081959F4F0895A1E21A2EAA1BBB1BFD01D2
:1049E0000DC0AA1FBB1FEE1FFF1FA217B307E407CE
:1049F000F50720F0A21BB30BE40BF50B661F771F26
:104A0000881F991F1A9469F7609570958095909505
:104A10009B01AC01BD01CF010895AA1BBB1B51E155
:104A200007C0AA1FBB1FA617B70710F0A61BB70B1E
:104A3000881F991F5A95A9F780959095BC01CD01C3
:104A40000895EE0FFF1F0590F491E02D1994F8944E
:024A5000FFCF96
:104A5200303030006100202020005F5F5F004D6534
:104A62006D6F727920456D70746965642100687498
:104A720074703A2F2F676F6F2E676C2F356E714AE5
:104A82004B740041726475696E6F20444D582D3528
:104A9200313200546573746572202620436F6E7440
:104AA200726F6C6C6572004669726D2076002E0022
:104AB200486172642076004D656D6F7279204C6F8B
:104AC2006164656421003E002B002D2D2D002D0018
:104AD20020004D656D6F727920436C65616E65646F
:104AE20021004D656D6F72792053617665642100F6
:104AF2004D656D6F7279204F7074696F6E733A00F5
:104B020053617665004C6F616400456D7074790085
:104B1200436C65617200426C61636B0043616E635A
:104B2200656C004C434420436F6E6669673A0041EE
:104B3200626F7574004261636B204C696768743AF6
:104B420000436F6E74726173743A004374726C0046
:104B5200436F6E74726F6C204F7074696F6E733A2C
:104B620000556E6974617279004D617472697800E2
:104B7200436861736572004D756C7469706C79007D
:104B8200436F6E666967004D656D6F727900632DC4
:104B92002D2D204D656D20437472202020202D0084
:104BA200556E697461727920436F6E74726F6C3ADC
:104BB200004368616E6E656C3A2030303100566198
:104BC2006C75653A004368617365724348202D2D08
:104BD2002D0044656C6179202020207831303D6DB4
:104BE20053004669727374204348202020202020FD
:104BF200204374726C0046696E616C204348202029
:104C0200202020202053746172740053746F70202E
:104C12000053746172740056616C75650046697266
:104C220073742043482020202020204374726C009B
:104C32004D756C7469706C792020202020204D65A0
:104C42006D6F7279005175616E74697479202020DC
:104C52002020204170706C79004572726F722120A1
:104C620000202020202020200043616C632E2E0093
:104C72004F6B21004170706C792000496E69746934
:104C8200616C204D656D6F72793A00010033002D21
:104C920000350031002F002400220020001E002CCD
:104CA200002A0028002600116400000045000800C8
:104CB20009000A000B000C000D0003000400800034
:104CC200170A00000100000000CB18A223DC187AAA
:104CD200187B18A12300401050004014540000001B
:104CE20000CB18A223DC183C1A5E1A8B19000000B4
:0E4CF20000421B121BCB1AD41AE91AFA1A0040
:00000001FF
