:1000000029C100000C9425460C9456460C94874652
:100010000C94B8460C94E9460C941A470C944B4740
:100020000C947C4744C1000042C1000040C1000064
:100030003EC100003CC100003AC1000038C10000D0
:1000400036C1000034C1000032C1000030C10000E0
:100050002EC100002CC100002AC100000C94AD4745
:1000600026C100000C94D24122C100000C945643DA
:100070001EC100001CC100001AC1000018C1000010
:1000800016C1000014C1000012C1000010C1000020
:100090000C94A8410CC100000C942C430C94B53E68
:1000A00006C1000004C1000002C1000000C1000040
:1000B000FEC00000FCC00000FAC00000F8C0000054
:1000C000F6C00000F4C00000F2C000000C947E41B5
:1000D000EEC000000C9402430C945441E8C00000B0
:1000E0000C94D842D22124228A22ED225423AF2319
:1000F0001D247824E6244125AF250A267826CA2621
:1001000030278227F127FA27562B5132592BA92B5A
:10011000232C912CEE2C562DBF2D292E922EFB2E0A
:10012000642FCD2F3730A03009317231DB31000020
:100130002100240027002A002D0030003300010197
:100140000000040107010A01000022002500280028
:100150002B002E00310034000201000005010801CF
:100160000B01000020002300260029002C002F0096
:100170003200000100000301060109010505050523
:10018000070508080808020202020A0A080804040F
:10019000040401010101010101010303030303033D
:1001A0000303040707070C0C0C0C0C0C0C0C0202CC
:1001B000020206060606060606060B0B0B0B0B0BC9
:1001C0000B0B010210202008081020401020408056
:1001D000020102010804020101020408102040800B
:1001E0008040201008040201800402018040201099
:1001F00008040201080402010102040810204080E2
:1002000001020408102040800000090A02080B0CBB
:100210000D070603040100000000000000000000BC
:1002200000000000000000000000000000000000CE
:100230000000000011100F0000000000000000008E
:100240000000000000000000000000000000880323
:10025000243E804311241FBECFEFD1E2DEBFCDBFCD
:1002600000E00CBF17E0A0E0B2E0EEEBF8E900E040
:100270000BBF02C007900D92A638B107D9F71BBE7D
:100280001DE0A6E8B7E001C01D92A339B107E1F770
:1002900012E0C4E5D2E004C02297FE010E94594C4E
:1002A000CE34D107C9F70E94AD4A0C945D4CA8CE5C
:1002B000DC0101C06D9341505040E0F70895A091DA
:1002C0006A0DB0916B0DED91FD918081ED91FD91E5
:1002D0009081ED91FD916C9163708E2309F06460C3
:1002E0009F2309F06860EFE7F1E0E60FF11D6595E7
:1002F00065956D936D917D918D919D91099423C02C
:100300001AC012C016C010C01EC009C014C013C04D
:1003100006C019C009C00DC007C00DC014C062508E
:100320007040804090400BC06150704080409040D1
:1003300006C06E5F01C06F5F7F4F8F4F9F4F9E93D0
:100340008E937E936E930895A0916C0DB0916D0D78
:10035000ED91FD918081ED91FD919081ED91FD9167
:100360006C9163708E2309F064609F2309F06860CC
:10037000E4ECF1E0E60FF11D659565956D936D91E7
:100380007D918D919D91099423C01AC012C016C011
:1003900010C01EC009C014C013C006C019C009C0D7
:1003A0000DC007C00DC014C0625070408040904026
:1003B0000BC0615070408040904006C06E5F01C02D
:1003C0006F5F7F4F8F4F9F4F9E938E937E936E9361
:1003D0000895A0916E0DB0916F0DED91FD9180810A
:1003E000ED91FD919081ED91FD916C9163708E2363
:1003F00009F064609F2309F06860E9E0F2E0E60F2D
:10040000F11D659565956D936D917D918D919D9192
:10041000099423C01AC012C016C010C01EC009C063
:1004200014C013C006C019C009C00DC007C00DC05C
:1004300014C062507040804090400BC061507040CA
:100440008040904006C06E5F01C06F5F7F4F8F4F4E
:100450009F4F9E938E937E936E930895A091700DFF
:10046000B091710DED91FD918081ED91FD919081A3
:10047000ED91FD916C9163708E2309F064609F2370
:1004800009F06860EEE4F2E0E60FF11D6595659510
:100490006D936D917D918D919D91099423C01AC0AA
:1004A00012C016C010C01EC009C014C013C006C0C0
:1004B00019C009C00DC007C00DC014C06250704003
:1004C000804090400BC0615070408040904006C01A
:1004D0006E5F01C06F5F7F4F8F4F9F4F9E938E93D4
:1004E0007E936E930895A091720DB091730DED916E
:1004F000FD918081ED91FD919081ED91FD916C9147
:1005000063708E2309F064609F2309F06860E3E95B
:10051000F2E0E60FF11D659565956D936D917D9106
:100520008D919D91099423C01AC012C016C010C0AD
:100530001EC009C014C013C006C019C009C00DC038
:1005400007C00DC014C062507040804090400BC086
:10055000615070408040904006C06E5F01C06F5F88
:100560007F4F8F4F9F4F9E938E937E936E930895F0
:10057000A091740DB091750DED91FD918081ED917B
:10058000FD919081ED91FD916C9163708E2309F046
:1005900064609F2309F06860E8EDF2E0E60FF11D6A
:1005A000659565956D936D917D918D919D91099462
:1005B00023C01AC012C016C010C01EC009C014C08B
:1005C00013C006C019C009C00DC007C00DC014C0BB
:1005D00062507040804090400BC06150704080403D
:1005E000904006C06E5F01C06F5F7F4F8F4F9F4F7F
:1005F0009E938E937E936E93089520918C0B3091F1
:100600008D0B40914007509141072F3F310509F074
:10061000B4F4F999FECF1FBA52BD41BD20BD0FB64B
:10062000F894FA9AF99A0FBE209142073091430745
:10063000F999FECF1FBA32BD21BD10BC18C0F9997F
:10064000FECF1FBA52BD41BD8FEF80BD0FB6F894EB
:10065000FA9AF99A0FBE4091420750914307F999CF
:10066000FECF1FBA52BD41BD2F5F304020BD0FB637
:10067000F894FA9AF99A0FBE08958231E1F1833124
:1006800028F4823059F0833039F410C08431F1F00D
:10069000843120F1853191F080E0089570936B0DE5
:1006A00060936A0D80E06FE571E01FC070936D0D7F
:1006B00060936C0D81E064EA71E017C070936F0D78
:1006C00060936E0D82E069EE71E00FC07093710D62
:1006D0006093700D83E06EE272E007C07093730D5B
:1006E0006093720D84E063E772E041E050E00E94A5
:1006F000A94581E008957093750D6093740D85E0B0
:1007000068EB72E041E050E00E94A94581E0089565
:10071000CF92EF920F931F93109106070091070756
:10072000812F62E00E949849802F62E00E949849E0
:10073000212F30E0F901E458FE4FE491F0E0EE0F94
:10074000FF1FEE59FE4F859194919093900B8093EB
:100750008F0B2E533E4FF90184918093930B202FE2
:1007600030E0F901E458FE4FE491F0E0EE0FFF1F96
:10077000EE59FE4F859194919093920B8093910B3B
:100780002E533E4FF90184918093940B1092960B57
:100790001092970B1092980B1092990B80ED97E0A6
:1007A0000E944E48E0918F0BF091900B208140E029
:1007B00030E08091930B90E028233923232B09F01C
:1007C00041E0E091910BF091920B208130E080911B
:1007D000940B90E028233923232B09F042604093A7
:1007E000950B812F6FE87BE048DF182F80939A0BE1
:1007F000802F6FE87BE041DF180F10939A0B8CEE8F
:100800009BE060911207409113072091140700911B
:100810001507E0901607C09017070E94B83D1F917A
:100820000F91EF90CF9008951F9380910A0761E098
:100830000E944B4A80910B0761E00E944B4A8091D5
:100840000C0761E00E944B4A80910D0761E00E9415
:100850004B4A809105070E947D4A892B41F46CE246
:1008600071E080E090E00E94F54710E1A4C0809123
:100870000A0760E00E944B4A80910E070E947D4A61
:10088000892B09F497C080910F070E947D4A892B1C
:1008900011F412E090C0809110070E947D4A892BCC
:1008A00011F413E088C0809111070E947D4A892BC2
:1008B00011F41AE080C080910A0761E00E944B4A5F
:1008C00080910B0760E00E944B4A80910E070E94C6
:1008D0007D4A892B11F414E06EC080910F070E94AD
:1008E0007D4A892B11F415E066C0809110070E94A3
:1008F0007D4A892B11F416E05EC0809111070E9499
:100900007D4A892B11F41BE056C080910B0761E0F2
:100910000E944B4A80910C0760E00E944B4A8091F4
:100920000E070E947D4A892B11F417E044C0809184
:100930000F070E947D4A892B11F418E03CC080917A
:1009400010070E947D4A892B11F419E034C0809170
:1009500011070E947D4A892B11F41CE02CC0809164
:100960000C0761E00E944B4A80910D0760E00E94F5
:100970004B4A80910E070E947D4A892B11F41FE09B
:100980001AC080910F070E947D4A892B11F410E054
:1009900012C0809110070E947D4A892B11F41EE03D
:1009A0000AC0809111070E947D4A892B09F04CCF23
:1009B0001DE001C011E080910A0761E00E944B4AEE
:1009C00080910B0761E00E944B4A80910C0761E027
:1009D0000E944B4A80910D0761E00E944B4A812F93
:1009E00090E01F9108958CEE9BE066E043E00E944A
:1009F000A13B8CEE9BE00E948B3B80E090E0E0917D
:100A0000CC0CF091CD0CE80FF91F1082019622E07A
:100A100080309207A1F7809105070E947D4A0197D7
:100A2000D1F36CE271E080E090E00E94F547A8E825
:100A3000B7E020E030E0E091CC0CF091CD0CE20F7B
:100A4000F31F8C9180832F5F3F4F129682E02030FE
:100A5000380789F78CEE9BE066E042E00E94A13BFC
:100A60008CEE9BE00C94933B4F925F926F927F923F
:100A70008F929F92AF92BF92CF92DF92EF92FF92AE
:100A80000F931F93CF93DF932C01EB01942EA22E93
:100A9000802E37018CEE9BE00E948B3B21E00217F9
:100AA00079F4CA30D105CCF0C436D10594F083E096
:100AB000C83ED8070CF092C463E0E62EF12C10C0BB
:100AC00022E0021719F0EE24FF240AC0C031D1053C
:100AD00024F052E0E52EF12C03C041E0E42EF12C8D
:100AE0008CEE9BE0692D4A2D0E94A13B81E0E81627
:100AF000F10451F48CEE9BE060E072E00E94D24B76
:100B00008CEE9BE0692D28C022E0E216F10449F446
:100B10008CEE9BE062E072E00E94D24B692D6F5F29
:100B200019C083E0E816F10449F48CEE9BE065E01F
:100B300072E00E94D24B692D6E5F0CC024E0E21679
:100B4000F10469F48CEE9BE069E072E00E94D24B04
:100B5000692D6D5F8CEE9BE04A2D0E94A13B64DE07
:100B6000B82E8DE0B81631F48CEE9BE00E94933BDA
:100B7000219632C42AE0B21609F4AFC18BE0B81650
:100B800011F4E201AAC12CE0B21631F48CEE9BE024
:100B90000E94933B229620C481E0881689F420E1CC
:100BA000B21609F40AC28EE0B81609F406C22FE0A4
:100BB000B21609F402C28B2D8A50843080F207C02D
:100BC00082E0881621F420E1B21609F4F6C18CEE19
:100BD0009BE0692D4A2D0E94A13B81E0881651F5CA
:100BE00021E0E216F10431F48CEE9BE06B2D4AE03B
:100BF00050E02CC082E0E816F10419F4192D1F5FB3
:100C00000DC023E0E216F10419F4192D1E5F06C091
:100C100084E0E816F104C1F5192D1D5F8CEE9BE010
:100C2000612F4A2D0E94A13B8CEE9BE06B2D4AE088
:100C300050E022C022E0821639F581E0E816F10486
:100C400051F48CEE9BE06B2D40E150E00E94714B23
:100C5000DD24CC24E0C022E0E216F104A9F4192D31
:100C60001F5F8CEE9BE0612F4A2D0E94A13B8CEE12
:100C70009BE06B2D40E150E00E94714B8CEE9BE0BD
:100C8000612F4A2D0E94A13B6CE271E080E090E070
:100C90000E94F547C9DD182F81E0881661F41031F4
:100CA00089F01E3079F0812F8A50843068F31F302C
:100CB00009F098C382C122E0821609F074C0103195
:100CC00009F05BC08CEE9BE0692D4A2D0E94A13B90
:100CD0008CEE9BE06EE072E00E94D24BDD24CC24CF
:100CE00000E011E0EDC18CEE9BE06B2D4AE050E09E
:100CF0000E94714B8CEE9BE0612F4AE050E04FC0A8
:100D000083E0E816F104C1F4692D6F5F8CEE9BE07F
:100D10004A2D0E94A13B8CEE9BE06B2D4AE050E0F7
:100D20000E94714B8CEE9BE0612F4AE050E00E94E4
:100D3000714B692D6E5F1BC024E0E216F10499F53A
:100D4000692D6E5F8CEE9BE04A2D0E94A13B8CEEDC
:100D50009BE06B2D4AE050E00E94714B8CEE9BE0D3
:100D6000612F4AE050E00E94714B692D6D5F8CEE5F
:100D70009BE04A2D0E94A13B16C08CEE9BE0692DA2
:100D80004A2D0E94A13B8CEE9BE06B2D40E150E090
:100D90000E94714B8CEE9BE0612F40E150E00E947D
:100DA000714BD12E56CF6CE271E080E090E00E9452
:100DB000F5473ADDC82E80E1C81609F479C12EE066
:100DC000C21609F475C18C2D8A50843060F38FE00F
:100DD000C81609F4F2C08CEE9BE0692D4A2D0E94E2
:100DE000A13B23E0E216F104C1F48CEE9BE06B2DF5
:100DF0004AE050E00E94714B8CEE9BE0612F4AE08C
:100E000050E00E94714B8CEE9BE06C2D4AE050E06C
:100E10000E94714BD12E00E05EC084E0E816F10420
:100E200019F5692D6F5F8CEE9BE04A2D0E94A13B66
:100E30008CEE9BE06B2D4AE050E00E94714B8CEEF3
:100E40009BE0612F4AE050E00E94714B8CEE9BE0EA
:100E50006C2D4AE050E00E94714B692D6D5F8CEE65
:100E60009BE04A2D0E94A13B6CE271E080E090E0A3
:100E70000E94F547D9DC082F803109F41EC18E305D
:100E800009F41BC18A50843078F30F3009F495C0FF
:100E90008CEE9BE0692D4A2D0E94A13B8CEE9BE0DD
:100EA0006B2D4AE050E00E94714B8CEE9BE0612F6D
:100EB0004AE050E00E94714B8CEE9BE06C2D4AE0C2
:100EC00050E00E94714B8CEE9BE0602F4AE050E0B6
:100ED0000E94714BD12E10E0F3C08CEE9BE00E947B
:100EE000933B8CEE9BE0692D4A2D0E94A13B22E0B2
:100EF000E216F104E9F481E0881659F4CA30D1050C
:100F00000CF060C28CEE9BE06EE072E00E94D24B6F
:100F100059C222E0821609F042C0C031D1050CF05E
:100F200046C08CEE9BE06EE072E00E94D24B3FC068
:100F300083E0E816F10479F4CA30D10534F48CEE7C
:100F40009BE060E172E00E94D24BCE010A978A35A5
:100F5000910528F51EC024E0E216F10401F5CA301F
:100F6000D10534F48CEE9BE063E172E00E94D24B39
:100F7000CE010A978A35910530F48CEE9BE060E152
:100F800072E00E94D24BCE01845690408458934028
:100F900030F48CEE9BE06EE072E00E94D24B81E078
:100FA000881609F40FC222E0821609F015C28CEEF1
:100FB0009BE0BE0140E150E00AC28CEE9BE00E9443
:100FC000933B8CEE9BE0692D4A2D0E94A13B82E071
:100FD000E816F104F9F421E0821661F48AE068165B
:100FE00071040CF053C08CEE9BE06EE072E00E9446
:100FF000D24B4CC022E0821609F045C080E1681651
:1010000071040CF04CC08CEE9BE06EE072E00E942C
:10101000D24B45C023E0E216F10481F48AE0681661
:10102000710434F48CEE9BE060E172E00E94D24BDC
:10103000C3010A978A35910530F51FC024E0E216F6
:10104000F10409F58AE06816710434F48CEE9BE033
:1010500063E172E00E94D24BC3010A978A35910581
:1010600030F48CEE9BE060E172E00E94D24BC30151
:10107000845690408458934030F48CEE9BE06EE0B0
:1010800072E00E94D24B81E0881631F48CEE9BE036
:10109000B3014AE050E008C022E0821639F48CEE39
:1010A0009BE0B30140E150E00E94C04BE30194C1DA
:1010B000D12ECC2400E012E003C0D12E00E013E0DA
:1010C0008CEE9BE00E94933B81E0E816F104E9F589
:1010D0008CEE9BE0692D4A2D0E94A13B8B2D90E068
:1010E000C817D90714F0EB2C14C0EC2E21E082169F
:1010F00031F48CEE9BE0BE014AE050E008C082E093
:10110000881639F48CEE9BE0BE0140E150E00E946D
:10111000C04B8E2D90E084159505A4F4E42C21E0BD
:10112000821631F48CEE9BE0B2014AE050E008C038
:1011300082E0881639F48CEE9BE0B20140E150E089
:101140000E94C04BCE2DD0E047C122E0E216F10450
:1011500009F05EC081E0881651F4112329F48AE079
:10116000B89EB001112410C06B2D70E011C022E0B8
:10117000821671F42B2D30E0112349F4B90134E0CB
:10118000660F771F3A95E1F76D0D711D01C0B9012A
:10119000C617D7070CF4BE017B01641575050CF466
:1011A00072018CEE9BE0692D4A2D0E94A13B8AE0E2
:1011B000E816F10474F48CEE9BE06EE072E00E949D
:1011C000D24B21E0821641F082E0881609F003C17B
:1011D00017C021E0821631F48CEE9BE0B7014AE0A3
:1011E00050E013C082E0881609F0F5C020E1E21655
:1011F000F10434F48CEE9BE06EE072E00E94D24B7E
:101200008CEE9BE0B70140E150E00E94C04BE3C090
:1012100083E0E816F10409F052C0113019F46B2D87
:1012200070E017C0123039F48AE0B89EB001112482
:101230006D0D711D0EC0112361F484E6B89EB001DE
:1012400011246C0D711D8AE0D89EC0011124680F15
:10125000791FC617D7070CF4BE01EB01641575059D
:101260000CF4E2018CEE9BE0692D4A2D0E94A13B1B
:10127000CA30D1056CF48CEE9BE060E172E00E9414
:10128000D24B8CEE9BE0BE014AE050E00E94C04B86
:10129000CE010A978A35910568F48CEE9BE06EE0EA
:1012A00072E00E94D24B8CEE9BE0BE014AE050E01F
:1012B0000E94C04BC436D1050CF48EC083C024E01C
:1012C000E216F10409F086C0113019F46B2D70E0BC
:1012D00031C0123039F48AE0B89EB00111246D0D8E
:1012E000711D28C0133059F484E6B89EB001112452
:1012F0006C0D711D8AE0D89EC001112419C0112304
:10130000C9F42B2D30E088EE93E0289FB001299F8F
:10131000700D389F700D1124600F711D84E6D89EEA
:10132000C0011124680F791F8AE0C89EC0011124F2
:10133000680F791FC617D7070CF4BE01EB016415BF
:1013400075050CF4E2018CEE9BE0692D4A2D0E949C
:10135000A13BCA30D1056CF48CEE9BE063E172E0F6
:101360000E94D24B8CEE9BE0BE014AE050E00E940E
:10137000C04BCE010A978A35910568F48CEE9BE04C
:1013800060E172E00E94D24B8CEE9BE0BE014AE02D
:1013900050E00E94C04BCE01845690408458934048
:1013A00068F48CEE9BE06EE072E00E94D24B8CEE13
:1013B0009BE0BE014AE050E00E94C04B83E0C83E83
:1013C000D80754F08CEE9BE0BE014AE050E00E944A
:1013D000C04B02C013C0E701CE0110C024E0E22ED2
:1013E000F12C7ECB8CEE9BE0692D4A2D0E94A13B17
:1013F00022E0E216F10409F083CC75CCDF91CF91A5
:101400001F910F91FF90EF90DF90CF90BF90AF9022
:101410009F908F907F906F905F904F900895CF92A4
:10142000DF92FF920F931F93CF93DF93182FF62E27
:10143000EA0169018CEE9BE00E94933B8CEE9BE0FD
:10144000612F4F2D0E94A13B013009F086C02AE098
:10145000C216D1040CF47BC0C6010A978A359105E7
:1014600068F4CA30D1050CF072C08CEE9BE060E0ED
:1014700070E04AE050E00E94C04B69C0C60184564B
:1014800090408458934038F5CA30D1056CF48CEE06
:101490009BE060E172E00E94D24B8CEE9BE0BE01CB
:1014A0004AE050E00E94C04BCE010A978A35910570
:1014B00068F48CEE9BE06EE072E00E94D24B8CEE02
:1014C0009BE0BE014AE050E00E94C04BC436D1050B
:1014D0000CF455C03CC088EEC81683E0D8060CF466
:1014E0004EC0CA30D1056CF48CEE9BE063E172E033
:1014F0000E94D24B8CEE9BE0BE014AE050E00E947D
:10150000C04BCE010A978A35910568F48CEE9BE0BA
:1015100060E172E00E94D24B8CEE9BE0BE014AE09B
:1015200050E00E94C04BC436D1054CF18CEE9BE0DC
:101530006EE072E00E94D24B8CEE9BE0BE014AE06E
:1015400050E00E94C04B23E0C83ED207C4F08CEEAE
:101550009BE0BE014AE050E010C0023081F4C0318F
:10156000D10534F48CEE9BE06EE072E00E94D24B29
:101570008CEE9BE0BE0140E150E00E94C04BDF9149
:10158000CF911F910F91FF90DF90CF9008950F930F
:101590001F93CF93DF93082F162FEA018CEE9BE069
:1015A00061E040E00E94A13B043019F4112309F5E9
:1015B00004C0083079F4112311F58CEE9BE061E052
:1015C00040E00E94A13B8CEE9BE067E172E00E944C
:1015D000D24B67C00C3019F41123B9F45BC0003151
:1015E00019F41123C1F455C0002339F41130C9F4A2
:1015F00051C01130E1F421964DC0083021F4113072
:10160000D1F4229647C00C3021F41130E1F4239636
:1016100041C0003121F41130E1F424963BC0002395
:1016200021F41230D1F4259635C0043021F4123063
:10163000E1F426962FC0083021F41230E1F4279609
:1016400029C00C3021F41230E1F4289623C0003177
:1016500021F41230D1F429961DC0002321F4133057
:1016600001F52A9617C0043021F41330D1F42B96DB
:1016700011C0083021F41330A1F42C960BC00C30AB
:1016800021F4133071F42D9605C0003151F413305C
:1016900041F42E9681E060E0AE0120E032E001E00E
:1016A000BEDEDF91CF911F910F9108950F931F938D
:1016B000CF93DF93EC01162F042F8CEE9BE00E945A
:1016C000A13B8CEE9BE063E172E00E94D24BCA30FA
:1016D000D1053CF4612F6E5F8CEE9BE0402F0E94A1
:1016E000A13BCE010A978A35910538F4612F6F5FCF
:1016F0008CEE9BE0402F0E94A13BC436D10534F014
:101700008CEE9BE0612F402F0E94A13B8CEE9BE072
:10171000BE014AE050E00E94C04BDF91CF911F9183
:101720000F910895EF92FF920F931F93082F162F9A
:10173000F42E80910C0760E00E944B4A6CE271E04D
:1017400080E090E00E94F547EE24EA948091110732
:101750000E947D4A019709F03EC0809105070E94D2
:101760007D4A0197C1F580918C0B90918D0B01976B
:10177000E091CC0CF091CD0CE80FF91FE0828FEFD7
:1017800090E0602F70E0412F50E090DF64E670E061
:1017900080E090E00E94F54780918C0B90918D0B3A
:1017A0000197E091CC0CF091CD0CE80FF91F10825D
:1017B0008CEE9BE0602F412F0E94A13B8CEE9BE0C2
:1017C0006BE172E00E94D24B64E670E080E090E052
:1017D0000E94F547BBCF6CE271E080E090E00E9490
:1017E000F5478CEE9BE00E94933B80910C0761E0F3
:1017F0000E944B4A80918C0B90918D0B0197E09148
:10180000CC0CF091CD0CE80FF91FF082802F612FE6
:101810004F2D50E02FEF30E001E001DE1F910F91DE
:10182000FF90EF900895EF92FF920F931F938C011A
:1018300026E8E22E27E0F22EFC01EE0FFF1FEE0D50
:10184000FF1D8081918161E070E041E050E02EDF7A
:10185000F8013196EE0FFF1FEE0DFF1D8081918183
:1018600065E070E041E050E021DFF8013296EE0FD4
:10187000FF1FEE0DFF1D8081918169E070E041E066
:1018800050E014DFF8013396EE0FFF1FEE0DFF1D41
:10189000808191816DE070E041E050E007DFF80168
:1018A0003496EE0FFF1FEE0DFF1D8081918161E1E7
:1018B00070E041E050E0FADEF8013596EE0FFF1FD0
:1018C000EE0DFF1D8081918161E070E042E050E00B
:1018D000EDDEF8013696EE0FFF1FEE0DFF1D808145
:1018E000918165E070E042E050E0E0DEF80137967B
:1018F000EE0FFF1FEE0DFF1D8081918169E070E00A
:1019000042E050E0D3DEF8013896EE0FFF1FEE0DF7
:10191000FF1D808191816DE070E042E050E0C6DE05
:10192000F8013996EE0FFF1FEE0DFF1D80819181AA
:1019300061E170E042E050E0B9DEF8013A96EE0F66
:10194000FF1FEE0DFF1D8081918161E070E043E09B
:1019500050E0ACDEF8013B96EE0FFF1FEE0DFF1DD1
:101960008081918165E070E043E050E09FDEF80106
:101970003C96EE0FFF1FEE0DFF1D8081918169E007
:1019800070E043E050E092DE035F1F4FF801EE0F7E
:10199000FF1FEE0DFF1D808191816DE070E043E03F
:1019A00050E084DE0F5F1F4F000F111FE00EF11E8D
:1019B000F7018081918161E170E043E050E076DEE3
:1019C0001F910F91FF90EF9008952F923F925F9299
:1019D0006F927F928F929F92AF92BF92CF92DF923F
:1019E000EF92FF920F931F93CF93DF931C01EB01B4
:1019F000742E622E502E5601670180919A0B823010
:101A000008F044C0F894AFE8BBE0ED91FD9180810F
:101A1000ED91FD919081ED91FD916C9163708E231C
:101A200009F064609F2309F06860E1E2FDE0E60FE1
:101A3000F11D659565956D936D917D918D919D914C
:101A4000099423C01AC012C016C010C01EC009C01D
:101A500014C013C006C019C009C00DC007C00DC016
:101A600014C062507040804090400BC06150704084
:101A70008040904006C06E5F01C06F5F7F4F8F4F08
:101A80009F4F9E938E937E936E9301C0F8947894AB
:101A90006091960B7091970B8091980B9091990B98
:101AA00024E030E040E050E00E94284C79018A01B7
:101AB00045018CEE9BE0672D462D0E94A13B8CEEEC
:101AC0009BE00E948B3B8CEE9BE0672D462D0E9495
:101AD000A13B8CEE9BE0B601A5012AE030E00E941C
:101AE000824B8CEE9BE0672D462D0E94A13B3FE888
:101AF000C32E3BE0D32E80919A0B823008F043C076
:101B0000F894D601ED91FD918081ED91FD91908148
:101B1000ED91FD916C9163708E2309F064609F23B9
:101B200009F06860EEE9FDE0E60FF11D6595659549
:101B30006D936D917D918D919D91099423C01AC0F3
:101B400012C016C010C01EC009C014C013C006C009
:101B500019C009C00DC007C00DC014C0625070404C
:101B6000804090400BC0615070408040904006C063
:101B70006E5F01C06F5F7F4F8F4F9F4F9E938E931D
:101B80007E936E9301C0F89478946091960B709157
:101B9000970B8091980B9091990B24E030E040E0F6
:101BA00050E00E94284CC901DA01E816F9060A073C
:101BB0001B074CF474010894E11CF11CCE15DF05E1
:101BC00014F5710120C08E159F05A007B1074CF4D4
:101BD00074010894E108F108E214F304A4F47E010E
:101BE00012C0809105070E947D4A892B09F083CF9E
:101BF0006CE271E080E090E00E94F5477E0108947D
:101C0000E11CF11C53C0B1E05B1671F4CA30D10580
:101C10000CF45FC0C436D10584F0C85ED3400CF02C
:101C20005BC0C3E0D0E00BC0A2E05A1619F0C0E0E0
:101C3000D0E005C060970CF44CC0C2E0D0E08CEE60
:101C40009BE0672D462D0E94A13BC230D10529F4AF
:101C50008CEE9BE06FE172E00EC0C330D10529F439
:101C60008CEE9BE06BE172E006C0249731F48CEEC1
:101C70009BE062E272E00E94D24B8CEE9BE0672D0B
:101C8000462D0E94A13BB1E05B1631F48CEE9BE047
:101C9000B7014AE050E008C082E0581639F48CEEF3
:101CA0009BE0B70140E150E00E94C04BC701DF91CB
:101CB000CF911F910F91FF90EF90DF90CF90BF9049
:101CC000AF909F908F907F906F905F903F902F90FC
:101CD0000895C1E0D0E0B3CFC4E0D0E0B0CF2F9200
:101CE0003F924F925F926F927F928F929F92AF92AC
:101CF000BF92CF92DF92EF92FF920F931F93DF93E9
:101D0000CF9300D0CDB7DEB78983662E772400E06D
:101D100010E02EC0D6018C9190E020910807309100
:101D200009078217930799F48CEE9BE06E2D4F2DD7
:101D30000E94A13B8CEE9BE060E00E94BE3BB9811B
:101D4000B13029F48E2D6F2D462D50E020DCF601A8
:101D50008081781608F4782EF3940894C11CD11C65
:101D6000F4E0FF16B9F60F5F1F4F0431110561F063
:101D7000E02E6801CC0CDD1CCC0CDD1C8BE99BE05B
:101D8000C80ED91EFF24C6CF80919A0B823008F06E
:101D900044C0F894AFE8BBE0ED91FD918081ED91F6
:101DA000FD919081ED91FD916C9163708E2309F00E
:101DB00064609F2309F06860E8EEFEE0E60FF11D25
:101DC000659565956D936D917D918D919D9109942A
:101DD00023C01AC012C016C010C01EC009C014C053
:101DE00013C006C019C009C00DC007C00DC014C083
:101DF00062507040804090400BC061507040804005
:101E0000904006C06E5F01C06F5F7F4F8F4F9F4F46
:101E10009E938E937E936E9301C0F8947894609114
:101E2000960B7091970B8091980B9091990B24E0F1
:101E300030E040E050E00E94284CC901DA015C012A
:101E40006D01472C552451E0252E312CD7C08091AF
:101E50009A0B823008F044C0F894AFE8BBE0ED91F3
:101E6000FD918081ED91FD919081ED91FD916C91BD
:101E700063708E2309F064609F2309F06860EBE4CF
:101E8000FFE0E60FF11D659565956D936D917D9170
:101E90008D919D91099423C01AC012C016C010C024
:101EA0001EC009C014C013C006C019C009C00DC0AF
:101EB00007C00DC014C062507040804090400BC0FD
:101EC000615070408040904006C06E5F01C06F5FFF
:101ED0007F4F8F4F9F4F9E938E937E936E9301C043
:101EE000F89478946091960B7091970B8091980B71
:101EF0009091990B24E030E040E050E00E94284CA3
:101F000079018A018090080790900907EA14FB0480
:101F10000C051D0574F4C401019790930907809383
:101F2000080718161906C4F07092080710920907DE
:101F300013C0AE14BF04C006D1060CF05FC0C401CC
:101F4000019690930907809308074816590624F4D0
:101F50003092090720920807CC24DD2441C0EA8191
:101F6000FB81808190E0209108073091090782175A
:101F7000930799F48CEE9BE06A2D4B2D0E94A13BB8
:101F80008CEE9BE060E00E94BE3BF981F13029F4C9
:101F90008A2D6B2D462D50E0FADAAA81BB818C91F7
:101FA00090E08815990561F48CEE9BE06A2D4B2D2D
:101FB0000E94A13B8CEE9BE067E272E00E94D24B54
:101FC000B394EA81FB813196FB83EA83F4E0BF1688
:101FD00031F60894C11CD11C84E1C816D10461F00B
:101FE000AC2CD601AA0FBB1FAA0FBB1FA556B44F1E
:101FF000BB83AA83BB24B3CF570168018091050737
:102000000E947D4A019709F422CF6CE271E080E0E2
:1020100090E00E94F5470F900F900F90CF91DF91C5
:102020001F910F91FF90EF90DF90CF90BF90AF90F6
:102030009F908F907F906F905F904F903F902F90E8
:1020400008952F923F924F925F926F927F928F925C
:102050009F92AF92BF92CF92DF92EF92FF920F9337
:102060001F93DF93CF93CDB7DEB760970FB6F89489
:10207000DEBF0FBECDBF80918C0B90918D0B988BE6
:102080008F878CEE9BE00E94F83B8CEE9BE060E03B
:1020900040E00E94A13B8CEE9BE069E272E00E946E
:1020A000D24B8CEE9BE06DE040E00E94A13B8CEEB9
:1020B0009BE060E372E00E94D24B8CEE9BE062E01A
:1020C00041E00E94A13B8CEE9BE064E372E00E9441
:1020D000D24B8CEE9BE06CE041E00E94A13B8CEE89
:1020E0009BE06BE372E00E94D24B8CEE9BE060E0E1
:1020F00042E00E94A13B8CEE9BE062E472E00E9411
:10210000D24B8CEE9BE06FE042E00E94A13B8CEE54
:102110009BE06BE472E00E94D24B8CEE9BE060E0AF
:1021200043E00E94A13B8CEE9BE060E572E00E94E0
:10213000D24B8CEE9BE06FE043E00E94A13B8CEE23
:102140009BE069E572E00E94D24B89E061E041E0EA
:1021500050E024E630E001E062D989E062E04F859A
:10216000588924E630E05BD989E063E040E052E042
:1021700024E630E054D980E090E0E091CC0CF0917E
:10218000CD0CE80FF91F10820196A2E080309A076B
:10219000A1F740918C0B50918D0B81E160E020E024
:1021A00032E001E03CD980918C0B90918D0B01972E
:1021B000E091CC0CF091CD0CE80FF91F8FEF8083EC
:1021C000EBE9FBE010821182128213823496BBE0AD
:1021D000EB3EFB07B9F784E08093D60B81E0809358
:1021E000BC0B82E08093BD0B83E08093BE0B86E046
:1021F0008093D50B85E08093DB0BEF85F889FA831C
:10220000E983E1E08E2E912CA12CB12C612C72E09F
:10221000772E2224332421011B821C821D821E82E0
:102220001FEF02C0988B8F8780E060E058DD8091BF
:102230000807909109078330910509F424C184307F
:1022400091053CF48130910509F4C0C0029761F713
:10225000EBC08530910509F441C1853091051CF032
:10226000069711F7B1C18CEE9BE06FE043E00E944E
:10227000A13B8CEE9BE06FE572E00E94D24B80E0C8
:1022800090E0E091CC0CF091CD0CE80FF91F10829A
:102290000196F2E080309F07A1F76AC00894211CE4
:1022A000311C411C511C24E1221625E0320620E09D
:1022B000420620E0520609F06FC08B819C81AD81FF
:1022C000BE810196A11DB11D8B839C83AD83BE830E
:1022D00022243324210188159905AA05BB0509F09C
:1022E0005BC0A981BA816A167B0624F4EF85F88960
:1022F000FA83E98381E160E049815A8120E032E09C
:1023000001E08DD869857A8520E030E040E050E03A
:102310000DC0E091CC0CF091CD0CE60FF71F1082B0
:102320002F5F3F4F4F4F5F4F6F5F7F4F8B859C8578
:10233000AD85BE85820F931FA41FB51FC816D90691
:10234000EA06FB0634F789819A810197E091CC0C6B
:10235000F091CD0CE80FF91F108302969A838983C0
:102360001B821C821D821E8222243324210114C060
:10237000AF85B8891197BA87A9878F859889AA27C9
:1023800097FDA095BA2F8B879C87AD87BE87630189
:10239000EE24D7FCE094FE2C809105070E947D4A34
:1023A000019709F47BCF8CEE9BE06FE043E00E9445
:1023B000A13B8CEE9BE069E572E00E94D24B6CE29F
:1023C00071E080E090E00E94F5472ECF81E090E040
:1023D00067EE73E049E021E001E074010E943405FA
:1023E000A3E0883E9A0734F44C01AA2497FCA094F9
:1023F000BA2C1ACF81E090E067EE73E049E021E06B
:1024000001E075016401E1DAB3E0883E9B0734F432
:102410004C01AA2497FCA094BA2CECCF89E061E08F
:10242000A40127EE33E02DC081E090E060E072E08F
:1024300049E022E001E0EF84F8880E943405E2E000
:1024400081309E070CF4EECE8F8598896C01EE24C6
:10245000D7FCE094FE2C81E090E060E072E049E07F
:1024600022E001E0B2DA9C0192E0213039071CF44D
:10247000388B2F87E9CF89E062E04F85588920E0CB
:1024800032E001E028C081E090E060E072E049E0E5
:1024900023E001E073010E943405A2E081309A0735
:1024A0001CF43C01C1CE39016301EE24D7FCE09459
:1024B000FE2C81E090E060E072E049E023E001E082
:1024C00084DA9C01B2E081309B076CF389E063E021
:1024D000A30120E032E00E940F0AA6CE8CEE9BE022
:1024E00061E140E00E94A13B8CEE9BE06BE172E079
:1024F0000E94D24B8F85988909C00197E091CC0C3E
:10250000F091CD0CE80FF91F10820296681679063B
:10251000A4F7EF85F8893197F887EF83E091CC0C29
:10252000F091CD0C8F819885E80FF91F10838F856E
:1025300098896C01EE24D7FCE094FE2C8F85988955
:10254000B30141E120E001E040DA2F8538890BC07A
:1025500021503040E091CC0CF091CD0CE20FF31FF4
:1025600010822E5F3F4F6216730694F70197E09139
:10257000CC0CF091CD0CE80FF91F01961083681672
:102580007906BCF681E160E04F85588920E032E0B1
:1025900001E00E940F0A8F85988909C00197E09198
:1025A000CC0CF091CD0CE80FF91F10820296681642
:1025B0007906A4F7E091CC0CF091CD0CAF81B885F1
:1025C000EA0FFB1F108330CEA8E8B7E020E030E030
:1025D000E091CC0CF091CD0CE20FF31F8C91808335
:1025E0002F5F3F4F1296E2E020303E0789F760965A
:1025F0000FB6F894DEBF0FBECDBFCF91DF911F9114
:102600000F91FF90EF90DF90CF90BF90AF909F9091
:102610008F907F906F905F904F903F902F90089594
:102620002F923F924F925F926F927F928F929F92E2
:10263000AF92BF92CF92DF92EF92FF920F931F93D0
:10264000DF93CF93CDB7DEB764970FB6F894DEBFB4
:102650000FBECDBF7E010894E11CF11C84E1D701BF
:102660001D928A95E9F78CEE9BE00E94F83B8CEE78
:102670009BE060E040E00E94A13B8CEE9BE065E6C1
:1026800072E00E94D24B8CEE9BE060E140E00E9441
:10269000A13B8CEE9BE061E00E94BE3B8CEE9BE098
:1026A00061E140E00E94A13B8CEE9BE06AE672E0B3
:1026B0000E94D24B8CEE9BE060E141E00E94A13B86
:1026C0008CEE9BE062E00E94BE3B8CEE9BE065E0FE
:1026D00041E00E94A13B8CEE9BE06DE672E00E941F
:1026E000D24B8CEE9BE061E141E00E94A13B8CEE7D
:1026F0009BE067E772E00E94D24B8CEE9BE069E0C2
:1027000042E00E94A13B8CEE9BE06BE772E00E94EE
:10271000D24B8CEE9BE060E043E00E94A13B8CEE4C
:102720009BE061E872E00E94D24B8CEE9BE06CE093
:1027300043E00E94A13B8CEE9BE066E872E00E94C1
:10274000D24B40918C0B50918D0B85E063E020E0E3
:1027500032E001E00E940F0A8CEE9BE065E040E071
:102760000E94A13B00918C0B10918D0B83E1682E90
:10277000712C6C0E7D1E63012701C80162E070E0C0
:102780000E94F34B9C01C80162E070E00E94F34B91
:102790008B01F60131832083232B21F48CEE9BE007
:1027A00062E003C08CEE9BE061E00E94BE3B8EEFD6
:1027B0009FEFC80ED91EC414D504F9F6EBE9FBE06F
:1027C000108211821282138234969BE0EB3EF9074D
:1027D000B9F781E08093AB0B82E08093AE0B83E08E
:1027E0008093DA0BBFE82B2EBBE03B2E80E060E04D
:1027F00076DA80910807909109078230910509F4F3
:102800002AC28330910509F4F8C2019779F78CEE5A
:102810009BE065E041E00E94A13B8824992454019B
:1028200011E08CEE9BE00E948B3B82C080919A0B62
:10283000823008F043C0F894D101ED91FD91808180
:10284000ED91FD919081ED91FD916C9163708E23DE
:1028500009F064609F2309F06860E9E3F4E1E60FA2
:10286000F11D659565956D936D917D918D919D910E
:10287000099423C01AC012C016C010C01EC009C0DF
:1028800014C013C006C019C009C00DC007C00DC0D8
:1028900014C062507040804090400BC06150704046
:1028A0008040904006C06E5F01C06F5F7F4F8F4FCA
:1028B0009F4F9E938E937E936E9301C0F89478946D
:1028C0006091960B7091970B8091980B9091990B5A
:1028D00024E030E040E050E00E94284C69017A0199
:1028E000C814D904EA04FB0454F41150C1F48CEE6A
:1028F0009BE064E040E00E94A13B1AE017C08C140A
:102900009D04AE04BF04A4F41F5F1A3029F48CEEBA
:102910009BE064E040E008C01B3008F011E0612F4C
:102920006C5F8CEE9BE041E00E94A13B46015701A9
:10293000809105070E947D4A019709F477CF6CE2E8
:1029400071E080E090E00E94F547153009F473C013
:10295000163070F4123089F1133020F4113009F080
:10296000F3C019C01330D9F1143009F0EDC049C0DB
:10297000183009F4ADC0193038F4163009F475C0B8
:10298000173009F0E1C08BC0193009F4BAC01A3011
:1029900009F0DAC05BC1EB8880E090E061E070E0B4
:1029A00045E020E001E0FF240E9434057C019C8B7F
:1029B0008B8B8CEE9BE065E083C0E98880E090E043
:1029C00061E070E046E020E001E0FF240E94340571
:1029D0007C019A8B898B8CEE9BE066E08AC0EF8449
:1029E00080E090E061E070E047E020E001E0FF245B
:1029F0000E9434057C01988B8F878CEE9BE067E00A
:102A000091C0ED8480E090E061E070E048E020E07B
:102A100001E0FF240E9434057C019E878D878CEEA7
:102A20009BE068E040E00E94A13B81E0E816F104F1
:102A300009F083C07EC0EB8480E090E061E070E04C
:102A400049E020E001E0FF240E9434057C019C87DE
:102A50008B878CEE9BE069E040E00E94A13B91E017
:102A6000E916F10409F069C064C0E98480E090E0EF
:102A700061E070E04AE020E001E0FF240E943405BC
:102A80007C019A8789878CEE9BE06AE040E00E9497
:102A9000A13BA1E0EA16F10409F04FC04AC0EF8063
:102AA00080E090E061E070E04BE020E001E0FF2496
:102AB0000E9434057C0198878F838CEE9BE06BE04D
:102AC00040E00E94A13BB1E0EB16F104B1F531C04A
:102AD000ED8080E090E061E070E04CE020E001E01B
:102AE000FF240E9434057C019E838D838CEE9BE045
:102AF0006CE040E00E94A13BE1E0EE16F104E9F455
:102B000018C0EB8080E090E061E070E04DE020E0F4
:102B100001E0FF240E9434057C019C838B838CEEB2
:102B20009BE06DE040E00E94A13BF1E0EF16F10474
:102B300021F48CEE9BE061E005C0EF2829F48CEED7
:102B40009BE062E00E94BE3B40E050E08B899C89A4
:102B5000019711F441E050E089899A89019711F4B5
:102B60004E5F5F4F8F859889019711F44C5F5F4FDF
:102B70008D859E85019711F4485F5F4F8B859C85FD
:102B8000019711F4405F5F4F89859A85019711F491
:102B9000405E5F4F8F819885019711F4405C5F4FD5
:102BA0008D819E81019711F440585F4F8B819C81EC
:102BB000019711F440505F4F85E063E02FEF31E063
:102BC00001E00E940F0A153051F1163070F41230F6
:102BD000D1F0133020F4113009F023CE10C013309F
:102BE000B1F0143009F01DCE16C0173001F11730C6
:102BF000D0F0183001F1193009F013CE20C08CEE5E
:102C00009BE065E01FC08CEE9BE066E01BC08CEE95
:102C10009BE067E017C08CEE9BE068E013C08CEE91
:102C20009BE069E00FC08CEE9BE06AE00BC08CEE8D
:102C30009BE06BE007C08CEE9BE06CE003C08CEE89
:102C40009BE06DE041E00E94A13BEBCD8CEE9BE070
:102C50000E94933BCBCDE0908C0BF0908D0B81E0EC
:102C600090E06FEF71E045E023E001E00E94340561
:102C70007C0180E0E81682E0F8068CF5F0928D0B7E
:102C8000E0928C0B8CEE9BE065E040E00E94A13B63
:102C900000918C0B10918D0B7301C80162E070E004
:102CA0000E94F34B9C01C80162E070E00E94F34B6C
:102CB0008B01D7012D933C93232B21F48CEE9BE0C9
:102CC00062E003C08CEE9BE061E00E94BE3BEEEF51
:102CD000FFEFEE0EFF1EE414F504F9F687CDF0E0E9
:102CE000EF16F2E0FF0609F053C0C0908C0BD090B5
:102CF0008D0BEE24D7FCE094FE2C81E090E06FEF8A
:102D000071E045E023E001E00E94E50C7C0180E0F9
:102D1000E81682E0F8068CF5F0928D0BE0928C0BB1
:102D20008CEE9BE065E040E00E94A13B00918C0BA3
:102D300010918D0B7301C80162E070E00E94F34BAB
:102D40009C01C80162E070E00E94F34B8B01D70147
:102D50002D933C93232B21F48CEE9BE062E003C087
:102D60008CEE9BE061E00E94BE3BEEEFFFEFEE0ECB
:102D7000FF1EE414F504F9F6B8CF40918C0B509186
:102D80008D0B85E063E02FEF31E001E00E940F0A38
:102D9000F1E0EF16F2E0FF0609F028CD40918C0B30
:102DA00050918D0B85E062E02FEF31E001E00E9451
:102DB0000F0AE0918C0BF0918D0BEE0FFF1FEA577D
:102DC000F84F85E063E040810E94920B8CEE9BE01F
:102DD00065E042E00E94A13B8CEE9BE06BE172E07B
:102DE0000E94D24B40918C0B50918D0B85E063E09B
:102DF0002FEF31E00E940F0AF9CC0E94FD02649689
:102E00000FB6F894DEBF0FBECDBFCF91DF911F91FB
:102E10000F91FF90EF90DF90CF90BF90AF909F9079
:102E20008F907F906F905F904F903F902F9008957C
:102E30008CEE9BE00E94F83B8CEE9BE061E041E071
:102E40000E94A13B8CEE9BE06FE872E00E94D24BA7
:102E50008CEE9BE061E042E00E94A13B8CEE9BE0A7
:102E600063E972E00E94D24B8CEE9BE063E142E0AA
:102E70000E94A13B8CEE9BE00E948B3BA8E8B7E050
:102E800020E030E01CC0F999FECF1FBA32BD21BD51
:102E900010BC0FB6F894FA9AF99A0FBE82E020306F
:102EA000380754F411961C921E92E091CC0CF091CC
:102EB000CD0CE20FF31F10822F5F3F4F12968091CF
:102EC00044079091450782179307ECF68CEE9BE040
:102ED0000E94F83B8CEE9BE00E94933B8CEE9BE0C3
:102EE00062E042E00E94A13B8CEE9BE066EA72E069
:102EF0000E94D24B8CEE9BE062E041E00E94A13B3D
:102F00008CEE9BE06FE872E00E94D24B10928E0B29
:102F100068EE73E080E090E00C94F5478CEE9BE067
:102F20000E94F83BA8E8B7E080E090E01D921D9277
:102F3000E091CC0CF091CD0CE80FF91F10820196B6
:102F400022E08030920791F78CEE9BE00E94F83BE4
:102F50008CEE9BE063E041E00E94A13B8CEE9BE0A5
:102F600066EB72E00E94D24B8CEE9BE063E042E0A5
:102F70000E94A13B8CEE9BE066EC72E00E94D24B7B
:102F80008CEE9BE063E143E00E94A13B8CEE9BE072
:102F90000E948B3B68EE73E080E090E00E94F54772
:102FA0008CEE9BE00C94933B20913A0730913B07C9
:102FB000F999FECF32BD21BDF89A50B550938E0BD2
:102FC0002091360730913707F999FECF32BD21BDE8
:102FD000F89A80B58093030C1092040C20913E0760
:102FE00030913F07F999FECF32BD21BDF89A80B5E7
:102FF0008093090C10920A0C20913C0730913D07F8
:10300000F999FECF32BD21BDF89A80B58093070CA7
:103010001092080C2091380730913907F999FECFAA
:1030200032BD21BDF89A80B58093050C1092060C34
:103030002091400730914107F999FECF32BD21BD63
:10304000F89A40B52091420730914307F999FECF95
:1030500032BD21BDF89A20B5842F90E0820F911DDA
:1030600090938D0B80938C0B552309F492C0A8E8A4
:10307000B7E040E050E020E030E080918E0B8430FB
:10308000E1F0853038F4823081F0833090F4813083
:1030900079F509C08630C9F0863098F08730C9F0DC
:1030A000883031F51AC0A90123C0A90140505E4FF4
:1030B0001FC0A90140505C4F1BC0A90140505A4F8E
:1030C00017C0A9014050584F13C0A9014050564F96
:1030D0000FC0A9014050544F0BC0809144079091FC
:1030E0004507A9014050524F841795070CF4AC01D5
:1030F000F999FECF52BD41BDF89A80B58C931196D7
:103100001C921197E091CC0CF091CD0CE20FF31FC3
:1031100080832F5F3F4F129682E02030380709F0FE
:10312000ACCF8CEE9BE00E94F83B8CEE9BE063E022
:1031300041E00E94A13B8CEE9BE060ED72E00E94BA
:10314000D24B8CEE9BE063E042E00E94A13B8CEE10
:103150009BE06FED72E00E94D24B8CEE9BE06091A1
:103160008E0B4AE050E00E94714B8CEE9BE06AE0CF
:1031700042E00E94A13B8CEE9BE00E948B3B60ED05
:1031800077E080E090E00E94F5478CEE9BE00C94A5
:10319000933B08952F923F924F925F926F927F924E
:1031A0008F929F92AF92BF92CF92DF92EF92FF9257
:1031B0000F931F93DF93CF93CDB7DEB729970FB649
:1031C000F894DEBF0FBECDBF8CEE9BE00E94F83BB3
:1031D0008CEE9BE060E040E00E94A13B8CEE9BE027
:1031E00066EE72E00E94D24B8CEE9BE060918E0BFB
:1031F0004AE050E00E94714B8CEE9BE064E041E0BD
:103200000E94A13B8CEE9BE06AEF72E00E94D24BE1
:103210008CEE9BE060E042E00E94A13B8CEE9BE0E4
:103220006BE073E00E94D24B8CEE9BE060E043E0E9
:103230000E94A13B8CEE9BE06FE173E00E94D24BB9
:1032400020E030E0E091CC0CF091CD0CF999FECF6C
:1032500032BD21BDF89A80B5E20FF31F80832F5F46
:103260003F4F82E02030380769F7EBE9FBE010823E
:103270001182128213823496ABE0EB3EFA07B9F763
:10328000FE01319689E0DF011D928A95E9F781E020
:103290008093C00B82E08093C10B83E08093C20BCC
:1032A00084E08093D60B85E08093D50B81E090E09D
:1032B000909309078093080751E0652E712C41E037
:1032C000842E912C38E0A32EB12C10E001C05C01BB
:1032D0008CEE9BE00E94933B8CEE9BE06FE043E022
:1032E0000E94A13B8CEE9BE069E572E00E94D24B0C
:1032F00080E060E00E946F0E8091080790910907BE
:1033000082309105E1F1833091051CF4019741F47D
:103310000CC08330910509F45CC0049709F481C0A6
:10332000A6E8B7E020E030E062C281E090E067EE1E
:1033300073E04AE021E001E073010E943405B3E04C
:10334000883E9B071CF43C01C3CF39016301EE2486
:10335000D7FCE094FE2C81E090E067EE73E04AE059
:1033600021E001E00E94E50C9C0183E0283E380743
:1033700064F38AE061E0A30127EE33E027C081E037
:1033800090E068E070E04AE022E001E074010E9411
:103390003405893091051CF44C019ACF4901640130
:1033A000EE24D7FCE094FE2C81E090E068E070E031
:1033B0004AE022E001E00E94E50C9C018930910581
:1033C0006CF38AE062E0A40128E030E00E940F0A7A
:1033D0007FCF81E090E068E070E04AE023E001E028
:1033E00075010E943405893091050CF470CF650198
:1033F000EE24D7FCE094FE2C81E090E068E070E0E1
:103400004AE023E001E00E94E50C8930910514F4C4
:103410005C01EDCF8AE063E0A50128E030E001E047
:10342000D5CF8A149B04C1F48AE062E041E050E009
:1034300028E030E001E00E940F0A8AE063E048E003
:1034400050E028E030E00E940F0A21E0822E912C0B
:1034500098E0A92EB12C3CCF8CEE9BE06FE043E0CE
:103460000E94A13B8CEE9BE06FE572E00E94D24B84
:103470008A149B040CF410E0A814B904CCF01123B6
:10348000A9F481E090E0881599055CF0A816B906CA
:1034900044F0E1E0F0E0EC0FFD1FE80FF91FA1E0C0
:1034A000A08301968930910571F716C01130A1F4FF
:1034B00088E090E0881699065CF08A159B0544F038
:1034C000E1E0F0E0EC0FFD1FE80FF91FB1E0B08381
:1034D0000197882379F711E08CEE9BE00E948B3BEB
:1034E000112309F0BEC024E630E0629EC001639E55
:1034F000900D729E900D11241C01442437FC4094C1
:10350000542C01E0E1E0F0E0EC0FFD1FE00FF11DB5
:103510008081813009F0A0C08CEE9BE063E140E047
:103520000E94A13B8CEE9BE0602F4AE050E00E949D
:10353000714B8CEE9BE063E143E00E94A13B20E0F5
:1035400030E0043059F1053040F40230A9F0033086
:10355000E0F4013009F057C00AC0063089F10630A6
:1035600030F10730B1F1083009F04DC03BC0F99996
:10357000FECF32BD21BD3EC0F999FECF20503E4F57
:1035800032BD21BD2050324035C0F999FECF2050C8
:103590003C4F32BD21BD205034402CC0F999FECFA4
:1035A00020503A4F32BD21BD2050364023C0F999FA
:1035B000FECF2050384F32BD21BD205038401AC0B8
:1035C000F999FECF2050364F32BD21BD20503A40F0
:1035D00011C0F999FECF2050344F32BD21BD20508B
:1035E0003C4008C0F999FECF2050324F32BD21BD7A
:1035F00020503E40F89A80B5E091CC0CF091CD0C73
:10360000E20FF31F80832F5F3F4F82E020303807A7
:1036100009F097CF809105070E947D4A019709F034
:10362000DBC0CC24DD24760112C061E070E080E0D4
:1036300090E00E94F547809105070E947D4A892B02
:1036400009F4CAC00894C11CD11CE11CF11C2C1443
:103650003D044E045F044CF70F5F093008F051CF72
:1036600051CF113009F05CCEA4E6B0E06A9EC001F3
:103670006B9E900D7A9E900D11241C01442437FC02
:103680004094542C08E0E1E0F0E0EC0FFD1FE00F67
:10369000F11D8081813009F0A6C08CEE9BE063E1D2
:1036A00040E00E94A13B8CEE9BE0602F4AE050E09E
:1036B0000E94714B8CEE9BE063E143E00E94A13BD2
:1036C00020E030E0043059F1053040F40230A9F038
:1036D0000330E0F4013009F057C00AC0063089F128
:1036E000063030F10730B1F1083009F04DC03BC071
:1036F000F999FECF32BD21BD3EC0F999FECF2050D1
:103700003E4F32BD21BD2050324035C0F999FECF29
:1037100020503C4F32BD21BD205034402CC0F9997F
:10372000FECF20503A4F32BD21BD2050364023C03D
:10373000F999FECF2050384F32BD21BD205038407E
:103740001AC0F999FECF2050364F32BD21BD20500E
:103750003A4011C0F999FECF2050344F32BD21BDFF
:1037600020503C4008C0F999FECF2050324F32BD66
:1037700021BD20503E40F89A80B5E091CC0CF091EC
:10378000CD0CE20FF31F80832F5F3F4FB2E020305C
:103790003B0709F097CF809105070E947D4A01976A
:1037A000D9F4CC24DD24760111C061E070E080E022
:1037B00090E00E94F547809105070E947D4A892B81
:1037C00059F00894C11CD11CE11CF11C2C143D04BF
:1037D0004E045F0454F707C064EF71E080E090E0AE
:1037E0000E94F54775CD015009F44CCF4CCFE091C4
:1037F000CC0CF091CD0CE20FF31F8C9180832F5FE6
:103800003F4F129682E02130380789F729960FB68C
:10381000F894DEBF0FBECDBFCF91DF911F910F9106
:10382000FF90EF90DF90CF90BF90AF909F908F90E0
:103830007F906F905F904F903F902F900895AF9240
:10384000BF92CF92DF92EF92FF920F931F93CF938D
:10385000DF93182F8CEE9BE00E94F83B68EC70E041
:1038600080E090E00E94F5478CEE9BE066E040E04F
:103870000E94A13B8CEE9BE064E373E00E94D24B7C
:103880008CEE9BE061E041E00E94A13B8CEE9BE06E
:1038900061E473E00E94D24B8CEE9BE061E042E079
:1038A0000E94A13B8CEE9BE065E573E00E94D24B49
:1038B0008CEE9BE061E043E00E94A13B8CEE9BE03C
:1038C00069E673E00E94D24B123079F01330C1F0F8
:1038D000113011F58CEE9BE061E040E00E94A13BCD
:1038E0008CEE9BE06CE773E015C08CEE9BE061E032
:1038F00040E00E94A13B8CEE9BE061E873E00AC0CF
:103900008CEE9BE060E040E00E94A13B8CEE9BE0EF
:1039100066E873E00E94D24B8CEE9BE063E140E0EE
:103920000E94A13B60918E0B662339F48CEE9BE0E4
:103930006CE873E00E94D24B06C08CEE9BE04AE03C
:1039400050E00E94714BEBE9FBE010821182128281
:10395000138234968BE0EB3EF807B9F7AA24A394C0
:10396000A0929C0BA2E0DA2ED0929D0BF3E0CF2E1A
:10397000C0929E0BE4E0BE2EB092B80B15E01093FF
:10398000B90B76E0E72EE092BA0B07E00093D40B78
:1039900068E0F62EF092D50B89E08093D60BC1E05B
:1039A000D0E0D0930907C093080780E060E00E9450
:1039B0006F0E80910807909109078530910561F19C
:1039C000863091057CF482309105E9F083309105D1
:1039D0001CF40197A9F412C083309105B9F0049743
:1039E00079F417C087309105E9F087309105BCF074
:1039F00088309105D1F0099719F41AC0A0928E0B66
:103A000020E030E01BC0D0928E0BFACFC0928E0B1C
:103A1000F7CFB0928E0BF4CF10938E0BF1CFE092D4
:103A20008E0BEECF00938E0BEBCFF0928E0BE8CF88
:103A3000D0930907C093080721E030E0C901DF9166
:103A4000CF911F910F91FF90EF90DF90CF90BF909B
:103A5000AF90089583E0F3DE019719F421E030E0A0
:103A6000C8C08CEE9BE00E94F83B8CEE9BE061E0CE
:103A700041E00E94A13B8CEE9BE063E972E00E9472
:103A8000D24B8CEE9BE061E042E00E94A13B8CEEC9
:103A90009BE06FED72E00E94D24B8CEE9BE067E002
:103AA00042E00E94A13B8CEE9BE060918E0B4AE0CD
:103AB00050E00E94714B8CEE9BE063E143E00E947A
:103AC000A13B8CEE9BE00E948B3BA6E8B7E040E078
:103AD00050E020E030E011961C921E92E091CC0C58
:103AE000F091CD0CE20FF31F108280918E0B843089
:103AF000E1F0853038F4823081F0833090F4813009
:103B000079F509C08630C9F0863098F08730C9F061
:103B1000883031F51AC0A90123C0A90140505E4F79
:103B20001FC0A90140505C4F1BC0A90140505A4F13
:103B300017C0A9014050584F13C0A9014050564F1B
:103B40000FC0A9014050544F0BC080914407909181
:103B50004507A9014050524F841795070CF4AC015A
:103B6000F999FECF1FBA52BD41BD10BC0FB6F894F3
:103B7000FA9AF99A0FBE2F5F3F4F129682E02030DB
:103B8000380709F0A8CF8CEE9BE00E94F83B8CEE42
:103B90009BE062E041E00E94A13B8CEE9BE066EA84
:103BA00072E00E94D24B8CEE9BE062E042E00E9409
:103BB000A13B8CEE9BE06FED72E00E94D24B8CEE4D
:103BC0009BE060918E0B4AE050E00E94714B8CEEBE
:103BD0009BE063E143E00E94A13B68EE73E080E07C
:103BE00090E00E94F5478CEE9BE00E94933B20E022
:103BF00030E0C901089582E022DE019719F421E046
:103C000030E098C08CEE9BE00E94F83BA8E8B7E05B
:103C100040E050E020E030E080918E0B8430E1F015
:103C2000853038F4823081F0833090F4813079F53A
:103C300009C08630C9F0863098F08730C9F08830E6
:103C400031F51AC0A90123C0A90140505E4F1FC021
:103C5000A90140505C4F1BC0A90140505A4F17C0EA
:103C6000A9014050584F13C0A9014050564F0FC0F2
:103C7000A9014050544F0BC08091440790914507D3
:103C8000A9014050524F841795070CF4AC01F999E3
:103C9000FECF52BD41BDF89A80B58C9311961C920F
:103CA0001197E091CC0CF091CD0CE20FF31F8083C3
:103CB0002F5F3F4F129682E02030380709F0ACCFDB
:103CC0008CEE9BE00E94F83B8CEE9BE063E041E0D1
:103CD0000E94A13B8CEE9BE060ED72E00E94D24B13
:103CE0008CEE9BE063E042E00E94A13B8CEE9BE007
:103CF0006FED72E00E94D24B8CEE9BE060918E0BD8
:103D00004AE050E00E94714B8CEE9BE063E143E09F
:103D10000E94A13B8CEE9BE00E948B3B68EE73E01F
:103D200080E090E00E94F5478CEE9BE00E94933B80
:103D300020E030E0C901089581E081DD019719F4A8
:103D400021E030E0BFC08CEE9BE00E94F83B8CEE9F
:103D50009BE061E041E00E94A13B8CEE9BE06EE8BD
:103D600073E00E94D24B8CEE9BE061E042E00E9447
:103D7000A13B8CEE9BE06FED72E00E94D24B8CEE8B
:103D80009BE067E042E00E94A13B8CEE9BE06091EB
:103D90008E0B4AE050E00E94714B8CEE9BE063E199
:103DA00043E00E94A13B8CEE9BE00E948B3B409144
:103DB0008E0B6091440770914507E8E8F7E080E0DA
:103DC00090E020E030E04430E1F0453038F442301B
:103DD00081F0433090F4413059F509C04630C9F0C4
:103DE000463098F04730C9F0483011F51AC0C90183
:103DF0001FC0C90180509E4F1BC0C90180509C4FFD
:103E000017C0C90180509A4F13C0C9018050984F04
:103E10000FC0C9018050964F0BC0C9018050944F0C
:103E200007C0C9018050924F681779070CF4CB0185
:103E30002F5F3F4F5081F999FECF1FBA92BD81BDD0
:103E400050BD0FB6F894FA9AF99A0FBE329652E026
:103E50002030350709F0B7CF8CEE9BE00E94F83B8D
:103E60008CEE9BE063E041E00E94A13B8CEE9BE086
:103E70006FE973E00E94D24B8CEE9BE063E042E07E
:103E80000E94A13B8CEE9BE06FED72E00E94D24B52
:103E90008CEE9BE060918E0B4AE050E00E94714BEB
:103EA0008CEE9BE063E143E00E94A13B68EE73E08F
:103EB00080E090E00E94F5478CEE9BE00E94933BEF
:103EC00020E030E0C9010895FF920F931F93CF9334
:103ED000DF9304E0B5E0FB2E16E0C1E0D0E08CEE0D
:103EE0009BE00E94F83B8CEE9BE060E040E00E948B
:103EF000A13B8CEE9BE06DEA73E00E94D24B8CEE0E
:103F00009BE062E140E00E94A13B8CEE9BE064EB11
:103F100073E00E94D24B60918E0B662339F48CEED5
:103F20009BE06CE873E00E94D24B06C08CEE9BE0F5
:103F30004AE050E00E94714B8CEE9BE061E041E072
:103F40000E94A13B8CEE9BE06CE773E00E94D24B99
:103F50008CEE9BE061E042E00E94A13B8CEE9BE096
:103F600061E873E00E94D24B8CEE9BE061E043E09D
:103F70000E94A13B8CEE9BE066E873E00E94D24B6E
:103F80008CEE9BE067E041E00E94A13B8CEE9BE061
:103F900066EB73E00E94D24B8CEE9BE067E042E060
:103FA0000E94A13B8CEE9BE06FEB73E00E94D24B32
:103FB0008CEE9BE060E143E00E94A13B8CEE9BE035
:103FC0006BE472E00E94D24B8CEE9BE067E043E032
:103FD0000E94A13B8CEE9BE068EC73E00E94D24B08
:103FE000EBE9FBE0108211821282138234968BE09F
:103FF000EB3EF807B9F781E080939C0B82E0809359
:104000009D0B83E080939E0B0093B40BF092B50B55
:104010001093B60B87E08093DA0BD0930907C09317
:10402000080780E060E00E946F0E80910807909181
:10403000090783309105C1F08430910534F4813053
:10404000910561F00297F1F40BC085309105A1F064
:104050008530910574F00697A9F411C06DDE05C096
:10406000CADD0197F1F20EC0F5DC019709F437CFF4
:1040700009C00E94181706C00E948E1703C00E9434
:10408000F304CFCF86E090E0909309078093080770
:10409000DF91CF911F910F91FF9008952F923F9242
:1040A0004F925F926F927F928F929F92AF92BF9248
:1040B000CF92DF92EF92FF920F931F93DF93CF93F4
:1040C000CDB7DEB72C970FB6F894DEBF0FBECDBFCD
:1040D00081E090E0909309078093080711E08CEE4F
:1040E0009BE00E94F83B80908C0B90908D0B89EFA9
:1040F000881681E0980624F099EF892E91E0992E98
:104100008CEE9BE062E140E00E94A13B8CEE9BE0E4
:1041100064EB73E00E94D24B60918E0B662339F4FE
:104120008CEE9BE06CE873E00E94D24B06C08CEEF4
:104130009BE04AE050E00E94714B8CEE9BE061E115
:1041400042E00E94A13B8CEE9BE061ED73E00E9497
:10415000D24B8CEE9BE061E143E00E94A13B8CEEF0
:104160009BE065ED73E00E94D24BEBE9FBE010822F
:1041700011821282138234969BE0EB3EF907B9F765
:10418000D4011196BA87A987F4013296F887EF8394
:10419000C40103969E838D83D4011496BC83AB83A4
:1041A000F4013596FA83E98386E0282E312C280C19
:1041B000391C07E0402E512C480C591C10939B0BC6
:1041C00082E080939C0B83E08093AB0BF4E0F09350
:1041D000AC0B85E08093BB0B96E09093BC0BA7E003
:1041E000A093CB0BB8E0B093CC0BE9E0E0939D0B30
:1041F000FAE0F0939E0B8BE08093AD0B9CE09093E4
:10420000AE0BADE0A093BD0BBEE0B093BE0BEFE0F4
:10421000E093CD0BF0E1F093CE0B81E18093DD0BC9
:1042200082E18093DE0BC40161E070E040E050E089
:104230000E94560BF401EE0FFF1FEA57F84F8081E2
:10424000918161E070E041E050E00E94560B898569
:104250009A8565E070E040E050E00E94560BE985E9
:10426000FA85EE0FFF1FEA57F84F8081918165E0D4
:1042700070E041E050E00E94560B8F81988569E024
:1042800070E040E050E00E94560BEF81F885EE0FA1
:10429000FF1FEA57F84F8081918169E070E041E0AB
:1042A00050E00E94560B8D819E816DE070E040E0F1
:1042B00050E00E94560BED81FE81EE0FFF1FEA5782
:1042C000F84F808191816DE070E041E050E00E9404
:1042D000560B8B819C8161E070E042E050E00E94CF
:1042E000560BEB81FC81EE0FFF1FEA57F84F8081E0
:1042F000918161E070E043E050E00E94560B8981BB
:104300009A8165E070E042E050E00E94560BE9813E
:10431000FA81EE0FFF1FEA57F84F8081918165E027
:1043200070E043E050E00E94560BC10169E070E08C
:1043300042E050E00E94560BF101EE0FFF1FEA57DA
:10434000F84F8081918169E070E043E050E00E9485
:10435000560BC2016DE070E042E050E00E94560B47
:10436000F201EE0FFF1FEA57F84F808191816DE057
:1043700070E043E050E00E94560B80E060E00E9455
:104380006F0EE0910807F09109073197E231F105CE
:1043900008F049CFEE58FF4FEE0FFF1F0590F49144
:1043A000E02D199481E090E060E072E041E020E0CF
:1043B00001E074010E9434057C0181E0E81682E08E
:1043C000F8060CF4470191E0E91692E0F90651F580
:1043D0006401EE24D7FCE094FE2C81E090E060E0E4
:1043E00072E041E020E001E00E94E50C7C01A2E0E7
:1043F00081309A077CF4FC01EE0FFF1FEA57F84F5B
:104400008081918161E070E041E050E00E94560BB4
:104410004701DECF81E060E0A40120E032E001E06E
:104420000E940F0A90928D0B80928C0BB2E0EB16DB
:10443000B2E0FB0609F0F7CEC40161E070E040E0B5
:1044400050E00E94560B5FC0F401EE0FFF1FEA57C9
:10445000F84FFC87EB87E080F18080E090E06FEF21
:1044600070E041E021E001E00E9434056C018F3FE3
:10447000910509F06CF4089481089108E091CC0C46
:10448000F091CD0CE80DF91D0894811C911C5DC5BF
:10449000B1E080309B0789F5AB84BC84340108947B
:1044A00061087108F501C080D180EE24D7FCE0944A
:1044B000FE2C80E090E06FEF70E041E021E001E051
:1044C0000E94E50C6C018F3F910509F05CF4E091CE
:1044D000CC0CF091CD0CE60DF71D8083D5018D93AA
:1044E0009C93E0CFEB85FC854081518181E061E0C8
:1044F0002FEF30E001E00E940F0AF1E0CF16F1E06B
:10450000DF0609F090CEF401EE0FFF1FEA57F84FD7
:1045100081E061C081E090E060E072E045E020E091
:1045200001E0E984FA840E9434057C0181E0E81608
:1045300082E0F80614F4FA86E98691E0E91692E042
:10454000F90671F5A985BA856D01EE24D7FCE094D2
:10455000FE2C81E090E060E072E045E020E001E0C8
:104560000E94E50C7C01B2E081309B0784F4FC01E1
:10457000EE0FFF1FEA57F84F8081918165E070E0F0
:1045800041E050E00E94560BFA86E986DBCF85E0D9
:1045900060E049855A8520E032E001E00E940F0A80
:1045A000E985FA85F0938D0BE0938C0BF2E0EF1622
:1045B000F2E0FF0609F037CE89859A8565E070E064
:1045C00040E050E00E94560BE985FA85EE0FFF1F90
:1045D000EA57F84F85E061E000C589859A85880F24
:1045E000991F8A57984F9C878B87DC01ED90FC9030
:1045F00080E090E06FEF70E045E021E001E00E9494
:1046000034056C018F3F910509F08CF4E985FA853A
:104610003197FA87E987E091CC0CF091CD0C898530
:104620009A85E80FF91F01969A8789878EC4B1E0B1
:1046300080309B0791F5AB84BC8469847A840894AC
:1046400061087108F501C080D180EE24D7FCE094A8
:10465000FE2C80E090E06FEF70E045E021E001E0AB
:104660000E94E50C6C018F3F910509F05CF4E0912C
:10467000CC0CF091CD0CE60DF71D8083D5018D9308
:104680009C93E0CFEB85FC854081518185E061E022
:104690002FEF30E001E00E940F0AF1E0CF16F1E0C9
:1046A000DF0609F0C0CD90CF81E090E060E072E0DD
:1046B00049E020E001E0EF80F8840E9434057C01AD
:1046C00081E0E81682E0F80614F4F886EF8291E0C3
:1046D000E91692E0F90671F5AF81B8856D01EE2417
:1046E000D7FCE094FE2C81E090E060E072E049E0CD
:1046F00020E001E00E94E50C7C01B2E081309B07E4
:1047000084F4FC01EE0FFF1FEA57F84F808191817E
:1047100069E070E041E050E00E94560BF886EF82BD
:10472000DBCF89E060E04F81588520E032E001E096
:104730000E940F0AEF81F885F0938D0BE0938C0BAC
:10474000F2E0EF16F2E0FF0609F06DCD8F8198855B
:1047500069E070E040E050E00E94560B66C08F8137
:104760009885880F991F8A57984F9C878B87DC0103
:10477000ED90FC9080E090E06FEF70E049E021E088
:1047800001E00E9434056C018F3F910509F08CF423
:10479000EF81F8853197F887EF83E091CC0CF091A9
:1047A000CD0C8F819885E80FF91F019698878F832C
:1047B000CCC3B1E080309B0791F5AB84BC846F80A3
:1047C0007884089461087108F501C080D180EE24D6
:1047D000D7FCE094FE2C80E090E06FEF70E049E0C1
:1047E00021E001E00E94E50C6C018F3F910509F08A
:1047F0005CF4E091CC0CF091CD0CE60DF71D8083BC
:10480000D5018D939C93E0CFEB85FC854081518150
:1048100089E061E02FEF30E001E00E940F0AF1E053
:10482000CF16F1E0DF0609F0FECCEF81F885EE0F40
:10483000FF1FEA57F84F89E0CECE81E090E060E0BC
:1048400072E04DE020E001E0ED80FE800E94340542
:104850007C0181E0E81682E0F80614F4FE82ED8225
:1048600091E0E91692E0F90671F5AD81BE816D0126
:10487000EE24D7FCE094FE2C81E090E060E072E052
:104880004DE020E001E00E94E50C7C01B2E08130C7
:104890009B0784F4FC01EE0FFF1FEA57F84F80815D
:1048A00091816DE070E041E050E00E94560BFE8285
:1048B000ED82DBCF8DE060E04D815E8120E032E073
:1048C00001E00E940F0AED81FE81F0938D0BE093D1
:1048D0008C0BF2E0EF16F2E0FF0609F0A4CC8D811C
:1048E0009E816DE070E040E050E00E94560B66C093
:1048F0008D819E81880F991F8A57984F9C878B873F
:10490000DC01ED90FC9080E090E06FEF70E04DE016
:1049100021E001E00E9434056C018F3F910509F010
:104920008CF4ED81FE813197FE83ED83E091CC0C18
:10493000F091CD0C8D819E81E80FF91F01969E8329
:104940008D8303C3B1E080309B0791F5AB84BC84B9
:104950006D807E80089461087108F501C080D18067
:10496000EE24D7FCE094FE2C80E090E06FEF70E046
:104970004DE021E001E00E94E50C6C018F3F9105C4
:1049800009F05CF4E091CC0CF091CD0CE60DF71D34
:104990008083D5018D939C93E0CFEB85FC8540818E
:1049A00051818DE061E02FEF30E001E00E940F0ABD
:1049B000F1E0CF16F1E0DF0609F035CCED81FE81A4
:1049C000EE0FFF1FEA57F84F8DE005CE81E090E033
:1049D00060E072E041E022E001E0EB80FC800E94B8
:1049E00034057C0181E0E81682E0F80614F4FC82CC
:1049F000EB8291E0E91692E0F90671F5AB81BC819A
:104A00006D01EE24D7FCE094FE2C81E090E060E0A4
:104A100072E041E022E001E00E94E50C7C01B2E09E
:104A200081309B0784F4FC01EE0FFF1FEA57F84F1B
:104A30008081918161E070E043E050E00E94560B7C
:104A4000FC82EB82DBCF81E062E04B815C8120E085
:104A500032E001E00E940F0AEB81FC81F0938D0BA4
:104A6000E0938C0BF2E0EF16F2E0FF0609F0DBCBEF
:104A70008B819C8161E070E042E050E00E94560B27
:104A800066C08B819C81880F991F8A57984F9C879D
:104A90008B87DC01ED90FC9080E090E06FEF70E0A0
:104AA00041E023E001E00E9434056C018F3F910555
:104AB00009F08CF4EB81FC813197FC83EB83E0916E
:104AC000CC0CF091CD0C8B819C81E80FF91F0196E5
:104AD0009C838B833AC2B1E080309B0791F5AB8415
:104AE000BC846B807C80089461087108F501C080EB
:104AF000D180EE24D7FCE094FE2C80E090E06FEFB4
:104B000070E041E023E001E00E94E50C6C018F3F82
:104B1000910509F05CF4E091CC0CF091CD0CE60D20
:104B2000F71D8083D5018D939C93E0CFEB85FC85A9
:104B30004081518181E063E02FEF30E001E00E948D
:104B40000F0AF1E0CF16F1E0DF0609F06CCBEB8144
:104B5000FC81EE0FFF1FEA57F84F81E03DC281E074
:104B600090E060E072E045E022E001E0E980FA8058
:104B70000E9434057C0181E0E81682E0F80614F416
:104B8000FA82E98291E0E91692E0F90671F5A981CD
:104B9000BA816D01EE24D7FCE094FE2C81E090E018
:104BA00060E072E045E022E001E00E94E50C7C015B
:104BB000B2E081309B0784F4FC01EE0FFF1FEA573F
:104BC000F84F8081918165E070E043E050E00E9401
:104BD000560BFA82E982DBCF85E062E049815A8197
:104BE00020E032E001E00E940F0AE981FA81F093AF
:104BF0008D0BE0938C0BF2E0EF16F2E0FF0609F06C
:104C000012CB89819A8165E070E042E050E00E9419
:104C1000560B66C089819A81880F991F8A57984FD1
:104C20009C878B87DC01ED90FC9080E090E06FEF3B
:104C300070E045E023E001E00E9434056C018F3F05
:104C4000910509F08CF4E981FA813197FA83E983BF
:104C5000E091CC0CF091CD0C89819A81E80FF91F7D
:104C600001969A83898371C1B1E080309B0791F5E9
:104C7000AB84BC8469807A80089461087108F5016E
:104C8000C080D180EE24D7FCE094FE2C80E090E040
:104C90006FEF70E045E023E001E00E94E50C6C015D
:104CA0008F3F910509F05CF4E091CC0CF091CD0CB4
:104CB000E60DF71D8083D5018D939C93E0CFEB85A6
:104CC000FC854081518185E063E02FEF30E001E019
:104CD0000E940F0AF1E0CF16F1E0DF0609F0A3CA47
:104CE000E981FA81EE0FFF1FEA57F84F85E074C1A2
:104CF00081E090E060E072E049E022E001E07101D3
:104D00000E9434057C0181E0E81682E0F8060CF48C
:104D1000170191E0E91692E0F90651F56101EE24E0
:104D2000D7FCE094FE2C81E090E060E072E049E086
:104D300022E001E00E94E50C7C01A2E081309A07AC
:104D40007CF4FC01EE0FFF1FEA57F84F8081918140
:104D500069E070E043E050E00E94560B1701DECF9F
:104D600089E062E0A10120E032E001E00E940F0A48
:104D700030928D0B20928C0BB2E0EB16B2E0FB066A
:104D800009F051CAC10169E070E042E050E00E94C0
:104D9000560B5FC0F101EE0FFF1FEA57F84FFC877B
:104DA000EB87E080F18080E090E06FEF70E049E019
:104DB00023E001E00E9434056C018F3F910509F06A
:104DC0006CF4089421083108E091CC0CF091CD0CE2
:104DD000E20DF31D0894211C311CB7C0B1E08030F6
:104DE0009B0789F5AB84BC84310108946108710884
:104DF000F501C080D180EE24D7FCE094FE2C80E049
:104E000090E06FEF70E049E023E001E00E94E50CE4
:104E10006C018F3F910509F05CF4E091CC0CF091AE
:104E2000CD0CE60DF71D8083D5018D939C93E0CFCB
:104E3000EB85FC854081518189E063E02FEF30E014
:104E400001E00E940F0AF1E0CF16F1E0DF0609F061
:104E5000EAC9F101EE0FFF1FEA57F84F89E0BCC025
:104E600081E090E060E072E04DE022E001E072015C
:104E70000E9434057C0181E0E81682E0F8060CF41B
:104E8000270191E0E91692E0F90651F56201EE245E
:104E9000D7FCE094FE2C81E090E060E072E04DE011
:104EA00022E001E00E94E50C7C01A2E081309A073B
:104EB0007CF4FC01EE0FFF1FEA57F84F80819181CF
:104EC0006DE070E043E050E00E94560B2701DECF1A
:104ED0008DE062E0A20120E032E001E00E940F0AD2
:104EE00050928D0B40928C0BB2E0EB16B2E0FB06B9
:104EF00009F099C9C2016DE070E042E050E00E9403
:104F0000560B64C0F201EE0FFF1FEA57F84FFC8703
:104F1000EB87E080F18080E090E06FEF70E04DE0A3
:104F200023E001E00E9434056C018F3F910509F0F8
:104F300094F4089441085108E091CC0CF091CD0C08
:104F4000E40DF51D0894411C511CC082AB85BC8545
:104F5000CD92DC9268C9B1E080309B0789F5AB84C3
:104F6000BC843201089461087108F501C080D180C9
:104F7000EE24D7FCE094FE2C80E090E06FEF70E030
:104F80004DE023E001E00E94E50C6C018F3F9105AC
:104F900009F05CF4E091CC0CF091CD0CE60DF71D1E
:104FA0008083D5018D939C93E0CFEB85FC85408178
:104FB00051818DE063E02FEF30E001E00E940F0AA5
:104FC000F1E0CF16F1E0DF0609F02DC9F201EE0F96
:104FD000FF1FEA57F84F8DE063E040810E94920B7B
:104FE00022C90E94641F81E190E090930907809399
:104FF000080775C80E94FD022C960FB6F894DEBF14
:105000000FBECDBFCF91DF911F910F91FF90EF9019
:10501000DF90CF90BF90AF909F908F907F906F90D8
:105020005F904F903F902F9008952F923F924F9214
:105030005F926F927F928F929F92AF92BF92CF9228
:10504000DF92EF92FF920F931F93DF93CF93CDB731
:10505000DEB72A970FB6F894DEBF0FBECDBF51E082
:10506000252E312C21E030E040E050E029833A83C6
:105070004B835C83412C42E0542E612C712C4FEF0A
:1050800050E05A87498717E08CEE9BE00E94F83B7E
:105090008CEE9BE060E040E00E94A13B8CEE9BE048
:1050A00069ED73E00E94D24B8CEE9BE061E040E042
:1050B0000E94A13B60918E0B662339F48CEE9BE03D
:1050C0006CE873E00E94D24B06C08CEE9BE04AE095
:1050D00050E00E94714B8CEE9BE060E041E00E944A
:1050E000A13B8CEE9BE062EE73E00E94D24B8CEE13
:1050F0009BE060E042E00E94A13B8CEE9BE065EF0C
:1051000073E00E94D24B8CEE9BE060E043E00E9493
:10511000A13B8CEE9BE06AE074E00E94D24B89E0F8
:1051200060E049855A852FEF30E001E00E940F0AC8
:1051300089E061E0A1012FEF30E00E940F0A89E0D1
:1051400062E049815A812FEF30E00E940F0A89E026
:1051500063E0A2012FEF30E00E940F0AEBE9FBE0D1
:10516000108211821282138234965BE0EB3EF507C7
:10517000B9F781E08093BB0B82E08093BC0B83E0A6
:105180008093BD0B84E08093BE0B1093D00B96E010
:105190009093D10BA5E0A093D20BE1E0F0E0F09367
:1051A0000907E093080788249924540102C09A87CC
:1051B000898780E060E00E946F0EE0900807F09021
:1051C0000907F4E0EF16F10409F4B2C025E0E21695
:1051D000F1047CF432E0E316F10409F446C043E044
:1051E000E416F1040CF06BC051E0E516F10409F788
:1051F0000FC086E0E816F10409F474C196E0E916E0
:10520000F1040CF4C7C0A7E0EA16F10491F67AC1E4
:1052100081E090E06FEF70E049E020E001E0E98498
:10522000FA840E9434058F3F910509F204F2E98562
:10523000FA856F01EE24D7FCE094FE2C81E090E02B
:105240006FEF70E049E020E001E00E94E50C8F3F45
:10525000910509F01CF49A878987E9CF89E060E01D
:1052600049855A852FEF30E091C081E090E060E001
:1052700072E049E021E001E071010E943405F2E0B2
:1052800081309F071CF41C0194CF19016101EE24A9
:10529000D7FCE094FE2C81E090E060E072E049E011
:1052A00021E001E00E94E50C9C0142E0813094077E
:1052B00064F389E061E0A10120E032E068C081E0B0
:1052C00090E060E072E049E022E001E0E980FA80ED
:1052D0000E94340552E08130950754F49C01442724
:1052E00037FD4095542F29833A834B835C8361CFEC
:1052F00081E090E060E072E049E022E001E0C980F6
:10530000DA80EB80FC800E94E50C32E0813093076C
:1053100054F49C01442737FD4095542F29833A8348
:105320004B835C83E5CF89E062E049815A812CC0E0
:1053300081E090E060E072E049E023E001E072018A
:105340000E94340532E08130930734F42C01662446
:1053500057FC6094762C2DCF81E090E060E072E005
:1053600049E023E001E0730162010E94E50C42E0A4
:105370008130940734F42C01662457FC6094762C19
:10538000EBCF89E063E0A20120E032E001E00E947F
:105390000F0A0FCFC301B20129813A814B815C8191
:1053A0000E94D44B61507240804090405CF08CEE83
:1053B0009BE06DE040E00E94A13B8CEE9BE06EE143
:1053C00074E08DC08CEE9BE06DE040E00E94A13B5C
:1053D0008CEE9BE066E274E00E94D24B8CEE9BE088
:1053E0006EE043E00E94A13B8CEE9BE06EE274E035
:1053F0000E94D24B31E0C32ED12CE12CF12CC10103
:10540000AA2797FDA095BA2F8D839E83AF83B88777
:105410004AC091E0C916D104E104F10409F069C061
:105420008D809E80AF80B884A1E08A16A2E09A06A3
:10543000A0E0AA06A0E0BA0654F029813A814B8187
:105440005C81821A930AA40AB50A730162018CEE88
:105450009BE061E140E00E94A13B8CEE9BE0B50146
:10546000A4012AE030E00E94824B65E070E080E019
:1054700090E00E94F547C4010197E091CC0CF091B7
:10548000CD0CE80FF91F39853083F401EE0FFF1FB3
:10549000EA57F84F49855A85518340830894C11CC7
:1054A000D11CE11CF11C4C145D046E047F040CF053
:1054B000B0CF8CEE9BE06DE040E00E94A13B8CEE13
:1054C0009BE065E374E00E94D24B8CEE9BE06EE0C3
:1054D00043E00E94A13B8CEE9BE069E374E00E94F4
:1054E000D24B67CE0E94641FF0920907E092080732
:1054F000CBCD89819A81AB81BC81880E991EAA1E71
:10550000BB1E92CF2A960FB6F894DEBF0FBECDBF5A
:10551000CF91DF911F910F91FF90EF90DF90CF908F
:10552000BF90AF909F908F907F906F905F904F90C3
:105530003F902F9008952F923F924F925F926F92DB
:105540007F928F929F92AF92BF92CF92DF92EF9213
:10555000FF920F931F93CF93DF9313E1A0908C0BD7
:10556000B0908D0B8CEE9BE00E94F83B8CEE9BE0A4
:1055700060E040E00E94A13B8CEE9BE060E474E0C0
:105580000E94D24B8DE060E0A50120E032E001E016
:105590000E940F0AA501425F5F4F81E160E020E0B9
:1055A00032E00E940F0A8CEE9BE067E040E00E9430
:1055B000A13B60918E0B662339F48CEE9BE06CE886
:1055C00073E00E94D24B06C08CEE9BE04AE050E0B4
:1055D0000E94714BC5010E94130CEBE9FBE01082A5
:1055E00011821282138234968BE0EB3EF807B9F7F2
:1055F00095E090939C0BEAE0E0939D0BFFE0F09325
:105600009E0B81E08093AB0B86E08093AC0B9BE01C
:105610009093AD0BE0E1E093AE0BF2E0F093BB0BA7
:1056200087E08093BC0B8CE08093BD0B81E180937D
:10563000BE0B93E09093CB0BE8E0E093CC0B8DE0B6
:105640008093CD0BF2E1F093CE0B84E08093DB0BE3
:1056500099E09093DC0BEEE0E093DD0B1093DE0B12
:1056600083E090E0909309078093080781E06A2D1A
:105670000E946F0E8CEE9BE060E140E00E94A13B37
:105680008CEE9BE06CE873E00E94D24BE09108073F
:10569000F09109073197E331F10540F7EC57FF4FDF
:1056A000EE0FFF1F0590F491E02D19940E94641FE6
:1056B00055CF81E090E062EF71E04DE020E001E045
:1056C00075010E943405EC0191E0C33FD9070CF449
:1056D0005E01E1E0C33FDE0741F56501EE24D7FC42
:1056E000E094FE2C81E090E062EF71E04DE020E07C
:1056F00001E00E94E50CEC01F1E0833F9F076CF4B0
:105700000E94130CAE01425F5F4F81E160E020E038
:1057100032E00E940F0A5E01E0CF8DE060E0A5015B
:1057200022EF31E001E00E940F0AC45FD14009F08E
:105730007CC08DE060E0A50120E032E001E00E9445
:105740000F0AF501EE0FFF1FEA57F84F81E061E005
:1057500069C0F5013E968FE090E060E072E041E1C3
:1057600020E001E07F010E943405EC0192E0C130AD
:10577000D9073CF442EFA42E4FEFB42EAC0EBD1E61
:1057800054C0E2E0C130DE07A1F58EE090E0A80E43
:10579000B91E6501EE24D7FCE094FE2CE2EFFFEF8A
:1057A000AE0EBF1E8FE090E060E072E041E120E0CD
:1057B00001E00E94E50CEC01F2E081309F078CF4DF
:1057C00032EFA32E3FEFB32EA80EB91EC5010E94E3
:1057D000130C8DE060E0A50120E032E00E940F0A8A
:1057E000D4CF81E160E0A50120E032E001E00E9439
:1057F0000F0AC250D240C9F42EE0E22EF12CEA0C7E
:10580000FB1C81E160E0A70120E032E001E00E94A2
:105810000F0AEE0CFF1CE6E8F7E0EE0EFF1E81E13A
:1058200063E0F70140810E94920BC5010E94130CB6
:10583000A501425F5F4F81E160E020E032E001E0DE
:105840000E940F0A69C04501880C991C86E897E000
:10585000880E991EF401E080F18080E090E06FEF07
:1058600070E041E021E001E00E943405EC018F3F4F
:10587000910509F08CF40894A108B108E091CC0CD2
:10588000F091CD0CEA0DFB1D0894A11CB11C808386
:10589000F4019183808340C0F1E080309F0779F567
:1058A00034012501089441085108F301C080D180DA
:1058B000EE24D7FCE094FE2C80E090E06FEF70E0E7
:1058C00041E021E001E00E94E50CEC018F3F9105F1
:1058D00009F05CF4E091CC0CF091CD0CE40DF51DD9
:1058E0008083F30191838083E0CFF4014081518173
:1058F00081E061E02FEF30E001E00E940F0AC1502B
:10590000D14051F4F501EE0FFF1FEA57F84F81E047
:1059100061E040810E94920BB0928D0BA0928C0BA3
:10592000A5CE25010894411C511C4201880C991CEC
:1059300086E897E0880E991EF401E080F18080E00F
:1059400090E06FEF70E045E021E001E00E94340557
:10595000EC018F3F910509F03CF4E091CC0CF09103
:10596000CD0CEA0DFB1D52C5F1E080309F0759F5C3
:105970003401F301C080D180EE24D7FCE094FE2CEA
:1059800080E090E06FEF70E045E021E001E00E94F0
:10599000E50CEC018F3F910509F05CF4E091CC0C33
:1059A000F091CD0CEA0DFB1D8083F3019183808380
:1059B000E0CFF4014081518185E061E02FEF30E0DC
:1059C00001E00E940F0AC150D14009F065C5F20103
:1059D000EE0FFF1FEA57F84F85E039C172E0472EFE
:1059E000512C4A0C5B1C4201880C991C86E897E0FC
:1059F000880E991EF401E080F18080E090E06FEF66
:105A000070E049E021E001E00E943405EC018F3FA5
:105A1000910509F06CF40894A11CB11CE091CC0C28
:105A2000F091CD0CEA0DFB1D0894A108B108EEC45D
:105A3000F1E080309F0779F5340115010894211CAD
:105A4000311CF301C080D180EE24D7FCE094FE2C01
:105A500080E090E06FEF70E049E021E001E00E941B
:105A6000E50CEC018F3F910509F05CF4E091CC0C62
:105A7000F091CD0CE20DF31D8083F30191838083BF
:105A8000E0CFF4014081518189E061E02FEF30E007
:105A900001E00E940F0AC150D14009F0FDC4F2019B
:105AA000EE0FFF1FEA57F84F89E0D1C043E0442EC4
:105AB000512C4A0C5B1C4201880C991C86E897E02B
:105AC000880E991EF401E080F18080E090E06FEF95
:105AD00070E04DE021E001E00E943405EC018F3FD1
