:1000000004C100002FC100002DC100002BC1000061
:1000100029C1000027C1000025C1000023C1000044
:1000200021C100001FC100001DC100001BC1000054
:1000300019C1000017C1000015C1000013C1000064
:1000400011C100000FC100000DC100000BC1000074
:1000500009C1000007C1000005C100000C94DF1FAA
:1000600001C100000C94D71CFDC000000C94771D4A
:10007000F9C00000F7C00000F5C00000F3C00000A8
:10008000F1C00000EFC00000EDC00000EBC00000B8
:10009000E9C00000E7C00000E5C000000C940D1BA3
:1000A000E1C00000DFC00000DDC00000DBC00000D8
:1000B000D9C00000D7C00000D5C00000D3C00000E8
:1000C000D1C00000CFC00000CDC00000CBC00000F8
:1000D000C9C00000C7C00000C5C00000C3C0000008
:1000E000C1C0000000002100240027002A002D00CC
:1000F0003000330001010000040107010A01000083
:100100002200250028002B002E00310034000201BF
:100110000000050108010B0100002000230026005B
:1001200029002C002F00320000010000030106010D
:10013000090105050505070508080808020202026D
:100140000A0A080804040404010101010101010173
:100150000303030303030303040707070C0C0C0C3E
:100160000C0C0C0C02020202060606060606060627
:100170000B0B0B0B0B0B0B0B0102102020080810B4
:100180002040102040800201020108040201010207
:1001900004081020408080402010080402018004E0
:1001A000020180402010080402010804020101023B
:1001B0000408102040800102040810204080000044
:1001C000090A02080B0C0D070603040100000000D9
:1001D000000000000000000000000000000000001F
:1001E0000000000000000000000011100F000000DF
:1001F00000000000000000000000000000000000FF
:10020000000000003A017C1AEF1D11241FBECFEF41
:10021000D1E2DEBFCDBF00E00CBF14E0A0E0B2E051
:10022000E4E5F9E400E00BBF02C007900D92AA39A3
:10023000B107D9F71BBE1AE0AAE9B4E001C01D92CC
:10024000A330B107E1F712E0CAE0D2E004C0229780
:10025000FE010E94A424C430D107C9F70E941323D1
:100260000C94A824CDCEDC0101C06D9341505040C8
:10027000E0F70895CF92EF920F9386EF98E06091A8
:100280004A0440914C0420914E0400915004E090A7
:100290005204C09054040E94101A0F91EF90CF9016
:1002A00008953F924F925F926F927F928F929F92AA
:1002B000AF92BF92CF92DF92EF92FF920F931F9374
:1002C00081E18093430455245394B4E04B2EA7E07E
:1002D0003A2EFFE09F2EE2E08E2E75E0772E68E04A
:1002E000662E53E0C52E46E0B42E39E0A32E1EE064
:1002F0000AE02BE0F22E9CE0E92E8DE0D82EBAC168
:100300008091330460E00E94B12280913B040E94FE
:10031000E322892B61F4509243046091440470916C
:10032000450480914604909147040E94272065E08F
:1003300070E080E090E00E94272080913D040E94C0
:10034000E322892B61F4409243046091440470914C
:10035000450480914604909147040E94272065E05F
:1003600070E080E090E00E94272080913F040E948E
:10037000E322892B61F4309243046091440470912C
:10038000450480914604909147040E94272065E02F
:1003900070E080E090E00E942720809141040E945C
:1003A000E322892B61F4909243046091440470919C
:1003B000450480914604909147040E94272065E0FF
:1003C00070E080E090E00E9427208091330461E09B
:1003D0000E94B1228091350460E00E94B122809198
:1003E0003B040E94E322892B61F4809243046091D4
:1003F00044047091450480914604909147040E9402
:10040000272065E070E080E090E00E942720809146
:100410003D040E94E322892B61F4709243046091B1
:1004200044047091450480914604909147040E94D1
:10043000272065E070E080E090E00E942720809116
:100440003F040E94E322892B61F46092430460918F
:1004500044047091450480914604909147040E94A1
:10046000272065E070E080E090E00E9427208091E6
:1004700041040E94E322892B61F4109243046091AD
:1004800044047091450480914604909147040E9471
:10049000272065E070E080E090E00E9427208091B6
:1004A000350461E00E94B1228091370460E00E942F
:1004B000B12280913B040E94E322892B61F4C09217
:1004C00043046091440470914504809146049091E6
:1004D00047040E94272065E070E080E090E00E94E1
:1004E000272080913D040E94E322892B61F4B09281
:1004F00043046091440470914504809146049091B6
:1005000047040E94272065E070E080E090E00E94B0
:10051000272080913F040E94E322892B61F4A0925E
:100520004304609144047091450480914604909185
:1005300047040E94272065E070E080E090E00E9480
:100540002720809141040E94E322892B61F41093BB
:100550004304609144047091450480914604909155
:1005600047040E94272065E070E080E090E00E9450
:1005700027208091370461E00E94B12280913904E4
:1005800060E00E94B12280913B040E94E322892B0B
:1005900061F4009343046091440470914504809198
:1005A0004604909147040E94272065E070E080E0B7
:1005B00090E00E94272080913D040E94E322892B35
:1005C00061F4F09243046091440470914504809179
:1005D0004604909147040E94272065E070E080E087
:1005E00090E00E94272080913F040E94E322892B03
:1005F00061F4E09243046091440470914504809159
:100600004604909147040E94272065E070E080E056
:1006100090E00E942720809141040E94E322892BD0
:1006200061F4D09243046091440470914504809138
:100630004604909147040E94272065E070E080E026
:1006400090E00E9427208091390461E00E94B1224D
:10065000809131040E94E322892B61F410934304BA
:100660006091440470914504809146049091470440
:100670000E94272080914304813109F441CE1F91CB
:100680000F91FF90EF90DF90CF90BF90AF909F9031
:100690008F907F906F905F904F903F9008950F9351
:1006A0001F93CF93DF93EC01162F042F86EF98E072
:1006B0000E942F1886EF98E060E072E00E943824D4
:1006C000CA30D1053CF4612F6E5F86EF98E0402F71
:1006D0000E942F18CE010A978A35910538F4612FB0
:1006E0006F5F86EF98E0402F0E942F18C436D10527
:1006F00034F086EF98E0612F402F0E942F1886EF8C
:1007000098E0BE014AE050E00E942624DF91CF919C
:100710001F910F910895DF92EF92FF920F931F9315
:10072000CF93DF93D82E062F682F615086EF98E085
:10073000402F0E942F1886EF98E064E072E00E943C
:1007400038248091370460E00E94B12286EF98E05F
:100750000E941918EE24FF241EC08C2F912F6D2D9E
:1007600070E0402F50E09BDF809127049091280497
:100770000197E091D009F091D109E80FF91FC083EA
:10078000E0912704F0912804EE0FFF1FE656FB4F7F
:10079000C08311837E01809141040E94E32201976E
:1007A000D9F4809131040E94E3220197A9F4809149
:1007B00048040E94EC2064E070E00E945924172F46
:1007C000C62FD72F62E370E080E090E00E942720E0
:1007D000EC16FD0601F3C1CF86EF98E00E942118C8
:1007E0008091370461E00E94B1226CE271E080E008
:1007F00090E00E942720DF91CF911F910F91FF90F1
:10080000EF90DF9008951F938091390460E00E947B
:10081000B1221FEF3EC080912704909128040197D8
:10082000E091D009F091D109E80FF91F1083609190
:10083000F20870E0625070404091F3088FEF90E052
:1008400050E02DDF64E670E080E090E00E94272019
:1008500080912704909128040197E091D009F091AC
:10086000D109E80FF91F10826091F208625086EFFB
:1008700098E04091F3080E942F1886EF98E066E018
:1008800072E00E94382464E670E080E090E00E940C
:10089000272080913F040E94E322019709F4BBCFF7
:1008A0008091390461E00E94B12286EF98E0609166
:1008B000F2084091F3080E942F181F910895CF92DB
:1008C000DF92EF92FF920F931F938C016DE070E027
:1008D00040E050E0E4DE7EE0C72ED12CC00ED11EF9
:1008E000C60161E170E040E050E0D9DE6AE9E62E41
:1008F00064E0F62EF801EE0FFF1FEE0DFF1D808164
:10090000918161E070E041E050E0C9DEF80131968C
:10091000EE0FFF1FEE0DFF1D8081918165E070E0FD
:1009200041E050E0BCDEF8013296EE0FFF1FEE0D05
:10093000FF1D8081918169E070E041E050E0AFDE11
:10094000F8013396EE0FFF1FEE0DFF1D80819181A0
:100950006DE070E041E050E0A2DEF8013496EE0F69
:10096000FF1FEE0DFF1D8081918161E170E041E08C
:1009700050E095DEF8013596EE0FFF1FEE0DFF1DDE
:100980008081918161E070E042E050E088DEF80112
:100990003696EE0FFF1FEE0DFF1D8081918165E001
:1009A00070E042E050E07BDEF8013796EE0FFF1F6B
:1009B000EE0DFF1D8081918169E070E042E050E022
:1009C0006EDEF8013896EE0FFF1FEE0DFF1D8081E1
:1009D00091816DE070E042E050E061DEF80139960F
:1009E000EE0FFF1FEE0DFF1D8081918161E170E030
:1009F00042E050E054DEF8013A96EE0FFF1FEE0D94
:100A0000FF1D8081918161E070E043E050E047DEAE
:100A1000F8013B96EE0FFF1FEE0DFF1D80819181C7
:100A200065E070E043E050E03ADE045F1F4FF801FC
:100A3000EE0FFF1FEE0DFF1D8081918169E070E0D8
:100A400043E050E02CDE0F5F1F4F000F111F0E0D13
:100A50001F1DF801808191816DE070E043E050E05E
:100A60001EDECC0CDD1CEC0CFD1CF701808191819D
:100A700061E170E043E050E012DE1F910F91FF90C2
:100A8000EF90DF90CF900895FF920F931F93CF9335
:100A9000DF93F82E86EF98E06091F2084091F3081A
:100AA0000E942F1886EF98E06AE072E00E943824D6
:100AB00086EF98E00E9419186091F2086E5F6093CB
:100AC000F20886EF98E04091F3080E942F18E9DBC6
:100AD000609143046A3018F000E010E016C086EF21
:100AE00098E04AE050E00E94D72386EF98E06091BA
:100AF000F2084091F3080E942F1880914304082FB8
:100B000010E01093F5080093F408809143048E30B0
:100B100009F4D8C091E0F91691F48A3009F470C054
:100B20008B3009F476C08C3009F47AC08D3039F4FA
:100B300088EC92E09093F5088093F408DFC0B1DB75
:100B4000809143048E3029F41093F5080093F40843
:100B5000B9C091E0F91659F48A3009F451C08B30CC
:100B600009F457C08C3009F45BC08D3009F38A302A
:100B700018F0C0E0D0E029C06091F20861506093A5
:100B8000F20886EF98E04091F3080E942F1886EF54
:100B900098E0B8014AE050E00E94262486EF98E0F1
:100BA000609143044AE050E00E94D72380914304BF
:100BB000C82FD0E06091F2086F5F6093F20886EF73
:100BC00098E04091F3080E942F186BDB809143045A
:100BD0008E3089F4C801B3E0880F991FBA95E1F708
:100BE000000F111F800F911FC80FD91FD093F50858
:100BF000C093F40867C091E0F916C1F48A3039F463
:100C00008FEF90E09093F5088093F4085BC08B30F1
:100C100029F41092F5081092F40854C08C3019F49D
:100C200084E692E087CF8D3009F482CF8A3008F0D5
:100C300049C06091F20862506093F20886EF98E034
:100C40004091F3080E942F1886EF98E0B8014AE01F
:100C500050E00E94262486EF98E0BE014AE050E072
:100C60000E9426246091F2086E5F6093F20886EF7E
:100C700098E04091F3080E942F1886EF98E0609169
:100C800043044AE050E00E94D72384E690E0089FA6
:100C90009001099F300D189F300D1124809143045D
:100CA000280F311DCE01F3E0880F991FFA95E1F767
:100CB000CC0FDD1F8C0F9D1F280F391F3093F508B7
:100CC0002093F40886EF98E00E9421186091F208C2
:100CD00070E0625070404091F3088091F408909168
:100CE000F50850E0DCDC6091F20864506093F20893
:100CF00086EF98E04091F3080E942F1886EF98E065
:100D00000E94211886EF98E06091F2084091F30864
:100D10000E942F186CE271E080E090E00E94272092
:100D2000DF91CF911F910F91FF9008950F931F9323
:100D3000CF93DF9386EF98E00E94571886EF98E0F4
:100D400061E141E00E942F180AE914E0C0E0D0E020
:100D5000F801119211928F01E091D009F091D1091F
:100D6000EC0FFD1F108286EF98E0BE0142E050E0DC
:100D70000E9426242196F2E0C130DF0749F786EF72
:100D800098E00E94571886EF98E063E041E00E94E7
:100D90002F1886EF98E06EE072E00E94382468EE2B
:100DA00073E080E090E00E942720DF91CF911F91B7
:100DB0000F910895CF93DF9386EF98E00E94571824
:100DC00086EF98E00E94211886EF98E060E040E00E
:100DD0000E942F18C0E0D0E086EF98E0BE0142E00C
:100DE00050E00E942624219682E0C130D807A1F766
:100DF00086EF98E00E94571886EF98E060E043E0A5
:100E00000E942F1886EF98E06EE172E00E9438246D
:100E100086EF98E063E040E00E942F1886EF98E0AC
:100E200063E372E00E94382486EF98E061E041E0DD
:100E30000E942F1886EF98E063E472E00E94382445
:100E400086EF98E060E042E00E942F1886EF98E07D
:100E500067E572E00E94382486EF98E060E04AE09F
:100E600050E00E94D72386EF98E06EE572E00E9482
:100E7000382486EF98E065E04AE050E00E94D723EE
:100E800086EF98E06BE042E00E942F1886EF98E032
:100E900060E672E00E94382486EF98E060E04AE065
:100EA00050E00E94D72386EF98E06EE572E00E9442
:100EB000382486EF98E060E04AE050E00E94D723B3
:100EC00060ED77E080E090E00E942720DF91CF91F5
:100ED00008950F931F93CF93DF9386EF98E00E94BE
:100EE000571886EF98E061E141E00E942F180CE965
:100EF00014E0C1E0D0E08DEC99E0BE010E94A21C9C
:100F0000F801808311822197E091D009F091D109F5
:100F1000EC0FFD1F2196808386EF98E0BE0142E032
:100F200050E00E94262421960E5F1F4FF2E0C13050
:100F3000DF0709F786EF98E00E94571886EF98E0E0
:100F400063E041E00E942F1886EF98E067E672E0C8
:100F50000E94382468EE73E080E090E00E94272031
:100F6000DF91CF911F910F9108958DEC99E061E091
:100F700072E00E94A21C682F80910D09882361F401
:100F80006623D1F4809156046FE770E00E9420211F
:100F900081E080930D090AC0813041F480915604AC
:100FA00060E070E00E94202110920D096CE271E077
:100FB00080E090E00C9427208091560470E0E6CF0A
:100FC0002F923F924F925F926F927F928F929F9259
:100FD000AF92BF92CF92DF92EF92FF920F931F9347
:100FE000DF93CF93CDB7DEB763970FB6F894DEBF2C
:100FF0000FBECDBF89837B8B6A8B0091A0081091B7
:10100000A10886EF98E0602F412F0E942F1886EFED
:1010100098E066E772E00E9438248A899B890D96E1
:101020009B838A83EA89FB893896FD83EC838A89CE
:101030009B8903969F838E83EA89FB893E96F98775
:10104000E8878A899B8909969B878A87EA89FB8931
:101050003496FD87EC876AE0262E312C8A899B899D
:10106000280E391E0B969F878E87EA89FB893C964E
:10107000F98BE88B57E0852E912C8A899B89880E05
:10108000991E46E0642E712C680E791E35E0432EC1
:10109000512C480E591E6C010894C11CD11C22E031
:1010A000A22EB12CA80EB91E84E1E82EF12C80915D
:1010B000330460E00E94B122809141040E94E32247
:1010C000892B59F460914404709145048091460441
:1010D000909147040E94272048DF8091330461E00B
:1010E0000E94B12280912D040E94E322892BF9F401
:1010F0006CE271E080E090E00E9427202091A0083F
:101100008091A10890E08E9DA0018F9D500D9E9D25
:10111000500D1124222309F424E12150FA01E20F99
:10112000F11DEE55F74F80818130A1F724C08091E9
:101130002F040E94E322892B09F56CE271E080E024
:1011400090E00E9427202091A0088091A10890E0C3
:101150008E9DA0018F9D500D9E9D500D11242F5FDF
:10116000243108F020E0FA01E20FF11DEE55F74FAF
:1011700080818130A1F72093A0084EC180912B047B
:101180000E94E322892B09F56CE271E080E090E097
:101190000E9427202091A1088091A008482F50E0AC
:1011A0002F5F243008F020E0822F90E08E9DF00128
:1011B0008F9DF00D9E9DF00D1124E40FF51FEE554F
:1011C000F74F8081813061F726C0809129040E9409
:1011D000E322892B19F56CE271E080E090E00E9437
:1011E00027202091A1088091A008482F50E02223B9
:1011F00009F424E02150822F90E08E9DF0018F9D14
:10120000F00D9E9DF00D1124E40FF51FEE55F74FE4
:101210008081813061F72093A108FEC08091310464
:101220000E94E322892B09F042CF6CE271E080E05A
:1012300090E00E9427204091A1086091A008842F8F
:1012400090E08E9DF0018F9DF00D9E9DF00D11247C
:10125000E60FF11DEE55F74F8081813009F0FAC09D
:1012600086EF98E00E942F1886EF98E068E772E01A
:101270000E94382482E0C8C09091A0089C3031F4CC
:101280008091A108882309F048C01FC0903181F4E3
:101290008091A108882309F049C086EF98E061E0B9
:1012A00040E00E942F1886EF98E06AE772E0A9C03C
:1012B000943029F48091A1088823F9F406C098306D
:1012C00089F48091A108882301F586EF98E061E018
:1012D00040E00E942F1886EF98E06AE772E00E94D3
:1012E000382485C0992339F48091A108813039F5DB
:1012F0008A899B8977C0943031F48091A10881302C
:10130000E1F4C6016FC0983031F48091A1088130BA
:10131000E1F4C50167C09C3039F48091A1088130A7
:1013200031F58E819F815EC0903139F48091A108A2
:10133000813031F58C859D8555C0992331F480919C
:10134000A108823031F5C2014DC0943031F4809152
:10135000A108823031F5C30145C0983031F4809145
:10136000A108823039F5C4013DC09C3039F4809128
:10137000A108823041F58C819D8134C0903139F4CF
:101380008091A108823041F58A859B852BC09923E5
:1013900031F48091A108833051F5C10123C094300C
:1013A00039F48091A108833011F58E859F851AC08C
:1013B000983039F48091A1088330C9F488899989DB
:1013C00011C09C3039F48091A108833081F48A8166
:1013D0009B8108C0903159F48091A108833039F481
:1013E0008885998561E070E040E050E058D986EF4B
:1013F00098E060E140E00E942F1886EF98E06EE7E9
:1014000072E00E94382481E00091A0081091A108A8
:10141000823009F04CCE1FC086EF98E0602F412F3C
:101420000E942F1886EF98E060E872E00E9438244E
:1014300086EF98E06091A0084091A1080E942F18C3
:1014400086EF98E066E772E00E9438249981913037
:10145000D1F612CFFFCF63960FB6F894DEBF0FBE62
:10146000CDBFCF91DF911F910F91FF90EF90DF9053
:10147000CF90BF90AF909F908F907F906F905F9034
:101480004F903F902F9008958DEC99E062E072E0CC
:101490000E94A21C682F8091580470E00C942021B7
:1014A0001F938DEC99E061E072E00E94A21C182F5E
:1014B00080915604612F70E00E942021112319F4BD
:1014C00010920D0903C081E080930D091F910895CA
:1014D0000F931F93CF93DF9386EF98E00E945718E6
:1014E00086EF98E061E141E00E942F180AE914E0DC
:1014F000C0E0D0E0F801119211928F01E091D00983
:10150000F091D109EC0FFD1F10828DEC99E0BE0126
:1015100040E00E94A91C86EF98E0BE0142E050E046
:101520000E9426242196F2E0C130DF0719F786EFEA
:1015300098E00E94571886EF98E063E041E00E942F
:101540002F1886EF98E062E872E00E94382468EE77
:1015500073E080E090E00E942720DF91CF911F91FF
:101560000F9108950F931F93CF93DF9386EF98E029
:101570000E94571886EF98E061E141E00E942F1821
:101580000CE914E0C1E0D0E08DEC99E0BE01F80177
:1015900040810E94A91C86EF98E0BE0142E050E025
:1015A0000E94262421960E5F1F4FF2E0C130DF0714
:1015B00059F786EF98E00E94571886EF98E063E0AD
:1015C00041E00E942F1886EF98E062E972E00E94E5
:1015D000382468EE73E080E090E00E942720DF91DD
:1015E000CF911F910F91089586EF98E00E945718B0
:1015F00086EF98E060E040E00E942F1886EF98E0C8
:1016000060EA72E00E94382486EF98E061E042E0F0
:101610000E942F1886EF98E060EB72E00E94382459
:1016200086EF98E061E043E00E942F1886EF98E093
:1016300065EB72E00E94382486EF98E067E042E0B4
:101640000E942F1886EF98E06AEB72E00E9438241F
:1016500086EF98E067E043E00E942F1886EF98E05D
:1016600060EC72E00E94382486EF98E06EE043E080
:101670000E942F1886EF98E066EC72E00E943824F2
:101680001092A00882E08093A108E2EAF8E0DF016E
:1016900098961082148A1C9254961C9254973196F4
:1016A000119688E0E63BF807A1F781E0848B80A7DC
:1016B00086A7828F85AB80E060E070E081DC80915E
:1016C000A008882329F48091A108833009F401DC63
:1016D0008091A008863029F48091A108833009F414
:1016E000F7DE8091A008882329F48091A108823038
:1016F00009F438DF8091A008863029F48091A10890
:10170000823009F413CB0895CF92DF92EF92FF92CB
:101710000F931F93CF93DF93FEE0CF2EEFE0DE2EEB
:10172000CFEFD0E076E9E72EF12C8DEC99E061E087
:1017300072E00E94A21C182F8DEC99E062E072E02A
:101740000E94A21C082F86EF98E00E94571886EF8F
:1017500098E060E040E00E942F1886EF98E06DEC82
:1017600072E00E94382486EF98E06FE040E00E942B
:101770002F1886EF98E069ED72E00E94382486EF1A
:1017800098E063E041E00E942F1886EF98E06FED4B
:1017900072E00E943824812F90E06FE070E041E019
:1017A00050E00E944F0386EF98E065E042E00E941F
:1017B0002F1886EF98E06BEE72E00E943824802F9D
:1017C00090E06FE070E042E050E00E944F0386EF4F
:1017D00098E06FE043E00E942F1886EF98E065EFF5
:1017E00072E00E943824C092A00882E08093A10891
:1017F000E2EAF8E0DF0198961082148A1C9254966F
:101800001C9254973196119628E0E63BF207A1F717
:1018100081E0868782A386AB8093B00880E060E099
:1018200070E0CEDB8091A0088E30C1F78091A108D6
:10183000813009F080C08093F308D092F20824D957
:101840008091F4089091F50822E0883C920709F015
:1018500045C086EF98E06EE041E00E942F1886EFC9
:1018600098E064E072E00E9438248091370460E0E0
:101870000E94B12286EF98E00E94191880914104DD
:101880000E94E322019709F0FAC0809131040E947E
:10189000E322019709F0F3C0809148040E94EC20F4
:1018A00064E070E00E945924CB016093F4089093A7
:1018B000F5086FE070E041E050E00E944F03609156
:1018C000F4087091F508809156040E94202162E38B
:1018D00070E080E090E00E942720D0CF8F3F9105FC
:1018E00069F064F0D093F508C093F4088FEF90E0AE
:1018F0006FE070E041E050E00E944F036091F40817
:101900007091F508809156040E9420214091F408BE
:101910005091F5084115510519F410920D0906C0B2
:10192000141615061CF481E080930D098DEC99E0E6
:1019300061E072E08CC0823009F08CC08093F308C3
:10194000D092F20881E0A0D88091F4089091F50837
:1019500022E0883C920709F049C086EF98E06EE0EB
:1019600042E00E942F1886EF98E064E072E00E9447
:1019700038248091370460E00E94B12286EF98E01D
:101980000E94191814C06FE070E042E050E00E941D
:101990004F036091F4087091F508809158040E94FB
:1019A000202162E370E080E090E00E942720809197
:1019B00041040E94E322019709F071C08091310433
:1019C0000E94E322019709F06AC0809148040E94B6
:1019D000EC2064E070E00E945924CB017093F5087C
:1019E0006093F40866397105E4F2CDCF8F3F91051D
:1019F00069F064F0D093F508C093F4088FEF90E09D
:101A00006FE070E042E050E00E944F038091F408E4
:101A10009091F5088639910564F4F092F508E0920A
:101A2000F40886E990E06FE070E042E050E00E9448
:101A30004F036091F4087091F508809158040E945A
:101A400020218DEC99E062E072E04091F4080E9460
:101A5000A91CE4CE833011F432D0E0CE882309F003
:101A6000DDCEA8D9809131040E94E3220197D1F301
:101A70006CE271E080E090E00E94272056CE86EF75
:101A800098E00E9421188091370461E00E94B12201
:101A90006CE271E080E090E00E94272037CF86EF73
:101AA00098E00E9421188091370461E00E94B122E1
:101AB0006CE271E080E090E00E942720C2CF86EFC8
:101AC00098E00E94571886EF98E060E040E00E949E
:101AD0002F1886EF98E06AEF72E00E94382486EFB4
:101AE00098E062E042E00E942F1886EF98E06BE0F9
:101AF00073E00E94382486EF98E062E043E00E94A1
:101B00002F1886EF98E063E173E00E94382486EF97
:101B100098E06CE042E00E942F1886EF98E06AE1BE
:101B200073E00E94382486EF98E06CE043E00E9466
:101B30002F1886EF98E061E273E00E94382486EF68
:101B400098E06CE041E00E942F1886EF98E06AE28E
:101B500073E00E94382486EF98E062E041E00E9442
:101B60002F1886EF98E061E373E00E94382481E04B
:101B70008093A00882E08093A108E2EAF8E0DF0108
:101B800098961082148A1C9254961C9254973196FF
:101B9000119688E0E63BF807A1F781E0858B81A7E5
:101BA000878F83AB8387818380E060E070E008DA11
:101BB0008091A008813029F48091A108823009F435
:101BC0006AD28091A008813029F48091A1088330E5
:101BD00009F426D08091A0088B3029F48091A108C7
:101BE000823009F4A2D38091A0088B3029F480912F
:101BF000A108833009F498D58091A0088B3029F48E
:101C00008091A108813009F47FDD8091A0088130A6
:101C100031F48091A108813011F4E6DC50CF0895B1
:101C20002F923F924F925F926F927F928F929F92EC
:101C3000AF92BF92CF92DF92EF92FF920F931F93DA
:101C4000DF93CF93CDB7DEB760970FB6F894DEBFC2
:101C50000FBECDBF81E090E09093280480932704CD
:101C6000988B8F870CE011E004C021E030E0388BC6
:101C70002F8786EF98E00E94571886EF98E060E083
:101C800040E00E942F1886EF98E068E373E00E941E
:101C900038248F8598890E945F040093A0081092D1
:101CA000A108E2EAF8E0DF0198961082148A1C92FB
:101CB00054961C9254973196119638E0E63BF30700
:101CC000A1F71093A6081093AA081093AE081093DA
:101CD000B2081083148310871487108B148B108F15
:101CE000148F10A314A310A714A710AB14AB10AF3C
:101CF0008F8598890C969A838983EF85F889379622
:101D0000FC83EB832F8538892E5F3F4F3E832D83E5
:101D10008F8598890D9698878F83EF85F8893896F7
:101D2000FA87E9872F8538892D5F3F4F3C872B87BE
:101D30008F8598890E969E878D8759E0252E312CA8
:101D4000EF85F8892E0E3F1E44E0442E512C4E0E96
:101D50005F1E3AE0632E712C6E0E7F1E25E0822EF0
:101D6000912C8E0E9F1E5F010894A11CB11C96E061
:101D7000C92ED12CCE0EDF1E8BE0E82EF12CEE0EFC
:101D8000FF1E81E06F8578891BD99091A00894305F
:101D900039F48091A108882309F080C025DC69CF3F
:101DA000983039F48091A108882309F082C087DE39
:101DB00060CF9C3081F58091A108882309F082C012
:101DC0001092F308FDE0F093F2082F8538893093E4
:101DD000F5082093F4080E9444058091F40890913E
:101DE000F508835F914034F082EF91E09093F5081D
:101DF0008093F4088091F4089091F508892B31F4D0
:101E0000E1E0F0E0F093F508E093F4082091F408A5
:101E10003091F5082CCF9031B1F58091A10888233D
:101E200009F05DC01092F30831E13093F2088F851C
:101E30009889019739F4EFE0F0E0F093F508E0932A
:101E4000F40808C02F8538892E5030403093F508AB
:101E50002093F40880E00E9444056091F40870919A
:101E6000F50832E0613073072CF082EF91E0988B37
:101E70008F87FFCE6F3071050CF4F7CEFB013E97D4
:101E8000F88BEF87F6CE992339F48091A108813041
:101E900089F52F8538891CC0943049F48091A108B8
:101EA000813099F5B0922804A092270488C0983018
:101EB00039F48091A108813099F5ED81FE817BC0D4
:101EC0009C3059F48091A108813099F52B853C858F
:101ED000309328042093270472C0903149F48091F4
:101EE000A108813079F5509228044092270467C0F8
:101EF000992349F48091A108823079F590922804C1
:101F0000809227045CC0943049F48091A10882300B
:101F100079F5D0922804C092270451C0983039F442
:101F20008091A108823079F5EB81FC8144C09C301E
:101F300039F48091A108823079F529853A85C8CF96
:101F4000903149F48091A108823079F530922804CB
:101F50002092270434C0992349F48091A10883304A
:101F600071F5709228046092270429C0943049F4D6
:101F70008091A108833019F5F0922804E09227049B
:101F80001EC0983039F48091A1088330C1F4E981F2
:101F9000FA8111C09C3039F48091A108833079F422
:101FA0002F81388595CF903151F48091A1088330ED
:101FB00031F4ED85FE85F0932804E09327048091A9
:101FC000A1088093F3089F5F9093F208E0912704A3
:101FD000F0912804EE0FFF1FE656FB4F80819181A0
:101FE0009093F5088093F40881E00E944405809165
:101FF000F4089091F5088456924039F40E94030445
:102000008091F20884508093F2088091F4089091B6
:10201000F50822E0883C920769F48091F20882502A
:102020006091F3080E948B038091F20884508093A2
:10203000F208A7CE8F3F910589F084F08FEF90E0F2
:102040009093F5088093F4086091F20870E06E5F59
:102050007F4F4091F30850E00E944F038091270486
:10206000909128040197E091D009F091D109E80FEF
:10207000F91F8091F4088083E0912704F0912804EF
:10208000EE0FFF1FE656FB4F8091F4089091F50884
:102090009183808376CEAF92BF92CF92DF92EF9200
:1020A000FF920F931F93CF93DF93C1E0D0E098E0AE
:1020B000A92E01E089E0B82EE12C12E0F12EBFEF4D
:1020C000CB2ED12CD0932804C093270486EF98E020
:1020D000EED786EF98E060E040E0C1D786EF98E069
:1020E0006AE473E00E94382486EF98E06EE042E0F4
:1020F000B6D786EF98E065EF72E00E94382486EF4D
:1021000098E06EE043E0ABD786EF98E061E373E0E0
:102110000E94382486EF98E060E042E0A0D786EF86
:1021200098E06BE573E00E94382486EF98E062E067
:1021300043E095D786EF98E068E673E00E94382484
:1021400080919C0490919D0469E070E043E050E030
:102150000E944F03A092A00882E08093A108E2EAC7
:10216000F8E0DF0198961082148A1C9254961C9213
:1021700054973196119628E0E63BF207A1F7048FB9
:1021800000AB01A305AB80E060E070E00E94E007D7
:102190008091A008883009F058C01091A108123031
:1021A00009F053C0809127049091280469E070E001
:1021B00042E050E00E944F031093F308B092F208FF
:1021C00080912704909128049093F5088093F40857
:1021D00080E00E9444058091F4089091F5088150B8
:1021E000924064F0F092F508E092F40880E092E00A
:1021F00069E070E042E050E00E944F038091F408F3
:102200009091F5081816190664F0D093F508C0935C
:10221000F40881E090E069E070E042E050E00E9464
:102220004F03E091F408F091F508F0932804E0934F
:102230002704EE0FFF1FE656FB4F8081918169E076
:1022400070E043E050E00E944F038091A008883086
:1022500009F05DC08091A108833009F094CF80938C
:10226000F308B092F208E0912704F0912804EE0FF1
:10227000FF1FE656FB4F808191819093F508809374
:10228000F40881E00E9444058091F4089091F508DB
:102290008456924011F40E9403048091F4089091B6
:1022A000F50822E0883C920729F489E063E00E9467
:1022B0008B0369CF8F3F910569F064F0D092F508E8
:1022C000C092F4088FEF90E069E070E043E050E0E6
:1022D0000E944F0380912704909128040197E09178
:1022E000D009F091D109E80FF91F8091F40880839B
:1022F000E0912704F0912804EE0FFF1FE656FB4FF4
:102300008091F4089091F508918380833CCF8D30C3
:1023100009F039CF8091A108833011F465D9D2CE6C
:10232000823009F030CFCBDB2ECF2F923F924F92ED
:102330005F926F927F928F929F92AF92BF92CF9255
:10234000DF92EF92FF920F931F93DF93CF93CDB75E
:10235000DEB728970FB6F894DEBF0FBECDBF86EF6D
:1023600098E0A5D686EF98E060E040E078D686EF6A
:1023700098E06FE673E00E94382486EF98E063E00F
:1023800041E06DD686EF98E06CE773E00E94382458
:1023900086EF98E060E042E062D686EF98E06CE875
:1023A00073E00E94382486EF98E060E043E057D65F
:1023B00086EF98E060EA73E00E94382481E090E0C4
:1023C00069E070E041E050E00E944F0381E090E05E
:1023D00069E070E042E050E00E944F0380E090E04E
:1023E00069E070E043E050E00E944F0388E0809392
:1023F000A00881E08093A10821E030E040E050E0B7
:1024000029833A834B835C83E1E08E2E912CA12CAF
:10241000B12C442455243201E2EAF8E0DF01989619
:102420001082148A1C9254961C92549731961196DD
:1024300038E0E63BF307A1F741E04087448F40AB2B
:1024400042A346AB80E060E070E00E94E00780912C
:10245000A0088E3029F48091A108823009F42FDB86
:102460008091A0088E3009F0ADC08091A108833022
:1024700009F0C9C08D829E8286EF98E06FE043E04C
:10248000EED586EF98E065EB73E00E943824AAE968
:10249000B4E080E090E01D921D92E091D009F091AF
:1024A000D109E80FF91F1082019652E0813095079B
:1024B00091F78D819E819C0169011401220C331CCE
:1024C0008AE994E0280E391E5FC0AF81B885119665
:1024D000B887AF83A451B54009F05BC00894E11CF4
:1024E000F11C011D111D29813A814B815C81E2168D
:1024F000F3060407150709F04AC0C601AA2797FD8D
:10250000A095BA2F481659066A067B0624F48D81D9
:102510009E819C016901C60169E070E040E050E0E5
:102520000E944F03D101A50194010FC0C901019779
:10253000E091D009F091D109E80FF91F10821D92A6
:102540001D922F5F3F4F4F4F5F4F42165306640659
:10255000750664F70894C108D108E091D009F0919C
:10256000D109EC0DFD1D0894C11CD11C3FEF308337
:10257000F601EE0FFF1FE656FB4F4FEF50E0518381
:1025800040830894C11CD11CEE24FF2487011886C7
:102590001F82809131040E94E322019709F495CFB4
:1025A00086EF98E06FE043E05AD586EF98E06BEB5A
:1025B00073E00E9438246CE271E080E090E00E94B9
:1025C00027202ACF8830F9F48091A1088130D9F4EE
:1025D0008093F30859E05093F20889819A8190938F
:1025E000F5088093F40880E00E9444058091F40887
:1025F0009091F5089C01442737FD4095542F29837D
:102600003A834B835C838091A008883009F042C0F4
:102610008091A1088230F1F58093F30839E030937E
:10262000F2089092F5088092F40880E00E94440538
:102630008091F4089091F5084C01AA2497FCA0948D
:10264000BA2C81149104A104B10471F481E090E0EA
:1026500069E070E042E050E00E944F0351E0852EB7
:10266000912CA12CB12C16C041E0841642E09406B6
:1026700040E0A40640E0B4066CF080E092E069E03F
:1026800070E042E050E00E944F03812C42E0942E23
:10269000A12CB12C8091A008883009F0BDCE80918A
:1026A000A108833009F0B8CE8093F30859E0509325
:1026B000F2085092F5084092F40880E00E94440528
:1026C0008091F4089091F5082C01662457FC6094E1
:1026D000762C411451046104710471F481E090E09E
:1026E00069E070E043E050E00E944F0331E0432E88
:1026F000512C612C712C90CE81E0481682E0580656
:1027000080E0680680E078060CF486CE80E092E0F7
:1027100069E070E043E050E00E944F03412C22E06A
:10272000522E612C712C78CE2F923F924F925F9255
:102730006F927F928F929F92AF92BF92CF92DF92D1
:10274000EF92FF920F931F93DF93CF93CDB7DEB736
:1027500028970FB6F894DEBF0FBECDBF81E090E0A2
:1027600098878F83662477244301AA24BB246501BC
:10277000AFEFB0E0BA83A98386EF98E098D486EFF4
:1027800098E063E040E06BD486EF98E061EC73E0A2
:102790000E94382486EF98E060E041E060D486EF44
:1027A00098E067EC73E00E94382486EF98E060E0E0
:1027B00042E055D486EF98E06AED73E00E94382439
:1027C00086EF98E060E043E04AD486EF98E06FEE51
:1027D00073E00E94382489819A8169E070E040E0CA
:1027E00050E00E944F038F81988569E070E041E0DE
:1027F00050E00E944F03C30169E070E042E050E006
:102800000E944F03C50169E070E043E050E00E9480
:102810004F03B8E0B093A0081092A108E2EAF8E0F4
:10282000DF0198961082148A1C9254961C92549739
:102830003196119628E0E63BF207A1F781E0808708
:1028400080AB848F858781A385AB8093AA0880E0C5
:1028500060E070E00E94E0078091A0088D3029F4CC
:102860008091A108813009F42AD98091A0088D3087
:1028700009F092C08091A108823019F40E94F40AF4
:102880007BCF833009F0C2C0C601B501A40193011A
:102890000E943A24615072408040904054F086EF8C
:1028A00098E06DE040E0DBD386EF98E063E074E011
:1028B00070C086EF98E06DE040E0D1D386EF98E0FD
:1028C0006BE074E00E94382491E0E92EF12C012D98
:1028D000112D8F819885AA2797FDA095BA2F8B83FC
:1028E0009C83AD83BE8346C091E0E916F1040105E7
:1028F000110509F049C12B803C804D805E80A1E02C
:102900002A16A2E03A06A0E04A06A0E05A0634F0F1
:1029100026183708480859088601750186EF98E09F
:1029200061E140E09CD386EF98E0B201A1012AE08A
:1029300030E00E94E82365E070E080E090E00E94D3
:102940002720C10101972091D0093091D109280F8A
:10295000391F8981F9018083F101EE0FFF1FE656CF
:10296000FB4FA981BA81B183A0830894E11CF11CBB
:10297000011D111DAE14BF04C006D1060CF0B4CF6A
:1029800086EF98E06DE040E06AD386EF98E063E17F
:1029900074E00E94382442CF8830C1F58091A108AC
:1029A0008130A1F58093F308B9E0B093F208EF818C
:1029B000F885F093F508E093F40880E00E94440560
:1029C0008091F4089091F50898878F83892B69F49A
:1029D00081E090E069E070E041E050E00E944F0348
:1029E000A1E0B0E0B887AF8311C0EF81F885E15076
:1029F000F24064F080E092E069E070E041E050E095
:102A00000E944F0380E092E098878F838091A00816
:102A1000883009F042C08091A1088230F1F580939E
:102A2000F30899E09093F2087092F5086092F40828
:102A300080E00E9444058091F4089091F5083C01E3
:102A4000882477FC8094982C61147104810491048B
:102A500071F481E090E069E070E042E050E00E94B3
:102A60004F0311E0612E712C812C912C16C0A1E036
:102A70006A16A2E07A06A0E08A06A0E09A066CF048
:102A800080E092E069E070E042E050E00E944F0395
:102A9000612CB2E07B2E812C912C8091A008883093
:102AA00009F042C08091A1088330F1F58093F308CA
:102AB000B9E0B093F208B092F508A092F40880E073
:102AC0000E9444058091F4089091F5085C01CC24A3
:102AD000B7FCC094DC2CA114B104C104D10471F47E
:102AE00081E090E069E070E043E050E00E944F0335
:102AF000A1E0AA2EB12CC12CD12C16C0E1E0AE165B
:102B0000E2E0BE06E0E0CE06E0E0DE066CF080E04B
:102B100092E069E070E043E050E00E944F03A12C96
:102B2000F2E0BF2EC12CD12C8091A008883009F092
:102B300075CE8091A108882309F070CE1092F30819
:102B4000F9E0F093F20889819A819093F5088093D7
:102B5000F40881E00E944405A091F408B091F508C2
:102B6000BA83A983AF3FB10509F00CF457CE8FEFBC
:102B700090E069E070E040E050E00E944F03EFEF2A
:102B8000F0E0FA83E9834ACE260C371C481C591C16
:102B9000B6CE86EF98E08BD286EF98E060E040E01A
:102BA0005ED286EF98E067E174E00E94382486EFF9
:102BB00098E062E042E053D286EF98E06AEB72E080
:102BC0000E94382486EF98E069E042E048D286EF20
:102BD00098E065EB72E00E94382486EF98E06FE0A1
:102BE00042E03DD286EF98E060EC72E00E9438242B
:102BF00081E08093A00882E08093A108E2EAF8E0F7
:102C0000DF0198961082148A1C9254961C92549755
:102C10003196119688E0E63BF807A1F781E0858BB5
:102C2000848F82A380E060E070E00E94E0078091E2
:102C3000A008883041F48091A108823021F40E94DC
:102C400069070E945F0D8091A0088E3041F4809149
:102C5000A108823021F40E94680A0E945F0D8091D1
:102C6000A008813031F48091A108823011F40C94D5
:102C70005F0D089582E061E00E94B1220E94500A37
:102C80000E94440A0E94DA0684CF8091290462E0FF
:102C90000E94FE2180912B0462E00E94FE2180911F
:102CA0002D0462E00E94FE2180912F0462E00E94C8
:102CB000FE218091310462E00E94FE218091330464
:102CC00061E00E94FE218091350461E00E94FE21B6
:102CD0008091370461E00E94FE218091390461E017
:102CE0000E94FE2180913B0462E00E94FE218091BF
:102CF0003D0462E00E94FE2180913F0462E00E9458
:102D0000FE218091410462E00E94FE218091330403
:102D100061E00E94B1228091350461E00E94B122FD
:102D20008091370461E00E94B1228091390461E012
:102D30000E94B12280914A0461E00E94FE218091AC
:102D40004C0461E00E94FE218091540461E00E94E5
:102D5000FE218091520461E00E94FE218091500486
:102D600061E00E94FE2180914E0461E00E94FE21FC
:102D70008091560461E00E94FE2186EF98E064E1B4
:102D800044E020E09AD181E090E09093E6098093BE
:102D9000E50980E092E09093E2098093E1098EECEE
:102DA00099E060E033D785E061E00E94FE2185E094
:102DB00060E00E94B12286E061E00E94FE2186E090
:102DC00060E00E94B12287E061E00E94FE2187E07E
:102DD00060E00E94B12286E161E00E94FE2186E16E
:102DE00060E00E94B12287E161E00E94FE2187E15C
:102DF00060E00E94B12288E161E00E94FE2188E14A
:102E000060E00E94B12289E161E00E94FE2189E137
:102E100060E00E94B1228AE161E00E94FE218AE125
:102E200060E00E94B1228BE161E00E94FE218BE113
:102E300060E00E94B1228CE161E00E94FE218CE101
:102E400060E00E94B1228DE161E00E94FE218DE1EF
:102E500060E00E94B1228FE161E00E94FE218FE1DB
:102E600060E00E94B12281E261E00E94FE2181E2E5
:102E700060E00E94B12283E261E00E94FE2183E2D1
:102E800060E00E94B12285E261E00E94FE2185E2BD
:102E900060E00E94B12287E261E00E94FE2187E2A9
:102EA00060E00E94B12289E261E00E94FE2189E295
:102EB00060E00E94B1228BE261E00E94FE218BE281
:102EC00060E00E94B1228EE261E00E94FE218EE26B
:102ED00060E00E94B12280E361E00E94FE2180E375
:102EE00060E00E94B12282E361E00E94FE2182E361
:102EF00060E00E94B12284E361E00E94FE2184E34D
:102F000060E00E94B12286E361E00E94FE2186E338
:102F100060E00E94B12287E361E00E94FE2187E326
:102F200060E00E94B12288E361E00E94FE2188E314
:102F300060E00E94B12289E361E00E94FE2189E302
:102F400060E00E94B1228AE361E00E94FE218AE3F0
:102F500060E00E94B1228BE361E00E94FE218BE3DE
:102F600060E00E94B1228CE361E00E94FE218CE3CC
:102F700060E00E94B1228DE361E00E94FE218DE3BA
:102F800060E00E94B1228EE361E00E94FE218EE3A8
:102F900060E00E94B1228FE361E00E94FE218FE396
:102FA00060E00E94B12280E461E00E94FE2180E4A2
:102FB00060E00E94B12281E461E00E94FE2181E490
:102FC00060E00E94B12282E461E00E94FE2182E47E
:102FD00060E00E94B12283E461E00E94FE2183E46C
:102FE00060E00E94B12284E461E00E94FE2184E45A
:102FF00060E00C94B12208950895FC0113821282BE
:1030000085E694E0918380830895FC01A081B181DD
:1030100018962D913C9119976FEFF9011995089524
:10302000DC01ED91FC910284F385E02D40E01995DF
:103030000895FC016581862F816085836960CF01D9
:10304000EFCFFC0165816E7F65836860E9CFFC018D
:103050006581862F846085836C60CF01E1CFDC01C0
:1030600017969C911797491710F0492F41501896C1
:103070008C911897803139F4943029F4E42FF0E0E2
:10308000EF58FB4F04C0E42FF0E0EB58FB4F80817A
:10309000680F6068CD01C4CFDC01ED91FC91028422
:1030A000F385E02D41E0199581E090E0089561E01D
:1030B000B7DF80ED97E00C948020CF93DF93EC0195
:1030C000423018F08C8188608C834F83688722237C
:1030D00029F0413019F48C8184608C8364E670E0BF
:1030E00080E090E0B4D76C8164FD2EC0E881F98166
:1030F0000284F385E02DCE0163E042E0199584E976
:1031000091E1FED7E881F9810284F385E02DCE01BB
:1031100063E042E0199584E991E1F2D7E881F98111
:103120000284F385E02DCE0163E042E0199586E943
:1031300090E0E6D7E881F9810284F385E02DCE01A5
:1031400062E042E0199511C06062CE0169DF84E956
:1031500091E1D6D76C816062CE0162DF86E990E0B2
:10316000CFD76C816062CE015BDF6C816062CE0183
:1031700057DF84E08D83CE016ADFCE0198DF82E0E5
:103180008E83CE0166E04CDFCE013FDFDF91CF9131
:1031900008950F931F938C01FC01858561E00E94C7
:1031A000B122F801858560E00E94B1221F910F9144
:1031B0000895BF92CF92DF92EF92FF920F931F93E9
:1031C000CF93DF93D82EC92EB42E282F392FC901C3
:1031D0008C01C0E0D0E0E62EFF240DC0B7010C2E1C
:1031E00002C0759567950A94E2F76170F8018585CC
:1031F0000E94B12221960F5F1F4FCB1578F38D2DC2
:103200009C2DC7DFDF91CF911F910F91FF90EF9021
:10321000DF90CF90BF9008950F931F93CF93DF93CC
:10322000EC01162F042F60E0413009F461E08B853A
:103230000E94B1228C858F3F19F060E00E94B1227C
:10324000023089F08C8184FF04C0CE01612F48E0F8
:103250000DC0612F70E084E0759567958A95E1F760
:10326000CE0144E0A6DFCE01612F44E0A2DFDF9172
:10327000CF911F910F9108956F927F928F92AF928D
:10328000CF92EF920F931F93DF93CF93CDB7DEB71B
:103290003C01162F8E2DF301438724870587E68690
:1032A000C786A08A818A9E85928B9F85938B9889F9
:1032B000948B9989958B61E00E94FE21F3018785AB
:1032C00061E00E94FE21F301808961E00E94FE21FD
:1032D000F301818961E00E94FE211123A1F4F30131
:1032E000828961E00E94FE21F301838961E00E94EE
:1032F000FE21F301848961E00E94FE21F3018589AA
:1033000061E00E94FE21F301838561E00E94FE21BD
:10331000F30184858F3F19F061E00E94FE21F301E3
:10332000858561E00E94FE21112319F0F3011482CA
:1033300003C080E1F3018483F301838560E00E9490
:10334000B122F301858560E00E94B122F3018485FA
:103350008F3F19F060E00E94B1228FEFF301868B5E
:1033600012861186CF91DF911F910F91EF90CF9030
:10337000AF908F907F906F900895DF92EF92FF92C1
:103380000F931F938C01D62E7A01862F61E00E9445
:10339000FE21D8015696DC9256971A96FC92EE9230
:1033A0001997ED91FC910084F185E02DC80160E052
:1033B00019951F910F91FF90EF90DF900895DC0118
:1033C000362F56962C9156972F3F49F1E22FF0E079
:1033D000E254FE4FE491EE2379F019968D919C9181
:1033E0001A97892B19F4822F70E005C06FEF70E0F7
:1033F000631B7109822F24C719968D919C911A978E
:10340000662319F0892B39F402C0019721F4822F29
:1034100061E00C94B122822F60E00C94B1220895F7
:103420006F927F928F92AF92BF92CF92DF92EF9284
:10343000FF920F931F933C01162FF42ED22EB02E25
:10344000AE2C8C2CDADD8DE794E0D3018D939C9328
:1034500000D00F92EDB7FEB73196ADB7BEB711965B
:103460001C92118212821382C30161E0412F2FEF5F
:103470000F2DED2CCB2C00DF0F900F900F900F90A5
:103480001F910F91FF90EF90DF90CF90BF90AF9082
:103490008F907F906F90089520912F0930E0809158
:1034A0002E09281B3109C901089540912E098091E8
:1034B0002F09481718F02FEF3FEF0AC0E42FF0E074
:1034C000E25FF64F8081282F30E04F5F40932E0956
:1034D000C9010895E0912E0980912F09E81718F08D
:1034E000EFEFFFEF06C0F0E0E25FF64F8081E82FDC
:1034F000F0E0CF01089508951092560910925509F1
:1035000088EE93E0A0E0B0E08093570990935809CB
:10351000A0935909B0935A098DE894E09093540907
:10352000809353090895CF92DF92EF92FF920F9309
:103530001F93CF93DF937C016B018A018091520925
:103540008823A1F0C0E0D0E00DC0D701ED91FC913F
:10355000D601AC0FBD1F0190F081E02DC7016C9129
:1035600019952196C017D10780F303C0CB01642FB2
:1035700039D0C801DF91CF911F910F91FF90EF904B
:10358000DF90CF900895DF93CF930F92CDB7DEB742
:10359000FC016983809152098823C9F08091510907
:1035A000803238F081E090E09383828320E030E045
:1035B00014C080915009E82FF0E0E05DF64F99814A
:1035C00090838F5F809350098093510904C0CE018E
:1035D000019661E007D021E030E0C9010F90CF9162
:1035E000DF910895482F613210F081E008958091B5
:1035F0005F09843011F082E008956093AA09A9E878
:10360000B9E0842F9C01F90102C081918D938E2F26
:10361000841B8617D0F380E008951F920F920FB697
:103620000F920BB60F9211242F933F934F935F93FA
:103630006F937F938F939F93AF93BF93EF93FF937A
:103640008091B90090E0887F90708036910509F4F0
:10365000F2C081369105CCF58832910509F47BC022
:1036600089329105B4F48031910509F46FC081313C
:1036700091053CF4009709F447C1089709F04FC140
:1036800065C08831910509F466C0809709F047C18B
:1036900082C08034910509F4A4C08134910544F4BA
:1036A0008033910509F482C0C89709F038C189C0F8
:1036B0008035910509F489C08835910509F496C0D3
:1036C0008834910509F02BC1AEC08839910509F401
:1036D00013C189399105ECF48837910509F4ABC021
:1036E000893791054CF48836910509F4A4C08037D8
:1036F000910509F014C19FC08838910509F4FCC0F8
:103700008039910509F49DC08038910509F007C101
:1037100098C0803B910509F4C6C0813B91054CF4EB
:10372000803A910509F49FC0883A910509F0F7C0E5
:10373000BAC0803C910509F4E3C0883C910509F4C6
:10374000DFC0883B910509F0EAC0C2C080916009E2
:103750008093BB00CFC0909187098091880998170A
:1037600068F490918709E92FF0E0E959F64F8081DC
:103770008093BB009F5F90938709BCC080916109D3
:10378000882309F44BC085ED8093BC008091BC0078
:1037900084FDFCCFC2C080E28093CC0985ED80938C
:1037A000BC008091BC0084FDFCCFB7C080E3809357
:1037B000CC0985ED8093BC008091BC0084FDFCCFDA
:1037C000ACC088E38093CC099BC08091870990911D
:1037D000BB00E82FF0E0E959F64F90838F5F8093AC
:1037E0008709909187098091880982C08091870913
:1037F0009091BB00E82FF0E0E959F64F90838F5F7E
:103800008093870980916109882341F085ED809339
:10381000BC008091BC0084FDFCCF7FC081E0809320
:10382000620984EA6EC085ED8093BC008091BC0083
:1038300084FDFCCF72C083E080935F091092CB09B6
:1038400059C08091CB09803208F056C08091CB09D5
:103850009091BB00E82FF0E0E555F64F90838F5F25
:103860008093CB0947C08091CB09803230F4E0913E
:10387000CB09F0E0E555F64F108285ED8093BC0052
:103880008091BC0084FDFCCF10925F096091CB0950
:10389000E0916509F09166098BEA99E070E019956D
:1038A0001092CB092DC084E080935F091092A90982
:1038B0001092AA09E0916309F09164091995809129
:1038C000AA09882329F481E08093AA091092890922
:1038D0009091A909E92FF0E0E757F64F8081809396
:1038E000BB009F5F9093A9099091A9098091AA09B3
:1038F000981710F485EC01C085E88093BC000FC0D8
:1039000085EC8093BC0009C01092CC0985ED8093B2
:10391000BC008091BC0084FDFCCF10925F09FF9138
:10392000EF91BF91AF919F918F917F916F915F9137
:103930004F913F912F910F900BBE0F900FBE0F90A4
:103940001F901895F999FECF72BD61BDF89A80B5A8
:103950000895F999FECF1FBA72BD61BD40BD0FB683
:10396000F894FA9AF99A0FBE0895FC01838588238A
:1039700031F48091C10087728093C1000895813035
:1039800031F48091C90087728093C9000895823014
:1039900031F48091D10087728093D10008958330F3
:1039A00029F48091310187728093310108951F922B
:1039B0000F920FB60F920BB60F9211242F933F93D5
:1039C0004F935F936F937F938F939F93AF93BF9327
:1039D000EF93FF938091C0008093D6093091C60089
:1039E0003093D7092091D2092093D80984FF10C0C1
:1039F0008091C0008F7E8093C0008091E3099091F8
:103A0000E4099093DC098093DB0981E08093D2097B
:103A1000213091F4332369F482E08093D2098091BC
:103A2000CE099091CF0901969093D4098093D30940
:103A30004BC01092D20948C02230A1F48091DB091A
:103A40009091DC0901979093DC098093DB09892B25
:103A5000D9F583E08093D209E091CE09F091CF09A6
:103A6000308332C0233081F5E091D309F091D4093D
:103A7000F093F109E093F00930834091F0095091FF
:103A8000F1094F5F5F4F5093F1094093F009809126
:103A9000CE099091CF092091DF093091E009820F82
:103AA000931F4817590760F01092D209E091F4096A
:103AB000F091F509309741F08091D909199504C02A
:103AC0005093D4094093D309FF91EF91BF91AF91E7
:103AD0009F918F917F916F915F914F913F912F9126
:103AE0000F900BBE0F900FBE0F901F9018951F9256
:103AF0000F920FB60F920BB60F9211242F933F9394
:103B00004F935F936F937F938F939F93AF93BF93E5
:103B1000EF93FF938091DA098093EF09882361F492
:103B20001092C5008091EC098093C4001092C600E9
:103B300081E08093DA0940C0813081F41092C500A1
:103B40008091EB098093C4001092C60082E08093BC
:103B5000DA091092DE091092DD092EC08091DD098C
:103B60009091DE099093EE098093ED09E091D009E0
:103B7000F091D109E80FF91F20812093C6009C0124
:103B80002F5F3F4F3093EE092093ED098091E109BB
:103B90009091E2092817390759F4E091F209F09160
:103BA000F309309711F080E019951092DA0904C0FA
:103BB0003093DE092093DD09FF91EF91BF91AF9122
:103BC0009F918F917F916F915F914F913F912F9135
:103BD0000F900BBE0F900FBE0F901F90189521E015
:103BE00030E03093E4092093E30988E090E090937B
:103BF000E0098093DF093093E6092093E50990936B
:103C0000E2098093E1091092D90908951F93CF9397
:103C1000DF93EC01162FF894A8DE1C8F112321F4FA
:103C200087E08D8F84E10BC0113021F483E08D8F0C
:103C30008AE005C0123021F481E08D8F85E08E8FFF
:103C40008B8D8F3F29F061E0D9D38B8D61E089D4D2
:103C50008B858823D1F481E061E0D0D31092C50038
:103C60008D8D8093C4008091C00082608093C000DD
:103C70008091C2008E608093C2008091C1008864F0
:103C80008093C1001092C60053C08130D1F482E10C
:103C900061E0B4D31092CD008D8D8093CC008091E3
:103CA000C80082608093C8008091CA008E608093B3
:103CB000CA008091C90088648093C9001092CE0028
:103CC00037C08230D1F480E161E098D31092D50002
:103CD0008D8D8093D4008091D00082608093D0003D
:103CE0008091D2008E608093D2008091D100886450
:103CF0008093D1001092D6001BC08330C9F48EE0AF
:103D000061E07CD3109235018D8D809334018091D8
:103D10003001826080933001809132018E60809307
:103D20003201809131018864809331011092360113
:103D300081E08C878B899C890DD08A839B834B89FA
:103D40005C8960E070E00E9433017894DF91CF914C
:103D50001F9108950F931F93CF93DF93BC0182307F
:103D6000910510F462E070E0E091010AF091020A1E
:103D700040E050E0A0E0B0E024C08081918186174F
:103D80009707D0F08617970771F482819381109777
:103D900029F013969C938E9312972CC09093020A4D
:103DA0008093010A27C04115510519F08417950722
:103DB00018F48D01AC01EF01DF01828193819C0138
:103DC000F9013097D1F641155105F9F0CA01861B6A
:103DD000970B8430910580F48A819B810115110530
:103DE00021F0F8019383828304C09093020A8093A8
:103DF000010AFE01329645C0FE01E80FF91F6193EA
:103E000071930297998388833CC08091FF099091B8
:103E1000000A892B41F480915C0490915D04909399
:103E2000000A8093FF0940915E0450915F044115A0
:103E3000510541F44DB75EB780915A0490915B04EF
:103E4000481B590B2091FF093091000A24173507B0
:103E5000B0F4CA01821B930B8617970780F0AB0161
:103E60004E5F5F4F8417950750F0420F531F5093DA
:103E7000000A4093FF09F9016193719302C0E0E0E9
:103E8000F0E0CF01DF91CF911F910F910895CF9373
:103E9000DF939C01009709F48FC0EC0122971B82ED
:103EA0001A826091010A7091020A6115710581F40C
:103EB00088819981820F931F2091FF093091000A18
:103EC0002817390739F5D093000AC093FF0974C049
:103ED000DB0140E050E0AC17BD0708F1BB83AA83CB
:103EE000FE0121913191E20FF31FAE17BF0779F464
:103EF0008D919C911197280F391F2E5F3F4F398369
:103F0000288312968D919C9113979B838A834115E8
:103F1000510571F4D093020AC093010A4DC0129664
:103F20008D919C911397AD01009711F0DC01D3CFD7
:103F3000DA011396DC93CE931297FA012191319115
:103F4000E20FF31FCE17DF0769F488819981280FEC
:103F5000391F2E5F3F4FFA01318320838A819B8175
:103F600093838283E0E0F0E0DB0112968D919C91D7
:103F70001397009719F0BC01FD01F6CFAB014E5F1E
:103F80005F4FDB018D919C91840F951F2091FF095C
:103F90003091000A2817390779F4309729F41092E4
:103FA000020A1092010A02C013821282425050404B
:103FB0005093000A4093FF09DF91CF9108951F921B
:103FC0000F920FB60F9211242F933F938F939F93CD
:103FD000AF93BF938091FA099091FB09A091FC09DE
:103FE000B091FD093091FE090196A11DB11D232F4D
:103FF0002D5F2D3720F02D570196A11DB11D209367
:10400000FE098093FA099093FB09A093FC09B093F1
:10401000FD098091F6099091F709A091F809B091F6
:10402000F9090196A11DB11D8093F6099093F70936
:10403000A093F809B093F909BF91AF919F918F9127
:104040003F912F910F900FBE0F901F9018959B01DD
:10405000AC017FB7F8948091F6099091F709A0918F
:10406000F809B091F90966B5A89B05C06F3F19F032
:104070000196A11DB11D7FBFBA2FA92F982F8827A8
:10408000860F911DA11DB11D62E0880F991FAA1F07
:10409000BB1F6A95D1F7BC012DC0FFB7F894809182
:1040A000F6099091F709A091F809B091F909E6B5E0
:1040B000A89B05C0EF3F19F00196A11DB11DFFBFE0
:1040C000BA2FA92F982F88278E0F911DA11DB11DE2
:1040D000E2E0880F991FAA1FBB1FEA95D1F7861B44
:1040E000970B885E9340C8F22150304040405040CA
:1040F00068517C4F211531054105510571F6089530
:10410000019739F0880F991F880F991F029701971F
:10411000F1F70895789484B5826084BD84B5816098
:1041200084BD85B5826085BD85B5816085BDEEE6BF
:10413000F0E0808181608083E1E8F0E0108280819E
:1041400082608083808181608083E0E8F0E080810C
:1041500081608083E1EBF0E0808184608083E0EB2C
:10416000F0E0808181608083E1E9F0E0808182601D
:104170008083808181608083E0E9F0E080818160DC
:104180008083E1EAF0E080818260808380818160C9
:104190008083E0EAF0E0808181608083E1E2F1E009
:1041A000808182608083808181608083E0E2F1E0B1
:1041B000808181608083EAE7F0E080818460808391
:1041C000808182608083808181608083808180683B
:1041D00080831092C1000895382F863308F036533B
:1041E00020917B00832F86958695869590E081703F
:1041F000907043E0880F991F4A95E1F7277F282B9D
:1042000020937B003770809160048295880F880F1F
:10421000807C832B80937C0080917A0080648093E3
:104220007A0080917A0086FDFCCF20917800409141
:104230007900942F80E030E0282B392BC9010895B4
:104240001F93CF93DF93182FEB0161E0D7D0209716
:1042500009F4CAC0CF3FD10509F4C9C0E12FF0E08D
:10426000E254FE4F8491893009F466C08A30B0F47C
:104270008430F1F1853040F4823059F1833070F5AB
:10428000813009F0AEC020C0873009F443C08830C7
:1042900008F048C0863009F0A4C034C08D3009F45D
:1042A00078C08E3038F48B3009F45AC08C3008F066
:1042B00066C04CC0803109F480C0813109F487C0E8
:1042C0008F3009F08EC06FC084B5806884BDC7BDD3
:1042D00091C084B5806284BDC8BD8CC080918000CF
:1042E000806880938000D0938900C093880082C04A
:1042F00080918000806280938000D0938B00C09377
:104300008A0078C08091B00080688093B000C0932C
:10431000B30070C08091B00080628093B000C09301
:10432000B40068C080919000806880939000D09322
:104330009900C09398005EC0809190008062809345
:104340009000D0939B00C0939A0054C0809190003D
:10435000886080939000D0939D00C0939C004AC0D9
:104360008091A00080688093A0008091A0008F7B46
:104370008093A000D093A900C093A8003BC0809177
:10438000A00080628093A000D093AB00C093AA00ED
:1043900031C08091A00088608093A000D093AD00D0
:1043A000C093AC0027C080912001806880932001D9
:1043B000D0932901C09328011DC080912001806203
:1043C00080932001D0932B01C0932A0113C08091C8
:1043D0002001886080932001D0932D01C0932C018F
:1043E00009C0C038D1051CF4812F60E002C0812FC4
:1043F00061E0B7D0DF91CF911F910895CF93DF9304
:10440000482F50E0CA0188589E4FFC0134914E5C01
:104410005E4FFA018491882369F190E0880F991F1B
:10442000FC01EC51FF4FA591B491FC01E250FF4F0C
:10443000C591D491662351F42FB7F8948C91932FA2
:10444000909589238C93888189230BC0623061F415
:104450002FB7F8948C91932F909589238C93888112
:10446000832B88832FBF06C09FB7F8948C91832B32
:104470008C939FBFDF91CF910895893009F449C093
:104480008A30A0F4843051F1853040F4823079F1E3
:10449000833000F5813009F063C026C0873079F1A0
:1044A000883098F5863009F05BC025C08D3009F45E
:1044B00042C08E3028F48B30B1F18C30C0F52DC065
:1044C000803109F442C0813109F445C08F3009F0D0
:1044D00047C037C0809180008F7703C080918000F3
:1044E0008F7D80938000089584B58F7702C084B556
:1044F0008F7D84BD08958091B0008F7703C0809137
:10450000B0008F7D8093B0000895809190008F77E8
:1045100007C0809190008F7D03C080919000877FBD
:104520008093900008958091A0008F7707C08091BC
:10453000A0008F7D03C08091A000877F8093A000A2
:104540000895809120018F7703C0809120018F7D95
:1045500080932001089580912001877F809320011E
:104560000895FF920F931F93F62E482F50E0CA0133
:1045700082549E4FFC012491CA0188589E4FFC0131
:1045800014914E5C5E4FFA0104910023C1F0222386
:1045900011F0822F72DFE02FF0E0EE0FFF1FE250EC
:1045A000FF4FA591B4919FB7F894FF2021F48C910F
:1045B0001095812302C08C91812B8C939FBF1F91FA
:1045C0000F91FF9008950F931F93482F50E0CA0159
:1045D00082549E4FFC012491CA0188589E4FFC01D1
:1045E00004914E5C5E4FFA011491112319F420E0FE
:1045F00030E014C0222311F0822F3FDF812F90E0A2
:10460000880F991F885E9E4FFC01A591B4918C91F3
:1046100020E030E0802311F021E030E0C9011F915B
:104620000F9108950895CF93DF9374DDFBDF0E940F
:104630004516C0E0D0E00E943A162097E1F30E94B0
:104640000000F9CF0895CF92DF92EF92FF920F937F
:104650001F93CF93DF937C016B018A01C0E0D0E010
:104660000FC0D6016D916D01D701ED91FC910190C4
:10467000F081E02DC7011995C80FD91F01501040D6
:104680000115110571F7CE01DF91CF911F910F91A7
:10469000FF90EF90DF90CF900895CF93DF93EC01E0
:1046A0006115710519F420E030E00FC0DB010D90B9
:1046B0000020E9F71197A61BB70BE881F98102806A
:1046C000F381E02DAD0119959C01C901DF91CF91D6
:1046D00008954F925F927F928F929F92AF92BF9276
:1046E000CF92DF92EF92FF920F931F93DF93CF93BE
:1046F000CDB7DEB7A1970FB6F894DEBF0FBECDBF22
:104700002C01742ECB01223008F42AE019A231E2E8
:10471000C32ED12CCC0EDD1E822E9924AA24BB24BC
:10472000672D752FA5019401D7D079018A01C801A1
:10473000B701A50194019ED0472D461B0894C108DE
:10474000D1084A3014F4405D01C0495CF601408351
:10475000E114F1040105110521F07E2C5F2DC80143
:10476000DFCFC201B60199DFA1960FB6F894DEBF84
:104770000FBECDBFCF91DF911F910F91FF90EF90B2
:10478000DF90CF90BF90AF909F908F907F905F9081
:104790004F900895DC012115310541F4ED91FC9114
:1047A0000190F081E02D642F1995089592CFEF923A
:1047B000FF920F931F939A01E62EFF2400E010E072
:1047C000B801A701E7DF1F910F91FF90EF900895C7
:1047D000CF92DF92EF92FF920F931F93CF93DF93CD
:1047E000EC016A017B012115310541F4E881F98171
:1047F0000190F081E02D642F19951DC02A303105FC
:10480000C9F477FF16C0E881F9810190F081E02DAD
:104810006DE219958C0144275527BA014C195D09A1
:104820006E097F09CE012AE054DF9801280F391F55
:1048300003C02AE04EDF9C01C901DF91CF911F9197
:104840000F91FF90EF90DF90CF900895EF92FF923D
:104850000F931F937B019A010027F7FC0095102FFF
:10486000B801A701B5DF1F910F91FF90EF90089558
:1048700014CF0895629FD001739FF001829FE00DD5
:10488000F11D649FE00DF11D929FF00D839FF00DCF
:10489000749FF00D659FF00D9927729FB00DE11D7B
:1048A000F91F639FB00DE11DF91FBD01CF01112458
:1048B000089597FB092E07260AD077FD04D02ED045
:1048C00006D000201AF4709561957F4F0895F6F791
:1048D000909581959F4F0895A1E21A2EAA1BBB1BAC
:1048E000FD010DC0AA1FBB1FEE1FFF1FA217B307BC
:1048F000E407F50720F0A21BB30BE40BF50B661FD2
:10490000771F881F991F1A9469F760957095809595
:1049100090959B01AC01BD01CF010895AA1BBB1B63
:1049200051E107C0AA1FBB1FA617B70710F0A61BAF
:10493000B70B881F991F5A95A9F780959095BC01D0
:10494000CD010895EE0FFF1F0590F491E02D19940D
:04495000F894FFCF09
:10495400303030006100202020005F5F5F004D6533
:104964006D6F727920456D70746965642100687497
:1049740074703A2F2F676F6F2E676C2F6B64596CAE
:104984006A370041726475696E6F20444D582D3545
:10499400313200546573746572202620436F6E743F
:1049A400726F6C6C6572004669726D2076002E0021
:1049B400486172642076004D656D6F7279204C6F8A
:1049C4006164656421003E002B002D2D2D002D0017
:1049D40020004D656D6F727920436C65616E65646E
:1049E40021004D656D6F72792053617665642100F5
:1049F4004D656D6F7279204F7074696F6E733A00F4
:104A040053617665004C6F616400456D7074790084
:104A1400436C6561720043616E63656C004C434492
:104A240020436F6E6669673A0041626F7574004295
:104A340061636B204C696768743A00436F6E7472EB
:104A44006173743A004374726C00436F6E74726FD6
:104A54006C204F7074696F6E733A00556E6974619F
:104A64007279004D6174726978004368617365728C
:104A7400004D756C7469706C7900436F6E6669677C
:104A8400004D656D6F727900632D2D2D204D656D80
:104A940020437472202020202D00556E69746172A9
:104AA4007920436F6E74726F6C3A004368616E6E66
:104AB400656C3A203030310056616C75653A0043BC
:104AC40068617365724348202D2D2D0044656C6127
:104AD40079202020207831303D6D5300466972736F
:104AE40074204348202020202020204374726C002E
:104AF40046696E616C2043482020202020202053EA
:104B0400746172740053746F702000537461727412
:104B14000056616C756500466972737420434820C1
:104B240020202020204374726C004D756C746970D1
:104B34006C792020202020204D656D6F7279005102
:104B440075616E7469747920202020202041707072
:104B54006C79004572726F72212000202020202081
:104B64002020004F6B2100496E697469616C204DEF
:104B7400656D6F72793A00010033002D0035003104
:104B8400002F002400220020001E002C002A0028F0
:104B940000260011640000004500080009000A0016
:104BA4000B000C000D00030004008000030A000049
:104BB40001000000004C1823235D18FB17FC17228A
:104BC400230040105000401454000000004C1823EF
:104BD400235D18BD19DF190C1900000000C31A93D6
:0A4BE4001A4C1A551A6A1A7B1A00BF
:00000001FF
