:1000000004C100002FC100002DC100002BC1000061
:1000100029C1000027C1000025C1000023C1000044
:1000200021C100001FC100001DC100001BC1000054
:1000300019C1000017C1000015C1000013C1000064
:1000400011C100000FC100000DC100000BC1000074
:1000500009C1000007C1000005C100000C94BD1AD1
:1000600001C100000C94B517FDC000000C94551898
:10007000F9C00000F7C00000F5C00000F3C00000A8
:10008000F1C00000EFC00000EDC00000EBC00000B8
:10009000E9C00000E7C00000E5C000000C94EB15CB
:1000A000E1C00000DFC00000DDC00000DBC00000D8
:1000B000D9C00000D7C00000D5C00000D3C00000E8
:1000C000D1C00000CFC00000CDC00000CBC00000F8
:1000D000C9C00000C7C00000C5C00000C3C0000008
:1000E000C1C0000000002100240027002A002D00CC
:1000F0003000330001010000040107010A01000083
:100100002200250028002B002E00310034000201BF
:100110000000050108010B0100002000230026005B
:1001200029002C002F00320000010000030106010D
:10013000090105050505070508080808020202026D
:100140000A0A080804040404010101010101010173
:100150000303030303030303040707070C0C0C0C3E
:100160000C0C0C0C02020202060606060606060627
:100170000B0B0B0B0B0B0B0B0102102020080810B4
:100180002040102040800201020108040201010207
:1001900004081020408080402010080402018004E0
:1001A000020180402010080402010804020101023B
:1001B0000408102040800102040810204080000044
:1001C000090A02080B0C0D070603040100000000D9
:1001D000000000000000000000000000000000001F
:1001E0000000000000000000000011100F000000DF
:1001F00000000000000000000000000000000000FF
:10020000000000003A015A15CD1811241FBECFEF8F
:10021000D1E2DEBFCDBF00E00CBF14E0A0E0B2E051
:10022000EAE5FEE300E00BBF02C007900D92A8359F
:10023000B107D9F71BBE17E0A8E5B4E001C01D92D5
:10024000AD3BB107E1F712E0CAE0D2E004C022976B
:10025000FE010E94271FC430D107C9F70E94BD1DAF
:100260000C942B1FCDCEDC0101C06D93415050404A
:10027000E0F70895CF92EF920F9381EB96E06091B3
:100280000E04409110042091120400911404E09097
:100290001604C09018040E94EE140F91EF90CF90B6
:1002A00008953F924F925F926F927F928F929F92AA
:1002B000AF92BF92CF92DF92EF92FF920F931F9374
:1002C00081E180930D0444244394B4E03B2EA7E0E5
:1002D0008A2EFFE07F2EE2E06E2E75E0572E68E05A
:1002E000B62E53E0A52E46E0942E39E0E32E2EE004
:1002F000D22E9AE0C92E1BE00CE08DE0F82E68C1EA
:100300008091FD0360E00E945B1D809105040E94C6
:100310008D1D892B41F440920D0464E670E080E06D
:1003200090E00E94051B65E070E080E090E00E9494
:10033000051B809107040E948D1D892B41F430928A
:100340000D0464E670E080E090E00E94051B65E02B
:1003500070E080E090E00E94051B809109040E94FB
:100360008D1D892B41F480920D0464E670E080E0DD
:1003700090E00E94051B65E070E080E090E00E9444
:10038000051B80910B040E948D1D892B41F47092F6
:100390000D0464E670E080E090E00E94051B65E0DB
:1003A00070E080E090E00E94051B8091FD0361E019
:1003B0000E945B1D8091FF0360E00E945B1D8091A5
:1003C00005040E948D1D892B41F460920D0464E6A2
:1003D00070E080E090E00E94051B65E070E080E046
:1003E00090E00E94051B809107040E948D1D892BBF
:1003F00041F450920D0464E670E080E090E00E94C9
:10040000051B65E070E080E090E00E94051B809194
:1004100009040E948D1D892B41F4B0920D0464E6FD
:1004200070E080E090E00E94051B65E070E080E0F5
:1004300090E00E94051B80910B040E948D1D892B6A
:1004400041F410920D0464E670E080E090E00E94B8
:10045000051B65E070E080E090E00E94051B809144
:10046000FF0361E00E945B1D8091010460E00E9437
:100470005B1D809105040E948D1D892B41F4A09283
:100480000D0464E670E080E090E00E94051B65E0EA
:1004900070E080E090E00E94051B809107040E94BC
:1004A0008D1D892B41F490920D0464E670E080E08C
:1004B00090E00E94051B65E070E080E090E00E9403
:1004C000051B809109040E948D1D892B41F4E09247
:1004D0000D0464E670E080E090E00E94051B65E09A
:1004E00070E080E090E00E94051B80910B040E9468
:1004F0008D1D892B41F4D0920D0464E670E080E0FC
:1005000090E00E94051B65E070E080E090E00E94B2
:10051000051B8091010461E00E945B1D8091030432
:1005200060E00E945B1D809105040E948D1D892B57
:1005300041F4C0920D0464E670E080E090E00E9417
:10054000051B65E070E080E090E00E94051B809153
:1005500007040E948D1D892B41F410930D0464E65D
:1005600070E080E090E00E94051B65E070E080E0B4
:1005700090E00E94051B809109040E948D1D892B2B
:1005800041F400930D0464E670E080E090E00E9486
:10059000051B65E070E080E090E00E94051B809103
:1005A0000B040E948D1D892B41F4F0920D0464E62A
:1005B00070E080E090E00E94051B65E070E080E064
:1005C00090E00E94051B8091030461E00E945B1D86
:1005D00080910D04813109F493CE1F910F91FF900A
:1005E000EF90DF90CF90BF90AF909F908F907F90D3
:1005F0006F905F904F903F9008950F931F93CF930C
:10060000DF93EC01162F042F81EB96E00E940D136F
:1006100081EB96E060E072E00E94E21ECA30D105F4
:100620003CF4612F6E5F81EB96E0402F0E940D132A
:10063000CE010A978A35910538F4612F6F5F81EBFF
:1006400096E0402F0E940D13C436D10534F081EBA3
:1006500096E0612F402F0E940D1381EB96E0BE01C2
:100660004AE050E00E94D01EDF91CF911F910F9180
:1006700008951F938091030460E00E945B1D1FEFAB
:100680003EC08091F1039091F2030197E0918A07B7
:10069000F0918B07E80FF91F10836091AD0670E0B1
:1006A000625070404091AE068FEF90E050E0A5DFC1
:1006B00064E670E080E090E00E94051B8091F10309
:1006C0009091F2030197E0918A07F0918B07E80F70
:1006D000F91F10826091AD06625081EB96E0409167
:1006E000AE060E940D1381EB96E064E072E00E947A
:1006F000E21E64E670E080E090E00E94051B8091BD
:1007000009040E948D1D019709F4BBCF8091030459
:1007100061E00E945B1D81EB96E06091AD06409127
:10072000AE060E940D131F9108952F923F924F9293
:100730005F926F927F928F929F92AF92BF92CF9271
:10074000DF92EF92FF920F931F93DF93CF93CDB77A
:10075000DEB761970FB6F894DEBF0FBECDBF8983B9
:10076000798B688B00915B0610915C0681EB96E0BB
:10077000602F412F0E940D1381EB96E068E072E03C
:100780000E94E21E64E1E62EF12C888999890E967A
:100790009B838A83E889F9893D96FD83EC83888968
:1007A00099890C969F838E83E889F9893B96F9870E
:1007B000E887888999890A969B878A87E889F989D1
:1007C0003996FD87EC8758E0452E512C8889998908
:1007D000480E591E47E0242E312C280E391E06964D
:1007E0009F878E8735E0832E912CE889F9898E0EBC
:1007F0009F1E24E0622E712C6E0E7F1E93E0C92E88
:10080000D12CCE0EDF1E82E0A82EB12CAE0EBF1E64
:100810008091F7030E948D1D892BF9F46CE271E041
:1008200080E090E00E94051B20915B0680915C06B1
:1008300090E08E9DA0018F9D500D9E9D500D112426
:10084000222309F424E12150FA01E20FF11DE35AB9
:10085000F94F80818130A1F724C08091F9030E9473
:100860008D1D892B09F56CE271E080E090E00E941B
:10087000051B20915B0680915C0690E08E9DA00197
:100880008F9D500D9E9D500D11242F5F243108F037
:1008900020E0FA01E20FF11DE35AF94F8081813027
:1008A000A1F720935B069FC18091F5030E948D1DE7
:1008B000892B09F56CE271E080E090E00E94051B55
:1008C00020915C0680915B06482F50E02F5F24301A
:1008D00008F020E0822F90E08E9DF0018F9DF00DBA
:1008E0009E9DF00D1124E40FF51FE35AF94F80810E
:1008F000813061F726C08091F3030E948D1D892B02
:1009000019F56CE271E080E090E00E94051B2091F7
:100910005C0680915B06482F50E0222309F424E016
:100920002150822F90E08E9DF0018F9DF00D9E9DB5
:10093000F00D1124E40FF51FE35AF94F8081813047
:1009400061F720935C064FC18091FB030E948D1DCF
:10095000892B09F05DCF6CE271E080E090E00E94AD
:10096000051B40915C0660915B06842F90E08E9D94
:10097000F0018F9DF00D9E9DF00D1124E60FF11DED
:10098000E35AF94F8081813009F04BC181EB96E049
:100990000E940D1381EB96E06AE072E00E94E21E75
:1009A00082E019C180915B068C3081F480915C06F5
:1009B000882361F481EB96E061E040E00E940D1332
:1009C00081EB96E06CE072E00E94E21E80915B0693
:1009D000843081F480915C06882361F481EB96E099
:1009E00061E040E00E940D1381EB96E06CE072E064
:1009F0000E94E21E80915B06883081F480915C0643
:100A0000882361F481EB96E061E040E00E940D13E1
:100A100081EB96E06CE072E00E94E21E80915B0642
:100A2000882359F480915C06813039F4888999894A
:100A300061E070E040E050E0E0DD80915B068430F2
:100A400061F480915C06813041F48889998901962E
:100A500061E070E040E050E0D0DD80915B068830DE
:100A600051F480915C06813031F4C50161E070E0A1
:100A700040E050E0C2DD80915B068C3051F4809103
:100A80005C06813031F4C60161E070E040E050E086
:100A9000B4DD80915B06803151F480915C06813039
:100AA00031F4C30161E070E040E050E0A6DD8091E8
:100AB0005B06882351F480915C06823031F4C401D6
:100AC00061E070E040E050E098DD80915B068430AA
:100AD00059F480915C06823039F48E859F8561E0FF
:100AE00070E040E050E089DD80915B06883051F491
:100AF00080915C06823031F4C10161E070E040E039
:100B000050E07BDD80915B068C3051F480915C0677
:100B1000823031F4C20161E070E040E050E06DDD10
:100B200080915B06803159F480915C06823039F403
:100B30008C859D8561E070E040E050E05EDD809155
:100B40005B06882359F480915C06833039F48A85EA
:100B50009B8561E070E040E050E04FDD80915B06F6
:100B6000843059F480915C06833039F48885998506
:100B700061E070E040E050E040DD80915B0688304D
:100B800059F480915C06833039F48E819F8161E055
:100B900070E040E050E031DD80915B068C3059F42C
:100BA00080915C06833039F48C819D8161E070E036
:100BB00040E050E022DD80915B06803159F4809165
:100BC0005C06833039F48A819B8161E070E040E00B
:100BD00050E013DD81E000915B0610915C068230ED
:100BE00009F016CE1FC081EB96E0602F412F0E94C6
:100BF0000D1381EB96E060E172E00E94E21E81EB52
:100C000096E060915B0640915C060E940D1381EBBB
:100C100096E068E072E00E94E21EF981F130D1F6C0
:100C2000C1CEFFCF61960FB6F894DEBF0FBECDBF29
:100C3000CF91DF911F910F91FF90EF90DF90CF90B8
:100C4000BF90AF909F908F907F906F905F904F90EC
:100C50003F902F900895CF92DF92EF92FF920F93E3
:100C60001F938C016DE070E040E050E0C6DCEEE0E8
:100C7000CE2ED12CC00ED11EC60161E170E040E045
:100C800050E0BBDC78E5E72E74E0F72E0E0D1F1D5B
:100C9000F801808190E061E070E041E050E0ADDC7F
:100CA000F801818190E065E070E041E050E0A5DC72
:100CB000F801828190E069E070E041E050E09DDC65
:100CC000F801838190E06DE070E041E050E095DC58
:100CD000F801848190E061E170E041E050E08DDC5A
:100CE000F801858190E061E070E042E050E085DC51
:100CF000F801868190E065E070E042E050E07DDC44
:100D0000F801878190E069E070E042E050E075DC36
:100D1000F801808590E06DE070E042E050E06DDC2D
:100D2000F801818590E061E170E042E050E065DC2F
:100D3000F801828590E061E070E043E050E05DDC26
:100D4000F801838590E065E070E043E050E055DC19
:100D5000F801848590E069E070E043E050E04DDC0C
:100D6000F801858590E06DE070E043E050E045DCFF
:100D7000EC0CFD1CF701808190E061E170E043E044
:100D800050E03BDC1F910F91FF90EF90DF90CF90F0
:100D90000895FF920F931F93CF93DF93F82E81EB6B
:100DA00096E06091AD064091AE060E940D1381EB76
:100DB00096E062E172E00E94E21E81EB96E00E9402
:100DC000F7121092B0061092AF066091AD066E5FFA
:100DD0006093AD0681EB96E04091AE060E940D1344
:100DE00060DA60910D046A3018F000E010E016C07F
:100DF00081EB96E04AE050E00E94811E81EB96E094
:100E00006091AD064091AE060E940D1380910D04D5
:100E1000082F10E01093B0060093AF0680910D04E8
:100E20008E3009F4CEC091E0F91649F48A3009F405
:100E300065C08B3009F46BC08C3009F46FC031DAB7
:100E400080910D048E3029F41093B0060093AF0604
:100E5000B8C091E0F91649F48A3009F44FC08B30DC
:100E600009F455C08C3009F459C08A3018F0C0E03C
:100E7000D0E029C06091AD0661506093AD0681EB72
:100E800096E04091AE060E940D1381EB96E0B8010A
:100E90004AE050E00E94D01E81EB96E060910D0484
:100EA0004AE050E00E94811E80910D04C82FD0E0DE
:100EB0006091AD066F5F6093AD0681EB96E0409167
:100EC000AE060E940D13EDD980910D048E3089F489
:100ED000C80123E0880F991F2A95E1F7000F111F21
:100EE000800F911FC80FD91FD093B006C093AF06D3
:100EF00068C091E0F916C9F48A3039F48FEF90E0B8
:100F00009093B0068093AF065CC08B3029F41092AA
:100F1000B0061092AF0655C08C3039F484E692E0EA
:100F20009093B0068093AF0668C08A3008F049C03D
:100F30006091AD0662506093AD0681EB96E0409102
:100F4000AE060E940D1381EB96E0B8014AE050E036
:100F50000E94D01E81EB96E0BE014AE050E00E9464
:100F6000D01E6091AD066E5F6093AD0681EB96E09A
:100F70004091AE060E940D1381EB96E060910D0446
:100F80004AE050E00E94811E84E690E0089F9001B4
:100F9000099F300D189F300D112480910D04280FEA
:100FA000311DCE01A3E0880F991FAA95E1F7CC0F60
:100FB000DD1F8C0F9D1F280F391F3093B006209323
:100FC000AF0681EB96E00E94FF126091AD0670E0E3
:100FD000625070404091AE068091AF069091B0068D
:100FE00050E00BDB6091AD0664506093AD0681EB81
:100FF00096E04091AE060E940D1381EB96E00E94B0
:10100000FF1281EB96E06091AD064091AE060E9422
:101010000D136CE271E080E090E00E94051BDF910F
:10102000CF911F910F91FF900895CF93DF9381EBA4
:1010300096E00E94351381EB96E061E141E00E9469
:101040000D13C0E0D0E0FE01E85AFB4F1082E091A2
:101050008A07F0918B07EC0FFD1F108281EB96E061
:10106000BE0142E050E00E94D01E61E070E080E0EE
:1010700090E00E94051B219682E0C130D80719F745
:1010800081EB96E00E94351381EB96E063E041E04E
:101090000E940D1381EB96E066E172E00E94E21E71
:1010A00068EE73E080E090E00E94051BDF91CF9135
:1010B0000895CF93DF9381EB96E00E94351381EB87
:1010C00096E00E94FF1281EB96E060E040E00E9413
:1010D0000D13C0E0D0E081EB96E0BE0142E050E0AD
:1010E0000E94D01E61E070E080E090E00E94051B4D
:1010F000219682E0C130D80771F781EB96E00E941B
:10110000351381EB96E060E040E00E940D1381EB27
:1011100096E066E272E00E94E21E81EB96E060E0FB
:1011200041E00E940D1381EB96E068E372E00E94BB
:10113000E21E81EB96E068E041E00E940D1381EB36
:1011400096E060E472E00E94E21E81EB96E067E0C8
:1011500042E00E940D1381EB96E06DE472E00E9484
:10116000E21E81EB96E060E04AE050E00E94811EC2
:1011700081EB96E068E572E00E94E21E81EB96E06A
:1011800061E04AE050E00E94811E81EB96E067E05A
:1011900043E00E940D1381EB96E06AE572E00E9445
:1011A000E21E81EB96E060E04AE050E00E94811E82
:1011B00081EB96E068E572E00E94E21E81EB96E02A
:1011C00060E04AE050E00E94811E81EB96E060E022
:1011D00043E00E940D1381EB96E065E672E00E9409
:1011E000E21E81EB96E064E14AE050E00E94811E3D
:1011F00060ED77E080E090E00E94051BDF91CF91E9
:101200000895CF93DF9381EB96E00E94351381EB35
:1012100096E061E141E00E940D13C0E0D0E0FE01E4
:10122000E85AFB4F1082E0918A07F0918B07EC0F90
:10123000FD1F108287E897E0BE0140E00E948717FB
:1012400081EB96E0BE0142E050E00E94D01E61E0DA
:1012500070E080E090E00E94051B219682E0C130A2
:10126000D807E9F681EB96E00E94351381EB96E012
:1012700063E041E00E940D1381EB96E069E672E0C5
:101280000E94E21E68EE73E080E090E00E94051B81
:10129000DF91CF910895CF93DF9381EB96E00E9489
:1012A000351381EB96E061E141E00E940D13C1E04E
:1012B000D0E0FE01E85AFB4F87E897E0BE0140818D
:1012C0000E94871781EB96E0BE0142E050E00E9449
:1012D000D01E61E070E080E090E00E94051B219646
:1012E00082E0C130D80729F781EB96E00E943513E0
:1012F00081EB96E063E041E00E940D1381EB96E004
:1013000069E772E00E94E21E68EE73E080E090E020
:101310000E94051BDF91CF910895CF93DF9381EB5E
:1013200096E00E94351381EB96E061E141E00E9476
:101330000D13C1E0D0E087E897E0BE010E9480175E
:10134000FE01E85AFB4F80832197E0918A07F091D4
:101350008B07EC0FFD1F2196808381EB96E0BE0189
:1013600042E050E00E94D01E61E070E080E090E03A
:101370000E94051B219682E0C130D807E1F681EB7F
:1013800096E00E94351381EB96E063E041E00E9415
:101390000D1381EB96E067E872E00E94E21E68EEB2
:1013A00073E080E090E00E94051BDF91CF910895EB
:1013B00081EB96E00E94351381EB96E060E040E01F
:1013C0000E940D1381EB96E066E972E00E94E21E36
:1013D00081EB96E061E042E00E940D1381EB96E024
:1013E00066EA72E00E94E21E81EB96E061E043E073
:1013F0000E940D1381EB96E06BEA72E00E94E21E00
:1014000081EB96E067E042E00E940D1381EB96E0ED
:1014100060EB72E00E94E21E81EB96E067E043E041
:101420000E940D1381EB96E066EB72E00E94E21ED3
:1014300081EB96E06EE043E00E940D1381EB96E0B5
:101440006CEB72E00E94E21E10925B0682E08093D9
:101450005C06EDE5F6E0DF0198961082148A1C9296
:1014600054961C9254973196119686E0E137F8070E
:10147000A1F781E0848B80A786A7828F85AB80E06F
:1014800060E070E052D980915B06882329F4809156
:101490005C06833009F441DF80915B06863029F4D5
:1014A00080915C06833009F4ACDE80915B06882372
:1014B00029F480915C06823009F4EDDE80915B06B0
:1014C000863029F480915C06823009F4AECD08950F
:1014D0002F923F924F925F926F927F928F929F9244
:1014E000AF92BF92CF92DF92EF92FF920F931F9332
:1014F000DF93CF93CDB7DEB728970FB6F894DEBF52
:101500000FBECDBF8FEF90E09A838983A1E0B0E05A
:10151000B887AF83662477244301AA24BB246501DE
:1015200081EB96E00E94351381EB96E063E040E0AA
:101530000E940D1381EB96E063EC72E00E94E21EC4
:1015400081EB96E060E041E00E940D1381EB96E0B4
:1015500069EC72E00E94E21E81EB96E060E042E0FE
:101560000E940D1381EB96E06CED72E00E94E21E8A
:1015700081EB96E060E043E00E940D1381EB96E082
:1015800061EF72E00E94E21E89819A8169E070E059
:1015900040E050E032D88F81988569E070E041E00A
:1015A00050E02BD8C30169E070E042E050E025D85C
:1015B000C50169E070E043E050E01FD8B8E0B093A7
:1015C0005B0610925C06EDE5F6E0DF01989610826E
:1015D000148A1C9254961C9254973196119626E0C8
:1015E000E137F207A1F781E0808780AB848F8587A0
:1015F00081A385AB8093650680E060E070E095D8BC
:1016000080915B068D3029F480915C06813009F46D
:1016100076D180915B068D3009F08EC080915C069A
:10162000823011F4C5DE7CCF833009F0B8C0C6012A
:10163000B501A40193010E94E41E615072408040F4
:10164000904054F081EB96E06DE040E0E6D781EB0E
:1016500096E065E073E06DC081EB96E06DE040E000
:10166000DCD781EB96E06DE073E00E94E21E71E052
:10167000E72EF12C012D112D8F819885AA2797FD3A
:10168000A095BA2F8B839C83AD83BE8343C091E02A
:10169000E916F1040105110509F02CC12B803C80ED
:1016A0004D805E80A1E02A16A2E03A06A0E04A063C
:1016B000A0E05A0634F02618370848085908860171
:1016C000750181EB96E061E140E0A7D781EB96E000
:1016D000B201A1012AE030E00E94921E65E070E0B4
:1016E00080E090E00E94051BC101019720918A07CC
:1016F00030918B07280F391F8981F901808391016F
:10170000285A3B4FE981D901EC930894E11CF11C64
:10171000011D111DAE14BF04C006D1060CF0B7CFD9
:1017200081EB96E06DE040E078D781EB96E065E1F3
:1017300073E00E94E21E47CF883089F580915C06F5
:10174000813069F58093AE06F9E0F093AD0680E054
:1017500020DB8091AF069091B00698878F83892B0C
:1017600069F481E090E069E070E041E050E00E94BF
:10177000FD02A1E0B0E0B887AF8311C0EF81F8852A
:10178000E150F24064F080E092E069E070E041E016
:1017900050E00E94FD0280E092E098878F83809164
:1017A0005B068830E9F580915C068230C9F580934C
:1017B000AE0699E09093AD0680E0EBDA8091AF063B
:1017C0009091B0063C01882477FC8094982C611499
:1017D00071048104910471F481E090E069E070E0AB
:1017E00042E050E00E94FD0261E0662E712C812CE7
:1017F000912C16C0A1E06A16A2E07A06A0E08A0643
:10180000A0E09A066CF080E092E069E070E042E0CF
:1018100050E00E94FD02612C52E0752E812C912C2B
:1018200080915B068830E9F580915C068330C9F5CC
:101830008093AE06B9E0B093AD0680E0AADA80915D
:10184000AF069091B0065C01CC24B7FCC094DC2CB0
:10185000A114B104C104D10471F481E090E069E005
:1018600070E043E050E00E94FD0241E0A42EB12C64
:10187000C12CD12C16C0E1E0AE16E2E0BE06E0E0DD
:10188000CE06E0E0DE066CF080E092E069E070E019
:1018900043E050E00E94FD02A12C32E0B32EC12CA7
:1018A000D12C80915B06883009F08DCE80915C064A
:1018B000882309F088CE1092AE06F9E0F093AD06C9
:1018C00081E067DA8091AF069091B0069A838983B0
:1018D0008F3F910509F00CF476CE8FEF90E069E030
:1018E00070E040E050E00E94FD02AFEFB0E0BA834C
:1018F000A98369CE260C371C481C591CD3CE81EB1A
:1019000096E0B3D681EB96E060E040E086D681EBCE
:1019100096E069E173E00E94E21E81EB96E062E0EE
:1019200042E07BD681EB96E06AE273E00E94E21E21
:1019300081EB96E062E043E070D681EB96E062E3F3
:1019400073E00E94E21E81EB96E06CE042E065D617
:1019500081EB96E069E373E00E94E21E81EB96E082
:101960006CE043E05AD681EB96E060E473E00E94BD
:10197000E21E81E080935B0682E080935C06EDE5E9
:10198000F6E0DF0198961082148A1C9254961C92FD
:1019900054973196119686E0E137F807A1F781E078
:1019A000858B81A7878F83AB80E060E070E00E9429
:1019B000950380915B06813029F480915C0682302A
:1019C00009F4E8D180915B06813029F480915C06AE
:1019D000833009F413D080915B068B3029F4809119
:1019E0005C06823009F4F9D280915B068B3029F4D1
:1019F00080915C06833009F46BCD08952F923F925D
:101A00004F925F926F927F928F929F92AF92BF920E
:101A1000CF92DF92EF92FF920F931F93DF93CF93BA
:101A2000CDB7DEB760970FB6F894DEBF0FBECDBF5F
:101A300081E090E09093F2038093F103988B8F877D
:101A40000CE011E081EB96E010D681EB96E060E0CF
:101A500040E0E3D581EB96E069E473E00E94E21E8A
:101A60008F859889F8D800935B0610925C06EDE5A7
:101A7000F6E0DF0198961082148A1C9254961C920C
:101A800054973196119626E0E137F207A1F71093AB
:101A900061061093650610936906108314831087FE
:101AA0001487108B148B108F148F10A314A310A7FE
:101AB00014A710AB14AB10AF8F8598890B969A833F
:101AC0008983EF85F8893696FC83EB832F853889E7
:101AD000235F3F4F3E832D838F8598890A96988791
:101AE0008F83EF85F8893896FA87E9872F853889BB
:101AF0002B5F3F4F3C872B878F8598890E969E875B
:101B00008D8739E0232E312CEF85F8892E0E3F1E6C
:101B10002CE0422E512C4E0E5F1E97E0692E712C48
:101B20006E0E7F1E84E0882E912C8E0E9F1EB2E0DA
:101B3000AB2EB12CAE0EBF1EA3E0CA2ED12CCE0E02
:101B4000DF1E7F010894E11CF11C81E06F8578891C
:101B50000E94950390915B06943039F480915C0665
:101B6000882309F041C024DC6DCF983039F480918E
:101B70005C06882309F041C0C2DE64CF9C3059F571
:101B800080915C06882309F043C01092AE06FDE008
:101B9000F093AD06FED88091AF069091B006835FBA
:101BA000914034F082EF91E09093B0068093AF06BD
:101BB0008091AF069091B006892B31F4E1E0F0E01E
:101BC000F093B006E093AF062091AF063091B006D7
:101BD000388B2F8737CF992371F480915C06813041
:101BE00069F5EF85F88939C0813089F5F092F20303
:101BF000E092F10388C0983049F480915C0681300E
:101C000081F4B092F203A092F1037DC09C3049F4BC
:101C100080915C06813099F5D092F203C092F10375
:101C200072C0903149F480915C06813089F59092C0
:101C3000F2038092F10367C0992339F480915C0626
:101C4000823089F52B853C855AC0943059F48091B7
:101C50005C06823089F5EB81FC81F093F203E0931E
:101C6000F10351C0983049F480915C06823069F5E7
:101C70007092F2036092F10346C09C3039F4809177
:101C80005C06823069F529853A8539C0903149F47E
:101C900080915C06823069F53092F2032092F10364
:101CA00032C0992339F480915C06833061F5EF816D
:101CB000F885D3CF943039F480915C06833019F5E0
:101CC00029813A811CC0983049F480915C068330A8
:101CD000D1F45092F2034092F10315C09C3039F4D4
:101CE00080915C06833079F4ED81FE81B6CF90312E
:101CF00051F480915C06833031F42D853E8530931C
:101D0000F2032093F10380915C068093AE069F5FFF
:101D10009093AD0681E03DD88091AF069091B006DA
:101D20008456924039F40E9439038091AD06845064
:101D30008093AD068091AF069091B0068F3F9105DC
:101D400089F084F08FEF90E09093B0068093AF0617
:101D50006091AD0670E06E5F7F4F4091AE0650E03F
:101D60000E94FD028091F1039091F2030197E091AE
:101D70008A07F0918B07E80FF91F8091AF068083E7
:101D8000E091F103F091F203E85AFB4F8091AF0626
:101D90008083DBCEAF92BF92CF92DF92EF92FF9221
:101DA0000F931F93CF93DF93C1E0D0E078E0A72E8D
:101DB00001E069E0B62EE12C52E0F52E4FEFC42E83
:101DC000D12CD093F203C093F10381EB96E04DD474
:101DD00081EB96E060E040E020D481EB96E06BE59B
:101DE00073E00E94E21E81EB96E06EE042E015D4C3
:101DF00081EB96E06CE673E00E94E21E81EB96E0D8
:101E00006EE043E00AD481EB96E061E773E00E9464
:101E1000E21E81EB96E060E042E0FFD381EB96E0CA
:101E200068E773E00E94E21E81EB96E062E043E027
:101E3000F4D381EB96E065E873E00E94E21E8091A6
:101E4000590490E069E070E043E050E00E94FD0238
:101E5000A0925B0682E080935C06EDE5F6E0DF0190
:101E600098961082148A1C9254961C92549731961C
:101E7000119626E0E137F207A1F7048F00AB01A32A
:101E800005AB80E060E070E00E94950380915B0606
:101E9000883009F04EC010915C06123009F049C03C
:101EA0008091F1039091F20369E070E042E050E02C
:101EB0000E94FD021093AE06B092AD0680E00E9433
:101EC000C9068091AF069091B0068150924064F0AF
:101ED000F092B006E092AF0680E092E069E070E038
:101EE00042E050E00E94FD028091AF069091B00662
:101EF0001816190664F0D093B006C093AF0681E0BF
:101F000090E069E070E042E050E00E94FD02E09164
:101F1000AF06F091B006F093F203E093F103E85AB4
:101F2000FB4F808190E069E070E043E050E00E9468
:101F3000FD0280915B06883009F041C080915C060B
:101F4000833009F09ECF8093AE06B092AD0681E05B
:101F50000E94C9068091AF069091B00684569240C7
:101F600011F40E9439038091AF069091B0068F3F23
:101F7000910569F064F0D092B006C092AF068FEF81
:101F800090E069E070E043E050E00E94FD02809143
:101F9000F1039091F2030197E0918A07F0918B078A
:101FA000E80FF91F8091AF068083E091F103F09173
:101FB000F203E85AFB4F8091AF06808362CF8D30E9
:101FC00009F05FCF80915C06833011F4F1D9F9CE2E
:101FD000823009F056CF93DC54CF2F923F924F922C
:101FE0005F926F927F928F929F92AF92BF92CF92A9
:101FF000DF92EF92FF920F931F93DF93CF93CDB7B2
:10200000DEB728970FB6F894DEBF0FBECDBF81EBC9
:1020100096E02BD381EB96E060E040E0FED281EBCE
:1020200096E06CE873E00E94E21E81EB96E063E0CC
:1020300041E0F3D281EB96E069E973E00E94E21E91
:1020400081EB96E060E042E0E8D281EB96E06AEA5C
:1020500073E00E94E21E81EB96E060E043E0DDD297
:1020600081EB96E06EEB73E00E94E21E81E090E06F
:1020700069E070E041E050E00E94FD0281E090E004
:1020800069E070E042E050E00E94FD0280E090E0F4
:1020900069E070E043E050E00E94FD0288E0809338
:1020A0005B0681E080935C0621E030E040E050E098
:1020B00029833A834B835C8301E0802E912CA12CF1
:1020C000B12C442455243201EDE5F6E0DF01989669
:1020D0001082148A1C9254961C9254973196119631
:1020E00036E0E137F307A1F741E04087448F40AB8A
:1020F00042A346AB80E060E070E00E9495038091CF
:102100005B068E3029F480915C06823009F4F7DB9F
:1021100080915B068E3009F0A6C080915C0683300A
:1021200009F0BCC08D829E8281EB96E06FE043E0B7
:1021300074D281EB96E063ED73E00E94E21E80E0D2
:1021400090E0FC01E85AFB4F1082E0918A07F09181
:102150008B07E80FF91F1082019652E08130950736
:1021600081F78D819E819C01690118E5212E14E083
:10217000312E280C391C59C08F819885019698877B
:102180008F838451954009F055C00894E11CF11CDF
:10219000011D111D29813A814B815C81E216F306F4
:1021A0000407150709F044C0C601AA2797FDA095AA
:1021B000BA2F481659066A067B0624F48D819E8143
:1021C0009C016901C60169E070E040E050E00E94B6
:1021D000FD02D101A50194010EC0C9010197E09152
:1021E0008A07F0918B07E80FF91F10821D922F5F6D
:1021F0003F4F4F4F5F4F42165306640675066CF70C
:102200000894C108D108E0918A07F0918B07EC0D82
:10221000FD1D0894C11CD11C3FEF3083F601E85A24
:10222000FB4F30830894C11CD11CEE24FF2487018E
:1022300018861F828091FB030E948D1D019709F46F
:102240009BCF81EB96E06FE043E0E7D181EB96E036
:1022500069ED73E00E94E21E6CE271E080E090E0C4
:102260000E94051B31CF8830C9F480915C06813013
:10227000A9F48093AE0649E04093AD0680E00E9449
:10228000C9068091AF069091B0069C01442737FDA6
:102290004095542F29833A834B835C8380915B065E
:1022A0008830F1F580915C068230D1F58093AE06DE
:1022B00039E03093AD0680E00E94C9068091AF06F8
:1022C0009091B0064C01AA2497FCA094BA2C8114DA
:1022D0009104A104B10471F481E090E069E070E040
:1022E00042E050E00E94FD02B1E08B2E912CA12C27
:1022F000B12C16C041E0841642E0940640E0A406EA
:1023000040E0B4066CF080E092E069E070E042E00A
:1023100050E00E94FD02812CA2E09A2EA12CB12C4B
:1023200080915B06883009F0CFCE80915C068330C7
:1023300009F0CACE8093AE0659E05093AD0680E016
:102340000E94C9068091AF069091B0062C016624C8
:1023500057FC6094762C411451046104710471F4AB
:1023600081E090E069E070E043E050E00E94FD020F
:10237000F1E04F2E512C612C712CA6CE81E0481635
:1023800082E0580680E0680680E078060CF49CCE77
:1023900080E092E069E070E043E050E00E94FD02DE
:1023A000412CE2E05E2E612C712C8ECE81EB96E00A
:1023B0005CD181EB96E060E040E02FD181EB96E0CC
:1023C0006FED73E00E94E21E81EB96E062E042E076
:1023D00024D181EB96E060EB72E00E94E21E81EB7B
:1023E00096E069E042E019D181EB96E06BEA72E099
:1023F0000E94E21E81EB96E06FE042E00ED181EB9D
:1024000096E066EB72E00E94E21E81E080935B063C
:1024100082E080935C06EDE5F6E0DF01989610829D
:10242000148A1C9254961C9254973196119686E009
:10243000E137F807A1F781E0858B848F82A380E0E4
:1024400060E070E00E94950380915B06883039F46B
:1024500080915C06823019F40E948D0950DA8091D7
:102460005B068E3039F480915C06823019F40E944C
:10247000010945DA80915B06813029F480915C0680
:10248000823009F43CCA089582E061E00E945B1D3D
:102490000E9459088BCF8091EF0361E00E94A81C35
:1024A0008091F30362E00E94A81C8091F50362E032
:1024B0000E94A81C8091F70362E00E94A81C8091F2
:1024C000F90362E00E94A81C8091FB0362E00E9475
:1024D000A81C8091FD0361E00E94A81C8091FF036D
:1024E00061E00E94A81C8091010461E00E94A81C88
:1024F0008091030461E00E94A81C8091050462E0C1
:102500000E94A81C8091070462E00E94A81C809190
:10251000090462E00E94A81C80910B0462E00E9402
:10252000A81C8091FD0361E00E945B1D8091FF0368
:1025300061E00E945B1D8091010461E00E945B1DCF
:102540008091030461E00E945B1D80910E0461E0B4
:102550000E94A81C8091100461E00E94A81C809138
:10256000180461E00E94A81C8091160461E00E949A
:10257000A81C8091140461E00E94A81C80911204A0
:1025800061E00E94A81C81EB96E064E144E020E059
:1025900072D081E090E09093A00780939F0780E045
:1025A00092E090939C0780939B0788E897E060E017
:1025B0000BC608950895FC011382128284E294E010
:1025C000918380830895FC01A081B18118962D919B
:1025D0003C9119976FEFF90119950895DC01ED9180
:1025E000FC910284F385E02D40E019950895FC01EB
:1025F0006581862F816085836960CF01EFCFFC0103
:1026000065816E7F65836860E9CFFC016581862FF7
:10261000846085836C60CF01E1CFDC0117969C91CB
:102620001797491710F0492F415018968C91189719
:10263000803139F4943029F4E42FF0E0E05DFB4F71
:1026400004C0E42FF0E0EC5CFB4F8081680F606811
:10265000CD01C4CFDC01ED91FC910284F385E02D26
:1026600041E0199581E090E0089561E0B7DF80EDE9
:1026700097E00C945E1BCF93DF93EC01423018F08F
:102680008C8188608C834F836887222329F04130B6
:1026900019F48C8184608C8364E670E080E090E0C3
:1026A000B4D76C8164FD2EC0E881F9810284F38582
:1026B000E02DCE0163E042E0199584E991E1FED777
:1026C000E881F9810284F385E02DCE0163E042E0E8
:1026D000199584E991E1F2D7E881F9810284F385C3
:1026E000E02DCE0163E042E0199586E990E0E6D75F
:1026F000E881F9810284F385E02DCE0162E042E0B9
:10270000199511C06062CE0169DF84E991E1D6D7E5
:102710006C816062CE0162DF86E990E0CFD76C8188
:102720006062CE015BDF6C816062CE0157DF84E0C6
:102730008D83CE016ADFCE0198DF82E08E83CE01E9
:1027400066E04CDFCE013FDFDF91CF9108950F931C
:102750001F938C01FC01858561E00E945B1DF801DF
:10276000858560E00E945B1D1F910F910895BF92C7
:10277000CF92DF92EF92FF920F931F93CF93DF934D
:10278000D82EC92EB42E282F392FC9018C01C0E0B4
:10279000D0E0E62EFF240DC0B7010C2E02C07595C7
:1027A00067950A94E2F76170F80185850E945B1DC8
:1027B00021960F5F1F4FCB1578F38D2D9C2DC7DF12
:1027C000DF91CF911F910F91FF90EF90DF90CF900D
:1027D000BF9008950F931F93CF93DF93EC01162FB3
:1027E000042F60E0413009F461E08B850E945B1D9D
:1027F0008C858F3F19F060E00E945B1D023089F0EC
:102800008C8184FF04C0CE01612F48E00DC0612F90
:1028100070E084E0759567958A95E1F7CE0144E014
:10282000A6DFCE01612F44E0A2DFDF91CF911F919F
:102830000F9108956F927F928F92AF92CF92EF9205
:102840000F931F93DF93CF93CDB7DEB73C01162FC5
:102850008E2DF301438724870587E686C786A08AE5
:10286000818A9E85928B9F85938B9889948B998979
:10287000958B61E00E94A81CF301878561E00E94AE
:10288000A81CF301808961E00E94A81CF3018189E2
:1028900061E00E94A81C1123A1F4F301828961E088
:1028A0000E94A81CF301838961E00E94A81CF30127
:1028B000848961E00E94A81CF301858961E00E947F
:1028C000A81CF301838561E00E94A81CF3018485A4
:1028D0008F3F19F061E00E94A81CF301858561E03B
:1028E0000E94A81C112319F0F301148203C080E197
:1028F000F3018483F301838560E00E945B1DF30193
:10290000858560E00E945B1DF30184858F3F19F08F
:1029100060E00E945B1D8FEFF301868B12861186AB
:10292000CF91DF911F910F91EF90CF90AF908F904B
:102930007F906F900895DF92EF92FF920F931F9315
:102940008C01D62E7A01862F61E00E94A81CD80146
:102950005696DC9256971A96FC92EE921997ED9144
:10296000FC910084F185E02DC80160E019951F916C
:102970000F91FF90EF90DF900895DC01362F56966F
:102980002C9156972F3F49F1E22FF0E0E254FE4F91
:10299000E491EE2379F019968D919C911A97892BE9
:1029A00019F4822F70E005C06FEF70E0631B7109AE
:1029B000822FF0C619968D919C911A97662319F073
:1029C000892B39F402C0019721F4822F61E00C9425
:1029D0005B1D822F60E00C945B1D08956F927F92C7
:1029E0008F92AF92BF92CF92DF92EF92FF920F93AE
:1029F0001F933C01162FF42ED22EB02EAE2C8C2C11
:102A0000DADD8CE394E0D3018D939C9300D00F9298
:102A1000EDB7FEB73196ADB7BEB711961C921182D5
:102A200012821382C30161E0412F2FEF0F2DED2C95
:102A3000CB2C00DF0F900F900F900F901F910F91F4
:102A4000FF90EF90DF90CF90BF90AF908F907F90EE
:102A50006F9008952091E90630E08091E806281BE8
:102A60003109C90108954091E8068091E9064817A7
:102A700018F02FEF3FEF0AC0E42FF0E0E853F94FD2
:102A80008081282F30E04F5F4093E806C901089508
:102A9000E091E8068091E906E81718F0EFEFFFEF04
:102AA00006C0F0E0E853F94F8081E82FF0E0CF0155
:102AB000089508951092100710920F0788EE93E082
:102AC000A0E0B0E08093110790931207A093130742
:102AD000B09314078CE494E090930E0780930D0755
:102AE0000895CF92DF92EF92FF920F931F93CF93AF
:102AF000DF937C016B018A0180910C078823A1F090
:102B0000C0E0D0E00DC0D701ED91FC91D601AC0F33
:102B1000BD1F0190F081E02DC7016C9119952196A0
:102B2000C017D10780F303C0CB01642F39D0C8018F
:102B3000DF91CF911F910F91FF90EF90DF90CF9099
:102B40000895DF93CF930F92CDB7DEB7FC01698371
:102B500080910C078823C9F080910B07803238F0F0
:102B600081E090E09383828320E030E014C0809184
:102B70000A07E82FF0E0E651F94F998190838F5FC3
:102B800080930A0780930B0704C0CE01019661E091
:102B900007D021E030E0C9010F90CF91DF91089577
:102BA000482F613210F081E0089580911907843038
:102BB00011F082E0089560936407A3E4B7E0842FE6
:102BC0009C01F90102C081918D938E2F841B861781
:102BD000D0F380E008951F920F920FB60F920BB6BC
:102BE0000F9211242F933F934F935F936F937F9393
:102BF0008F939F93AF93BF93EF93FF938091B9000F
:102C000090E0887F90708036910509F4F2C081369B
:102C10009105CCF58832910509F47BC08932910584
:102C2000B4F48031910509F46FC0813191053CF411
:102C3000009709F447C1089709F04FC165C0883172
:102C4000910509F466C0809709F047C182C08034BD
:102C5000910509F4A4C08134910544F480339105B1
:102C600009F482C0C89709F038C189C08035910540
:102C700009F489C08835910509F496C08834910516
:102C800009F02BC1AEC08839910509F413C1893907
:102C90009105ECF48837910509F4ABC089379105AB
:102CA0004CF48836910509F4A4C08037910509F0E9
:102CB00014C19FC08838910509F4FCC08039910582
:102CC00009F49DC08038910509F007C198C0803B88
:102CD000910509F4C6C0813B91054CF4803A9105F9
:102CE00009F49FC0883A910509F0F7C0BAC0803C4A
:102CF000910509F4E3C0883C910509F4DFC0883BE5
:102D0000910509F0EAC0C2C080911A078093BB0008
:102D1000CFC09091410780914207981768F4909135
:102D20004107E92FF0E0EF5DF84F80818093BB0011
:102D30009F5F90934107BCC080911B07882309F4D3
:102D40004BC085ED8093BC008091BC0084FDFCCF1E
:102D5000C2C080E28093860785ED8093BC0080919D
:102D6000BC0084FDFCCFB7C080E38093860785ED6F
:102D70008093BC008091BC0084FDFCCFACC088E394
:102D8000809386079BC0809141079091BB00E82FFC
:102D9000F0E0EF5DF84F90838F5F80934107909153
:102DA00041078091420782C0809141079091BB000A
:102DB000E82FF0E0EF5DF84F90838F5F809341073D
:102DC00080911B07882341F085ED8093BC008091A2
:102DD000BC0084FDFCCF7FC081E080931C0784EAA7
:102DE0006EC085ED8093BC008091BC0084FDFCCF5B
:102DF00072C083E0809319071092850759C08091B3
:102E00008507803208F056C0809185079091BB00FD
:102E1000E82FF0E0EB59F84F90838F5F80938507A0
:102E200047C080918507803230F4E0918507F0E05B
:102E3000EB59F84F108285ED8093BC008091BC0067
:102E400084FDFCCF1092190760918507E0911F0760
:102E5000F091200785E697E070E0199510928507BC
:102E60002DC084E0809319071092630710926407C5
:102E7000E0911D07F0911E07199580916407882342
:102E800029F481E0809364071092430790916307CF
:102E9000E92FF0E0ED5BF84F80818093BB009F5FEE
:102EA000909363079091630780916407981710F4DB
:102EB00085EC01C085E88093BC000FC085EC809351
:102EC000BC0009C01092860785ED8093BC008091FC
:102ED000BC0084FDFCCF10921907FF91EF91BF91C8
:102EE000AF919F918F917F916F915F914F913F91A2
:102EF0002F910F900BBE0F900FBE0F901F90189543
:102F0000F999FECF72BD61BDF89A80B50895F9991F
:102F1000FECF1FBA72BD61BD40BD0FB6F894FA9ADC
:102F2000F99A0FBE0895FC018385882331F48091BE
:102F3000C10087728093C1000895813031F480917F
:102F4000C90087728093C9000895823031F480915E
:102F5000D10087728093D1000895833029F4809145
:102F6000310187728093310108951F920F920FB63D
:102F70000F920BB60F9211242F933F934F935F93B1
:102F80006F937F938F939F93AF93BF93EF93FF9331
:102F90008091C000809390073091C60030939107D4
:102FA00020918C072093920784FF10C08091C0006D
:102FB0008F7E8093C00080919D0790919E07909393
:102FC00096078093950781E080938C07213091F4D8
:102FD000332369F482E080938C0780918807909175
:102FE0008907019690938E0780938D074BC01092AE
:102FF0008C0748C02230A1F48091950790919607E4
:1030000001979093960780939507892BD9F583E0D4
:1030100080938C07E0918807F0918907308332C054
:10302000233081F5E0918D07F0918E07F093AB0787
:10303000E093AA0730834091AA075091AB074F5FF6
:103040005F4F5093AB074093AA07809188079091F8
:1030500089072091990730919A07820F931F48178B
:10306000590760F010928C07E091AE07F091AF071E
:10307000309741F080919307199504C050938E07C3
:1030800040938D07FF91EF91BF91AF919F918F91E9
:103090007F916F915F914F913F912F910F900BBE58
:1030A0000F900FBE0F901F9018951F920F920FB6A2
:1030B0000F920BB60F9211242F933F934F935F9370
:1030C0006F937F938F939F93AF93BF93EF93FF93F0
:1030D000809194078093A907882361F41092C5001A
:1030E0008091A6078093C4001092C60081E080936F
:1030F000940740C0813081F41092C5008091A507EB
:103100008093C4001092C60082E0809394071092CE
:103110009807109297072EC0809197079091980773
:103120009093A8078093A707E0918A07F0918B07F7
:10313000E80FF91F20812093C6009C012F5F3F4FAD
:103140003093A8072093A70780919B0790919C0735
:103150002817390759F4E091AC07F091AD07309783
:1031600011F080E019951092940704C030939807ED
:1031700020939707FF91EF91BF91AF919F918F910E
:103180007F916F915F914F913F912F910F900BBE67
:103190000F900FBE0F901F90189521E030E03093F4
:1031A0009E0720939D0788E090E090939A07809374
:1031B00099073093A00720939F0790939C078093D3
:1031C0009B071092930708951F93CF93DF93EC0111
:1031D000162FF894A8DE1C8F112321F487E08D8F21
:1031E00084E10BC0113021F483E08D8F8AE005C0AB
:1031F000123021F481E08D8F85E08E8F8B8D8F3F93
:1032000029F061E0A5D38B8D61E055D48B858823AF
:10321000D1F481E061E09CD31092C5008D8D809344
:10322000C4008091C00082608093C0008091C20081
:103230008E608093C2008091C10088648093C10039
:103240001092C60053C08130D1F482E161E080D396
:103250001092CD008D8D8093CC008091C80082604B
:103260008093C8008091CA008E608093CA008091CC
:10327000C90088648093C9001092CE0037C08230A4
:10328000D1F480E161E064D31092D5008D8D8093FC
:10329000D4008091D00082608093D0008091D200D1
:1032A0008E608093D2008091D10088648093D10099
:1032B0001092D6001BC08330C9F48EE061E048D381
:1032C000109235018D8D80933401809130018260A0
:1032D00080933001809132018E6080933201809121
:1032E00031018864809331011092360181E08C872E
:1032F0008B899C890DD08A839B834B895C8960E094
:1033000070E00E9433017894DF91CF911F9108956E
:103310000F931F93CF93DF93BC018230910510F47C
:1033200062E070E0E091BB07F091BC0740E050E044
:10333000A0E0B0E024C08081918186179707D0F08B
:103340008617970771F482819381109729F013965D
:103350009C938E9312972CC09093BC078093BB07CD
:1033600027C04115510519F08417950718F48D01F0
:10337000AC01EF01DF01828193819C01F90130975B
:10338000D1F641155105F9F0CA01861B970B84301F
:10339000910580F48A819B810115110521F0F801C6
:1033A0009383828304C09093BC078093BB07FE0184
:1033B000329645C0FE01E80FF91F619371930297A1
:1033C000998388833CC08091B9079091BA07892B73
:1033D00041F480911C0490911D049093BA0780934E
:1033E000B90740911E0450911F044115510541F445
:1033F0004DB75EB780911A0490911B04481B590B7E
:103400002091B9073091BA0724173507B0F4CA01E3
:10341000821B930B8617970780F0AB014E5F5F4FBF
:103420008417950750F0420F531F5093BA074093EB
:10343000B907F9016193719302C0E0E0F0E0CF01B8
:10344000DF91CF911F910F910895CF93DF939C014E
:10345000009709F48FC0EC0122971B821A826091B9
:10346000BB077091BC076115710581F48881998152
:10347000820F931F2091B9073091BA072817390797
:1034800039F5D093BA07C093B90774C0DB0140E0A7
:1034900050E0AC17BD0708F1BB83AA83FE01219160
:1034A0003191E20FF31FAE17BF0779F48D919C9114
:1034B0001197280F391F2E5F3F4F398328831296AB
:1034C0008D919C9113979B838A834115510571F4CB
:1034D000D093BC07C093BB074DC012968D919C91B1
:1034E0001397AD01009711F0DC01D3CFDA011396E9
:1034F000DC93CE931297FA0121913191E20FF31FE1
:10350000CE17DF0769F488819981280F391F2E5F54
:103510003F4FFA01318320838A819B819383828389
:10352000E0E0F0E0DB0112968D919C9113970097FB
:1035300019F0BC01FD01F6CFAB014E5F5F4FDB011F
:103540008D919C91840F951F2091B9073091BA07F6
:103550002817390779F4309729F41092BC07109294
:10356000BB0702C013821282425050405093BA07E8
:103570004093B907DF91CF9108951F920F920FB634
:103580000F9211242F933F938F939F93AF93BF93E9
:103590008091B4079091B507A091B607B091B70795
:1035A0003091B8070196A11DB11D232F2D5F2D3736
:1035B00020F02D570196A11DB11D2093B8078093CF
:1035C000B4079093B507A093B607B093B70780915F
:1035D000B0079091B107A091B207B091B3070196DF
:1035E000A11DB11D8093B0079093B107A093B207BE
:1035F000B093B307BF91AF919F918F913F912F915E
:103600000F900FBE0F901F9018959B01AC017FB7D4
:10361000F8948091B0079091B107A091B207B09152
:10362000B30766B5A89B05C06F3F19F00196A11DB1
:10363000B11D7FBFBA2FA92F982F8827860F911D04
:10364000A11DB11D62E0880F991FAA1FBB1F6A95BB
:10365000D1F7BC012DC0FFB7F8948091B0079091CD
:10366000B107A091B207B091B307E6B5A89B05C01A
:10367000EF3F19F00196A11DB11DFFBFBA2FA92F71
:10368000982F88278E0F911DA11DB11DE2E0880F94
:10369000991FAA1FBB1FEA95D1F7861B970B885E5F
:1036A0009340C8F2215030404040504068517C4F18
:1036B000211531054105510571F60895019739F03D
:1036C000880F991F880F991F02970197F1F70895A6
:1036D000789484B5826084BD84B5816084BD85B5ED
:1036E000826085BD85B5816085BDEEE6F0E08081B4
:1036F00081608083E1E8F0E01082808182608083D5
:10370000808181608083E0E8F0E080818160808357
:10371000E1EBF0E0808184608083E0EBF0E0808189
:1037200081608083E1E9F0E0808182608083808134
:1037300081608083E0E9F0E0808181608083E1EA5C
:10374000F0E0808182608083808181608083E0EA14
:10375000F0E0808181608083E1E2F1E0808182603D
:103760008083808181608083E0E2F1E080818160FC
:103770008083EAE7F0E080818460808380818260DA
:1037800080838081816080838081806880831092C3
:10379000C10008951F93CF93DF93182FEB0161E0D1
:1037A000D7D0209709F4CAC0CF3FD10509F4C9C0CA
:1037B000E12FF0E0E254FE4F8491893009F466C0B5
:1037C0008A30B0F48430F1F1853040F4823059F120
:1037D000833070F5813009F0AEC020C0873009F425
:1037E00043C0883008F048C0863009F0A4C034C017
:1037F0008D3009F478C08E3038F48B3009F45AC01B
:103800008C3008F066C04CC0803109F480C0813132
:1038100009F487C08F3009F08EC06FC084B580680E
:1038200084BDC7BD91C084B5806284BDC8BD8CC055
:1038300080918000806880938000D0938900C0933D
:10384000880082C080918000806280938000D09345
:103850008B00C0938A0078C08091B000806880930C
:10386000B000C093B30070C08091B00080628093BC
:10387000B000C093B40068C08091900080688093CD
:103880009000D0939900C09398005EC08091900002
:10389000806280939000D0939B00C0939A0054C0A4
:1038A00080919000886080939000D0939D00C09399
:1038B0009C004AC08091A00080688093A000809105
:1038C000A0008F7B8093A000D093A900C093A80094
:1038D0003BC08091A00080628093A000D093AB0099
:1038E000C093AA0031C08091A00088608093A0009E
:1038F000D093AD00C093AC0027C0809120018068B8
:1039000080932001D0932901C09328011DC080918C
:103910002001806280932001D0932B01C0932A0163
:1039200013C080912001886080932001D0932D01E5
:10393000C0932C0109C0C038D1051CF4812F60E070
:1039400002C0812F61E0B7D0DF91CF911F91089520
:10395000CF93DF93482F50E0CA0188589E4FFC0157
:1039600034914E5C5E4FFA018491882369F190E0B6
:10397000880F991FFC01EC51FF4FA591B491FC01F8
:10398000E250FF4FC591D491662351F42FB7F894BC
:103990008C91932F909589238C93888189230BC0D8
:1039A000623061F42FB7F8948C91932F909589230E
:1039B0008C938881832B88832FBF06C09FB7F89490
:1039C0008C91832B8C939FBFDF91CF910895893089
:1039D00009F449C08A30A0F4843051F1853040F4B4
:1039E000823079F1833000F5813009F063C026C060
:1039F000873079F1883098F5863009F05BC025C0B2
:103A00008D3009F442C08E3028F48B30B1F18C3007
:103A1000C0F52DC0803109F442C0813109F445C0A0
:103A20008F3009F047C037C0809180008F7703C086
:103A3000809180008F7D80938000089584B58F777A
:103A400002C084B58F7D84BD08958091B0008F77CA
:103A500003C08091B0008F7D8093B0000895809165
:103A600090008F7707C0809190008F7D03C0809178
:103A70009000877F8093900008958091A0008F77B9
:103A800007C08091A0008F7D03C08091A000877F38
:103A90008093A0000895809120018F7703C08091CA
:103AA00020018F7D80932001089580912001877FE0
:103AB000809320010895FF920F931F93F62E482FB5
:103AC00050E0CA0182549E4FFC012491CA018858DB
:103AD0009E4FFC0114914E5C5E4FFA01049100234D
:103AE000C1F0222311F0822F72DFE02FF0E0EE0F01
:103AF000FF1FE250FF4FA591B4919FB7F894FF20AC
:103B000021F48C911095812302C08C91812B8C9390
:103B10009FBF1F910F91FF9008950F931F93482F00
:103B200050E0CA0182549E4FFC012491CA0188587A
:103B30009E4FFC0104914E5C5E4FFA0114911123DB
:103B400019F420E030E014C0222311F0822F3FDF6F
:103B5000812F90E0880F991F885E9E4FFC01A591F0
:103B6000B4918C9120E030E0802311F021E030E02E
:103B7000C9011F910F9108950895CF93DF93A8DD98
:103B8000FBDF0E944B12C0E0D0E00E94441220975D
:103B9000E1F30E940000F9CF0895CF92DF92EF92F7
:103BA000FF920F931F93CF93DF937C016B018A01E8
:103BB000C0E0D0E00FC0D6016D916D01D701ED914D
:103BC000FC910190F081E02DC7011995C80FD91F14
:103BD000015010400115110571F7CE01DF91CF9111
:103BE0001F910F91FF90EF90DF90CF900895CF93AA
:103BF000DF93EC016115710519F420E030E00FC08E
:103C0000DB010D900020E9F71197A61BB70BE881A7
:103C1000F9810280F381E02DAD0119959C01C90164
:103C2000DF91CF9108954F925F927F928F929F92F2
:103C3000AF92BF92CF92DF92EF92FF920F931F93BA
:103C4000DF93CF93CDB7DEB7A1970FB6F894DEBF61
:103C50000FBECDBF2C01742ECB01223008F42AE018
:103C600019A231E2C32ED12CCC0EDD1E822E992456
:103C7000AA24BB24672D752FA5019401C4D0790116
:103C80008A01C801B701A50194019ED0472D461BAA
:103C90000894C108D1084A3014F4405D01C0495C61
:103CA000F6014083E114F1040105110521F07E2C99
:103CB0005F2DC801DFCFC201B60199DFA1960FB613
:103CC000F894DEBF0FBECDBFCF91DF911F910F9152
:103CD000FF90EF90DF90CF90BF90AF909F908F902C
:103CE0007F905F904F900895DC012115310541F4DC
:103CF000ED91FC910190F081E02D642F19950895CC
:103D000092CFEF92FF920F931F939A01E62EFF241A
:103D100000E010E0B801A701E7DF1F910F91FF90CD
:103D2000EF900895CF92DF92EF92FF920F931F933F
:103D3000CF93DF93EC016A017B012115310541F43A
:103D4000E881F9810190F081E02D642F19951DC063
:103D50002A303105C9F477FF16C0E881F981019056
:103D6000F081E02D6DE219958C0144275527BA01A9
:103D70004C195D096E097F09CE012AE054DF9801D4
:103D8000280F391F03C02AE04EDF9C01C901DF91D3
:103D9000CF911F910F91FF90EF90DF90CF900895FA
:103DA000EF92FF920F931F937B019A010027F7FC7C
:103DB0000095102FB801A701B5DF1F910F91FF905B
:103DC000EF90089514CF0895629FD001739FF00182
:103DD000829FE00DF11D649FE00DF11D929FF00D9B
:103DE000839FF00D749FF00D659FF00D9927729FD2
:103DF000B00DE11DF91F639FB00DE11DF91FBD015D
:103E0000CF0111240895A1E21A2EAA1BBB1BFD01AC
:103E10000DC0AA1FBB1FEE1FFF1FA217B307E407A9
:103E2000F50720F0A21BB30BE40BF50B661F771F01
:103E3000881F991F1A9469F76095709580959095E1
:103E40009B01AC01BD01CF010895EE0FFF1F05904E
:0A3E5000F491E02D1994F894FFCFCF
:103E5A0030303000202020003E002B002D2D2D0078
:103E6A0020005F5F5F004D656D6F727920456D7050
:103E7A0074696564210054656368496E7369646591
:103E8A002E636F6D2E6D7800444D582D35313200FA
:103E9A003C436F6E74726F6C6C65723E0046697259
:103EAA006D776172652076002E00486172647761D1
:103EBA00726520760049443A004D656D6F7279202B
:103ECA00436C65616E656421004D656D6F72792082
:103EDA00536176656421004D656D6F7279204C6F70
:103EEA006164656421004D656D6F7279204F70744D
:103EFA00696F6E733A0053617665004C6F616400B6
:103F0A00456D70747900436C6561720043616E633C
:103F1A00656C0056616C756500466972737420435E
:103F2A00482020202020204374726C004D756C7448
:103F3A0069706C792020202020204D656D6F727980
:103F4A00005175616E746974792020202020204107
:103F5A0070706C79004572726F72212000202020E7
:103F6A0020202020004F6B2100436F6E74726F6C0B
:103F7A00204F7074696F6E733A00556E697461727E
:103F8A0079004D61747269780043686173657200E3
:103F9A004D756C7469706C7900432D2D2D204D651B
:103FAA006D20437472202020202D00556E697461A3
:103FBA00727920436F6E74726F6C3A004374726C3C
:103FCA00004D656D6F7279004368616E6E656C3A7B
:103FDA00203030310056616C75653A004368617370
:103FEA0065724348202D2D2D0044656C617920208F
:103FFA002020207831303D6D530046697273742059
:10400A004348202020202020204374726C004669F7
:10401A006E616C20434820202020202020537461A8
:10402A0072740053746F7020005374617274004983
:10403A006E697469616C204D656D6F72793A000220
:10404A0000010033002D00350031002F002400222A
:10405A000020001E002C002A00280026001108005B
:10406A0009000A000B000C000D008000BD070000CB
:10407A00000000002A13CD1D3B13D912DA12CC1D01
:10408A000040105000401454000000002A13CD1DB7
:10409A003B139B14BD14EA1300000000A11571150F
:0840AA002A15331548155915BC
:00000001FF
