:1000000004C100002FC100002DC100002BC1000061
:1000100029C1000027C1000025C1000023C1000044
:1000200021C100001FC100001DC100001BC1000054
:1000300019C1000017C1000015C1000013C1000064
:1000400011C100000FC100000DC100000BC1000074
:1000500009C1000007C1000005C100000C94492A35
:1000600001C100000C944127FDC000000C94E12761
:10007000F9C00000F7C00000F5C00000F3C00000A8
:10008000F1C00000EFC00000EDC00000EBC00000B8
:10009000E9C00000E7C00000E5C000000C9477252F
:1000A000E1C00000DFC00000DDC00000DBC00000D8
:1000B000D9C00000D7C00000D5C00000D3C00000E8
:1000C000D1C00000CFC00000CDC00000CBC00000F8
:1000D000C9C00000C7C00000C5C00000C3C0000008
:1000E000C1C0000000002100240027002A002D00CC
:1000F0003000330001010000040107010A01000083
:100100002200250028002B002E00310034000201BF
:100110000000050108010B0100002000230026005B
:1001200029002C002F00320000010000030106010D
:10013000090105050505070508080808020202026D
:100140000A0A080804040404010101010101010173
:100150000303030303030303040707070C0C0C0C3E
:100160000C0C0C0C02020202060606060606060627
:100170000B0B0B0B0B0B0B0B0102102020080810B4
:100180002040102040800201020108040201010207
:1001900004081020408080402010080402018004E0
:1001A000020180402010080402010804020101023B
:1001B0000408102040800102040810204080000044
:1001C000090A02080B0C0D070603040100000000D9
:1001D000000000000000000000000000000000001F
:1001E0000000000000000000000011100F000000DF
:1001F00000000000000000000000000000000000FF
:10020000000000003A01E624592811241FBECFEF58
:10021000D1E2DEBFCDBF00E00CBF17E0A0E0B2E04E
:10022000E8E2FEE500E00BBF02C007900D92A833A4
:10023000B107D9F71BBE1CE0A8E3B7E001C01D92CF
:10024000A23AB107E1F712E0CAE0D2E004C0229777
:10025000FE010E940E2FC430D107C9F70E947D2DE8
:100260000C94122FCDCEDC0101C06D934150504053
:10027000E0F70895CF92EF920F9385E99BE06091AC
:10028000E2064091E4062091E6060091E806E0903F
:10029000EA06C090EC060E947A240F91EF90CF906E
:1002A00008953F924F925F926F927F928F929F92AA
:1002B000AF92BF92CF92DF92EF92FF920F931F9374
:1002C00081E18093DB0655245394B4E04B2EA7E0E4
:1002D0003A2EFFE09F2EE2E08E2E75E0772E68E04A
:1002E000662E53E0C52E46E0B42E39E0A32E1EE064
:1002F0000AE02BE0F22E9CE0E92E8DE0D82EBAC168
:100300008091CB0660E00E941B2D8091D3060E9455
:100310004D2D892B61F45092DB066091DC067091C3
:10032000DD068091DE069091DF060E94912A65E04D
:1003300070E080E090E00E94912A8091D5060E94B2
:100340004D2D892B61F44092DB066091DC067091A3
:10035000DD068091DE069091DF060E94912A65E01D
:1003600070E080E090E00E94912A8091D7060E9480
:100370004D2D892B61F43092DB066091DC06709183
:10038000DD068091DE069091DF060E94912A65E0ED
:1003900070E080E090E00E94912A8091D9060E944E
:1003A0004D2D892B61F49092DB066091DC067091F3
:1003B000DD068091DE069091DF060E94912A65E0BD
:1003C00070E080E090E00E94912A8091CB0661E08D
:1003D0000E941B2D8091CD0660E00E941B2D809114
:1003E000D3060E944D2D892B61F48092DB0660912B
:1003F000DC067091DD068091DE069091DF060E949A
:10040000912A65E070E080E090E00E94912A80915E
:10041000D5060E944D2D892B61F47092DB06609108
:10042000DC067091DD068091DE069091DF060E9469
:10043000912A65E070E080E090E00E94912A80912E
:10044000D7060E944D2D892B61F46092DB066091E6
:10045000DC067091DD068091DE069091DF060E9439
:10046000912A65E070E080E090E00E94912A8091FE
:10047000D9060E944D2D892B61F41092DB06609104
:10048000DC067091DD068091DE069091DF060E9409
:10049000912A65E070E080E090E00E94912A8091CE
:1004A000CD0661E00E941B2D8091CF0660E00E9486
:1004B0001B2D8091D3060E944D2D892B61F4C09293
:1004C000DB066091DC067091DD068091DE0690917E
:1004D000DF060E94912A65E070E080E090E00E94D3
:1004E000912A8091D5060E944D2D892B61F4B092FE
:1004F000DB066091DC067091DD068091DE0690914E
:10050000DF060E94912A65E070E080E090E00E94A2
:10051000912A8091D7060E944D2D892B61F4A092DB
:10052000DB066091DC067091DD068091DE0690911D
:10053000DF060E94912A65E070E080E090E00E9472
:10054000912A8091D9060E944D2D892B61F4109338
:10055000DB066091DC067091DD068091DE069091ED
:10056000DF060E94912A65E070E080E090E00E9442
:10057000912A8091CF0661E00E941B2D8091D106C7
:1005800060E00E941B2D8091D3060E944D2D892B87
:1005900061F40093DB066091DC067091DD068091CA
:1005A000DE069091DF060E94912A65E070E080E00F
:1005B00090E00E94912A8091D5060E944D2D892BB2
:1005C00061F4F092DB066091DC067091DD068091AB
:1005D000DE069091DF060E94912A65E070E080E0DF
:1005E00090E00E94912A8091D7060E944D2D892B80
:1005F00061F4E092DB066091DC067091DD0680918B
:10060000DE069091DF060E94912A65E070E080E0AE
:1006100090E00E94912A8091D9060E944D2D892B4D
:1006200061F4D092DB066091DC067091DD0680916A
:10063000DE069091DF060E94912A65E070E080E07E
:1006400090E00E94912A8091D10661E00E941B2DCA
:100650008091C9060E944D2D892B61F41093DB0611
:100660006091DC067091DD068091DE069091DF06D8
:100670000E94912A8091DB06813109F441CE1F91BD
:100680000F91FF90EF90DF90CF90BF90AF909F9031
:100690008F907F906F905F904F903F90089585E985
:1006A0009BE06FE041E00E94992285E99BE00E9477
:1006B000832280E090E0E0916F0CF091700CE80FE5
:1006C000F91F1082019622E080309207A1F78091F5
:1006D000C9060E944D2D0197D1F36CE271E080E0D4
:1006E00090E00E94912AAAE3B7E020E030E0E09198
:1006F0006F0CF091700CE20FF31F8C9180832F5FD1
:100700003F4F129682E02030380789F785E99BE059
:1007100066E042E00E94992285E99BE00C948B22DE
:100720000F931F93CF93DF93EC01162F042F85E9CE
:100730009BE00E94992285E99BE060E072E00E94C4
:10074000A22ECA30D1053CF4612F6E5F85E99BE093
:10075000402F0E949922CE010A978A35910538F4DC
:10076000612F6F5F85E99BE0402F0E949922C4367C
:10077000D10534F085E99BE0612F402F0E9499223A
:1007800085E99BE0BE014AE050E00E94902EDF9197
:10079000CF911F910F910895DF92EF92FF920F93E7
:1007A0001F93CF93DF93D82E062F682F615085E9D2
:1007B0009BE0402F0E94992285E99BE064E072E073
:1007C0000E94A22E8091CF0660E00E941B2D85E939
:1007D0009BE00E948322EE24FF241EC08C2F912FC9
:1007E0006D2D70E0402F50E09BDF8091BF0690910F
:1007F000C0060197E0916F0CF091700CE80FF91FA3
:10080000C083E091BF06F091C006EE0FFF1FE85CC9
:10081000F84FC08311837E018091D9060E944D2D2F
:100820000197D9F48091C9060E944D2D0197A9F432
:100830008091E0060E94562B64E070E00E94C32E77
:10084000172FC62FD72F62E370E080E090E00E9460
:10085000912AEC16FD0601F3C1CF85E99BE00E94C9
:100860008B228091CF0661E00E941B2D6CE271E02B
:1008700080E090E00E94912ADF91CF911F910F912B
:10088000FF90EF90DF9008951F938091D10660E074
:100890000E941B2D1FEF8091D7060E944D2D0197BE
:1008A00009F046C08091C9060E944D2D019709F0BC
:1008B0003FC08091BF069091C0060197E0916F0CF8
:1008C000F091700CE80FF91F10836091910B70E0AC
:1008D000625070404091920B8FEF90E050E020DF2B
:1008E00064E670E080E090E00E94912A8091BF066B
:1008F0009091C0060197E0916F0CF091700CE80F99
:10090000F91F10826091910B625085E99BE0409144
:10091000920B0E94992285E99BE066E072E00E94BA
:10092000A22E64E670E080E090E00E94912AB3CFAE
:100930008091D10661E00E941B2D6CE271E080E0A5
:1009400090E00E94912A85E99BE06091910B409193
:10095000920B0E9499221F910895CF92DF92EF92FD
:10096000FF920F931F938C016DE070E040E050E028
:10097000D7DE7EE0C72ED12CC00ED11EC60161E1AC
:1009800070E040E050E0CCDE68E3E62E67E0F62E53
:10099000F801EE0FFF1FEE0DFF1D8081918161E0D8
:1009A00070E041E050E0BCDEF8013196EE0FFF1F31
:1009B000EE0DFF1D8081918165E070E041E050E027
:1009C000AFDEF8013296EE0FFF1FEE0DFF1D8081A6
:1009D000918169E070E041E050E0A2DEF8013396D9
:1009E000EE0FFF1FEE0DFF1D808191816DE070E025
:1009F00041E050E095DEF8013496EE0FFF1FEE0D5A
:100A0000FF1D8081918161E170E041E050E088DE6E
:100A1000F8013596EE0FFF1FEE0DFF1D80819181CD
:100A200061E070E042E050E07BDEF8013696EE0FC8
:100A3000FF1FEE0DFF1D8081918165E070E042E0B7
:100A400050E06EDEF8013796EE0FFF1FEE0DFF1D32
:100A50008081918169E070E042E050E061DEF80160
:100A60003896EE0FFF1FEE0DFF1D808191816DE026
:100A700070E042E050E054DEF8013996EE0FFF1FBF
:100A8000EE0DFF1D8081918161E170E042E050E058
:100A900047DEF8013A96EE0FFF1FEE0DFF1D808135
:100AA000918161E070E043E050E03ADEF8013B966E
:100AB000EE0FFF1FEE0DFF1D8081918165E070E05C
:100AC00043E050E02DDE045F1F4FF801EE0FFF1FE3
:100AD000EE0DFF1D8081918169E070E043E050E000
:100AE0001FDE0F5F1F4F000F111F0E0D1F1DF8019E
:100AF000808191816DE070E043E050E011DECC0C2C
:100B0000DD1CEC0CFD1CF7018081918161E170E03E
:100B100043E050E005DE1F910F91FF90EF90DF90D2
:100B2000CF900895FF920F931F93CF93DF93F82EEA
:100B300085E99BE06091910B4091920B0E94992274
:100B400085E99BE06AE072E00E94A22E85E99BE0C5
:100B50000E9483226091910B6E5F6093910B85E9F7
:100B60009BE04091920B0E9499229BDB6091DB06F7
:100B70006A3018F000E010E016C085E99BE04AE01A
:100B800050E00E94412E85E99BE06091910B4091DD
:100B9000920B0E9499228091DB06082F10E010939F
:100BA000940B0093930B8091DB068E3009F4D8C030
:100BB00091E0F91691F48A3009F470C08B3009F491
:100BC00076C08C3009F47AC08D3039F488EC92E02C
:100BD0009093940B8093930BDFC063DB8091DB06D3
:100BE0008E3029F41093940B0093930BB9C091E0CD
:100BF000F91659F48A3009F451C08B3009F457C002
:100C00008C3009F45BC08D3009F38A3018F0C0E0F5
:100C1000D0E029C06091910B61506093910B85E900
:100C20009BE04091920B0E94992285E99BE0B801DC
:100C30004AE050E00E94902E85E99BE06091DB063F
:100C40004AE050E00E94412E8091DB06C82FD0E0A0
:100C50006091910B6F5F6093910B85E99BE04091F0
:100C6000920B0E9499221DDB8091DB068E3089F465
:100C7000C801B3E0880F991FBA95E1F7000F111F63
:100C8000800F911FC80FD91FD093940BC093930B63
:100C900067C091E0F916C1F48A3039F48FEF90E023
:100CA0009093940B8093930B5BC08B3029F410923C
:100CB000940B1092930B54C08C3019F484E692E09C
:100CC00087CF8D3009F482CF8A3008F049C0609117
:100CD000910B62506093910B85E99BE04091920BE0
:100CE0000E94992285E99BE0B8014AE050E00E9409
:100CF000902E85E99BE0BE014AE050E00E94902ED4
:100D00006091910B6E5F6093910B85E99BE0409140
:100D1000920B0E94992285E99BE06091DB064AE0F4
:100D200050E00E94412E84E690E0089F9001099FC8
:100D3000300D189F300D11248091DB06280F311DD6
:100D4000CE01F3E0880F991FFA95E1F7CC0FDD1F74
:100D50008C0F9D1F280F391F3093940B2093930BFA
:100D600085E99BE00E948B226091910B70E06250BC
:100D700070404091920B8091930B9091940B50E0B6
:100D8000CFDC6091910B64506093910B85E99BE0FF
:100D90004091920B0E94992285E99BE00E948B2250
:100DA00085E99BE06091910B4091920B0E94992202
:100DB0006CE271E080E090E00E94912ADF91CF9197
:100DC0001F910F91FF90089585E99BE00E94C12239
:100DD000AAE3B7E080E090E01D921D92E0916F0CD5
:100DE000F091700CE80FF91F1082019622E080301C
:100DF000920791F785E99BE00E94C12285E99BE07B
:100E000063E041E00E94992285E99BE06EE072E098
:100E10000E94A22E85E99BE063E042E00E949922B5
:100E200085E99BE06EE172E00E94A22E85E99BE0DD
:100E300063E143E00E94992285E99BE00E948322BE
:100E400068EE73E080E090E00E94912A85E99BE0E3
:100E50000C948B22CF93DF9385E99BE00E94C12203
:100E6000C0E0D0E085E99BE0BE0142E050E00E9496
:100E7000902E219682E0C130D807A1F785E99BE04A
:100E80000E94C12285E99BE00E94832285E99BE0C4
:100E900063E040E00E94992285E99BE068E272E00D
:100EA0000E94A22E85E99BE061E041E00E94992228
:100EB00085E99BE068E372E00E94A22E85E99BE051
:100EC00060E043E00E94992285E99BE06CE472E0D7
:100ED0000E94A22E85E99BE061E04AE050E00E947A
:100EE000412E85E99BE063E572E00E94A22E85E930
:100EF0009BE062E04AE050E00E94412E85E99BE0E1
:100F00006BE043E00E94992285E99BE065E572E091
:100F10000E94A22E85E99BE060E04AE050E00E943A
:100F2000412E85E99BE063E572E00E94A22E85E9EF
:100F30009BE064E04AE050E00E94412E85E99BE09E
:100F400069E042E00E94992285E99BE06CE572E04D
:100F50000E94A22E60913E0B662339F485E99BE046
:100F60006EE572E00E94A22E06C085E99BE04AE091
:100F700050E00E94412E85E99BE06AE042E00E9439
:100F800099228091C9060E944D2D0197D1F36CE200
:100F900071E080E090E00E94912A85E99BE00E9448
:100FA000C12285E99BE063E040E00E94992285E947
:100FB0009BE060E672E00E94A22E85E99BE060E083
:100FC00041E00E94992285E99BE06FE672E00E9471
:100FD000A22E85E99BE060E042E00E94992285E92B
:100FE0009BE060E872E00E94A22E85E99BE060E051
:100FF00043E00E94992285E99BE061E972E00E944A
:10100000A22E85E99BE062E041E00E94992285E9F9
:101010009BE062E141E00E94992285E99BE06CE55A
:1010200072E00E94A22E60913E0B662339F485E99E
:101030009BE06EE572E00E94A22E06C085E99BE06F
:101040004AE050E00E94412E85E99BE063E141E0E7
:101050000E9499228091C9060E944D2D0197D1F3DB
:101060006CE271E080E090E00E94912A85E99BE0CB
:101070000E948B22DF91CF9108950F931F9305E972
:101080001BE0C8010E94C122C80160E040E00E944C
:101090009922C80165EA72E00E94A22EC80160E0B0
:1010A00041E00E949922C80167EB72E00E94A22EE3
:1010B000C80160E042E00E949922C8016AEC72E037
:1010C0000E94A22EC80160E043E00E949922C8015C
:1010D0006FED72E00E94A22E60EA7FE080E090E077
:1010E0000E94912AC8010E94C122C80160E040E02C
:1010F0000E949922C8016BEE72E00E94A22EC801E4
:1011000060E041E00E949922C80160E073E00E9423
:10111000A22EC80160E042E00E949922C80161E16C
:1011200073E00E94A22EC80160E043E00E94992271
:10113000C80165E273E00E94A22E60EA7FE080E0D1
:1011400090E00E94912AC8010E94C122C80160E07B
:1011500040E00E949922C80168E373E00E94A22E39
:10116000C80160E041E00E949922C80166E473E092
:101170000E94A22EC80160E042E00E949922C801AC
:101180006AE573E00E94A22EC80160E043E00E947D
:101190009922C8016CE673E00E94A22E60EA7FE00B
:1011A00080E090E00E94912AC8010E94C122C801FB
:1011B00060E040E00E949922C80161E873E00E946B
:1011C000A22EC80160E041E00E949922C8016CE8AB
:1011D00073E00E94A22EC80160E042E00E949922C2
:1011E000C8016CE973E00E94A22EC80160E043E0F0
:1011F0000E949922C8016AEA73E00E94A22E60EA66
:101200007FE080E090E00E94912AC8010E94C12204
:10121000C80160E040E00E949922C80165EB73E0DC
:101220000E94A22EC80160E041E00E949922C801FC
:1012300069EC73E00E94A22EC80160E042E00E94C7
:101240009922C80168ED73E00E94A22E60EA7FE057
:1012500080E090E00E94912A1F910F910895EF92F3
:10126000FF920F931F93CF93DF936091F6067091D7
:10127000F7068CE69CE00E940C2780933E0B8823A7
:1012800009F492C01AE3E12E17E0F12E00E010E01D
:10129000C0E0D0E080913E0B8430E1F0853038F43E
:1012A000823081F0833090F4813069F509C0863056
:1012B000C9F0863098F08730C9F0883021F51AC01F
:1012C0008E0121C08E0100501E4F1DC08E010050A6
:1012D0001C4F19C08E0100501A4F15C08E010050CE
:1012E000184F11C08E010050164F0DC08E010050D6
:1012F000144F09C08E010050124F8FE00D3F1807A8
:1013000014F00CEF1FE08CE69CE0B8010E940C2763
:10131000F70180831182E0916F0CF091700CEC0F5B
:10132000FD1F8083219682E090E0E80EF91E92E096
:10133000C030D90709F0AECF85E99BE00E94C122F9
:1013400085E99BE063E041E00E94992285E99BE00A
:101350006CEE73E00E94A22E85E99BE063E042E020
:101360000E94992285E99BE06BEF73E00E94A22E18
:1013700085E99BE060913E0B4AE050E00E94412EDF
:1013800085E99BE06AE042E00E94992285E99BE0C2
:101390000E94832260ED77E080E090E00E94912A35
:1013A00085E99BE00E948B22DF91CF911F910F91E5
:1013B000FF90EF9008958CE69CE061E072E00E945F
:1013C0000C27682F8091AC0B882361F46623D1F43D
:1013D0008091EE066FE770E00E948A2B81E0809397
:1013E000AC0B0AC0813041F48091EE0660E070E001
:1013F0000E948A2B1092AC0B6CE271E080E090E0CE
:101400000C94912A8091EE0670E0E6CF2F923F92E5
:101410004F925F926F927F928F929F92AF92BF9204
:10142000CF92DF92EF92FF920F931F93DF93CF93B0
:10143000CDB7DEB763970FB6F894DEBF0FBECDBF52
:1014400089837B8B6A8B00913F0B1091400B85E960
:101450009BE0602F412F0E94992285E99BE062E08A
:1014600074E00E94A22E8A899B890D969B838A83B1
:10147000EA89FB893896FD83EC838A899B890396E8
:101480009F838E83EA89FB893E96F987E8878A895C
:101490009B8909969B878A87EA89FB893496FD8711
:1014A000EC876AE0262E312C8A899B89280E391E0A
:1014B0000B969F878E87EA89FB893C96F98BE88B90
:1014C00057E0852E912C8A899B89880E991E46E0CB
:1014D000642E712C680E791E35E0432E512C480E77
:1014E000591E6C010894C11CD11C22E0A22EB12C03
:1014F000A80EB91E84E1E82EF12C8091CB0660E0A5
:101500000E941B2D8091D9060E944D2D892B59F4E4
:101510006091DC067091DD068091DE069091DF0619
:101520000E94912A48DF8091CB0661E00E941B2D2A
:101530008091C5060E944D2D892BF9F46CE271E073
:1015400080E090E00E94912A20913F0B8091400B17
:1015500090E08E9DA0018F9D500D9E9D500D1124F9
:10156000222309F424E12150FA01E20FF11DEF5B7F
:10157000F44F80818130A1F724C08091C7060E947A
:101580004D2D892B09F56CE271E080E090E00E941E
:10159000912A20913F0B8091400B90E08E9DA001FD
:1015A0008F9D500D9E9D500D11242F5F243108F00A
:1015B00020E0FA01E20FF11DEF5BF44F80818130F2
:1015C000A1F720933F0B4FC18091C3060E944D2D80
:1015D000892B09F56CE271E080E090E00E94912A8D
:1015E0002091400B80913F0B482F50E02F5F24301B
:1015F00008F020E0822F90E08E9DF0018F9DF00D8D
:101600009E9DF00D1124E40FF51FEF5BF44F8081D8
:10161000813061F726C08091C1060E944D2D892B33
:1016200019F56CE271E080E090E00E94912A20912F
:10163000400B80913F0B482F50E0222309F424E017
:101640002150822F90E08E9DF0018F9DF00D9E9D88
:10165000F00D1124E40FF51FEF5BF44F8081813012
:1016600061F72093400BFFC08091C9060E944D2D69
:10167000892B09F042CF6CE271E080E090E00E949B
:10168000912A4091400B60913F0B842F90E08E9DFA
:10169000F0018F9DF00D9E9DF00D1124E60FF11DC0
:1016A000EF5BF44F8081813009F0FBC085E99BE05E
:1016B0000E94992285E99BE064E074E00E94A22EDA
:1016C00082E0C9C090913F0B9C3031F48091400B77
:1016D000882309F048C01FC0903181F48091400BED
:1016E000882309F049C085E99BE061E040E00E9461
:1016F000992285E99BE066E074E0AAC0943029F461
:101700008091400B8823F9F406C0983089F48091C9
:10171000400B882301F585E99BE061E040E00E94F1
:10172000992285E99BE066E074E00E94A22E86C0C3
:10173000992339F48091400B813039F58A899B894E
:1017400077C0943031F48091400B8130E1F4C601D0
:101750006FC0983031F48091400B8130E1F4C501C5
:1017600067C09C3039F48091400B813031F58E8117
:101770009F815EC0903139F48091400B813031F50A
:101780008C859D8555C0992331F48091400B823022
:1017900031F5C2014DC0943031F48091400B82305C
:1017A00031F5C30145C0983031F48091400B82304F
:1017B00039F5C4013DC09C3039F48091400B823032
:1017C00041F58C819D8134C0903139F48091400B7A
:1017D000823041F58A859B852BC0992331F4809115
:1017E000400B833059F5C10123C0943039F4809106
:1017F000400B833019F58E859F851AC0983039F4D7
:101800008091400B8330D1F48889998911C09C3034
:1018100039F48091400B833089F48A819B8108C020
:10182000903161F48091400B833041F48885998533
:1018300061E070E040E050E00E94900385E99BE0A9
:1018400060E140E00E94992285E99BE06EE572E04C
:101850000E94A22E81E000913F0B1091400B82303C
:1018600009F04BCE1FC085E99BE0602F412F0E94FD
:10187000992285E99BE06AE074E00E94A22E85E946
:101880009BE060913F0B4091400B0E94992285E9BB
:101890009BE062E074E00E94A22E99819130D1F623
:1018A00011CFFFCF63960FB6F894DEBF0FBECDBF4A
:1018B000CF91DF911F910F91FF90EF90DF90CF902C
:1018C000BF90AF909F908F907F906F905F904F9060
:1018D0003F902F9008951F93182F85E99BE00E9459
:1018E000C12268EC70E080E090E00E94912A85E9D6
:1018F0009BE066E040E00E94992285E99BE06CE075
:1019000074E00E94A22E85E99BE061E041E00E9424
:10191000992285E99BE069E174E00E94A22E85E9A5
:101920009BE061E042E00E94992285E99BE06DE244
:1019300074E00E94A22E85E99BE061E043E00E94F2
:10194000992285E99BE061E474E00E94A22E1230A6
:1019500079F01330C1F0113011F585E99BE061E0B9
:1019600040E00E94992285E99BE064E574E015C09F
:1019700085E99BE061E040E00E94992285E99BE0D7
:1019800069E574E00AC085E99BE060E040E00E9400
:10199000992285E99BE06EE574E00E94A22E85E91C
:1019A0009BE063E140E00E94992260913E0B662338
:1019B00039F485E99BE06EE572E00E94A22E06C034
:1019C00085E99BE04AE050E00E94412E10923F0BD7
:1019D00081E08093400BE1E4FBE0DF019896108208
:1019E000148A1C9254961C925497319611968BE04F
:1019F000E535F807A1F781E08083848B80A7878392
:101A0000838F87A7868782A386AB80E060E070E043
:101A1000FDDC80913F0B882349F48091400B81309D
:101A200001F18230F1F0833031F51BC0873071F461
:101A30008091400B813011F484E013C0823011F4A6
:101A400085E00FC08330B9F486E00BC08E3099F486
:101A50008091400B813011F487E003C0823021F483
:101A600088E080933E0B07C020E030E0833029F40B
:101A700021E030E002C020E030E0C9011F9108956C
:101A8000EF92FF920F931F93CF93DF9382E023DFB8
:101A9000019719F421E030E098C085E99BE00E94AD
:101AA000C1227AE3E72E77E0F72E00E010E0C0E0F5
:101AB000D0E080913E0B8430E1F0853038F4823004
:101AC00081F0833090F4813069F509C08630C9F027
:101AD000863098F08730C9F0883021F51AC08E0121
:101AE00021C08E0100501E4F1DC08E0100501C4FA2
:101AF00019C08E0100501A4F15C08E010050184FAA
:101B000011C08E010050164F0DC08E010050144FB1
:101B100009C08E010050124F8FE00D3F180714F0DE
:101B20000CEF1FE08CE69CE0B8010E940C27F70147
:101B300080831182E0916F0CF091700CEC0FFD1F0F
:101B40008083219682E090E0E80EF91E92E0C0309A
:101B5000D90709F0AECF85E99BE00E94C12285E953
:101B60009BE063E041E00E94992285E99BE06CEEF6
:101B700073E00E94A22E85E99BE063E042E00E94B0
:101B8000992285E99BE06BEF73E00E94A22E85E924
:101B90009BE060913E0B4AE050E00E94412E85E9B7
:101BA0009BE063E143E00E94992285E99BE00E946B
:101BB000832268EE73E080E090E00E94912A85E93C
:101BC0009BE00E948B2220E030E0C901DF91CF91A1
:101BD0001F910F91FF90EF9008956091F40670911E
:101BE000F5068CE69CE00E940C27682F863908F4E5
:101BF00066E98091F00670E00C948A2B1F93609147
:101C0000F2067091F3068CE69CE00E940C27182FD8
:101C10008091EE06612F70E00E948A2B112319F447
:101C20001092AC0B03C081E08093AC0B1F91089520
:101C30000F931F93CF93DF9385E99BE00E94C1220E
:101C400085E99BE061E041E00E94992285E99BE003
:101C500064E674E00E94A22E85E99BE061E042E028
:101C60000E94992285E99BE068E674E00E94A22E1A
:101C700085E99BE063E142E00E94992285E99BE0CF
:101C80000E9483220AE317E0C0E0D0E08CE69CE0EB
:101C9000BE0140E00E94132782E0C030D80754F410
:101CA000F80111821082E0916F0CF091700CEC0F32
:101CB000FD1F108221960E5F1F4FFFE0CE3FDF0712
:101CC00029F785E99BE00E94C12285E99BE00E94FB
:101CD0008B2285E99BE062E042E00E94992285E93F
:101CE0009BE06BE774E00E94A22E85E99BE062E036
:101CF00041E00E94992285E99BE064E674E00E943D
:101D0000A22E10923E0B68EE73E080E090E00E94FD
:101D1000912ADF91CF911F910F910895EF92FF9239
:101D20000F931F93CF93DF9383E0D5DD019719F4D1
:101D300021E030E0C5C085E99BE00E94C12285E931
:101D40009BE061E041E00E94992285E99BE068E622
:101D500074E00E94A22E85E99BE061E042E00E94CF
:101D6000992285E99BE06BEF73E00E94A22E85E942
:101D70009BE067E042E00E94992285E99BE0609148
:101D80003E0B4AE050E00E94412E85E99BE063E172
:101D900043E00E94992285E99BE00E948322E8E3C8
:101DA000EE2EE7E0FE2EC0E0D0E000E010E0F7010C
:101DB00011821082E0916F0CF091700CEC0FFD1FFE
:101DC000108280913E0B8430E1F0853038F482300F
:101DD00081F0833090F4813069F509C08630C9F014
:101DE000863098F08730C9F0883021F51AC08E010E
:101DF00021C08E0100501E4F1DC08E0100501C4F8F
:101E000019C08E0100501A4F15C08E010050184F96
:101E100011C08E010050164F0DC08E010050144F9E
:101E200009C08E010050124FFFE00E3F1F0714F053
:101E30000DEF1FE08CE69CE0B80140E00E94132704
:101E4000219682E090E0E80EF91E92E0C030D907BA
:101E500009F0ADCF85E99BE00E94C12285E99BE0B6
:101E600062E041E00E94992285E99BE06BE774E023
:101E70000E94A22E85E99BE062E042E00E94992246
:101E800085E99BE06BEF73E00E94A22E85E99BE061
:101E900060913E0B4AE050E00E94412E85E99BE0B4
:101EA00063E143E00E94992268EE73E080E090E0F5
:101EB0000E94912A85E99BE00E948B2220E030E07D
:101EC000C901DF91CF911F910F91FF90EF9008957D
:101ED000EF92FF920F931F93CF93DF9381E0FBDC90
:101EE000019719F421E030E0BDC085E99BE00E9434
:101EF000C12285E99BE061E041E00E94992285E9E9
:101F00009BE06BE874E00E94A22E85E99BE061E013
:101F100042E00E94992285E99BE06BEF73E00E940A
:101F2000A22E85E99BE067E042E00E94992285E9C4
:101F30009BE060913E0B4AE050E00E94412E85E913
:101F40009BE063E143E00E94992285E99BE00E94C7
:101F50008322FAE3EF2EF7E0FF2EC0E0D0E000E0AE
:101F600010E080913E0B8430E1F0853038F482300F
:101F700081F0833090F4813069F509C08630C9F072
:101F8000863098F08730C9F0883021F51AC0E80112
:101F900021C0E801C050DE4F1DC0E801C050DC4F39
:101FA00019C0E801C050DA4F15C0E801C050D84F41
:101FB00011C0E801C050D64F0DC0E801C050D44F49
:101FC00009C0E801C050D24F8FE0CD3FD80714F0D0
:101FD000CCEFDFE00F5F1F4F8CE69CE0BE01F70106
:101FE00040810E94132782E090E0E80EF91E92E003
:101FF0000030190709F0B5CF85E99BE00E94C122A6
:1020000085E99BE063E041E00E94992285E99BE03D
:102010006CE974E00E94A22E85E99BE063E042E057
:102020000E94992285E99BE06BEF73E00E94A22E4B
:1020300085E99BE060913E0B4AE050E00E94412E12
:1020400085E99BE063E143E00E94992268EE73E03A
:1020500080E090E00E94912A85E99BE00E948B221B
:1020600020E030E0C901DF91CF911F910F91FF90E7
:10207000EF90089585E99BE00E94C12285E99BE0ED
:1020800060E040E00E94992285E99BE06AEA74E002
:102090000E94A22E60913E0B662339F485E99BE0F5
:1020A0006EE572E00E94A22E06C085E99BE04AE040
:1020B00050E00E94412E85E99BE061E041E00E94F2
:1020C000992285E99BE064E574E00E94A22E85E9EF
:1020D0009BE061E042E00E94992285E99BE069E58E
:1020E00074E00E94A22E85E99BE061E043E00E943B
:1020F000992285E99BE06EE574E00E94A22E85E9B5
:102100009BE067E042E00E94992285E99BE06DEB4D
:1021100074E00E94A22E85E99BE067E041E00E9406
:10212000992285E99BE066EC74E00E94A22E85E985
:102130009BE060E143E00E94992285E99BE06FEC1F
:1021400074E00E94A22E85E99BE067E043E00E94D4
:10215000992285E99BE064ED74E00E94A22E109222
:102160003F0B81E08093400BE1E4FBE0DF019896B8
:102170001082148A1C9254961C9254973196119690
:102180008BE0E535F807A1F781E08083848B80A799
:10219000828F86A7868387AB80E060E070E036D9C7
:1021A00080913F0B882381F48091400B823029F489
:1021B00067DC019709F45ECF0895833061F4AEDDEA
:1021C000019709F457CF08958630A9F48091400B08
:1021D000823041F42DCD813071F47ADE019709F41B
:1021E00049CF0895833011F40C94E406813019F43A
:1021F0000E944F03D1CF08959F92AF92BF92CF928A
:10220000DF92EF92FF920F931F93CF93DF930AE039
:10221000902E1BE0E12EB8E0CB2ED12CA6E9AA2E01
:10222000B12CCFEFD0E06091F2067091F3068CE60E
:102230009CE00E940C27182F6091F4067091F5061F
:102240008CE69CE00E940C27082F6091F6067091A6
:10225000F7068CE69CE00E940C27F82E85E99BE0AF
:102260000E94C12285E99BE060E040E00E94992243
:1022700085E99BE06DED74E00E94A22E85E99BE06C
:102280006FE042E00E94992285E99BE065EE74E0F0
:102290000E94A22E85E99BE060E041E00E94992225
:1022A00085E99BE06BEE74E00E94A22E812F90E006
:1022B0006BE070E041E050E00E94900385E99BE014
:1022C00061E042E00E94992285E99BE066EF74E0BC
:1022D0000E94A22E802F90E06BE070E042E050E080
:1022E0000E94900385E99BE06FE043E00E94992201
:1022F00085E99BE06FEC74E00E94A22E85E99BE0EB
:1023000061E043E00E94992285E99BE060E075E08E
:102310000E94A22E8F2D8150883068F085E99BE0C5
:102320006BE043E00E94992285E99BE066E074E05F
:102330000E94A22E08C08F2D90E06BE070E043E079
:1023400050E00E94900390923F0B81E08093400BFD
:10235000E1E4FBE0DF0198961082148A1C92549607
:102360001C925497319611962BE0E535F207A1F7B0
:1023700081E08287868F82AB86AB82A380E060E0BB
:1023800070E044D880913F0B8A3009F05CC18091A5
:10239000400B813009F083C08093920BE092910B47
:1023A0000E9492058091930B9091940B22E0883CBF
:1023B000920709F045C085E99BE06AE041E00E9490
:1023C000992285E99BE064E072E00E94A22E809150
:1023D000CF0660E00E941B2D85E99BE00E948322CE
:1023E0008091D9060E944D2D019709F03DC1809141
:1023F000C9060E944D2D019709F036C18091E00673
:102400000E94562B64E070E00E94C32ECB016093C3
:10241000930B9093940B6BE070E041E050E00E94CE
:1024200090036091930B7091940B8091EE060E9443
:102430008A2B62E370E080E090E00E94912AD0CF86
:102440008F3F910569F064F0D093940BC093930B88
:102450008FEF90E06BE070E041E050E00E9490036D
:102460006091930B7091940B8091EE060E948A2BE1
:102470004091930B5091940B4115510519F4109212
:10248000AC0B06C0141615061CF481E08093AC0B4F
:102490006091F2067091F3068CE69CE0D1C0823028
:1024A00009F098C08093920BE092910B81E00E941A
:1024B00092058091930B9091940B22E0883C9207B7
:1024C00009F058C085E99BE06AE042E00E94992249
:1024D00085E99BE064E072E00E94A22E8091CF0625
:1024E00060E00E941B2D85E99BE00E94832223C0AF
:1024F0006BE070E042E050E00E9490036091930B2B
:102500007091940B8091F0060E948A2B8091930B1E
:102510009091940B8539910544F486E990E06BE045
:1025200070E042E050E00E94900362E370E080E0DF
:1025300090E00E94912A8091D9060E944D2D01972A
:1025400009F0A2C08091C9060E944D2D019709F0A3
:102550009BC08091E0060E94562B64E070E00E94D0
:10256000C32ECB017093940B6093930B6639710566
:102570006CF2BECF8F3F910569F064F0D093940B5D
:10258000C093930B8FEF90E06BE070E042E050E07F
:102590000E9490038091930B9091940B8639910542
:1025A00064F4B092940BA092930B86E990E06BE0F8
:1025B00070E042E050E00E9490036091930B7091B4
:1025C000940B8091F0060E948A2B6091F406709122
:1025D000F50632C0833009F0D1CE8093920BE092A1
:1025E000910B81E00E9492058091930B9091940B46
:1025F000099764F0D092940BC092930B88E090E01E
:102600006BE070E043E050E00E9490038091930BF8
:102610009091940B892B61F485E99BE06BE043E09A
:102620000E94992285E99BE066E074E00E94A22E58
:102630006091F6067091F7068CE69CE04091930B52
:102640000E9413279BCE8E3009F098CE8091400BCC
:10265000833011F429D092CE823009F08FCE0E94BF
:102660002A070E943D08DFCD85E99BE00E948B226E
:102670008091CF0661E00E941B2D6CE271E080E04A
:1026800090E00E94912AF4CE85E99BE00E948B2283
:102690008091CF0661E00E941B2D6CE271E080E02A
:1026A00090E00E94912A91CF85E99BE00E94C1228F
:1026B00085E99BE060E040E00E94992285E99BE08B
:1026C0006AE075E00E94A22E60913E0B662339F409
:1026D00085E99BE06EE572E00E94A22E06C085E9C6
:1026E0009BE04AE050E00E94412E85E99BE062E0D9
:1026F00041E00E94992285E99BE06EE175E00E942D
:10270000A22E85E99BE062E042E00E94992285E9E1
:102710009BE066E275E00E94A22E85E99BE062E004
:1027200043E00E94992285E99BE06DE275E00E94FA
:10273000A22E85E99BE06BE043E00E94992285E9A7
:102740009BE064E375E00E94A22E85E99BE06BE0CC
:1027500040E00E94992285E99BE06DE375E00E94CC
:10276000A22E85E99BE06BE042E00E94992285E978
:102770009BE064E475E00E94A22E85E99BE06BE09B
:1027800041E00E94992285E99BE06EE475E00E9499
:10279000A22E81E080933F0B82E08093400BE1E426
:1027A000FBE0DF0198961082148A1C9254961C92CA
:1027B0005497319611968BE0E535F807A1F781E043
:1027C0008183858B81A782AB80934B0B868F828719
:1027D00080E060E070E00E94060A80913F0B81304B
:1027E00029F48091400B813009F48FD280913F0B06
:1027F000813029F48091400B823009F430D08091EF
:102800003F0B813029F48091400B833009F49AD436
:1028100080913F0B8A3029F48091400B833009F47A
:1028200094D680913F0B8A3029F48091400B882305
:1028300009F4E2DC80913F0B8A3031F48091400B47
:10284000823011F40E94071D80913F0B8A3031F4D1
:102850008091400B813011F40DDC26CF08952F922A
:102860003F924F925F926F927F928F929F92AF9220
:10287000BF92CF92DF92EF92FF920F931F93DF935D
:10288000CF93CDB7DEB760970FB6F894DEBF0FBE1B
:10289000CDBF81E090E09093C0068093BF06988BF7
:1028A0008F8711E00DE004C021E030E0388B2F87E6
:1028B00085E99BE00E94C12285E99BE060E040E061
:1028C0000E94992285E99BE065E575E00E94A22EB1
:1028D00085E99BE067E040E00E94992260913E0B11
:1028E000662339F485E99BE06EE572E00E94A22E32
:1028F00006C085E99BE04AE050E00E94412E8F85AA
:1029000098890E94AD043CE030933F0B1092400B3D
:10291000E1E4FBE0DF0198961082148A1C92549641
:102920001C925497319611968BE0E535F807A1F784
:102930001093450B1093490B10934D0B1093510BB3
:102940001083148310871487108B148B108F148FAF
:1029500010A314A310A714A710AB14AB10AFEF85EE
:10296000F8893C96FA83E9832F853889295F3F4FA0
:102970003C832B838F85988902969E838D83EF8578
:10298000F8893D96F887EF832F853889285F3F4F78
:102990003A8729878F85988903969C878B87EF854F
:1029A000F8893E96FE87ED87F9E02F2E312C2F8592
:1029B0003889220E331EE4E04E2E512C420E531E57
:1029C0007AE0672E712C620E731E65E0862E912CC4
:1029D000820E931E59010894A11CB11C56E0C52E0D
:1029E000D12CC20ED31E4BE0E42EF12CE20EF31ECE
:1029F00081E06F8578890E94060A90913F0B9430A0
:102A000039F48091400B882309F080C033DB50CF2C
:102A1000983039F48091400B882309F082C044DE5D
:102A200047CF9C3091F58091400B882309F082C0FC
:102A30001092920B0093910B8F8598899093940B31
:102A40008093930B80E00E9492058091930B90916C
:102A5000940B835F914034F022EF31E03093940B7C
:102A60002093930B8091930B9091940B892B31F4CD
:102A700081E090E09093940B8093930BE091930B03
:102A8000F091940BF88BEF8713CF9031A1F58091E3
:102A9000400B882309F05BC01092920BF1E1F09398
:102AA000910B2F8538892130310539F48FE090E082
:102AB0009093940B8093930B0AC0EF85F8893E970F
:102AC000F093940BE093930B80E00E949205609149
:102AD000930B7091940BF2E061307F071CF022EFB2
:102AE00031E0E4CE6F3071050CF4DECECB010E97F1
:102AF000988B8F87DDCE992339F48091400B8130FC
:102B000089F5EF85F8891CC0943049F48091400B19
:102B1000813099F5B092C006A092BF0688C0983067
:102B200039F48091400B813099F52D813E817BC035
:102B30009C3059F48091400B813099F5EB85FC85F0
:102B4000F093C006E093BF0672C0903149F48091C3
:102B5000400B813079F55092C0064092BF0667C0A5
:102B6000992349F48091400B823079F59092C00608
:102B70008092BF065CC0943049F48091400B823053
:102B800079F5D092C006C092BF0651C0983039F492
:102B90008091400B823079F52B813C8144C09C3080
:102BA00039F48091400B823079F5E985FA85C8CFF8
:102BB000903149F48091400B823079F53092C00613
:102BC0002092BF0634C0992349F48091400B833092
:102BD00071F57092C0066092BF0629C0943049F426
:102BE0008091400B833019F5F092C006E092BF0649
:102BF0001EC0983039F48091400B8330C1F4298194
:102C00003A8111C09C3039F48091400B833079F4C3
:102C1000EF81F88595CF903151F48091400B83304E
:102C200031F42D853E853093C0062093BF068091F8
:102C3000400B8093920B9F5F9093910BE091BF06A6
:102C4000F091C006EE0FFF1FE85CF84F8081918184
:102C50009093940B8093930B81E00E949205809156
:102C6000930B9091940B8456924039F40E94440443
:102C70008091910B84508093910B8091930B909154
:102C8000940BE2E0883C9E0769F48091910B82509E
:102C90006091920B0E94CC038091910B84508093A1
:102CA000910BA6CE8F3F910599F094F02FEF30E075
:102CB0003093940B2093930B6091910B70E06E5FB7
:102CC0007F4F4091920B8FEF90E050E00E94900375
:102CD0008091BF069091C0060197E0916F0CF09132
:102CE000700CE80FF91F8091930B8083E091BF0671
:102CF000F091C006EE0FFF1FE85CF84F8091930B38
:102D00009091940B9183808373CEBF92CF92DF9288
:102D1000EF92FF920F931F93CF93DF93C1E0D0E028
:102D200048E0B42E09E0E12C32E0F32E2FEFC22E62
:102D3000D12CD093C006C093BF0685E99BE00E94CA
:102D4000C12285E99BE060E040E00E94992285E98C
:102D50009BE067E675E00E94A22E60913E0B662321
:102D600039F485E99BE06EE572E00E94A22E06C070
:102D700085E99BE04AE050E00E94412E85E99BE016
:102D80006EE042E00E94992285E99BE06BE775E0E6
:102D90000E94A22E85E99BE06EE043E00E9499220A
:102DA00085E99BE06EE475E00E94A22E85E99BE038
:102DB00060E042E00E94992285E99BE060E875E0CE
:102DC0000E94A22E85E99BE062E043E00E949922E6
:102DD00085E99BE06DE875E00E94A22E80913A079C
:102DE00090913B0769E070E043E050E00E9490035F
:102DF00085E99BE060E041E00E94992285E99BE043
:102E000064E975E00E94A22E80913C0790913D07F5
:102E100066E070E041E050E00E94900385E99BE0AD
:102E20006BE041E00E94992285E99BE06BE975E047
:102E30000E94A22E80913E0790913F0761E170E0D1
:102E400041E050E00E949003B0923F0B82E08093FB
:102E5000400BE1E4FBE0DF0198961082148A1C929B
:102E600054961C925497319611962BE0E535F20753
:102E7000A1F781E0848F80AB81A385AB80E060E027
:102E800070E00E94060A80913F0B883009F0E9C08B
:102E90001091400B123009F0E4C08091BF06909170
:102EA000C00669E070E042E050E00E949003109399
:102EB000920B0093910B8091BF069091C006909366
:102EC000940B8093930B80E00E9492058091930B6A
:102ED0009091940B8150924064F0F092940BE092A8
:102EE000930B80E092E069E070E042E050E00E94E5
:102EF00090038091930B9091940B1816190664F02F
:102F0000D093940BC093930B81E090E069E070E064
:102F100042E050E00E949003E091930BF091940BFB
:102F2000F093C006E093BF06EE0FFF1FE85CF84F7A
:102F30008081918169E070E043E050E00E9490035D
:102F40008091BF069091C006019721F582E090E044
:102F500061E070E041E050E00E94900380913C0706
:102F600090913D0766E070E041E050E00E949003E0
:102F700083E090E06CE070E041E050E00E9490035C
:102F800080913E0790913F0761E170E041E050E0A1
:102F90000E9490038091BF069091C006805092409D
:102FA00021F58EEF91E061E070E041E050E00E9499
:102FB00090038091340B9091350B66E070E041E016
:102FC00050E00E9490038FEF91E06CE070E041E0F0
:102FD00050E00E9490038091360B9091370B61E195
:102FE00070E041E050E00E9490032091BF063091D4
:102FF000C006C90102978E5F914098F5C9010197FB
:1030000061E070E041E050E00E949003E091BF0673
:10301000F091C006EE0FFF1FEA5CF84F80819181AE
:1030200066E070E041E050E00E9490038091BF06AE
:103030009091C00601966CE070E041E050E00E9483
:103040009003E091BF06F091C006EE0FFF1FE65C13
:10305000F84F8081918161E170E041E050E00E9491
:10306000900380913F0B883009F05DC08091400B48
:10307000833009F003CF8093920B0093910BE09182
:10308000BF06F091C006EE0FFF1FE85CF84F80818D
:1030900091819093940B8093930B81E00E94920511
:1030A0008091930B9091940B8456924011F40E945E
:1030B00044048091930B9091940B42E0883C9407D8
:1030C00029F489E063E00E94CC03D8CE8F3F9105BC
:1030D00069F064F0D092940BC092930B8FEF90E064
:1030E00069E070E043E050E00E9490038091BF06E9
:1030F0009091C0060197E0916F0CF091700CE80F71
:10310000F91F8091930B8083E091BF06F091C00678
:10311000EE0FFF1FE85CF84F8091930B9091940B9A
:1031200091838083ABCE8D3009F0A8CE8091400B87
:10313000833019F40E943A10FCCD823009F09ECE03
:10314000B3DA9CCE2F923F924F925F926F927F9212
:103150008F929F92AF92BF92CF92DF92EF92FF92A7
:103160000F931F93DF93CF9300D000D0CDB7DEB77E
:1031700085E99BE00E94C12285E99BE060E040E098
:103180000E94992285E99BE062EA75E00E94A22EE6
:1031900085E99BE063E041E00E94992285E99BE09C
:1031A0006FEA75E00E94A22E85E99BE060E042E0B4
:1031B0000E94992285E99BE06FEB75E00E94A22EA8
:1031C00085E99BE060E043E00E94992285E99BE06D
:1031D00063ED75E00E94A22E81E090E069E070E06E
:1031E00041E050E00E94900381E090E069E070E0EF
:1031F00042E050E00E94900380E090E069E070E0DF
:1032000043E050E00E94900388E080933F0B81E010
:103210008093400B21E030E040E050E029833A8386
:103220004B835C83F1E08F2E912CA12CB12C442494
:1032300055243201E1E4FBE0DF0198961082148A04
:103240001C9254961C925497319611963BE0E535AA
:10325000F307A1F741E04087448F40AB42A346AB60
:1032600080E060E070E00E94060A80913F0B8E30A3
:10327000C1F48091400B8230A1F4AAE3B7E020E0D2
:1032800030E0E0916F0CF091700CE20FF31F8C9125
:1032900080832F5F3F4F129652E02030350789F729
:1032A00003DA80913F0B8E3009F09DC08091400B76
:1032B000833009F0B9C0140185E99BE06FE043E079
:1032C0000E94992285E99BE068EE75E00E94A22E9B
:1032D00085E99BE00E94832280E090E0E0916F0C02
:1032E000F091700CE80FF91F10820196A2E0813076
:1032F0009A07A1F7610154C0ED81FE813196FE83EA
:10330000ED83E451F54009F050C00894E11CF11C34
:10331000011D111D89819A81AB81BC81E816F906D6
:103320000A071B0709F03FC0C601AA2797FDA09511
:10333000BA2F481659066A067B060CF46101C601CD
:1033400069E070E040E050E00E94900385E99BE076
:1033500063E143E00E949922A50194010DC0C901D7
:103360000197E0916F0CF091700CE80FF91F10823B
:103370002F5F3F4F4F4F5F4F42165306640675064F
:1033800074F70894C108D108E0916F0CF091700CAB
:10339000EC0DFD1D9FEF9083A2E0B0E0CA0EDB1E96
:1033A000EE24FF2487011E821D828091C9060E949F
:1033B0004D2D019709F4A0CF85E99BE00E948B2257
:1033C00085E99BE06FE043E00E94992285E99BE05C
:1033D0006EEE75E00E94A22E6CE271E080E090E05B
:1033E0000E94912A27CF8830F9F48091400B8130D8
:1033F000D9F48093920BB9E0B093910BE981FA81F3
:10340000F093940BE093930B80E00E9492058091DF
:10341000930B9091940B9C01442737FD4095542FBA
:1034200029833A834B835C8380913F0B883009F07A
:1034300042C08091400B8230F1F58093920B39E0CD
:103440003093910B9092940B8092930B80E00E94AA
:1034500092058091930B9091940B4C01AA2497FCB8
:10346000A094BA2C81149104A104B10471F481E0F8
:1034700090E069E070E042E050E00E949003E1E0FB
:103480008E2E912CA12CB12C16C041E0841642E066
:10349000940640E0A40640E0B4066CF080E092E0C0
:1034A00069E070E042E050E00E949003812C72E0FD
:1034B000972EA12CB12C80913F0B883009F0BACE09
:1034C0008091400B833009F0B5CE8093920B59E088
:1034D0005093910B5092940B4092930B80E00E947A
:1034E00092058091930B9091940B2C01662457FCCC
:1034F0006094762C411451046104710471F481E0EC
:1035000090E069E070E043E050E00E94900361E0E9
:10351000462E512C612C712C8DCE81E0481682E014
:10352000580680E0680680E078060CF483CE80E0E0
:1035300092E069E070E043E050E00E949003412C8B
:1035400052E0552E612C712C75CE2F923F924F92E6
:103550005F926F927F928F929F92AF92BF92CF9223
:10356000DF92EF92FF920F931F93DF93CF93CDB72C
:10357000DEB728970FB6F894DEBF0FBECDBF662426
:10358000772443018FEF90E09A838983A1E0B0E034
:10359000B887AF83AA24BB24650185E99BE0F1D7F6
:1035A00085E99BE060E040E0C4D785E99BE064EFFB
:1035B00075E00E94A22E85E99BE061E040E0B9D76A
:1035C00060913E0B662339F485E99BE06EE572E07D
:1035D0000E94A22E06C085E99BE04AE050E00E94CE
:1035E000412E85E99BE060E041E0A3D785E99BE0BF
:1035F0006DEF75E00E94A22E85E99BE060E042E05D
:1036000098D785E99BE060E176E00E94A22E85E9EB
:103610009BE060E043E08DD785E99BE065E276E0E2
:103620000E94A22E89819A8169E070E040E050E01A
:103630000E9490038F81988569E070E041E050E03E
:103640000E949003C50169E070E042E050E00E94F2
:103650009003C30169E070E043E050E00E949003F2
:10366000B8E0B0933F0B1092400BE1E4FBE0DF01C8
:1036700098961082148A1C9254961C9254973196F4
:1036800011962BE0E535F207A1F781E0808780AB4A
:10369000848F858781A385AB8093490B80E060E0B0
:1036A00070E00E94060A80913F0B8D3031F48091CA
:1036B000400B813011F40E94541380913F0B8D30E8
:1036C00009F0A8C08091400B823019F40E943A1092
:1036D00064CF833009F0D8C0C601B501A4019301BD
:1036E0000E94A42E615072408040904054F085E9C1
:1036F0009BE06DE040E01DD785E99BE069E376E063
:1037000086C085E99BE06DE040E013D785E99BE04A
:1037100061E476E00E94A22E85E99BE06EE043E042
:1037200008D785E99BE069E476E00E94A22E91E04B
:10373000E92EF12C012D112D8F819885AA2797FD57
:10374000A095BA2F8B839C83AD83BE8346C091E046
:10375000E916F1040105110509F054C12B803C80E4
:103760004D805E80A1E02A16A2E03A06A0E04A065B
:10377000A0E05A0634F02A183B084C085D08840182
:10378000730185E99BE061E140E0D3D685E99BE0E8
:10379000B201A1012AE030E00E94522E65E070E003
:1037A00080E090E00E94912AC101019720916F0C66
:1037B0003091700C280F391F8981F9018083F10144
:1037C000EE0FFF1FE85CF84FA981BA81B183A08397
:1037D0000894E11CF11C011D111D6E147F0480066C
:1037E00091060CF0B4CF85E99BE06DE040E0A1D6F6
:1037F00085E99BE060E576E00E94A22E85E99BE0EA
:103800006EE043E096D685E99BE064E576E00E94B1
:10381000A22E2BCF8830C1F58091400B8130A1F5CD
:103820008093920BB9E0B093910BEF81F885F09300
:10383000940BE093930B80E00E9492058091930B90
:103840009091940B98878F83892B69F481E090E0A5
:1038500069E070E041E050E00E949003A1E0B0E038
:10386000B887AF8311C0EF81F885E150F24064F072
:1038700080E092E069E070E041E050E00E94900357
:1038800080E092E098878F8380913F0B883009F029
:1038900042C08091400B8230F1F58093920B99E009
:1038A0009093910BB092940BA092930B80E00E94A6
:1038B00092058091930B9091940B5C01CC24B7FC02
:1038C000C094DC2CA114B104C104D10471F481E0D2
:1038D00090E069E070E042E050E00E94900301E077
:1038E000A02EB12CC12CD12C16C0A1E0AA16A2E0AA
:1038F000BA06A0E0CA06A0E0DA066CF080E092E02A
:1039000069E070E042E050E00E949003A12C12E0D8
:10391000B12EC12CD12C80913F0B883009F042C0D0
:103920008091400B8330F1F58093920BB9E0B09316
:10393000910B7092940B6092930B80E00E94920521
:103940008091930B9091940B3C01882477FC809498
:10395000982C611471048104910471F481E090E069
:1039600069E070E043E050E00E949003B1E06B2E0C
:10397000712C812C912C16C0E1E06E16E2E07E06DF
:10398000E0E08E06E0E09E066CF080E092E069E008
:1039900070E043E050E00E949003612CA2E07A2E98
:1039A000812C912C80913F0B883009F05ECE809164
:1039B000400B882309F059CE1092920BF9E0F09356
:1039C000910B89819A819093940B8093930B81E062
:1039D0000E949205A091930BB091940BBA83A98396
:1039E000AF3FB10509F00CF440CE8FEF90E069E0F5
:1039F00070E040E050E00E949003EFEFF0E0FA83C7
:103A0000E98333CE2A0C3B1C4C1C5D1CABCE2F92A1
:103A10003F924F925F926F927F928F929F92AF925E
:103A2000BF92CF92DF92EF92FF920F931F93DF939B
:103A3000CF93CDB7DEB72B970FB6F894DEBF0FBE8E
:103A4000CDBF85E99BE09DD585E99BE060E040E046
:103A500070D585E99BE06BE576E00E94A22E60912F
:103A60003E0B662339F485E99BE06EE572E00E9427
:103A7000A22E06C085E99BE04AE050E00E94412E5C
:103A800085E99BE064E041E054D585E99BE06FE681
:103A900076E00E94A22E85E99BE060E042E049D5F5
:103AA00085E99BE060E876E00E94A22E85E99BE034
:103AB00060E043E03ED585E99BE064E976E00E9462
:103AC000A22E89E080933F0B81E08093400BE1E4DC
:103AD000FBE0DF0198961082148A1C9254961C9287
:103AE0005497319611962BE0E535F207A1F781E066
:103AF0008187858F81AB82A386AB01E0602E712C1C
:103B000011E0812E912CB8E0AB2EB12CAAE0CA2E88
:103B1000CE0101969B878A8785E99BE06FE043E0B1
:103B200008D585E99BE06EEE75E00E94A22E85E93E
:103B30009BE0F1D480E060E070E00E94060A809192
:103B40003F0B893009F09FC08091400B8130C9F54F
:103B50008093920BC092910B7092940B6092930B96
:103B600080E00E9492056090930B7090940B61141A
:103B7000710499F481E090E06AE070E041E050E087
:103B80000E94900381E090E06AE070E041E050E044
:103B90000E949003F1E06F2E712C8091930B909115
:103BA000940B853691050CF4B7CF84E690E06AE07B
:103BB00070E041E050E00E949003E4E66E2E712C2C
:103BC000ABCF823081F58093920BC092910B909293
:103BD000940B8092930B80E00E9492058090930B4F
:103BE0009090940B8114910459F481E090E06AE084
:103BF00070E042E050E00E94900371E0872E912C2B
:103C00008091930B9091940B09970CF485CF88E0E9
:103C100090E06AE070E042E050E00E94900368E0CB
:103C2000862E912C79CF833009F048C08093920B77
:103C3000C092910BB092940BA092930B80E00E94E3
:103C40009205A090930BB090940BA114B10459F479
:103C500081E090E06AE070E043E050E00E94900371
:103C600051E0A52EB12C8091930B9091940B099764
:103C70000CF452CF88E090E06AE070E042E050E05F
:103C80000E9490033BC08E30C9F48091400B82307B
:103C9000A9F4A8E3B7E020E030E0E0916F0CF091E8
:103CA000700CE20FF31F8C9180832F5F3F4F1296B1
:103CB00092E02130390789F70E94541380913F0B1D
:103CC0008E3009F029CF8091400B833009F024CF4A
:103CD0008A149B04B9F481E090E06AE070E042E06D
:103CE00050E00E94900388E090E06AE070E042E0DB
:103CF00050E00E94900341E0842E912C38E0A32EE6
:103D0000B12C0ACF85E99BE06EE043E012D485E94F
:103D10009BE064E074E00E94A22E85E99BE06FE0E6
:103D200043E007D485E99BE068EE75E00E94A22E8F
:103D300010E0A814B9040CF411E0EA85FB8529E031
:103D400011922A95E9F71123A9F481E090E08815F2
:103D500099055CF0A816B90644F0E1E0F0E0EC0F3C
:103D6000FD1FE80FF91F31E030830196893091057E
:103D700071F713C088E090E0881699065CF08A1508
:103D80009B0544F0E1E0F0E0EC0FFD1FE80FF91FA8
:103D900021E020830197882379F785E99BE0B3D35D
:103DA000112381F084E690E0FC016E9EC0016F9EBD
:103DB000900D7E9E900D11241C01442437FC4094EC
:103DC000542C32C184E690E09C01629EC001639E47
:103DD000900D729E900D11241C01442437FC4094D8
:103DE000542CDD24D394E1E0F0E0EC0FFD1FED0D49
:103DF000F11D8081813009F07FC085E99BE063E19E
:103E000040E097D385E99BE06D2D4AE050E00E94A9
:103E1000412E85E99BE063E143E08BD300E010E0B5
:103E200034E0D31619F13D1548F082E0D816B1F010
:103E30008D15C0F091E0D916B1F50CC0E6E0DE16A4
:103E4000E9F0DE16B8F0F7E0DF16E1F028E0D21670
:103E500051F51CC08CE69CE0B8011DC0B801605053
:103E60007E4F17C0B80160507C4F13C0B80160503E
:103E70007A4F0FC0B8016050784F0BC0B801605046
:103E8000764F07C0B8016050744F03C0B80160504E
:103E9000724F8CE69CE0C0D7E0916F0CF091700CF3
:103EA000E00FF11F80830F5F1F4F32E000301307D8
:103EB00009F0B6CF8091C9060E944D2D019709F0F7
:103EC000A9C0EE24FF24870112C061E070E080E009
:103ED00090E00E94912A8091C9060E944D2D892B65
:103EE00009F498C00894E11CF11C011D111D2E1449
:103EF0003F04400651064CF7D39488E08D1508F432
:103F000070CF71CFE1E0F0E0EC0FFD1FED0DF11D82
:103F10008081813009F085C085E99BE063E140E064
:103F200008D385E99BE06D2D4AE050E00E94412EC8
:103F300085E99BE063E143E0FCD200E010E094E01F
:103F4000D91619F19D1548F0E2E0DE16B1F0ED1535
:103F5000C0F0F1E0DF16B1F50CC026E0D216E9F0B2
:103F6000D216B8F037E0D316E1F088E0D81651F554
:103F70001CC08CE69CE0B8011DC0B80160507E4FAB
:103F800017C0B80160507C4F13C0B80160507A4F21
:103F90000FC0B8016050784F0BC0B8016050764F29
:103FA00007C0B8016050744F03C0B8016050724F31
:103FB0008CE69CE031D7E0916F0CF091700CE00F33
:103FC000F11F80830F5F1F4F92E00030190709F047
:103FD000B6CF8091C9060E944D2D0197D9F4EE24E9
:103FE000FF24870111C061E070E080E090E00E9452
:103FF000912A8091C9060E944D2D892B59F0089471
:10400000E11CF11C011D111D2E143F044006510638
:1040100054F707C064EF71E080E090E00E94912ABD
:104020007BCDDA9409F06ECF28E0D22E6BCF1F93B0
:1040300011E085E99BE0A5D285E99BE060E040E0E6
:1040400078D285E99BE069EA76E00E94A22E85E9B4
:104050009BE062E042E06DD285E99BE069EB76E0AF
:104060000E94A22E85E99BE069E042E062D285E9E8
:104070009BE069E574E00E94A22E85E99BE06FE079
:1040800042E057D285E99BE06EE574E00E94A22EE3
:1040900085E99BE062E140E04CD285E99BE06CE57C
:1040A00072E00E94A22E60913E0B662339F485E9EE
:1040B0009BE06EE572E00E94A22E06C085E99BE0BF
:1040C0004AE050E00E94412E10933F0B82E0809323
:1040D000400BE1E4FBE0DF0198961082148A1C9209
:1040E00054961C925497319611968BE0E535F8075B
:1040F000A1F7158B148F12A380E060E070E00E949E
:10410000060A80913F0B883059F48091400B823031
:1041100039F40E94400D019709F48BCF0E9454138B
:1041200080913F0B8E3059F48091400B823039F4EE
:104130000E948E0E019709F47CCF0E945413809147
:104140003F0B813031F48091400B823011F40E949A
:1041500054131F91089582E061E00E941B2D0E947C
:10416000FE0D0E94ED0D0E942F090E942A075FCFCD
:104170008091C10662E00E94682C8091C30662E0D3
:104180000E94682C8091C50662E00E94682C809194
:10419000C70662E00E94682C8BE062E00E94682CF7
:1041A0008091CB0661E00E94682C8091CD0661E091
:1041B0000E94682C8091CF0661E00E94682C80915B
:1041C000D10661E00E94682C8091D30662E00E94D3
:1041D000682C8091D50662E00E94682C8091D706F9
:1041E00062E00E94682C8091D90662E00E94682CEF
:1041F0008091CB0661E00E941B2D8091CD0661E08D
:104200000E941B2D8091CF0661E00E941B2D8091A2
:10421000D10661E00E941B2D8091E20661E00E94C0
:10422000682C8091E40661E00E94682C8091EC0685
:1042300061E00E94682C8091EA0661E00E94682C8F
:104240008091E80661E00E94682C8091E60661E0BA
:104250000E94682C8091EE0661E00E94682C85E93E
:104260009BE064E144E020E092D181E090E0909313
:10427000850C8093840C80E092E09093810C809375
:10428000800C8DE69CE060E02BD785E061E00E9429
:10429000682C85E060E00E941B2D86E061E00E94B2
:1042A000682C86E060E00E941B2D87E061E00E94A0
:1042B000682C87E060E00E941B2D86E161E00E948F
:1042C000682C86E160E00E941B2D87E161E00E947E
:1042D000682C87E160E00E941B2D88E161E00E946C
:1042E000682C88E160E00E941B2D89E161E00E945A
:1042F000682C89E160E00E941B2D8AE161E00E9448
:10430000682C8AE160E00E941B2D8BE161E00E9435
:10431000682C8BE160E00E941B2D8CE161E00E9423
:10432000682C8CE160E00E941B2D8DE161E00E9411
:10433000682C8DE160E00E941B2D8FE161E00E94FE
:10434000682C8FE160E00E941B2D81E261E00E94F9
:10435000682C81E260E00E941B2D83E261E00E94F4
:10436000682C83E260E00E941B2D85E261E00E94E0
:10437000682C85E260E00E941B2D87E261E00E94CC
:10438000682C87E260E00E941B2D89E261E00E94B8
:10439000682C89E260E00E941B2D8EE261E00E94A1
:1043A000682C8EE260E00E941B2D80E361E00E9499
:1043B000682C80E360E00E941B2D82E361E00E9494
:1043C000682C82E360E00E941B2D84E361E00E9480
:1043D000682C84E360E00E941B2D86E361E00E946C
:1043E000682C86E360E00E941B2D87E361E00E9459
:1043F000682C87E360E00E941B2D88E361E00E9447
:10440000682C88E360E00E941B2D89E361E00E9434
:10441000682C89E360E00E941B2D8AE361E00E9422
:10442000682C8AE360E00E941B2D8BE361E00E9410
:10443000682C8BE360E00E941B2D8CE361E00E94FE
:10444000682C8CE360E00E941B2D8DE361E00E94EC
:10445000682C8DE360E00E941B2D8EE361E00E94DA
:10446000682C8EE360E00E941B2D8FE361E00E94C8
:10447000682C8FE360E00E941B2D80E461E00E94C5
:10448000682C80E460E00E941B2D81E461E00E94C2
:10449000682C81E460E00E941B2D82E461E00E94B0
:1044A000682C82E460E00E941B2D83E461E00E949E
:1044B000682C83E460E00E941B2D84E461E00E948C
:1044C000682C84E460E00C941B2D08950895FC0191
:1044D0001382128283E097E0918380830895FC0128
:1044E000A081B18118962D913C9119976FEFF90138
:1044F00019950895DC01ED91FC910284F385E02D7E
:1045000040E019950895FC016581862F81608583BF
:104510006960CF01EFCFFC0165816E7F65836860C4
:10452000E9CFFC016581862F846085836C60CF01B3
:10453000E1CFDC0117969C911797491710F0492F8E
:10454000415018968C911897803139F4943029F4A1
:10455000E42FF0E0E15FF84F04C0E42FF0E0ED5EFF
:10456000F84F8081680F6068CD01C4CFDC01ED9108
:10457000FC910284F385E02D41E0199581E090E003
:10458000089561E0B7DF80ED97E00C94EA2ACF93BD
:10459000DF93EC01423018F08C8188608C834F836C
:1045A0006887222329F0413019F48C8184608C8340
:1045B00064E670E080E090E0B4D76C8164FD2EC0CA
:1045C000E881F9810284F385E02DCE0163E042E0C9
:1045D000199584E991E1FED7E881F9810284F38598
:1045E000E02DCE0163E042E0199584E991E1F2D734
:1045F000E881F9810284F385E02DCE0163E042E099
:10460000199586E990E0E6D7E881F9810284F3857F
:10461000E02DCE0162E042E0199511C06062CE014A
:1046200069DF84E991E1D6D76C816062CE0162DFF7
:1046300086E990E0CFD76C816062CE015BDF6C8150
:104640006062CE0157DF84E08D83CE016ADFCE0148
:1046500098DF82E08E83CE0166E04CDFCE013FDF43
:10466000DF91CF9108950F931F938C01FC018585F5
:1046700061E00E941B2DF801858560E00E941B2DE2
:104680001F910F910895BF92CF92DF92EF92FF9208
:104690000F931F93CF93DF93D82EC92EB42E282FBC
:1046A000392FC9018C01C0E0D0E0E62EFF240DC0F7
:1046B000B7010C2E02C0759567950A94E2F76170F8
:1046C000F80185850E941B2D21960F5F1F4FCB158A
:1046D00078F38D2D9C2DC7DFDF91CF911F910F9126
:1046E000FF90EF90DF90CF90BF9008950F931F93AE
:1046F000CF93DF93EC01162F042F60E0413009F4D3
:1047000061E08B850E941B2D8C858F3F19F060E046
:104710000E941B2D023089F08C8184FF04C0CE01E1
:10472000612F48E00DC0612F70E084E075956795BA
:104730008A95E1F7CE0144E0A6DFCE01612F44E087
:10474000A2DFDF91CF911F910F9108956F927F9219
:104750008F92AF92CF92EF920F931F93DF93CF93ED
:10476000CDB7DEB73C01162F8E2DF301438724878A
:104770000587E686C786A08A818A9E85928B9F855B
:10478000938B9889948B9989958B61E00E94682C12
:10479000F301878561E00E94682CF301808961E064
:1047A0000E94682CF301818961E00E94682C11232A
:1047B000A1F4F301828961E00E94682CF3018389EE
:1047C00061E00E94682CF301848961E00E94682CFA
:1047D000F301858961E00E94682CF301838561E023
:1047E0000E94682CF30184858F3F19F061E00E94DC
:1047F000682CF301858561E00E94682C112319F073
:10480000F301148203C080E1F3018483F301838503
:1048100060E00E941B2DF301858560E00E941B2D46
:10482000F30184858F3F19F060E00E941B2D8FEF0C
:10483000F301868B12861186CF91DF911F910F9124
:10484000EF90CF90AF908F907F906F900895DF9210
:10485000EF92FF920F931F938C01D62E7A01862F31
:1048600061E00E94682CD8015696DC9256971A9601
:10487000FC92EE921997ED91FC910084F185E02D68
:10488000C80160E019951F910F91FF90EF90DF90A4
:104890000895DC01362F56962C9156972F3F49F1FB
:1048A000E22FF0E0E254FE4FE491EE2379F0199606
:1048B0008D919C911A97892B19F4822F70E005C075
:1048C0006FEF70E0631B7109822F24C719968D91D9
:1048D0009C911A97662319F0892B39F402C001972D
:1048E00021F4822F61E00C941B2D822F60E00C9448
:1048F0001B2D08956F927F928F92AF92BF92CF92AD
:10490000DF92EF92FF920F931F933C01162FF42E2C
:10491000D22EB02EAE2C8C2CDADD8BE197E0D301B9
:104920008D939C9300D00F92EDB7FEB73196ADB743
:10493000BEB711961C92118212821382C30161E0EC
:10494000412F2FEF0F2DED2CCB2C00DF0F900F9070
:104950000F900F901F910F91FF90EF90DF90CF90ED
:10496000BF90AF908F907F906F9008952091CE0B65
:1049700030E08091CD0B281B3109C9010895409189
:10498000CD0B8091CE0B481718F02FEF3FEF0AC0E8
:10499000E42FF0E0E355F44F8081282F30E04F5FA3
:1049A0004093CD0BC9010895E091CD0B8091CE0BC2
:1049B000E81718F0EFEFFFEF06C0F0E0E355F44F13
:1049C0008081E82FF0E0CF01089508951092F50B53
:1049D0001092F40B88EE93E0A0E0B0E08093F60B29
:1049E0009093F70BA093F80BB093F90B8BE297E041
:1049F0009093F30B8093F20B0895CF92DF92EF9296
:104A0000FF920F931F93CF93DF937C016B018A0179
:104A10008091F10B8823A1F0C0E0D0E00DC0D70158
:104A2000ED91FC91D601AC0FBD1F0190F081E02DFE
:104A3000C7016C9119952196C017D10780F303C067
:104A4000CB01642F39D0C801DF91CF911F910F9115
:104A5000FF90EF90DF90CF900895DF93CF930F9268
:104A6000CDB7DEB7FC0169838091F10B8823C9F0D3
:104A70008091F00B803238F081E090E09383828364
:104A800020E030E014C08091EF0BE82FF0E0E1531C
:104A9000F44F998190838F5F8093EF0B8093F00B9D
:104AA00004C0CE01019661E007D021E030E0C901E9
:104AB0000F90CF91DF910895482F613210F081E07F
:104AC00008958091FE0B843011F082E00895609388
:104AD000490CA8E2BCE0842F9C01F90102C081913D
:104AE0008D938E2F841B8617D0F380E008951F923C
:104AF0000F920FB60F920BB60F9211242F933F9384
:104B00004F935F936F937F938F939F93AF93BF93D5
:104B1000EF93FF938091B90090E0887F907080368A
:104B2000910509F4F2C081369105CCF588329105E2
:104B300009F47BC089329105B4F48031910509F400
:104B40006FC0813191053CF4009709F447C1089783
:104B500009F04FC165C08831910509F466C080979E
:104B600009F047C182C08034910509F4A4C08134A2
:104B7000910544F48033910509F482C0C89709F087
:104B800038C189C08035910509F489C088359105FF
:104B900009F496C08834910509F02BC1AEC088395C
:104BA000910509F413C189399105ECF48837910511
:104BB00009F4ABC0893791054CF48836910509F4A6
:104BC000A4C08037910509F014C19FC088389105B1
:104BD00009F4FCC08039910509F49DC08038910525
:104BE00009F007C198C0803B910509F4C6C0813B1C
:104BF00091054CF4803A910509F49FC0883A9105DB
:104C000009F0F7C0BAC0803C910509F4E3C0883CC4
:104C1000910509F4DFC0883B910509F0EAC0C2C0E4
:104C20008091FF0B8093BB00CFC09091260C8091A8
:104C3000270C981768F49091260CE92FF0E0EA5FB2
:104C4000F34F80818093BB009F5F9093260CBCC084
:104C50008091000C882309F44BC085ED8093BC0043
:104C60008091BC0084FDFCCFC2C080E280936B0CBD
:104C700085ED8093BC008091BC0084FDFCCFB7C063
:104C800080E380936B0C85ED8093BC008091BC0029
:104C900084FDFCCFACC088E380936B0C9BC08091FB
:104CA000260C9091BB00E82FF0E0EA5FF34F908371
:104CB0008F5F8093260C9091260C8091270C82C0E8
:104CC0008091260C9091BB00E82FF0E0EA5FF34F53
:104CD00090838F5F8093260C8091000C882341F095
:104CE00085ED8093BC008091BC0084FDFCCF7FC02B
:104CF00081E08093010C84EA6EC085ED8093BC0056
:104D00008091BC0084FDFCCF72C083E08093FE0BD9
:104D100010926A0C59C080916A0C803208F056C01B
:104D200080916A0C9091BB00E82FF0E0E65BF34FB6
:104D300090838F5F80936A0C47C080916A0C8032A9
:104D400030F4E0916A0CF0E0E65BF34F108285ED01
:104D50008093BC008091BC0084FDFCCF1092FE0BC0
:104D600060916A0CE091040CF091050C8AE49CE0DF
:104D700070E0199510926A0C2DC084E08093FE0BB0
:104D80001092480C1092490CE091020CF091030C27
:104D900019958091490C882329F481E08093490C6E
:104DA0001092280C9091480CE92FF0E0E85DF34F49
:104DB00080818093BB009F5F9093480C9091480C3A
:104DC0008091490C981710F485EC01C085E8809318
:104DD000BC000FC085EC8093BC0009C010926B0C26
:104DE00085ED8093BC008091BC0084FDFCCF1092C7
:104DF000FE0BFF91EF91BF91AF919F918F917F91AA
:104E00006F915F914F913F912F910F900BBE0F903B
:104E10000FBE0F901F901895F999FECF72BD61BD1E
:104E2000F89A80B50895F999FECF1FBA72BD61BD99
:104E300040BD0FB6F894FA9AF99A0FBE0895FC0196
:104E40008385882331F48091C10087728093C100EB
:104E50000895813031F48091C90087728093C90030
:104E60000895823031F48091D10087728093D1000F
:104E70000895833029F48091310187728093310144
:104E800008951F920F920FB60F920BB60F92112436
:104E90002F933F934F935F936F937F938F939F9342
:104EA000AF93BF93EF93FF938091C0008093750CF5
:104EB0003091C6003093760C2091710C2093770CC2
:104EC00084FF10C08091C0008F7E8093C0008091CD
:104ED000820C9091830C90937B0C80937A0C81E0F0
:104EE0008093710C213091F4332369F482E0809334
:104EF000710C80916D0C90916E0C01969093730CD7
:104F00008093720C4BC01092710C48C02230A1F4F7
:104F100080917A0C90917B0C019790937B0C8093FD
:104F20007A0C892BD9F583E08093710CE0916D0C9C
:104F3000F0916E0C308332C0233081F5E091720C19
:104F4000F091730CF093900CE0938F0C30834091B0
:104F50008F0C5091900C4F5F5F4F5093900C40938B
:104F60008F0C80916D0C90916E0C20917E0C309185
:104F70007F0C820F931F4817590760F01092710C35
:104F8000E091930CF091940C309741F08091780C63
:104F9000199504C05093730C4093720CFF91EF91DC
:104FA000BF91AF919F918F917F916F915F914F9141
:104FB0003F912F910F900BBE0F900FBE0F901F903F
:104FC00018951F920F920FB60F920BB60F921124E5
:104FD0002F933F934F935F936F937F938F939F9301
:104FE000AF93BF93EF93FF938091790C80938E0CD6
:104FF000882361F41092C50080918B0C8093C400CB
:105000001092C60081E08093790C40C0813081F419
:105010001092C50080918A0C8093C4001092C60043
:1050200082E08093790C10927D0C10927C0C2EC043
:1050300080917C0C90917D0C90938D0C80938C0CC6
:10504000E0916F0CF091700CE80FF91F2081209314
:10505000C6009C012F5F3F4F30938D0C20938C0C2A
:105060008091800C9091810C2817390759F4E091B8
:10507000910CF091920C309711F080E019951092FC
:10508000790C04C030937D0C20937C0CFF91EF9140
:10509000BF91AF919F918F917F916F915F914F9150
:1050A0003F912F910F900BBE0F900FBE0F901F904E
:1050B000189521E030E03093830C2093820C88E037
:1050C00090E090937F0C80937E0C3093850C20931E
:1050D000840C9093810C8093800C1092780C08952E
:1050E0001F93CF93DF93EC01162FF894A8DE1C8F4B
:1050F000112321F487E08D8F84E10BC0113021F45E
:1051000083E08D8F8AE005C0123021F481E08D8F1D
:1051100085E08E8F8B8D8F3F29F061E0D9D38B8D09
:1051200061E089D48B858823D1F481E061E0D0D31C
:105130001092C5008D8D8093C4008091C000826064
:105140008093C0008091C2008E608093C2008091E5
:10515000C10088648093C1001092C60053C08130A2
:10516000D1F482E161E0B4D31092CD008D8D8093B3
:10517000CC008091C80082608093C8008091CA00F2
:105180008E608093CA008091C90088648093C900B2
:105190001092CE0037C08230D1F480E161E098D324
:1051A0001092D5008D8D8093D4008091D0008260C4
:1051B0008093D0008091D2008E608093D200809145
:1051C000D10088648093D1001092D6001BC0833038
:1051D000C9F48EE061E07CD3109235018D8D80930F
:1051E00034018091300182608093300180913201DE
:1051F0008E60809332018091310188648093310107
:105200001092360181E08C878B899C890DD08A832E
:105210009B834B895C8960E070E00E943301789445
:10522000DF91CF911F9108950F931F93CF93DF9339
:10523000BC018230910510F462E070E0E091A00CB6
:10524000F091A10C40E050E0A0E0B0E024C08081EB
:10525000918186179707D0F08617970771F482819E
:105260009381109729F013969C938E9312972CC0DC
:105270009093A10C8093A00C27C04115510519F003
:105280008417950718F48D01AC01EF01DF018281CD
:1052900093819C01F9013097D1F641155105F9F040
:1052A000CA01861B970B8430910580F48A819B810B
:1052B0000115110521F0F8019383828304C09093B6
:1052C000A10C8093A00CFE01329645C0FE01E80FB0
:1052D000F91F619371930297998388833CC08091F1
:1052E0009E0C90919F0C892B41F48091FA0690912D
:1052F000FB0690939F0C80939E0C4091FC0650916E
:10530000FD064115510541F44DB75EB78091F80691
:105310009091F906481B590B20919E0C30919F0CDF
:1053200024173507B0F4CA01821B930B8617970721
:1053300080F0AB014E5F5F4F8417950750F0420F2E
:10534000531F50939F0C40939E0CF90161937193EE
:1053500002C0E0E0F0E0CF01DF91CF911F910F910B
:105360000895CF93DF939C01009709F48FC0EC015F
:1053700022971B821A826091A00C7091A10C61157A
:10538000710581F488819981820F931F20919E0C71
:1053900030919F0C2817390739F5D0939F0CC09393
:1053A0009E0C74C0DB0140E050E0AC17BD0708F173
:1053B000BB83AA83FE0121913191E20FF31FAE1747
:1053C000BF0779F48D919C911197280F391F2E5F9B
:1053D0003F4F3983288312968D919C9113979B831D
:1053E0008A834115510571F4D093A10CC093A00C90
:1053F0004DC012968D919C911397AD01009711F0BD
:10540000DC01D3CFDA011396DC93CE931297FA0125
:1054100021913191E20FF31FCE17DF0769F48881E4
:105420009981280F391F2E5F3F4FFA013183208366
:105430008A819B8193838283E0E0F0E0DB01129616
:105440008D919C911397009719F0BC01FD01F6CF47
:10545000AB014E5F5F4FDB018D919C91840F951FD7
:1054600020919E0C30919F0C2817390779F43097C2
:1054700029F41092A10C1092A00C02C01382128287
:105480004250504050939F0C40939E0CDF91CF911F
:1054900008951F920F920FB60F9211242F933F93EE
:1054A0008F939F93AF93BF938091990C90919A0C97
:1054B000A0919B0CB0919C0C30919D0C0196A11D6C
:1054C000B11D232F2D5F2D3720F02D570196A11DE3
:1054D000B11D20939D0C8093990C90939A0CA093EE
:1054E0009B0CB0939C0C8091950C9091960CA09184
:1054F000970CB091980C0196A11DB11D8093950C4D
:105500009093960CA093970CB093980CBF91AF9189
:105510009F918F913F912F910F900FBE0F901F90F1
:1055200018959B01AC017FB7F8948091950C9091F0
:10553000960CA091970CB091980C66B5A89B05C0ED
:105540006F3F19F00196A11DB11D7FBFBA2FA92F82
:10555000982F8827860F911DA11DB11D62E0880F2D
:10556000991FAA1FBB1F6A95D1F7BC012DC0FFB7B9
:10557000F8948091950C9091960CA091970CB09115
:10558000980CE6B5A89B05C0EF3F19F00196A11D48
:10559000B11DFFBFBA2FA92F982F88278E0F911DFD
:1055A000A11DB11DE2E0880F991FAA1FBB1FEA953C
:1055B000D1F7861B970B885E9340C8F2215030408C
:1055C0004040504068517C4F21153105410551053F
:1055D00071F60895019739F0880F991F880F991F68
:1055E00002970197F1F70895789484B5826084BD9D
:1055F00084B5816084BD85B5826085BD85B58160D7
:1056000085BDEEE6F0E0808181608083E1E8F0E036
:105610001082808182608083808181608083E0E865
:10562000F0E0808181608083E1EBF0E08081846044
:105630008083E0EBF0E0808181608083E1E9F0E04D
:10564000808182608083808181608083E0E9F0E0F6
:10565000808181608083E1EAF0E0808182608083E4
:10566000808181608083E0EAF0E0808181608083D6
:10567000E1E2F1E0808182608083808181608083CB
:10568000E0E2F1E0808181608083EAE7F0E0808100
:105690008460808380818260808380818160808358
:1056A0008081806880831092C1000895382F8633EE
:1056B00008F0365320917B00832F8695869586953A
:1056C00090E08170907043E0880F991F4A95E1F750
:1056D000277F282B20937B0037708091FE068295D0
:1056E000880F880F807C832B80937C0080917A00C8
:1056F000806480937A0080917A0086FDFCCF2091AF
:10570000780040917900942F80E030E0282B392BED
:10571000C90108951F93CF93DF93182FEB0161E028
:10572000D7D0209709F4CAC0CF3FD10509F4C9C02A
:10573000E12FF0E0E254FE4F8491893009F466C015
:105740008A30B0F48430F1F1853040F4823059F180
:10575000833070F5813009F0AEC020C0873009F485
:1057600043C0883008F048C0863009F0A4C034C077
:105770008D3009F478C08E3038F48B3009F45AC07B
:105780008C3008F066C04CC0803109F480C0813193
:1057900009F487C08F3009F08EC06FC084B580686F
:1057A00084BDC7BD91C084B5806284BDC8BD8CC0B6
:1057B00080918000806880938000D0938900C0939E
:1057C000880082C080918000806280938000D093A6
:1057D0008B00C0938A0078C08091B000806880936D
:1057E000B000C093B30070C08091B000806280931D
:1057F000B000C093B40068C080919000806880932E
:105800009000D0939900C09398005EC08091900062
:10581000806280939000D0939B00C0939A0054C004
:1058200080919000886080939000D0939D00C093F9
:105830009C004AC08091A00080688093A000809165
:10584000A0008F7B8093A000D093A900C093A800F4
:105850003BC08091A00080628093A000D093AB00F9
:10586000C093AA0031C08091A00088608093A000FE
:10587000D093AD00C093AC0027C080912001806818
:1058800080932001D0932901C09328011DC08091ED
:105890002001806280932001D0932B01C0932A01C4
:1058A00013C080912001886080932001D0932D0146
:1058B000C0932C0109C0C038D1051CF4812F60E0D1
:1058C00002C0812F61E0B7D0DF91CF911F91089581
:1058D000CF93DF93482F50E0CA0188589E4FFC01B8
:1058E00034914E5C5E4FFA018491882369F190E017
:1058F000880F991FFC01EC51FF4FA591B491FC0159
:10590000E250FF4FC591D491662351F42FB7F8941C
:105910008C91932F909589238C93888189230BC038
:10592000623061F42FB7F8948C91932F909589236E
:105930008C938881832B88832FBF06C09FB7F894F0
:105940008C91832B8C939FBFDF91CF9108958930E9
:1059500009F449C08A30A0F4843051F1853040F414
:10596000823079F1833000F5813009F063C026C0C0
:10597000873079F1883098F5863009F05BC025C012
:105980008D3009F442C08E3028F48B30B1F18C3068
:10599000C0F52DC0803109F442C0813109F445C001
:1059A0008F3009F047C037C0809180008F7703C0E7
:1059B000809180008F7D80938000089584B58F77DB
:1059C00002C084B58F7D84BD08958091B0008F772B
:1059D00003C08091B0008F7D8093B00008958091C6
:1059E00090008F7707C0809190008F7D03C08091D9
:1059F0009000877F8093900008958091A0008F771A
:105A000007C08091A0008F7D03C08091A000877F98
:105A10008093A0000895809120018F7703C080912A
:105A200020018F7D80932001089580912001877F40
:105A3000809320010895FF920F931F93F62E482F15
:105A400050E0CA0182549E4FFC012491CA0188583B
:105A50009E4FFC0114914E5C5E4FFA0104910023AD
:105A6000C1F0222311F0822F72DFE02FF0E0EE0F61
:105A7000FF1FE250FF4FA591B4919FB7F894FF200C
:105A800021F48C911095812302C08C91812B8C93F1
:105A90009FBF1F910F91FF9008950F931F93482F61
:105AA00050E0CA0182549E4FFC012491CA018858DB
:105AB0009E4FFC0104914E5C5E4FFA01149111233C
:105AC00019F420E030E014C0222311F0822F3FDFD0
:105AD000812F90E0880F991F885E9E4FFC01A59151
