:1000000004C100002FC100002DC100002BC1000061
:1000100029C1000027C1000025C1000023C1000044
:1000200021C100001FC100001DC100001BC1000054
:1000300019C1000017C1000015C1000013C1000064
:1000400011C100000FC100000DC100000BC1000074
:1000500009C1000007C1000005C100000C942A2757
:1000600001C100000C942224FDC000000C94C224A5
:10007000F9C00000F7C00000F5C00000F3C00000A8
:10008000F1C00000EFC00000EDC00000EBC00000B8
:10009000E9C00000E7C00000E5C000000C94582251
:1000A000E1C00000DFC00000DDC00000DBC00000D8
:1000B000D9C00000D7C00000D5C00000D3C00000E8
:1000C000D1C00000CFC00000CDC00000CBC00000F8
:1000D000C9C00000C7C00000C5C00000C3C0000008
:1000E000C1C0000000002100240027002A002D00CC
:1000F0003000330001010000040107010A01000083
:100100002200250028002B002E00310034000201BF
:100110000000050108010B0100002000230026005B
:1001200029002C002F00320000010000030106010D
:10013000090105050505070508080808020202026D
:100140000A0A080804040404010101010101010173
:100150000303030303030303040707070C0C0C0C3E
:100160000C0C0C0C02020202060606060606060627
:100170000B0B0B0B0B0B0B0B0102102020080810B4
:100180002040102040800201020108040201010207
:1001900004081020408080402010080402018004E0
:1001A000020180402010080402010804020101023B
:1001B0000408102040800102040810204080000044
:1001C000090A02080B0C0D070603040100000000D9
:1001D000000000000000000000000000000000001F
:1001E0000000000000000000000011100F000000DF
:1001F00000000000000000000000000000000000FF
:10020000000000003A01C7213A2511241FBECFEF9C
:10021000D1E2DEBFCDBF00E00CBF15E0A0E0B2E050
:10022000EAEEF7E500E00BBF02C007900D92A03B9D
:10023000B107D9F71BBE1BE0A0EBB5E001C01D92D2
:10024000AA31B107E1F712E0CAE0D2E004C0229778
:10025000FE010E94EF2BC430D107C9F70E945E2A2D
:100260000C94F32BCDCEDC0101C06D934150504076
:10027000E0F70895CF92EF920F938DE09AE06091AE
:100280005D0540915F052091610500916305E09057
:100290006505C09067050E945B210F91EF90CF909C
:1002A00008953F924F925F926F927F928F929F92AA
:1002B000AF92BF92CF92DF92EF92FF920F931F9374
:1002C00081E18093560555245394B4E04B2EA7E06A
:1002D0003A2EFFE09F2EE2E08E2E75E0772E68E04A
:1002E000662E53E0C52E46E0B42E39E0A32E1EE064
:1002F0000AE02BE0F22E9CE0E92E8DE0D82EBAC168
:100300008091460560E00E94FC2980914E050E9484
:100310002E2A892B61F450925605609157057091F1
:1003200058058091590590915A050E94722765E001
:1003300070E080E090E00E947227809150050E945A
:100340002E2A892B61F440925605609157057091D1
:1003500058058091590590915A050E94722765E0D1
:1003600070E080E090E00E947227809152050E9428
:100370002E2A892B61F430925605609157057091B1
:1003800058058091590590915A050E94722765E0A1
:1003900070E080E090E00E947227809154050E94F6
:1003A0002E2A892B61F49092560560915705709121
:1003B00058058091590590915A050E94722765E071
:1003C00070E080E090E00E9472278091460561E035
:1003D0000E94FC298091480560E00E94FC298091E0
:1003E0004E050E942E2A892B61F480925605609159
:1003F0005705709158058091590590915A050E94B2
:10040000722765E070E080E090E00E9472278091A2
:1004100050050E942E2A892B61F470925605609136
:100420005705709158058091590590915A050E9481
:10043000722765E070E080E090E00E947227809172
:1004400052050E942E2A892B61F460925605609114
:100450005705709158058091590590915A050E9451
:10046000722765E070E080E090E00E947227809142
:1004700054050E942E2A892B61F410925605609132
:100480005705709158058091590590915A050E9421
:10049000722765E070E080E090E00E947227809112
:1004A000480561E00E94FC2980914A0560E00E94B5
:1004B000FC2980914E050E942E2A892B61F4C0925E
:1004C0005605609157057091580580915905909196
:1004D0005A050E94722765E070E080E090E00E947B
:1004E0007227809150050E942E2A892B61F4B092C8
:1004F0005605609157057091580580915905909166
:100500005A050E94722765E070E080E090E00E944A
:100510007227809152050E942E2A892B61F4A092A5
:100520005605609157057091580580915905909135
:100530005A050E94722765E070E080E090E00E941A
:100540007227809154050E942E2A892B61F4109302
:100550005605609157057091580580915905909105
:100560005A050E94722765E070E080E090E00E94EA
:10057000722780914A0561E00E94FC2980914C0518
:1005800060E00E94FC2980914E050E942E2A892B52
:1005900061F400935605609157057091580580915C
:1005A000590590915A050E94722765E070E080E03D
:1005B00090E00E947227809150050E942E2A892B7C
:1005C00061F4F0925605609157057091580580913D
:1005D000590590915A050E94722765E070E080E00D
:1005E00090E00E947227809152050E942E2A892B4A
:1005F00061F4E0925605609157057091580580911D
:10060000590590915A050E94722765E070E080E0DC
:1006100090E00E947227809154050E942E2A892B17
:1006200061F4D092560560915705709158058091FC
:10063000590590915A050E94722765E070E080E0AC
:1006400090E00E94722780914C0561E00E94FC2995
:10065000809144050E942E2A892B61F4109356053F
:1006600060915705709158058091590590915A05F0
:100670000E94722780915605813109F441CE1F9165
:100680000F91FF90EF90DF90CF90BF90AF909F9031
:100690008F907F906F905F904F903F9008958DE086
:1006A0009AE063E142E00E947A1F8DE09AE00E94A6
:1006B000641F80E090E0E091E70AF091E80AE80F1B
:1006C000F91F1082019622E080309207A1F78091F5
:1006D00044050E942E2A0197D1F36CE271E080E07C
:1006E00090E00E947227A2EBB5E020E030E0E091BC
:1006F000E70AF091E80AE20FF31F8C9180832F5FE5
:100700003F4F129682E02030380789F78DE09AE05B
:100710006DE042E00E947A1F8DE09AE00C946C1F1D
:100720000F931F93CF93DF93EC01162F042F8DE0CF
:100730009AE00E947A1F8DE09AE060E072E00E94E9
:10074000832BCA30D1053CF4612F6E5F8DE09AE0B7
:10075000402F0E947A1FCE010A978A35910538F4FE
:10076000612F6F5F8DE09AE0402F0E947A1FC436A0
:10077000D10534F08DE09AE0612F402F0E947A1F5E
:100780008DE09AE0BE014AE050E00E94712BDF91BB
:10079000CF911F910F910895DF92EF92FF920F93E7
:1007A0001F93CF93DF93D82E062F682F61508DE0D3
:1007B0009AE0402F0E947A1F8DE09AE064E072E098
:1007C0000E94832B80914A0560E00E94FC298DE005
:1007D0009AE00E94641FEE24FF241EC08C2F912FEC
:1007E0006D2D70E0402F50E09BDF80913A05909195
:1007F0003B050197E091E70AF091E80AE80FF91F3D
:10080000C083E0913A05F0913B05EE0FFF1FE055E4
:10081000FA4FC08311837E01809154050E942E2AD5
:100820000197D9F4809144050E942E2A0197A9F4DA
:1008300080915B050E94372864E070E00E94A42B41
:10084000172FC62FD72F62E370E080E090E00E9460
:100850007227EC16FD0601F3C1CF8DE09AE00E94ED
:100860006C1F80914A0561E00E94FC296CE271E0F6
:1008700080E090E00E947227DF91CF911F910F914D
:10088000FF90EF90DF9008951F9380914C0560E0FA
:100890000E94FC291FEF809152050E942E2A019789
:1008A00009F046C0809144050E942E2A019709F064
:1008B0003FC080913A0590913B050197E091E70A8E
:1008C000F091E80AE80FF91F10836091090A70E0BF
:1008D0006250704040910A0A8FEF90E050E020DFB4
:1008E00064E670E080E090E00E94722780913A0513
:1008F00090913B050197E091E70AF091E80AE80F33
:10090000F91F10826091090A62508DE09AE04091CF
:100910000A0A0E947A1F8DE09AE066E072E00E9467
:10092000832B64E670E080E090E00E947227B3CFF2
:1009300080914C0561E00E94FC296CE271E080E04E
:1009400090E00E9472278DE09AE06091090A409140
:100950000A0A0E947A1F1F910895CF92DF92EF92A8
:10096000FF920F931F938C016DE070E040E050E028
:10097000D7DE7EE0C72ED12CC00ED11EC60161E1AC
:1009800070E040E050E0CCDE60EBE62E65E0F62E55
:10099000F801EE0FFF1FEE0DFF1D8081918161E0D8
:1009A00070E041E050E0BCDEF8013196EE0FFF1F31
:1009B000EE0DFF1D8081918165E070E041E050E027
:1009C000AFDEF8013296EE0FFF1FEE0DFF1D8081A6
:1009D000918169E070E041E050E0A2DEF8013396D9
:1009E000EE0FFF1FEE0DFF1D808191816DE070E025
:1009F00041E050E095DEF8013496EE0FFF1FEE0D5A
:100A0000FF1D8081918161E170E041E050E088DE6E
:100A1000F8013596EE0FFF1FEE0DFF1D80819181CD
:100A200061E070E042E050E07BDEF8013696EE0FC8
:100A3000FF1FEE0DFF1D8081918165E070E042E0B7
:100A400050E06EDEF8013796EE0FFF1FEE0DFF1D32
:100A50008081918169E070E042E050E061DEF80160
:100A60003896EE0FFF1FEE0DFF1D808191816DE026
:100A700070E042E050E054DEF8013996EE0FFF1FBF
:100A8000EE0DFF1D8081918161E170E042E050E058
:100A900047DEF8013A96EE0FFF1FEE0DFF1D808135
:100AA000918161E070E043E050E03ADEF8013B966E
:100AB000EE0FFF1FEE0DFF1D8081918165E070E05C
:100AC00043E050E02DDE045F1F4FF801EE0FFF1FE3
:100AD000EE0DFF1D8081918169E070E043E050E000
:100AE0001FDE0F5F1F4F000F111F0E0D1F1DF8019E
:100AF000808191816DE070E043E050E011DECC0C2C
:100B0000DD1CEC0CFD1CF7018081918161E170E03E
:100B100043E050E005DE1F910F91FF90EF90DF90D2
:100B2000CF900895FF920F931F93CF93DF93F82EEA
:100B30008DE09AE06091090A40910A0A0E947A1FAA
:100B40008DE09AE06AE072E00E94832B8DE09AE0EB
:100B50000E94641F6091090A6E5F6093090A8DE02C
:100B60009AE040910A0A0E947A1F9BDB6091560529
:100B70006A3018F000E010E016C08DE09AE04AE01C
:100B800050E00E94222B8DE09AE06091090A40918A
:100B90000A0A0E947A1F80915605082F10E01093D0
:100BA0000C0A00930B0A809156058E3009F4D8C0C8
:100BB00091E0F91691F48A3009F470C08B3009F491
:100BC00076C08C3009F47AC08D3039F488EC92E02C
:100BD00090930C0A80930B0ADFC063DB809156056B
:100BE0008E3029F410930C0A00930B0AB9C091E0DF
:100BF000F91659F48A3009F451C08B3009F457C002
:100C00008C3009F45BC08D3009F38A3018F0C0E0F5
:100C1000D0E029C06091090A61506093090A8DE013
:100C20009AE040910A0A0E947A1F8DE09AE0B8018A
:100C30004AE050E00E94712B8DE09AE060915605E9
:100C40004AE050E00E94222B80915605C82FD0E048
:100C50006091090A6F5F6093090A8DE09AE0409104
:100C60000A0A0E947A1F1DDB809156058E3089F496
:100C7000C801B3E0880F991FBA95E1F7000F111F63
:100C8000800F911FC80FD91FD0930C0AC0930B0A75
:100C900067C091E0F916C1F48A3039F48FEF90E023
:100CA00090930C0A80930B0A5BC08B3029F410924E
:100CB0000C0A10920B0A54C08C3019F484E692E0AE
:100CC00087CF8D3009F482CF8A3008F049C0609117
:100CD000090A62506093090A8DE09AE040910A0A7D
:100CE0000E947A1F8DE09AE0B8014AE050E00E942D
:100CF000712B8DE09AE0BE014AE050E00E94712B1A
:100D00006091090A6E5F6093090A8DE09AE0409154
:100D10000A0A0E947A1F8DE09AE0609156054AE027
:100D200050E00E94222B84E690E0089F9001099FEA
:100D3000300D189F300D112480915605280F311D5C
:100D4000CE01F3E0880F991FFA95E1F7CC0FDD1F74
:100D50008C0F9D1F280F391F30930C0A20930B0A0C
:100D60008DE09AE00E946C1F6091090A70E0625069
:100D7000704040910A0A80910B0A90910C0A50E051
:100D8000CFDC6091090A64506093090A8DE09AE013
:100D900040910A0A0E947A1F8DE09AE00E946C1F1F
:100DA0008DE09AE06091090A40910A0A0E947A1F38
:100DB0006CE271E080E090E00E947227DF91CF91B9
:100DC0001F910F91FF9008958DE09AE00E94A21F5D
:100DD000A2EBB5E080E090E01D921D92E091E70A61
:100DE000F091E80AE80FF91F1082019622E08030A6
:100DF000920791F78DE09AE00E94A21F8DE09AE0A1
:100E000063E041E00E947A1F8DE09AE06EE072E0BC
:100E10000E94832B8DE09AE063E042E00E947A1FFB
:100E20008DE09AE06EE172E00E94832B8DE09AE003
:100E300063E143E00E947A1F8DE09AE00E94641F04
:100E400068EE73E080E090E00E9472278DE09AE007
:100E50000C946C1FCF93DF938DE09AE00E94A21F49
:100E6000C0E0D0E08DE09AE0BE0142E050E00E9498
:100E7000712B219682E0C130D807A1F78DE09AE06E
:100E80000E94A21F8DE09AE00E94641F8DE09AE00C
:100E900063E040E00E947A1F8DE09AE068E272E031
:100EA0000E94832B8DE09AE061E041E00E947A1F6E
:100EB0008DE09AE068E372E00E94832B8DE09AE077
:100EC00060E043E00E947A1F8DE09AE06CE472E0FB
:100ED0000E94832B8DE09AE061E04AE050E00E949E
:100EE000222B8DE09AE063E572E00E94832B8DE077
:100EF0009AE060E04AE050E00E94222B8DE09AE008
:100F00006BE043E00E947A1F8DE09AE065E572E0B5
:100F10000E94832B8DE09AE060E04AE050E00E945E
:100F2000222B8DE09AE063E572E00E94832B8DE036
:100F30009AE064E04AE050E00E94222B8DE09AE0C3
:100F400062E040E00E947A1F809144050E942E2AB0
:100F50000197D1F36CE271E080E090E00E9472278B
:100F60008DE09AE00E94A21F8DE09AE063E041E0EC
:100F70000E947A1F8DE09AE06CE572E00E94832B5C
:100F80008DE09AE060E043E00E947A1F8DE09AE0F5
:100F90006BE672E00E94832B8DE09AE062E041E014
:100FA0000E947A1F809144050E942E2A0197D1F356
:100FB0006CE271E080E090E00E9472278DE09AE0A0
:100FC0000E946C1FDF91CF91089584EE9AE061E05A
:100FD00072E00E94ED23682F8091240A882361F437
:100FE0006623D1F4809169056FE770E00E946B2859
:100FF00081E08093240A0AC0813041F48091690520
:1010000060E070E00E946B281092240A6CE271E0AC
:1010100080E090E00C9472278091690570E0E6CF43
:101020002F923F924F925F926F927F928F929F92F8
:10103000AF92BF92CF92DF92EF92FF920F931F93E6
:10104000DF93CF93CDB7DEB763970FB6F894DEBFCB
:101050000FBECDBF89837B8B6A8B0091B70910913E
:10106000B8098DE09AE0602F412F0E947A1F8DE031
:101070009AE060E872E00E94832B8A899B890D9632
:101080009B838A83EA89FB893896FD83EC838A896E
:101090009B8903969F838E83EA89FB893E96F98715
:1010A000E8878A899B8909969B878A87EA89FB89D1
:1010B0003496FD87EC876AE0262E312C8A899B893D
:1010C000280E391E0B969F878E87EA89FB893C96EE
:1010D000F98BE88B57E0852E912C8A899B89880EA5
:1010E000991E46E0642E712C680E791E35E0432E61
:1010F000512C480E591E6C010894C11CD11C22E0D1
:10110000A22EB12CA80EB91E84E1E82EF12C8091FC
:10111000460560E00E94FC29809154050E942E2A19
:10112000892B59F4609157057091580580915905A4
:1011300090915A050E94722748DF8091460561E030
:101140000E94FC29809140050E942E2A892BF9F4E7
:101150006CE271E080E090E00E9472272091B70974
:101160008091B80990E08E9DA0018F9D500D9E9DAD
:10117000500D1124222309F424E12150FA01E20F39
:10118000F11DE754F64F80818130A1F724C0809192
:1011900042050E942E2A892B09F56CE271E080E05D
:1011A00090E00E9472272091B7098091B80990E0E1
:1011B0008E9DA0018F9D500D9E9D500D11242F5F7F
:1011C000243108F020E0FA01E20FF11DE754F64F58
:1011D00080818130A1F72093B7094EC180913E05EF
:1011E0000E942E2A892B09F56CE271E080E090E0E4
:1011F0000E9472272091B8098091B709482F50E0CA
:101200002F5F243008F020E0822F90E08E9DF001C7
:101210008F9DF00D9E9DF00D1124E40FF51FE754F6
:10122000F64F8081813061F726C080913C050E9495
:101230002E2A892B19F56CE271E080E090E00E9483
:1012400072272091B8098091B709482F50E02223D6
:1012500009F424E02150822F90E08E9DF0018F9DB3
:10126000F00D9E9DF00D1124E40FF51FE754F64F8D
:101270008081813061F72093B809FEC080914405D8
:101280000E942E2A892B09F042CF6CE271E080E0A7
:1012900090E00E9472274091B8096091B709842FAD
:1012A00090E08E9DF0018F9DF00D9E9DF00D11241C
:1012B000E60FF11DE754F64F8081813009F0FAC046
:1012C0008DE09AE00E947A1F8DE09AE062E872E079
:1012D0000E94832B82E0C8C09091B7099C3031F402
:1012E0008091B809882309F048C01FC0903181F46B
:1012F0008091B809882309F049C08DE09AE061E047
:1013000040E00E947A1F8DE09AE064E872E0A9C094
:10131000943029F48091B8098823F9F406C09830F4
:1013200089F48091B809882301F58DE09AE061E0A5
:1013300040E00E947A1F8DE09AE064E872E00E942B
:10134000832B85C0992339F48091B809813039F510
:101350008A899B8977C0943031F48091B8098130B3
:10136000E1F4C6016FC0983031F48091B809813042
:10137000E1F4C50167C09C3039F48091B80981302F
:1013800031F58E819F815EC0903139F48091B8092A
:10139000813031F58C859D8555C0992331F480913C
:1013A000B809823031F5C2014DC0943031F48091DA
:1013B000B809823031F5C30145C0983031F48091CD
:1013C000B809823039F5C4013DC09C3039F48091B0
:1013D000B809823041F58C819D8134C0903139F457
:1013E0008091B809823041F58A859B852BC099236D
:1013F00031F48091B809833051F5C10123C0943094
:1014000039F48091B809833011F58E859F851AC013
:10141000983039F48091B8098330C9F48889998962
:1014200011C09C3039F48091B809833081F48A81ED
:101430009B8108C0903159F48091B809833039F408
:101440008885998561E070E040E050E069D98DE0E1
:101450009AE060E140E00E947A1F8DE09AE068E83F
:1014600072E00E94832B81E00091B7091091B809C6
:10147000823009F04CCE1FC08DE09AE0602F412FE2
:101480000E947A1F8DE09AE06AE872E00E94832B46
:101490008DE09AE06091B7094091B8090E947A1FE7
:1014A0008DE09AE060E872E00E94832B9981913090
:1014B000D1F612CFFFCF63960FB6F894DEBF0FBE02
:1014C000CDBFCF91DF911F910F91FF90EF90DF90F3
:1014D000CF90BF90AF909F908F907F906F905F90D4
:1014E0004F903F902F9008951F93182F8DE09AE012
:1014F0000E94A21F68EC70E080E090E00E947227DA
:101500008DE09AE066E040E00E947A1F8DE09AE06C
:101510006CE872E00E94832B8DE09AE061E041E08C
:101520000E947A1F8DE09AE069E972E00E94832BA5
:101530008DE09AE061E042E00E947A1F8DE09AE03F
:101540006DEA72E00E94832B8DE09AE061E043E057
:101550000E947A1F8DE09AE061EC72E00E94832B7A
:10156000123079F01330C1F0113011F58DE09AE0AE
:1015700061E040E00E947A1F8DE09AE064ED72E045
:1015800015C08DE09AE061E040E00E947A1F8DE096
:101590009AE069ED72E00AC08DE09AE060E040E018
:1015A0000E947A1F8DE09AE06EED72E00E94832B1C
:1015B0008DE09AE063E140E00E947A1F6091B609F5
:1015C000662339F48DE09AE068E872E00E94832B8C
:1015D00006C08DE09AE04AE050E00E94222B109273
:1015E000B70981E08093B809E9EBF9E0DF0198964B
:1015F0001082148A1C9254961C925497319611961C
:1016000089E0ED3CF807A1F781E08083848B80A717
:101610008783838F87A7868782A386AB80E060E07D
:1016200070E0FEDC8091B709882349F48091B80905
:10163000813001F18230F1F0833031F51BC0873009
:1016400071F48091B809813011F484E013C08230C4
:1016500011F485E00FC08330B9F486E00BC08E3002
:1016600099F48091B809813011F487E003C0823089
:1016700021F488E08093B60907C020E030E0833091
:1016800029F421E030E002C020E030E0C9011F91E0
:101690000895EF92FF920F931F93CF93DF9382E011
:1016A00023DF019719F421E030E098C08DE09AE043
:1016B0000E94A21F72EBE72E75E0F72E00E010E00B
:1016C000C0E0D0E08091B6098430E1F0853038F494
:1016D000823081F0833090F4813069F509C0863022
:1016E000C9F0863098F08730C9F0883021F51AC0EB
:1016F0008E0121C08E0100501E4F1DC08E01005072
:101700001C4F19C08E0100501A4F15C08E01005099
:10171000184F11C08E010050164F0DC08E010050A1
:10172000144F09C08E010050124F8FE00E3F180772
:1017300014F00DEF1FE084EE9AE0B8010E94ED2353
:10174000F70180831182E091E70AF091E80AEC0F3B
:10175000FD1F8083219682E090E0E80EF91E92E062
:10176000C030D90709F0AECF8DE09AE00E94A21FE9
:101770008DE09AE063E041E00E947A1F8DE09AE0FC
:1017800064EE72E00E94832B8DE09AE063E042E019
:101790000E947A1F8DE09AE063EF72E00E94832B33
:1017A0008DE09AE06091B6094AE050E00E94222B59
:1017B0008DE09AE063E143E00E947A1F8DE09AE0B9
:1017C0000E94641F68EE73E080E090E00E94722740
:1017D0008DE09AE00E946C1F20E030E0C901DF91AB
:1017E000CF911F910F91FF90EF90089560916F0539
:1017F0007091700584EE9AE00E94ED23682F86397F
:1018000008F466E980916B0570E00C946B281F93D7
:1018100060916D0570916E0584EE9AE00E94ED2353
:10182000182F80916905612F70E00E946B281123A9
:1018300019F41092240A03C081E08093240A1F91B6
:101840000895EF92FF920F931F93CF93DF9383E05E
:101850004BDE019719F421E030E0C5C08DE09AE03D
:101860000E94A21F8DE09AE061E041E00E947A1F91
:101870008DE09AE06AEF72E00E94832B8DE09AE09F
:1018800061E042E00E947A1F8DE09AE063EF72E02F
:101890000E94832B8DE09AE067E042E00E947A1F6D
:1018A0008DE09AE06091B6094AE050E00E94222B58
:1018B0008DE09AE063E143E00E947A1F8DE09AE0B8
:1018C0000E94641FE0EBEE2EE5E0FE2E00E010E04B
:1018D000C0E0D0E0F70111821082E091E70AF091B8
:1018E000E80AEC0FFD1F10828091B6098430E1F008
:1018F000853038F4823081F0833090F4813069F59E
:1019000009C08630C9F0863098F08730C9F0883039
:1019100021F51AC08E0121C08E0100501E4F1DC03E
:101920008E0100501C4F19C08E0100501A4F15C077
:101930008E010050184F11C08E010050164F0DC07F
:101940008E010050144F09C08E010050124FFFE06D
:101950000E3F1F0714F00DEF1FE084EE9AE0B80170
:1019600040E00E94F423219682E090E0E80EF91E08
:1019700092E0C030D90709F0ADCF8DE09AE00E9427
:10198000A21F8DE09AE062E041E00E947A1F8DE0A4
:101990009AE06DE073E00E94832B8DE09AE062E0B4
:1019A00042E00E947A1F8DE09AE063EF72E00E94AD
:1019B000832B8DE09AE06091B6094AE050E00E94E6
:1019C000222B8DE09AE063E143E00E947A1F68EEEB
:1019D00073E080E090E00E9472278DE09AE00E9420
:1019E0006C1F20E030E0C901DF91CF911F910F9172
:1019F000FF90EF900895EF92FF920F931F93CF9374
:101A0000DF9381E071DD019719F421E030E0BDC082
:101A10008DE09AE00E94A21F8DE09AE061E041E033
:101A20000E947A1F8DE09AE06DE173E00E94832BA3
:101A30008DE09AE061E042E00E947A1F8DE09AE03A
:101A400063EF72E00E94832B8DE09AE067E042E052
:101A50000E947A1F8DE09AE06091B6094AE050E05A
:101A60000E94222B8DE09AE063E143E00E947A1FFE
:101A70008DE09AE00E94641FF2EBEF2EF5E0FF2E5E
:101A8000C0E0D0E000E010E08091B6098430E1F0E1
:101A9000853038F4823081F0833090F4813069F5FC
:101AA00009C08630C9F0863098F08730C9F0883098
:101AB00021F51AC0E80121C0E801C050DE4F1DC069
:101AC000E801C050DC4F19C0E801C050DA4F15C022
:101AD000E801C050D84F11C0E801C050D64F0DC02A
:101AE000E801C050D44F09C0E801C050D24F8FE088
:101AF000CE3FD80714F0CDEFDFE00F5F1F4F84EE2D
:101B00009AE0BE01F70140810E94F42382E090E058
:101B1000E80EF91E92E00030190709F0B5CF8DE00C
:101B20009AE00E94A21F8DE09AE063E041E00E94EB
:101B30007A1F8DE09AE06EE273E00E94832B8DE0C5
:101B40009AE063E042E00E947A1F8DE09AE063EF42
:101B500072E00E94832B8DE09AE06091B6094AE022
:101B600050E00E94222B8DE09AE063E143E00E9466
:101B70007A1F68EE73E080E090E00E9472278DE0AB
:101B80009AE00E946C1F20E030E0C901DF91CF9104
:101B90001F910F91FF90EF9008958DE09AE00E94C1
:101BA000A21F8DE09AE060E040E00E947A1F8DE085
:101BB0009AE06CE373E00E94832B6091B609662380
:101BC00039F48DE09AE068E872E00E94832B06C049
:101BD0008DE09AE04AE050E00E94222B8DE09AE0EE
:101BE00061E042E00E947A1F8DE09AE064ED72E0CD
:101BF0000E94832B8DE09AE061E043E00E947A1F0F
:101C00008DE09AE069ED72E00E94832B8DE09AE00E
:101C100067E042E00E947A1F8DE09AE060E573E0A1
:101C20000E94832B8DE09AE067E043E00E947A1FD8
:101C30008DE09AE06EED72E00E94832B8DE09AE0D9
:101C40006EE042E00E947A1F8DE09AE066E573E064
:101C50000E94832B8DE09AE06EE043E00E947A1FA1
:101C60008DE09AE06CE573E00E94832B1092B70937
:101C700082E08093B809E9EBF9E0DF0198961082E1
:101C8000148A1C9254961C9254973196119689E0AE
:101C9000ED3CF807A1F781E0848B80A786A7828FAF
:101CA00081A385AB80E060E070E0BAD98091B7098C
:101CB000882349F48091B809833081F4EADC0197E4
:101CC00009F46BCF0895863099F48091B809833078
:101CD00061F4B7DD019709F460CF0895823089F48B
:101CE0008ADE019709F459CF0895823051F46CC807
:101CF0008D3039F48091B809823019F40E944F0375
:101D0000D1CF0895CF92DF92EF92FF920F931F935E
:101D1000CF93DF931EE0C12EBFE0DB2ECFEFD0E0EC
:101D2000A6E9EA2EF12C60916D0570916E0584EEA6
:101D30009AE00E94ED23182F60916F057091700555
:101D400084EE9AE00E94ED23082F8DE09AE00E9435
:101D5000A21F8DE09AE060E040E00E947A1F8DE0D3
:101D60009AE063E673E00E94832B8DE09AE06FE0D7
:101D700040E00E947A1F8DE09AE06FE673E00E94D7
:101D8000832B8DE09AE063E041E00E947A1F8DE0B2
:101D90009AE065E773E00E94832B812F90E06FE06B
:101DA00070E041E050E00E9490038DE09AE065E031
:101DB00042E00E947A1F8DE09AE061E873E00E94A1
:101DC000832B802F90E06FE070E042E050E00E94B3
:101DD00090038DE09AE06FE043E00E947A1F8DE06F
:101DE0009AE06BE873E00E94832BC092B70982E00F
:101DF0008093B809E9EBF9E0DF0198961082148A24
:101E00001C9254961C9254973196119629E0ED3C01
:101E1000F207A1F781E0868782A386AB8093C7098A
:101E200080E060E070E0FCD88091B7098E30C1F7A7
:101E30008091B809813009F083C080930A0AD0925A
:101E4000090A0E94920580910B0A90910C0A22E0E7
:101E5000883C920709F045C08DE09AE06EE041E0D1
:101E60000E947A1F8DE09AE064E072E00E94832B6A
:101E700080914A0560E00E94FC298DE09AE00E9472
:101E8000641F809154050E942E2A019709F003C116
:101E9000809144050E942E2A019709F0FCC0809190
:101EA0005B050E94372864E070E00E94A42BCB0100
:101EB00060930B0A90930C0A6FE070E041E050E0F1
:101EC0000E94900360910B0A70910C0A8091690541
:101ED0000E946B2862E370E080E090E00E9472272D
:101EE000D0CF8F3F910569F064F0D0930C0AC09376
:101EF0000B0A8FEF90E06FE070E041E050E00E944D
:101F0000900360910B0A70910C0A809169050E9400
:101F10006B2840910B0A50910C0A4115510519F498
:101F20001092240A06C0141615061CF481E0809352
:101F3000240A60916D0570916E0584EE9AE09EC052
:101F4000823009F09EC080930A0AD092090A81E08B
:101F50000E94920580910B0A90910C0A22E0883C25
:101F6000920709F058C08DE09AE06EE042E00E94CE
:101F70007A1F8DE09AE064E072E00E94832B8091EA
:101F80004A0560E00E94FC298DE09AE00E94641FEF
:101F900023C06FE070E042E050E00E949003609147
:101FA0000B0A70910C0A80916B050E946B2880913E
:101FB0000B0A90910C0A8539910544F486E990E06A
:101FC0006FE070E042E050E00E94900362E370E056
:101FD00080E090E00E947227809154050E942E2A92
:101FE000019709F068C0809144050E942E2A01974C
:101FF00009F061C080915B050E94372864E070E0C1
:102000000E94A42BCB0170930C0A60930B0A6639D3
:1020100071056CF2BECF8F3F910569F064F0D093EB
:102020000C0AC0930B0A8FEF90E06FE070E042E083
:1020300050E00E94900380910B0A90910C0A86391F
:10204000910564F4F0920C0AE0920B0A86E990E0A4
:102050006FE070E042E050E00E94900360910B0A54
:1020600070910C0A80916B050E946B2860916F053E
:102070007091700584EE9AE040910B0A0E94F4235F
:10208000CFCE833011F427D0CBCE882309F0C8CE31
:102090000E942A0748CE8DE09AE00E946C1F809132
:1020A0004A0561E00E94FC296CE271E080E090E06A
:1020B0000E9472272ECF8DE09AE00E946C1F8091C3
:1020C0004A0561E00E94FC296CE271E080E090E04A
:1020D0000E947227CBCF8DE09AE00E94A21F8DE074
:1020E0009AE060E040E00E947A1F8DE09AE060E9AB
:1020F00073E00E94832B6091B609662339F48DE06A
:102100009AE068E872E00E94832B06C08DE09AE0B6
:102110004AE050E00E94222B8DE09AE062E041E02C
:102120000E947A1F8DE09AE064EA73E00E94832B9C
:102130008DE09AE062E042E00E947A1F8DE09AE032
:102140006CEA73E00E94832B8DE09AE062E043E04A
:102150000E947A1F8DE09AE063EB73E00E94832B6C
:102160008DE09AE06BE043E00E947A1F8DE09AE0F8
:102170006AEB73E00E94832B8DE09AE06BE041E014
:102180000E947A1F8DE09AE063EC73E00E94832B3B
:102190008DE09AE06BE042E00E947A1F8DE09AE0C9
:1021A0006AEC73E00E94832B81E08093B7098093EF
:1021B000B809E9EBF9E0DF0198961082148A1C92C5
:1021C00054961C9254973196119689E0ED3CF8078D
:1021D000A1F781E08183858B81A782AB8287868F7F
:1021E00080E060E070E00E9410088091B7098130C3
:1021F00029F48091B809813009F485D28091B7091A
:10220000813029F48091B809823009F426D0809178
:10221000B709813029F48091B809833009F48FD44B
:102220008091B7098A3029F48091B809833009F484
:1022300089D68091B7098A3029F48091B809813014
:1022400009F460DD8091B7098A3031F48091B809D2
:10225000823011F40C94031A08952F923F924F92FA
:102260005F926F927F928F929F92AF92BF92CF9226
:10227000DF92EF92FF920F931F93DF93CF93CDB72F
:10228000DEB760970FB6F894DEBF0FBECDBF81E01A
:1022900090E090933B0580933A05988B8F8711E0EF
:1022A0000DE004C021E030E0388B2F878DE09AE00C
:1022B0000E94A21F8DE09AE060E040E00E947A1F39
:1022C0008DE09AE064ED73E00E94832B8DE09AE04C
:1022D00067E040E00E947A1F6091B609662339F4F6
:1022E0008DE09AE068E872E00E94832B06C08DE0E2
:1022F0009AE04AE050E00E94222B8F8598890E9444
:10230000AD043CE03093B7091092B809E9EBF9E06D
:10231000DF0198961082148A1C9254961C9254974E
:102320003196119689E0ED3CF807A1F71093BD09AD
:102330001093C1091093C5091093C9091083148320
:1023400010871487108B148B108F148F10A314A375
:1023500010A714A710AB14AB10AFEF85F8893C960B
:10236000FA83E9832F853889295F3F4F3C832B838C
:102370008F85988902969E838D83EF85F8893D9697
:10238000F887EF832F853889285F3F4F3A87298761
:102390008F85988903969C878B87EF85F8893E9671
:1023A000FE87ED87F9E02F2E312C2F853889220EFC
:1023B000331EE4E04E2E512C420E531E7AE0672E5F
:1023C000712C620E731E65E0862E912C820E931E78
:1023D00059010894A11CB11C56E0C52ED12CC20E87
:1023E000D31E4BE0E42EF12CE20EF31E81E06F854C
:1023F00078890E9410089091B709943039F480913F
:10240000B809882309F080C0C8DB50CF983039F470
:102410008091B809882309F082C05DDE47CF9C30E7
:1024200091F58091B809882309F082C010920A0AB8
:102430000093090A8F85988990930C0A80930B0A60
:1024400080E00E94920580910B0A90910C0A835FB4
:10245000914034F022EF31E030930C0A20930B0AC4
:1024600080910B0A90910C0A892B31F481E090E065
:1024700090930C0A80930B0AE0910B0AF0910C0ADE
:10248000F88BEF8713CF9031A1F58091B80988239D
:1024900009F05BC010920A0AF1E1F093090A2F8556
:1024A00038892130310539F48FE090E090930C0A9F
:1024B00080930B0A0AC0EF85F8893E97F0930C0AC7
:1024C000E0930B0A80E00E94920560910B0A7091E4
:1024D0000C0AF2E061307F071CF022EF31E0E4CE1D
:1024E0006F3071050CF4DECECB010E97988B8F8781
:1024F000DDCE992339F48091B809813089F5EF85D3
:10250000F8891CC0943049F48091B809813099F55C
:10251000B0923B05A0923A0588C0983039F480917A
:10252000B809813099F52D813E817BC09C3059F4EA
:102530008091B809813099F5EB85FC85F0933B05D6
:10254000E0933A0572C0903149F48091B809813026
:1025500079F550923B0540923A0567C0992349F4BA
:102560008091B809823079F590923B0580923A05C6
:102570005CC0943049F48091B809823079F5D092EA
:102580003B05C0923A0551C0983039F48091B809A2
:10259000823079F52B813C8144C09C3039F48091A4
:1025A000B809823079F5E985FA85C8CF903149F4C8
:1025B0008091B809823079F530923B0520923A0536
:1025C00034C0992349F48091B809833071F5709231
:1025D0003B0560923A0529C0943049F48091B809CE
:1025E000833019F5F0923B05E0923A051EC0983011
:1025F00039F48091B8098330C1F429813A8111C03E
:102600009C3039F48091B809833079F4EF81F885F2
:1026100095CF903151F48091B809833031F42D85F4
:102620003E8530933B0520933A058091B80980930D
:102630000A0A9F5F9093090AE0913A05F0913B05E1
:10264000EE0FFF1FE055FA4F8081918190930C0AA5
:1026500080930B0A81E00E94920580910B0A909171
:102660000C0A8456924039F40E9444048091090A6D
:1026700084508093090A80910B0A90910C0AE2E041
:10268000883C9E0769F48091090A825060910A0A89
:102690000E94CC038091090A84508093090AA6CE37
:1026A0008F3F910599F094F02FEF30E030930C0AB2
:1026B00020930B0A6091090A70E06E5F7F4F409192
:1026C0000A0A8FEF90E050E00E94900380913A0553
:1026D00090913B050197E091E70AF091E80AE80F35
:1026E000F91F80910B0A8083E0913A05F0913B0538
:1026F000EE0FFF1FE055FA4F80910B0A90910C0AE4
:102700009183808373CEBF92CF92DF92EF92FF923C
:102710000F931F93CF93DF93C1E0D0E048E0B42E36
:1027200009E0E12C32E0F32E2FEFC22ED12CD09312
:102730003B05C0933A058DE09AE00E94A21F8DE010
:102740009AE060E040E00E947A1F8DE09AE066EE39
:1027500073E00E94832B6091B609662339F48DE003
:102760009AE068E872E00E94832B06C08DE09AE050
:102770004AE050E00E94222B8DE09AE06EE042E0B9
:102780000E947A1F8DE09AE06BE873E00E94832B31
:102790008DE09AE06EE043E00E947A1F8DE09AE0BF
:1027A0006AEF73E00E94832B8DE09AE060E042E0E4
:1027B0000E947A1F8DE09AE061E074E00E94832B12
:1027C0008DE09AE062E043E00E947A1F8DE09AE09B
:1027D0006EE074E00E94832B8091B2059091B30566
:1027E00069E070E043E050E00E9490038DE09AE0E1
:1027F00060E041E00E947A1F8DE09AE065E174E0BC
:102800000E94832B8091B4059091B50566E070E03D
:1028100041E050E00E9490038DE09AE06BE041E0DF
:102820000E947A1F8DE09AE06CE174E00E94832B95
:102830008091B6059091B70561E170E041E050E00C
:102840000E949003B092B70982E08093B809E9EB47
:10285000F9E0DF0198961082148A1C9254961C921B
:1028600054973196119629E0ED3CF207A1F781E0EB
:10287000848F80AB81A385AB80E060E070E00E9434
:1028800010088091B709883009F0E9C01091B809A3
:10289000123009F0E4C080913A0590913B0569E05F
:1028A00070E042E050E00E94900310930A0A009307
:1028B000090A80913A0590913B0590930C0A809308
:1028C0000B0A80E00E94920580910B0A90910C0AFD
:1028D0008150924064F0F0920C0AE0920B0A80E082
:1028E00092E069E070E042E050E00E949003809145
:1028F0000B0A90910C0A1816190664F0D0930C0A72
:10290000C0930B0A81E090E069E070E042E050E0A3
:102910000E949003E0910B0AF0910C0AF0933B05A2
:10292000E0933A05EE0FFF1FE055FA4F8081918149
:1029300069E070E043E050E00E94900380913A0526
:1029400090913B05019721F582E090E061E070E015
:1029500041E050E00E9490038091B4059091B5054C
:1029600066E070E041E050E00E94900383E090E078
:102970006CE070E041E050E00E9490038091B60569
:102980009091B70561E170E041E050E00E94900352
:1029900080913A0590913B058050924021F58EEF51
:1029A00091E061E070E041E050E00E94900380918E
:1029B000AC099091AD0966E070E041E050E00E9402
:1029C00090038FEF91E06CE070E041E050E00E94F6
:1029D00090038091AE099091AF0961E170E041E010
:1029E00050E00E94900320913A0530913B05C901C7
:1029F00002978E5F914098F5C901019761E070E000
:102A000041E050E00E949003E0913A05F0913B05CF
:102A1000EE0FFF1FE255FA4F8081918166E070E072
:102A200041E050E00E94900380913A0590913B056F
:102A300001966CE070E041E050E00E949003E0916C
:102A40003A05F0913B05EE0FFF1FEE54FA4F8081DF
:102A5000918161E170E041E050E00E94900380913B
:102A6000B709883009F05DC08091B809833009F05A
:102A700003CF80930A0A0093090AE0913A05F09186
:102A80003B05EE0FFF1FE055FA4F80819181909337
:102A90000C0A80930B0A81E00E94920580910B0A38
:102AA00090910C0A8456924011F40E944404809143
:102AB0000B0A90910C0A42E0883C940729F489E0C3
:102AC00063E00E94CC03D8CE8F3F910569F064F09B
:102AD000D0920C0AC0920B0A8FEF90E069E070E090
:102AE00043E050E00E94900380913A0590913B05AD
:102AF0000197E091E70AF091E80AE80FF91F809149
:102B00000B0A8083E0913A05F0913B05EE0FFF1F21
:102B1000E055FA4F80910B0A90910C0A91838083C3
:102B2000ABCE8D3009F0A8CE8091B809833011F476
:102B300034D8FDCD823009F09FCECDDA9DCE2F92D4
:102B40003F924F925F926F927F928F929F92AF923D
:102B5000BF92CF92DF92EF92FF920F931F93DF937A
:102B6000CF9300D000D0CDB7DEB78DE09AE00E94C1
:102B7000A21F8DE09AE060E040E00E947A1F8DE0A5
:102B80009AE063E274E00E94832B8DE09AE063E0B8
:102B900041E00E947A1F8DE09AE060E374E00E94B9
:102BA000832B8DE09AE060E042E00E947A1F8DE086
:102BB0009AE060E474E00E94832B8DE09AE060E08C
:102BC00043E00E947A1F8DE09AE064E574E00E9481
:102BD000832B81E090E069E070E041E050E00E94EA
:102BE000900381E090E069E070E042E050E00E94F4
:102BF000900380E090E069E070E043E050E00E94E4
:102C0000900388E08093B70981E08093B80921E0C0
:102C100030E040E050E029833A834B835C83F1E06D
:102C20008F2E912CA12CB12C442455243201E9EB98
:102C3000F9E0DF0198961082148A1C9254961C9237
:102C400054973196119639E0ED3CF307A1F741E036
:102C50004087448F40AB42A346AB80E060E070E029
:102C60000E9410088091B7098E30C1F48091B80994
:102C70008230A1F4A2EBB5E020E030E0E091E70A79
:102C8000F091E80AE20FF31F8C9180832F5F3F4F92
:102C9000129652E02030350789F71DDA8091B70986
:102CA0008E3009F09DC08091B809833009F0B9C019
:102CB00014018DE09AE06FE043E00E947A1F8DE0FE
:102CC0009AE069E674E00E94832B8DE09AE00E940E
:102CD000641F80E090E0E091E70AF091E80AE80FD5
:102CE000F91F10820196A2E081309A07A1F76101D5
:102CF00054C0ED81FE813196FE83ED83E451F540B1
:102D000009F050C00894E11CF11C011D111D8981BE
:102D10009A81AB81BC81E816F9060A071B0709F006
:102D20003FC0C601AA2797FDA095BA2F481659069D
:102D30006A067B060CF46101C60169E070E040E0C0
:102D400050E00E9490038DE09AE063E143E00E942E
:102D50007A1FA50194010DC0C9010197E091E70A0E
:102D6000F091E80AE80FF91F10822F5F3F4F4F4F95
:102D70005F4F421653066406750674F70894C1083F
:102D8000D108E091E70AF091E80AEC0DFD1D9FEFF4
:102D90009083A2E0B0E0CA0EDB1EEE24FF24870180
:102DA0001E821D82809144050E942E2A019709F4FB
:102DB000A0CF8DE09AE00E946C1F8DE09AE06FE05A
:102DC00043E00E947A1F8DE09AE06FE674E00E9473
:102DD000832B6CE271E080E090E00E94722727CFA5
:102DE0008830F9F48091B8098130D9F480930A0AC7
:102DF000B9E0B093090AE981FA81F0930C0AE093F3
:102E00000B0A80E00E94920580910B0A90910C0AB7
:102E10009C01442737FD4095542F29833A834B83E7
:102E20005C838091B709883009F042C08091B8096D
:102E30008230F1F580930A0A39E03093090A9092C2
:102E40000C0A80920B0A80E00E94920580910B0A86
:102E500090910C0A4C01AA2497FCA094BA2C8114DE
:102E60009104A104B10471F481E090E069E070E0A4
:102E700042E050E00E949003E1E08E2E912CA12CC4
:102E8000B12C16C041E0841642E0940640E0A4064E
:102E900040E0B4066CF080E092E069E070E042E06F
:102EA00050E00E949003812C72E0972EA12CB12C4F
:102EB0008091B709883009F0BACE8091B809833083
:102EC00009F0B5CE80930A0A59E05093090A50924E
:102ED0000C0A40920B0A80E00E94920580910B0A36
:102EE00090910C0A2C01662457FC6094762C4114B6
:102EF00051046104710471F481E090E069E070E0D4
:102F000043E050E00E94900361E0462E512C612C7A
:102F1000712C8DCE81E0481682E0580680E068066C
:102F200080E078060CF483CE80E092E069E070E007
:102F300043E050E00E949003412C52E0552E612C5A
:102F4000712C75CE2F923F924F925F926F927F922B
:102F50008F929F92AF92BF92CF92DF92EF92FF92A9
:102F60000F931F93DF93CF93CDB7DEB728970FB69C
:102F7000F894DEBF0FBECDBF662477244301AA2498
:102F8000BB2465018FEF90E09A838983A1E0B0E0D4
:102F9000B887AF838DE09AE0D5D78DE09AE060E006
:102FA00040E0A8D78DE09AE065E774E00E94832BAB
:102FB0008DE09AE061E040E09DD76091B60966231C
:102FC00039F48DE09AE068E872E00E94832B06C035
:102FD0008DE09AE04AE050E00E94222B8DE09AE0DA
:102FE00060E041E087D78DE09AE06EE774E00E94F0
:102FF000832B8DE09AE060E042E07CD78DE09AE0A0
:1030000061E974E00E94832B8DE09AE060E043E088
:1030100071D78DE09AE066EA74E00E94832B898183
:103020009A8169E070E040E050E00E9490038F8157
:10303000988569E070E041E050E00E949003C30190
:1030400069E070E042E050E00E949003C50169E051
:1030500070E043E050E00E949003B8E0B093B709FD
:103060001092B809E9EBF9E0DF0198961082148A12
:103070001C9254961C9254973196119629E0ED3C7F
:10308000F207A1F781E0808780AB848F858781A3D9
:1030900085AB8093C10980E060E070E00E94100879
:1030A0008091B7098D3029F48091B809813009F4F5
:1030B00012D88091B7098D3009F0A8C08091B80965
:1030C000823019F40E94CD0D65CF833009F0D8C04D
:1030D000C601B501A40193010E94852B6150724085
:1030E0008040904054F08DE09AE06DE040E002D7DF
:1030F0008DE09AE06AEB74E086C08DE09AE06DE0C6
:1031000040E0F8D68DE09AE062EC74E00E94832BF8
:103110008DE09AE06EE043E0EDD68DE09AE06AEC57
:1031200074E00E94832B91E0E92EF12C012D112DEA
:103130008F819885AA2797FDA095BA2F8B839C83B2
:10314000AD83BE8346C091E0E916F1040105110587
:1031500009F054C12B803C804D805E80A1E02A168E
:10316000A2E03A06A0E04A06A0E05A0634F026188B
:10317000370848085908860175018DE09AE061E139
:1031800040E0B8D68DE09AE0B201A1012AE030E03B
:103190000E94332B65E070E080E090E00E9472278F
:1031A000C10101972091E70A3091E80A280F391FE1
:1031B0008981F9018083F101EE0FFF1FE055FA4F7D
:1031C000A981BA81B183A0830894E11CF11C011D7F
:1031D000111DAE14BF04C006D1060CF0B4CF8DE0B3
:1031E0009AE06DE040E086D68DE09AE061ED74E013
:1031F0000E94832B8DE09AE06EE043E07BD68DE069
:103200009AE065ED74E00E94832B2CCF8830C1F5E5
:103210008091B8098130A1F580930A0AB9E0B09392
:10322000090AEF81F885F0930C0AE0930B0A80E01D
:103230000E94920580910B0A90910C0A98878F83C7
:10324000892B69F481E090E069E070E041E050E0B2
:103250000E949003A1E0B0E0B887AF8311C0EF8176
:10326000F885E150F24064F080E092E069E070E0BF
:1032700041E050E00E94900380E092E098878F83C5
:103280008091B709883009F042C08091B809823036
:10329000F1F580930A0A99E09093090A70920C0A5A
:1032A00060920B0A80E00E94920580910B0A909137
:1032B0000C0A3C01882477FC8094982C61147104DA
:1032C0008104910471F481E090E069E070E042E0F3
:1032D00050E00E94900301E0602E712C812C912C13
:1032E00016C0A1E06A16A2E07A06A0E08A06A0E075
:1032F0009A066CF080E092E069E070E042E050E015
:103300000E949003612C12E0712E812C912C8091EF
:10331000B709883009F042C08091B8098330F1F5CF
:1033200080930A0AB9E0B093090AB0920C0AA092FD
:103330000B0A80E00E94920580910B0A90910C0A82
:103340005C01CC24B7FCC094DC2CA114B104C104F2
:10335000D10471F481E090E069E070E043E050E076
:103360000E949003B1E0AB2EB12CC12CD12C16C021
:10337000E1E0AE16E2E0BE06E0E0CE06E0E0DE060A
:103380006CF080E092E069E070E043E050E00E9481
:103390009003A12CA2E0BA2EC12CD12C8091B709A8
:1033A000883009F05FCE8091B809882309F05ACEA1
:1033B00010920A0AF9E0F093090A89819A819093A0
:1033C0000C0A80930B0A81E00E949205A0910B0ADF
:1033D000B0910C0ABA83A983AF3FB10509F00CF490
:1033E00041CE8FEF90E069E070E040E050E00E9455
:1033F0009003EFEFF0E0FA83E98334CE260C371C1C
:10340000481C591CABCE2F923F924F925F926F9205
:103410007F928F929F92AF92BF92CF92DF92EF9264
:10342000FF920F931F93DF93CF93CDB7DEB72B9708
:103430000FB6F894DEBF0FBECDBF8DE09AE082D507
:103440008DE09AE060E040E055D58DE09AE06CEDCB
:1034500074E00E94832B6091B609662339F48DE0F5
:103460009AE068E872E00E94832B06C08DE09AE043
:103470004AE050E00E94222B8DE09AE064E041E0B7
:1034800039D58DE09AE060EF74E00E94832B8DE0E7
:103490009AE060E042E02ED58DE09AE061E075E0D0
:1034A0000E94832B8DE09AE060E043E023D58DE01D
:1034B0009AE065E175E00E94832B89E08093B7096B
:1034C00081E08093B809E9EBF9E0DF01989610827A
:1034D000148A1C9254961C9254973196119629E0A6
:1034E000ED3CF207A1F781E08187858F81AB82A354
:1034F00086AB88E0882E912C01E0602E712C11E0C3
:10350000A12EB12CBAE0CB2ECE0101969B878A87E3
:103510008DE09AE06FE043E0EDD48DE09AE06FE655
:1035200074E00E94832B8DE09AE0D6D480E060E0C6
:1035300070E00E9410088091B709893009F0A2C09C
:103540008091B8098130C9F580930A0AC092090AAE
:1035500070920C0A60920B0A80E00E9492056090C3
:103560000B0A70900C0A6114710499F481E090E0E8
:103570006AE070E041E050E00E94900381E090E05A
:103580006AE070E041E050E00E949003A1E06A2E02
:10359000712C80910B0A90910C0A853691050CF4E0
:1035A000B7CF84E690E06AE070E041E050E00E942E
:1035B0009003F4E66F2E712CABCF823081F58093AF
:1035C0000A0AC092090AB0920C0AA0920B0A80E083
:1035D0000E949205A0900B0AB0900C0AA114B104AD
:1035E00059F481E090E06AE070E042E050E00E942F
:1035F0009003E1E0AE2EB12C80910B0A90910C0A61
:1036000009970CF485CF88E090E06AE070E042E032
:1036100050E00E94900378E0A72EB12C79CF833040
:1036200009F04BC080930A0AC092090A90920C0AD2
:1036300080920B0A80E00E94920580900B0A909085
:103640000C0A8114910459F481E090E06AE070E082
:1036500043E050E00E94900361E0862E912C80911F
:103660000B0A90910C0A09970CF452CF88E090E075
:103670006AE070E042E050E00E94900358E0852E3E
:10368000912C46CF8E30C9F48091B8098230A9F4CC
:10369000A0EBB5E020E030E0E091E70AF091E80A25
:1036A000E20FF31F8C9180832F5F3F4F129692E0C1
:1036B0002130390789F70E946B108091B7098E304D
:1036C00009F026CF8091B809833009F021CFA814E2
:1036D000B904B9F481E090E06AE070E042E050E0C3
:1036E0000E94900388E090E06AE070E042E050E0E1
:1036F0000E94900348E0842E912C31E0A32EB12C3F
:1037000007CF8DE09AE06EE043E0F4D38DE09AE0DD
:1037100062E872E00E94832B8DE09AE06FE043E064
:10372000E9D38DE09AE069E674E00E94832B10E013
:103730008A149B040CF411E0EA85FB8529E01192C0
:103740002A95E9F71123A9F481E090E08A159B05F9
:103750005CF08816990644F0E1E0F0E0EC0FFD1F04
:10376000E80FF91F31E0308301968930910571F738
:1037700013C088E090E0A816B9065CF0881599059A
:1037800044F0E1E0F0E0EC0FFD1FE80FF91F21E04D
:1037900020830197882379F78DE09AE095D3112350
:1037A00081F084E690E0FC016E9EC0016F9E900D5A
:1037B0007E9E900D11241C01442437FC4094542C0F
:1037C00032C184E690E09C01629EC001639E900D30
:1037D000729E900D11241C01442437FC4094542CFB
:1037E000DD24D394E1E0F0E0EC0FFD1FED0DF11DC1
:1037F0008081813009F07FC08DE09AE063E140E094
:1038000079D38DE09AE06D2D4AE050E00E94222BA2
:103810008DE09AE063E143E06DD300E010E034E036
:10382000D31619F13D1548F082E0D816B1F08D1588
:10383000C0F091E0D916B1F50CC0E6E0DE16E9F073
:10384000DE16B8F0F7E0DF16E1F028E0D21651F509
:103850001CC084EE9AE0B8011DC0B80160507E4FD4
:1038600017C0B80160507C4F13C0B80160507A4F48
:103870000FC0B8016050784F0BC0B8016050764F50
:1038800007C0B8016050744F03C0B8016050724F58
:1038900084EE9AE0A2D7E091E70AF091E80AE00FFF
:1038A000F11F80830F5F1F4F32E00030130709F0D4
:1038B000B6CF809144050E942E2A019709F0A9C035
:1038C000EE24FF24870112C061E070E080E090E008
:1038D0000E947227809144050E942E2A892B09F4A8
:1038E00098C00894E11CF11C011D111D2E143F0409
:1038F000400651064CF7D39488E08D1508F470CF3C
:1039000071CFE1E0F0E0EC0FFD1FED0DF11D8081C6
:10391000813009F085C08DE09AE063E140E0EAD2B1
:103920008DE09AE06D2D4AE050E00E94222B8DE060
:103930009AE063E143E0DED200E010E094E0D916C3
:1039400019F19D1548F0E2E0DE16B1F0ED15C0F07A
:10395000F1E0DF16B1F50CC026E0D216E9F0D21680
:10396000B8F037E0D316E1F088E0D81651F51CC066
:1039700084EE9AE0B8011DC0B80160507E4F17C0B8
:10398000B80160507C4F13C0B80160507A4F0FC02F
:10399000B8016050784F0BC0B8016050764F07C037
:1039A000B8016050744F03C0B8016050724F84EE8C
:1039B0009AE013D7E091E70AF091E80AE00FF11FCF
:1039C00080830F5F1F4F92E00030190709F0B6CFD8
:1039D000809144050E942E2A0197D9F4EE24FF24F9
:1039E000870111C061E070E080E090E00E947227E2
:1039F000809144050E942E2A892B59F00894E11CDD
:103A0000F11C011D111D2E143F044006510654F7F0
:103A100007C064EF71E080E090E00E94722778CDEB
:103A2000DA9409F06ECF28E0D22E6BCF1F9311E00D
:103A30008DE09AE087D28DE09AE060E040E05AD2D3
:103A40008DE09AE06AE275E00E94832B8DE09AE0B7
:103A500062E042E04FD28DE09AE060E573E00E94C0
:103A6000832B8DE09AE069E042E044D28DE09AE059
:103A700069ED72E00E94832B8DE09AE06FE042E0F6
:103A800039D28DE09AE06EED72E00E94832B1093A4
:103A9000B70982E08093B809E9EBF9E0DF01989675
:103AA0001082148A1C9254961C9254973196119647
:103AB00089E0ED3CF807A1F7158B148F12A380E085
:103AC00060E070E00E9410088091B709883059F4D6
:103AD0008091B809823039F40E94490B019709F4AA
:103AE000A7CF0E946B108091B7098E3059F4809156
:103AF000B809823039F40E94210C019709F498CF5B
:103B00000E946B108091B709813031F48091B8091F
:103B1000823011F40E946B101F91089582E061E0E1
:103B20000E94FC290E94070C0E94F60B0E942A07A3
:103B30007DCF80913C0562E00E94492980913E053D
:103B400062E00E9449298091400562E00E94492973
:103B50008091420562E00E9449298BE062E00E9468
:103B600049298091460561E00E94492980914805D4
:103B700061E00E94492980914A0561E00E9449293B
:103B800080914C0561E00E94492980914E0562E0D8
:103B90000E9449298091500562E00E944929809144
:103BA000520562E00E9449298091540562E00E941A
:103BB00049298091460561E00E94FC2980914805D1
:103BC00061E00E94FC2980914A0561E00E94FC2985
:103BD00080914C0561E00E94FC2980915D0561E0C7
:103BE0000E94492980915F0561E00E9449298091E6
:103BF000670561E00E9449298091650561E00E94A6
:103C000049298091630561E00E94492980916105FD
:103C100061E00E9449298091690561E00E9449297B
:103C20008DE09AE064E144E020E092D181E090E010
:103C30009093FD0A8093FC0A80E092E09093F90A49
:103C40008093F80A85EE9AE060E02BD785E061E08A
:103C50000E94492985E060E00E94FC2986E061E03D
:103C60000E94492986E060E00E94FC2987E061E02B
:103C70000E94492987E060E00E94FC2986E161E01A
:103C80000E94492986E160E00E94FC2987E161E009
:103C90000E94492987E160E00E94FC2988E161E0F7
:103CA0000E94492988E160E00E94FC2989E161E0E5
:103CB0000E94492989E160E00E94FC298AE161E0D3
:103CC0000E9449298AE160E00E94FC298BE161E0C1
:103CD0000E9449298BE160E00E94FC298CE161E0AF
:103CE0000E9449298CE160E00E94FC298DE161E09D
:103CF0000E9449298DE160E00E94FC298FE161E08A
:103D00000E9449298FE160E00E94FC2981E261E084
:103D10000E94492981E260E00E94FC2983E261E07F
:103D20000E94492983E260E00E94FC2985E261E06B
:103D30000E94492985E260E00E94FC2987E261E057
:103D40000E94492987E260E00E94FC2989E261E043
:103D50000E94492989E260E00E94FC298EE261E02C
:103D60000E9449298EE260E00E94FC2980E361E024
:103D70000E94492980E360E00E94FC2982E361E01F
:103D80000E94492982E360E00E94FC2984E361E00B
:103D90000E94492984E360E00E94FC2986E361E0F7
:103DA0000E94492986E360E00E94FC2987E361E0E4
:103DB0000E94492987E360E00E94FC2988E361E0D2
:103DC0000E94492988E360E00E94FC2989E361E0C0
:103DD0000E94492989E360E00E94FC298AE361E0AE
:103DE0000E9449298AE360E00E94FC298BE361E09C
:103DF0000E9449298BE360E00E94FC298CE361E08A
:103E00000E9449298CE360E00E94FC298DE361E077
:103E10000E9449298DE360E00E94FC298EE361E065
:103E20000E9449298EE360E00E94FC298FE361E053
:103E30000E9449298FE360E00E94FC2980E461E050
:103E40000E94492980E460E00E94FC2981E461E04D
:103E50000E94492981E460E00E94FC2982E461E03B
:103E60000E94492982E460E00E94FC2983E461E029
:103E70000E94492983E460E00E94FC2984E461E017
:103E80000E94492984E460E00C94FC290895089577
:103E9000FC01138212828CE795E091838083089560
:103EA000FC01A081B18118962D913C9119976FEF7B
:103EB000F90119950895DC01ED91FC910284F385D7
:103EC000E02D40E019950895FC016581862F816001
:103ED00085836960CF01EFCFFC0165816E7F6583CB
:103EE0006860E9CFFC016581862F846085836C6002
:103EF000CF01E1CFDC0117969C911797491710F07D
:103F0000492F415018968C911897803139F494308C
:103F100029F4E42FF0E0E857FA4F04C0E42FF0E072
:103F2000E457FA4F8081680F6068CD01C4CFDC018F
:103F3000ED91FC910284F385E02D41E0199581E03B
:103F400090E0089561E0B7DF80ED97E00C94CB2717
:103F5000CF93DF93EC01423018F08C8188608C8322
:103F60004F836887222329F0413019F48C818460C3
:103F70008C8364E670E080E090E0B4D76C8164FDEF
:103F80002EC0E881F9810284F385E02DCE0163E043
:103F900042E0199584E991E1FED7E881F981028434
:103FA000F385E02DCE0163E042E0199584E991E1CB
:103FB000F2D7E881F9810284F385E02DCE0163E038
:103FC00042E0199586E990E0E6D7E881F98102841C
:103FD000F385E02DCE0162E042E0199511C06062E8
:103FE000CE0169DF84E991E1D6D76C816062CE01B0
:103FF00062DF86E990E0CFD76C816062CE015BDF43
:104000006C816062CE0157DF84E08D83CE016ADF70
:10401000CE0198DF82E08E83CE0166E04CDFCE01D8
:104020003FDFDF91CF9108950F931F938C01FC0127
:10403000858561E00E94FC29F801858560E00E9489
:10404000FC291F910F910895BF92CF92DF92EF92BA
:10405000FF920F931F93CF93DF93D82EC92EB42EC8
:10406000282F392FC9018C01C0E0D0E0E62EFF24B3
:104070000DC0B7010C2E02C0759567950A94E2F742
:104080006170F80185850E94FC2921960F5F1F4F02
:10409000CB1578F38D2D9C2DC7DFDF91CF911F912C
:1040A0000F91FF90EF90DF90CF90BF9008950F9306
:1040B0001F93CF93DF93EC01162F042F60E0413064
:1040C00009F461E08B850E94FC298C858F3F19F0F3
:1040D00060E00E94FC29023089F08C8184FF04C0DA
:1040E000CE01612F48E00DC0612F70E084E075952E
:1040F00067958A95E1F7CE0144E0A6DFCE01612FF6
:1041000044E0A2DFDF91CF911F910F9108956F924C
:104110007F928F92AF92CF92EF920F931F93DF9384
:10412000CF93CDB7DEB73C01162F8E2DF301438719
:1041300024870587E686C786A08A818A9E85928B1A
:104140009F85938B9889948B9989958B61E00E94C8
:104150004929F301878561E00E944929F30180899B
:1041600061E00E944929F301818961E00E944929A7
:104170001123A1F4F301828961E00E944929F3012E
:10418000838961E00E944929F301848961E00E94EA
:104190004929F301858961E00E944929F30183855A
:1041A00061E00E944929F30184858F3F19F061E0A5
:1041B0000E944929F301858561E00E944929112364
:1041C00019F0F301148203C080E1F3018483F30149
:1041D000838560E00E94FC29F301858560E00E94F0
:1041E000FC29F30184858F3F19F060E00E94FC29CF
:1041F0008FEFF301868B12861186CF91DF911F918D
:104200000F91EF90CF90AF908F907F906F90089527
:10421000DF92EF92FF920F931F938C01D62E7A01BB
:10422000862F61E00E944929D8015696DC92569764
:104230001A96FC92EE921997ED91FC910084F1850B
:10424000E02DC80160E019951F910F91FF90EF904C
:10425000DF900895DC01362F56962C9156972F3F0C
:1042600049F1E22FF0E0E254FE4FE491EE2379F0C1
:1042700019968D919C911A97892B19F4822F70E0D1
:1042800005C06FEF70E0631B7109822F24C7199678
:104290008D919C911A97662319F0892B39F402C0ED
:1042A000019721F4822F61E00C94FC29822F60E0B9
:1042B0000C94FC2908956F927F928F92AF92BF92D7
:1042C000CF92DF92EF92FF920F931F933C01162F34
:1042D000F42ED22EB02EAE2C8C2CDADD84E995E0B3
:1042E000D3018D939C9300D00F92EDB7FEB731961A
:1042F000ADB7BEB711961C92118212821382C30110
:1043000061E0412F2FEF0F2DED2CCB2C00DF0F9014
:104310000F900F900F901F910F91FF90EF90DF90F3
:10432000CF90BF90AF908F907F906F900895209125
:10433000460A30E08091450A281B3109C9010895D9
:104340004091450A8091460A481718F02FEF3FEF39
:104350000AC0E42FF0E0EB5DF54F8081282F30E0BC
:104360004F5F4093450AC9010895E091450A809145
:10437000460AE81718F0EFEFFFEF06C0F0E0EB5D3C
:10438000F54F8081E82FF0E0CF0108950895109255
:104390006D0A10926C0A88EE93E0A0E0B0E0809382
:1043A0006E0A90936F0AA093700AB093710A84EA20
:1043B00095E090936B0A80936A0A0895CF92DF92FA
:1043C000EF92FF920F931F93CF93DF937C016B01CA
:1043D0008A018091690A8823A1F0C0E0D0E00DC075
:1043E000D701ED91FC91D601AC0FBD1F0190F0817A
:1043F000E02DC7016C9119952196C017D10780F364
:1044000003C0CB01642F39D0C801DF91CF911F9138
:104410000F91FF90EF90DF90CF900895DF93CF93AF
:104420000F92CDB7DEB7FC0169838091690A8823BA
:10443000C9F08091680A803238F081E090E093837F
:10444000828320E030E014C08091670AE82FF0E01A
:10445000E95BF54F998190838F5F8093670A809322
:10446000680A04C0CE01019661E007D021E030E087
:10447000C9010F90CF91DF910895482F613210F05C
:1044800081E008958091760A843011F082E00895E9
:104490006093C10AA0EABAE0842F9C01F90102C02E
:1044A00081918D938E2F841B8617D0F380E0089521
:1044B0001F920F920FB60F920BB60F9211242F93EB
:1044C0003F934F935F936F937F938F939F93AF939C
:1044D000BF93EF93FF938091B90090E0887F907035
:1044E0008036910509F4F2C081369105CCF5883209
:1044F000910509F47BC089329105B4F480319105AE
:1045000009F46FC0813191053CF4009709F447C16B
:10451000089709F04FC165C08831910509F466C05C
:10452000809709F047C182C08034910509F4A4C086
:104530008134910544F48033910509F482C0C89711
:1045400009F038C189C08035910509F489C08835E2
:10455000910509F496C08834910509F02BC1AEC0CD
:104560008839910509F413C189399105ECF488372C
:10457000910509F4ABC0893791054CF48836910553
:1045800009F4A4C08037910509F014C19FC0883890
:10459000910509F4FCC08039910509F49DC080386B
:1045A000910509F007C198C0803B910509F4C6C088
:1045B000813B91054CF4803A910509F49FC0883AFB
:1045C000910509F0F7C0BAC0803C910509F4E3C039
:1045D000883C910509F4DFC0883B910509F0EAC0E9
:1045E000C2C08091770A8093BB00CFC090919E0A91
:1045F00080919F0A981768F490919E0AE92FF0E045
:10460000E258F54F80818093BB009F5F90939E0A94
:10461000BCC08091780A882309F44BC085ED809353
:10462000BC008091BC0084FDFCCFC2C080E28093BE
:10463000E30A85ED8093BC008091BC0084FDFCCF33
:10464000B7C080E38093E30A85ED8093BC0080913E
:10465000BC0084FDFCCFACC088E38093E30A9BC020
:1046600080919E0A9091BB00E82FF0E0E258F54F50
:1046700090838F5F80939E0A90919E0A80919F0AFB
:1046800082C080919E0A9091BB00E82FF0E0E25832
:10469000F54F90838F5F80939E0A8091780A8823DC
:1046A00041F085ED8093BC008091BC0084FDFCCF7F
:1046B0007FC081E08093790A84EA6EC085ED8093A3
:1046C000BC008091BC0084FDFCCF72C083E080936D
:1046D000760A1092E20A59C08091E20A803208F00C
:1046E00056C08091E20A9091BB00E82FF0E0EE53B3
:1046F000F54F90838F5F8093E20A47C08091E20A72
:10470000803230F4E091E20AF0E0EE53F54F10828F
:1047100085ED8093BC008091BC0084FDFCCF10929D
:10472000760A6091E20AE0917C0AF0917D0A82ECBF
:104730009AE070E019951092E20A2DC084E080930F
:10474000760A1092C00A1092C10AE0917A0AF0919A
:104750007B0A19958091C10A882329F481E080930E
:10476000C10A1092A00A9091C00AE92FF0E0E05629
:10477000F54F80818093BB009F5F9093C00A90911A
:10478000C00A8091C10A981710F485EC01C085E831
:104790008093BC000FC085EC8093BC0009C01092D0
:1047A000E30A85ED8093BC008091BC0084FDFCCFC2
:1047B0001092760AFF91EF91BF91AF919F918F91E7
:1047C0007F916F915F914F913F912F910F900BBE11
:1047D0000F900FBE0F901F901895F999FECF72BDE4
:1047E00061BDF89A80B50895F999FECF1FBA72BDE0
:1047F00061BD40BD0FB6F894FA9AF99A0FBE0895BC
:10480000FC018385882331F48091C10087728093F5
:10481000C1000895813031F48091C900877280937E
:10482000C9000895823031F48091D100877280935D
:10483000D1000895833029F48091310187728093EB
:10484000310108951F920F920FB60F920BB60F927F
:1048500011242F933F934F935F936F937F938F9385
:104860009F93AF93BF93EF93FF938091C00080938A
:10487000ED0A3091C6003093EE0A2091E90A2093A8
:10488000EF0A84FF10C08091C0008F7E8093C0002B
:104890008091FA0A9091FB0A9093F30A8093F20AAE
:1048A00081E08093E90A213091F4332369F482E0B6
:1048B0008093E90A8091E50A9091E60A0196909327
:1048C000EB0A8093EA0A4BC01092E90A48C02230F2
:1048D000A1F48091F20A9091F30A01979093F30A60
:1048E0008093F20A892BD9F583E08093E90AE0915D
:1048F000E50AF091E60A308332C0233081F5E09179
:10490000EA0AF091EB0AF093080BE093070B30836F
:104910004091070B5091080B4F5F5F4F5093080B6E
:104920004093070B8091E50A9091E60A2091F60AE0
:104930003091F70A820F931F4817590760F01092C1
:10494000E90AE0910B0BF0910C0B309741F080914C
:10495000F00A199504C05093EB0A4093EA0AFF91BC
:10496000EF91BF91AF919F918F917F916F915F91E7
:104970004F913F912F910F900BBE0F900FBE0F9054
:104980001F9018951F920F920FB60F920BB60F92B1
:1049900011242F933F934F935F936F937F938F9344
:1049A0009F93AF93BF93EF93FF938091F10A80930E
:1049B000060B882361F41092C5008091030B80934D
:1049C000C4001092C60081E08093F10A40C081309B
:1049D00081F41092C5008091020B8093C400109264
:1049E000C60082E08093F10A1092F50A1092F40A50
:1049F0002EC08091F40A9091F50A9093050B809354
:104A0000040BE091E70AF091E80AE80FF91F208112
:104A10002093C6009C012F5F3F4F3093050B2093DE
:104A2000040B8091F80A9091F90A2817390759F474
:104A3000E091090BF0910A0B309711F080E0199585
:104A40001092F10A04C03093F50A2093F40AFF9102
:104A5000EF91BF91AF919F918F917F916F915F91F6
:104A60004F913F912F910F900BBE0F900FBE0F9063
:104A70001F90189521E030E03093FB0A2093FA0A4A
:104A800088E090E09093F70A8093F60A3093FD0A4D
:104A90002093FC0A9093F90A8093F80A1092F00A86
:104AA00008951F93CF93DF93EC01162FF894A8DE9F
:104AB0001C8F112321F487E08D8F84E10BC011300E
:104AC00021F483E08D8F8AE005C0123021F481E06B
:104AD0008D8F85E08E8F8B8D8F3F29F061E0D9D34C
:104AE0008B8D61E089D48B858823D1F481E061E0EE
:104AF000D0D31092C5008D8D8093C4008091C000EA
:104B000082608093C0008091C2008E608093C2005A
:104B10008091C10088648093C1001092C60053C088
:104B20008130D1F482E161E0B4D31092CD008D8D5B
:104B30008093CC008091C80082608093C8008091EF
:104B4000CA008E608093CA008091C90088648093F7
:104B5000C9001092CE0037C08230D1F480E161E00C
:104B600098D31092D5008D8D8093D4008091D00081
:104B700082608093D0008091D2008E608093D200BA
:104B80008091D10088648093D1001092D6001BC020
:104B90008330C9F48EE061E07CD3109235018D8DB5
:104BA0008093340180913001826080933001809144
:104BB00032018E608093320180913101886480934C
:104BC00031011092360181E08C878B899C890DD050
:104BD0008A839B834B895C8960E070E00E9433018B
:104BE0007894DF91CF911F9108950F931F93CF93E6
:104BF000DF93BC018230910510F462E070E0E09137
:104C0000180BF091190B40E050E0A0E0B0E024C098
:104C10008081918186179707D0F08617970771F4E6
:104C200082819381109729F013969C938E9312970B
:104C30002CC09093190B8093180B27C04115510578
:104C400019F08417950718F48D01AC01EF01DF010D
:104C5000828193819C01F9013097D1F6411551056C
:104C6000F9F0CA01861B970B8430910580F48A8184
:104C70009B810115110521F0F8019383828304C003
:104C80009093190B8093180BFE01329645C0FE01DC
:104C9000E80FF91F619371930297998388833CC051
:104CA0008091160B9091170B892B41F4809173051D
:104CB000909174059093170B8093160B4091750596
:104CC000509176054115510541F44DB75EB780917D
:104CD000710590917205481B590B2091160B30916C
:104CE000170B24173507B0F4CA01821B930B8617E4
:104CF000970780F0AB014E5F5F4F8417950750F028
:104D0000420F531F5093170B4093160BF9016193F9
:104D1000719302C0E0E0F0E0CF01DF91CF911F91ED
:104D20000F910895CF93DF939C01009709F48FC0F2
:104D3000EC0122971B821A826091180B7091190B5B
:104D40006115710581F488819981820F931F2091EB
:104D5000160B3091170B2817390739F5D093170B1D
:104D6000C093160B74C0DB0140E050E0AC17BD07E8
:104D700008F1BB83AA83FE0121913191E20FF31F59
:104D8000AE17BF0779F48D919C911197280F391FA9
:104D90002E5F3F4F3983288312968D919C911397F4
:104DA0009B838A834115510571F4D093190BC093ED
:104DB000180B4DC012968D919C911397AD010097E1
:104DC00011F0DC01D3CFDA011396DC93CE93129766
:104DD000FA0121913191E20FF31FCE17DF0769F439
:104DE00088819981280F391F2E5F3F4FFA01318347
:104DF00020838A819B8193838283E0E0F0E0DB0162
:104E000012968D919C911397009719F0BC01FD01AA
:104E1000F6CFAB014E5F5F4FDB018D919C91840F0C
:104E2000951F2091160B3091170B2817390779F42D
:104E3000309729F41092190B1092180B02C01382AC
:104E40001282425050405093170B4093160BDF9143
:104E5000CF9108951F920F920FB60F9211242F93A6
:104E60003F938F939F93AF93BF938091110B90913A
:104E7000120BA091130BB091140B3091150B0196EE
:104E8000A11DB11D232F2D5F2D3720F02D57019629
:104E9000A11DB11D2093150B8093110B9093120B44
:104EA000A093130BB093140B80910D0B90910E0BEC
:104EB000A0910F0BB091100B0196A11DB11D809315
:104EC0000D0B90930E0BA0930F0BB093100BBF9193
:104ED000AF919F918F913F912F910F900FBE0F90A7
:104EE0001F9018959B01AC017FB7F89480910D0B32
:104EF00090910E0BA0910F0BB091100B66B5A89B73
:104F000005C06F3F19F00196A11DB11D7FBFBA2FDB
:104F1000A92F982F8827860F911DA11DB11D62E032
:104F2000880F991FAA1FBB1F6A95D1F7BC012DC01E
:104F3000FFB7F89480910D0B90910E0BA0910F0B81
:104F4000B091100BE6B5A89B05C0EF3F19F0019694
:104F5000A11DB11DFFBFBA2FA92F982F88278E0F33
:104F6000911DA11DB11DE2E0880F991FAA1FBB1F53
:104F7000EA95D1F7861B970B885E9340C8F22150C3
:104F800030404040504068517C4F2115310541056B
:104F9000510571F60895019739F0880F991F880F10
:104FA000991F02970197F1F70895789484B582606C
:104FB00084BD84B5816084BD85B5826085BD85B5BD
:104FC000816085BDEEE6F0E0808181608083E1E86C
:104FD000F0E01082808182608083808181608083A4
:104FE000E0E8F0E0808181608083E1EBF0E08081A7
:104FF00084608083E0EBF0E0808181608083E1E980
:10500000F0E0808182608083808181608083E0E93C
:10501000F0E0808181608083E1EAF0E0808182605D
:105020008083808181608083E0EAF0E0808181601C
:105030008083E1E2F1E08081826080838081816011
:105040008083E0E2F1E0808181608083EAE7F0E044
:1050500080818460808380818260808380818160A0
:1050600080838081806880831092C1000895382FEA
:10507000863308F0365320917B00832F86958695E2
:10508000869590E08170907043E0880F991F4A9553
:10509000E1F7277F282B20937B00377080917705DD
:1050A0008295880F880F807C832B80937C00809171
:1050B0007A00806480937A0080917A0086FDFCCF2C
:1050C0002091780040917900942F80E030E0282BE7
:1050D000392BC90108951F93CF93DF93182FEB014C
:1050E00061E0D7D0209709F4CAC0CF3FD10509F4B9
:1050F000C9C0E12FF0E0E254FE4F8491893009F4F9
:1051000066C08A30B0F48430F1F1853040F48230EA
:1051100059F1833070F5813009F0AEC020C087307E
:1051200009F443C0883008F048C0863009F0A4C0B4
:1051300034C08D3009F478C08E3038F48B3009F4E7
:105140005AC08C3008F066C04CC0803109F480C071
:10515000813109F487C08F3009F08EC06FC084B5EB
:10516000806884BDC7BD91C084B5806284BDC8BD60
:105170008CC080918000806880938000D0938900EB
:10518000C093880082C080918000806280938000FC
:10519000D0938B00C0938A0078C08091B000806863
:1051A0008093B000C093B30070C08091B000806263
:1051B0008093B000C093B40068C080919000806874
:1051C00080939000D0939900C09398005EC0809126
:1051D0009000806280939000D0939B00C0939A00CF
:1051E00054C080919000886080939000D0939D007F
:1051F000C0939C004AC08091A00080688093A0006A
:105200008091A0008F7B8093A000D093A900C093D1
:10521000A8003BC08091A00080628093A000D09342
:10522000AB00C093AA0031C08091A0008860809339
:10523000A000D093AD00C093AC0027C080912001A6
:10524000806880932001D0932901C09328011DC05C
:1052500080912001806280932001D0932B01C09324
:105260002A0113C080912001886080932001D0938F
:105270002D01C0932C0109C0C038D1051CF4812F29
:1052800060E002C0812F61E0B7D0DF91CF911F9124
:105290000895CF93DF93482F50E0CA0188589E4F5E
:1052A000FC0134914E5C5E4FFA018491882369F1D0
:1052B00090E0880F991FFC01EC51FF4FA591B4912C
:1052C000FC01E250FF4FC591D491662351F42FB7F2
:1052D000F8948C91932F909589238C9388818923BE
:1052E0000BC0623061F42FB7F8948C91932F909596
:1052F00089238C938881832B88832FBF06C09FB717
:10530000F8948C91832B8C939FBFDF91CF9108955C
:10531000893009F449C08A30A0F4843051F18530D5
:1053200040F4823079F1833000F5813009F063C0B8
:1053300026C0873079F1883098F5863009F05BC057
:1053400025C08D3009F442C08E3028F48B30B1F185
:105350008C30C0F52DC0803109F442C0813109F490
:1053600045C08F3009F047C037C0809180008F77EB
:1053700003C0809180008F7D80938000089584B564
:105380008F7702C084B58F7D84BD08958091B00071
:105390008F7703C08091B0008F7D8093B000089517
:1053A000809190008F7707C0809190008F7D03C01F
:1053B00080919000877F8093900008958091A00055
:1053C0008F7707C08091A0008F7D03C08091A000DF
:1053D000877F8093A0000895809120018F7703C07C
:1053E000809120018F7D809320010895809120017C
:1053F000877F809320010895FF920F931F93F62ECD
:10540000482F50E0CA0182549E4FFC012491CA01EA
:1054100088589E4FFC0114914E5C5E4FFA01049136
:105420000023C1F0222311F0822F72DFE02FF0E081
:10543000EE0FFF1FE250FF4FA591B4919FB7F89474
:10544000FF2021F48C911095812302C08C91812B37
:105450008C939FBF1F910F91FF9008950F931F93FF
:10546000482F50E0CA0182549E4FFC012491CA018A
:1054700088589E4FFC0104914E5C5E4FFA011491D6
:10548000112319F420E030E014C0222311F0822F00
:105490003FDF812F90E0880F991F885E9E4FFC01AF
:1054A000A591B4918C9120E030E0802311F021E0AF
:1054B00030E0C9011F910F9108950895CF93DF93B4
:1054C00074DDFBDF0E94991DC0E0D0E00E948E1DBC
:1054D0002097E1F30E940000F9CF0895CF92DF9268
:1054E000EF92FF920F931F93CF93DF937C016B0199
:1054F0008A01C0E0D0E00FC0D6016D916D01D701E7
:10550000ED91FC910190F081E02DC7011995C80F34
:10551000D91F015010400115110571F7CE01DF911F
:10552000CF911F910F91FF90EF90DF90CF90089552
:10553000CF93DF93EC016115710519F420E030E0A1
:105540000FC0DB010D900020E9F71197A61BB70BE8
:10555000E881F9810280F381E02DAD0119959C016C
:10556000C901DF91CF9108954F925F927F928F9200
:105570009F92AF92BF92CF92DF92EF92FF920F93E2
:105580001F93DF93CF93CDB7DEB7A1970FB6F894F3
:10559000DEBF0FBECDBF2C01742ECB01223008F42C
:1055A0002AE019A231E2C32ED12CCC0EDD1E822EB0
:1055B0009924AA24BB24672D752FA5019401D7D067
:1055C00079018A01C801B701A50194019ED0472D38
:1055D000461B0894C108D1084A3014F4405D01C04C
:1055E000495CF6014083E114F1040105110521F045
:1055F0007E2C5F2DC801DFCFC201B60199DFA196D5
:105600000FB6F894DEBF0FBECDBFCF91DF911F91D3
:105610000F91FF90EF90DF90CF90BF90AF909F9051
:105620008F907F905F904F900895DC012115310598
:1056300041F4ED91FC910190F081E02D642F1995DA
:10564000089592CFEF92FF920F931F939A01E62E47
:10565000FF2400E010E0B801A701E7DF1F910F91E0
:10566000FF90EF900895CF92DF92EF92FF920F9309
:105670001F93CF93DF93EC016A017B012115310564
:1056800041F4E881F9810190F081E02D642F1995B2
:105690001DC02A303105C9F477FF16C0E881F981B1
:1056A0000190F081E02D6DE219958C01442755277A
:1056B000BA014C195D096E097F09CE012AE054DF59
:1056C0009801280F391F03C02AE04EDF9C01C90151
:1056D000DF91CF911F910F91FF90EF90DF90CF90CE
:1056E0000895EF92FF920F931F937B019A01002779
:1056F000F7FC0095102FB801A701B5DF1F910F919E
:10570000FF90EF90089514CF0895629FD001739F8A
:10571000F001829FE00DF11D649FE00DF11D929F4D
:10572000F00D839FF00D749FF00D659FF00D99278C
:10573000729FB00DE11DF91F639FB00DE11DF91FB0
:10574000BD01CF011124089597FB092E07260AD029
:1057500077FD04D02ED006D000201AF47095619504
:105760007F4F0895F6F7909581959F4F0895A1E298
:105770001A2EAA1BBB1BFD010DC0AA1FBB1FEE1FCB
:10578000FF1FA217B307E407F50720F0A21BB30B16
:10579000E40BF50B661F771F881F991F1A9469F792
:1057A00060957095809590959B01AC01BD01CF01EE
:1057B0000895AA1BBB1B51E107C0AA1FBB1FA61758
:1057C000B70710F0A61BB70B881F991F5A95A9F7AA
:1057D00080959095BC01CD010895EE0FFF1F0590B7
:0A57E000F491E02D1994F894FFCF26
:1057EA00303030006100202020005F5F5F004D658F
:1057FA006D6F727920456D7074696564210042612C
:10580A006E6B3A2052414D0041726475696E6F2089
:10581A00444D582D35313200546573746572202613
:10582A0020436F6E74726F6C6C6572004669726D9C
:10583A002076002E00486172642076004F70656EF3
:10584A002048617264776172652100687474703AE5
:10585A002F2F676F6F2E676C2F356E714A4B74004E
:10586A003E002B002D2D2D002D0020004D656D6F63
:10587A0072792042616E6B3A0042616E6B31202070
:10588A0042616E6B34202042616E6B370042616E5A
:10589A006B32202042616E6B35202042616E6B387C
:1058AA000042616E6B33202042616E6B36202045C8
:1058BA007869740053617665004C6F616400436CCB
:1058CA00656172004D656D6F7279204C6F61646518
:1058DA0064210042616E6B3A20004D656D6F7279EA
:1058EA0020436C65616E696E672E2E2E004D656DC4
:1058FA006F727920436C65616E656421004D656D38
:10590A006F727920536176696E672E2E2E004D656F
:10591A006D6F727920536176656421004D656D6FF4
:10592A007279204F7074696F6E733A20202062007A
:10593A00456D70747900426C61636B0043616E63FC
:10594A00656C004C434420436F6E6669673A0041B8
:10595A00626F7574004261636B204C696768743AC0
:10596A0000436F6E74726173743A004374726C0010
:10597A00436F6E74726F6C204F7074696F6E733AF6
:10598A0020206200556E6974617279004D617472EB
:10599A00697800436861736572004D756C7469704B
:1059AA006C7900436F6E6669670053656375656E4F
:1059BA0063657200632D2D2D204D62202043747281
:1059CA00202020202D00556E697461727920436F62
:1059DA006E74726F6C3A202062004D656D6F727939
:1059EA00004368616E6E656C3A2030303100566152
:1059FA006C75653A00633030323D7600633030337F
:105A0A003D76004368617365724348202D2D2D0051
:105A1A0044656C6179202020207831303D6D530037
:105A2A004669727374204348202020202020204396
:105A3A0074726C0046696E616C20434820202020F5
:105A4A0020202053746172740053746F70200053C5
:105A5A00746172740062202056616C756500466933
:105A6A007273742043482020202020204374726CD3
:105A7A00004D756C7469706C792020202020204DAF
:105A8A00656D6F7279005175616E74697479202041
:105A9A00202020204170706C79004572726F72214B
:105AAA002000202020202020200043616C632E2E1D
:105ABA00004F6B21004170706C792000536563754B
:105ACA00656E6365722042616E6B733A20206200D4
